{
	"contracts/CC/CCToken.sol": {
		"CSYDToken": {
			"abi": [
				{
					"inputs": [
						{
							"components": [
								{
									"internalType": "address",
									"name": "memberAddress",
									"type": "address"
								},
								{
									"internalType": "uint256",
									"name": "investmentAmount",
									"type": "uint256"
								}
							],
							"internalType": "struct CSYDToken.TeamMember[]",
							"name": "_teamMembers",
							"type": "tuple[]"
						},
						{
							"internalType": "address",
							"name": "_uniswapPool",
							"type": "address"
						}
					],
					"stateMutability": "nonpayable",
					"type": "constructor"
				},
				{
					"inputs": [
						{
							"internalType": "address",
							"name": "spender",
							"type": "address"
						},
						{
							"internalType": "uint256",
							"name": "allowance",
							"type": "uint256"
						},
						{
							"internalType": "uint256",
							"name": "needed",
							"type": "uint256"
						}
					],
					"name": "ERC20InsufficientAllowance",
					"type": "error"
				},
				{
					"inputs": [
						{
							"internalType": "address",
							"name": "sender",
							"type": "address"
						},
						{
							"internalType": "uint256",
							"name": "balance",
							"type": "uint256"
						},
						{
							"internalType": "uint256",
							"name": "needed",
							"type": "uint256"
						}
					],
					"name": "ERC20InsufficientBalance",
					"type": "error"
				},
				{
					"inputs": [
						{
							"internalType": "address",
							"name": "approver",
							"type": "address"
						}
					],
					"name": "ERC20InvalidApprover",
					"type": "error"
				},
				{
					"inputs": [
						{
							"internalType": "address",
							"name": "receiver",
							"type": "address"
						}
					],
					"name": "ERC20InvalidReceiver",
					"type": "error"
				},
				{
					"inputs": [
						{
							"internalType": "address",
							"name": "sender",
							"type": "address"
						}
					],
					"name": "ERC20InvalidSender",
					"type": "error"
				},
				{
					"inputs": [
						{
							"internalType": "address",
							"name": "spender",
							"type": "address"
						}
					],
					"name": "ERC20InvalidSpender",
					"type": "error"
				},
				{
					"inputs": [
						{
							"internalType": "address",
							"name": "owner",
							"type": "address"
						}
					],
					"name": "OwnableInvalidOwner",
					"type": "error"
				},
				{
					"inputs": [
						{
							"internalType": "address",
							"name": "account",
							"type": "address"
						}
					],
					"name": "OwnableUnauthorizedAccount",
					"type": "error"
				},
				{
					"anonymous": false,
					"inputs": [
						{
							"indexed": true,
							"internalType": "address",
							"name": "owner",
							"type": "address"
						},
						{
							"indexed": true,
							"internalType": "address",
							"name": "spender",
							"type": "address"
						},
						{
							"indexed": false,
							"internalType": "uint256",
							"name": "value",
							"type": "uint256"
						}
					],
					"name": "Approval",
					"type": "event"
				},
				{
					"anonymous": false,
					"inputs": [
						{
							"indexed": true,
							"internalType": "address",
							"name": "previousOwner",
							"type": "address"
						},
						{
							"indexed": true,
							"internalType": "address",
							"name": "newOwner",
							"type": "address"
						}
					],
					"name": "OwnershipTransferred",
					"type": "event"
				},
				{
					"anonymous": false,
					"inputs": [
						{
							"indexed": true,
							"internalType": "address",
							"name": "from",
							"type": "address"
						},
						{
							"indexed": true,
							"internalType": "address",
							"name": "to",
							"type": "address"
						},
						{
							"indexed": false,
							"internalType": "uint256",
							"name": "value",
							"type": "uint256"
						}
					],
					"name": "Transfer",
					"type": "event"
				},
				{
					"inputs": [],
					"name": "TEAM_LOCK_PERIOD",
					"outputs": [
						{
							"internalType": "uint256",
							"name": "",
							"type": "uint256"
						}
					],
					"stateMutability": "view",
					"type": "function"
				},
				{
					"inputs": [],
					"name": "TOTAL_SUPPLY",
					"outputs": [
						{
							"internalType": "uint256",
							"name": "",
							"type": "uint256"
						}
					],
					"stateMutability": "view",
					"type": "function"
				},
				{
					"inputs": [
						{
							"internalType": "address",
							"name": "owner",
							"type": "address"
						},
						{
							"internalType": "address",
							"name": "spender",
							"type": "address"
						}
					],
					"name": "allowance",
					"outputs": [
						{
							"internalType": "uint256",
							"name": "",
							"type": "uint256"
						}
					],
					"stateMutability": "view",
					"type": "function"
				},
				{
					"inputs": [
						{
							"internalType": "address",
							"name": "spender",
							"type": "address"
						},
						{
							"internalType": "uint256",
							"name": "value",
							"type": "uint256"
						}
					],
					"name": "approve",
					"outputs": [
						{
							"internalType": "bool",
							"name": "",
							"type": "bool"
						}
					],
					"stateMutability": "nonpayable",
					"type": "function"
				},
				{
					"inputs": [
						{
							"internalType": "address",
							"name": "account",
							"type": "address"
						}
					],
					"name": "balanceOf",
					"outputs": [
						{
							"internalType": "uint256",
							"name": "",
							"type": "uint256"
						}
					],
					"stateMutability": "view",
					"type": "function"
				},
				{
					"inputs": [
						{
							"internalType": "uint256",
							"name": "amount",
							"type": "uint256"
						}
					],
					"name": "buyBack",
					"outputs": [],
					"stateMutability": "nonpayable",
					"type": "function"
				},
				{
					"inputs": [],
					"name": "decimals",
					"outputs": [
						{
							"internalType": "uint8",
							"name": "",
							"type": "uint8"
						}
					],
					"stateMutability": "view",
					"type": "function"
				},
				{
					"inputs": [],
					"name": "deploymentTime",
					"outputs": [
						{
							"internalType": "uint256",
							"name": "",
							"type": "uint256"
						}
					],
					"stateMutability": "view",
					"type": "function"
				},
				{
					"inputs": [],
					"name": "getCurrentPrice",
					"outputs": [
						{
							"internalType": "uint256",
							"name": "price",
							"type": "uint256"
						}
					],
					"stateMutability": "view",
					"type": "function"
				},
				{
					"inputs": [
						{
							"internalType": "uint256",
							"name": "index",
							"type": "uint256"
						}
					],
					"name": "getTeamMember",
					"outputs": [
						{
							"internalType": "address",
							"name": "",
							"type": "address"
						},
						{
							"internalType": "uint256",
							"name": "",
							"type": "uint256"
						}
					],
					"stateMutability": "view",
					"type": "function"
				},
				{
					"inputs": [],
					"name": "getTeamMemberCount",
					"outputs": [
						{
							"internalType": "uint256",
							"name": "",
							"type": "uint256"
						}
					],
					"stateMutability": "view",
					"type": "function"
				},
				{
					"inputs": [],
					"name": "getTeamMembers",
					"outputs": [
						{
							"components": [
								{
									"internalType": "address",
									"name": "memberAddress",
									"type": "address"
								},
								{
									"internalType": "uint256",
									"name": "investmentAmount",
									"type": "uint256"
								}
							],
							"internalType": "struct CSYDToken.TeamMember[]",
							"name": "",
							"type": "tuple[]"
						}
					],
					"stateMutability": "view",
					"type": "function"
				},
				{
					"inputs": [],
					"name": "name",
					"outputs": [
						{
							"internalType": "string",
							"name": "",
							"type": "string"
						}
					],
					"stateMutability": "view",
					"type": "function"
				},
				{
					"inputs": [],
					"name": "owner",
					"outputs": [
						{
							"internalType": "address",
							"name": "",
							"type": "address"
						}
					],
					"stateMutability": "view",
					"type": "function"
				},
				{
					"inputs": [],
					"name": "renounceOwnership",
					"outputs": [],
					"stateMutability": "nonpayable",
					"type": "function"
				},
				{
					"inputs": [],
					"name": "symbol",
					"outputs": [
						{
							"internalType": "string",
							"name": "",
							"type": "string"
						}
					],
					"stateMutability": "view",
					"type": "function"
				},
				{
					"inputs": [],
					"name": "teamLockedUntil",
					"outputs": [
						{
							"internalType": "uint256",
							"name": "",
							"type": "uint256"
						}
					],
					"stateMutability": "view",
					"type": "function"
				},
				{
					"inputs": [],
					"name": "totalSupply",
					"outputs": [
						{
							"internalType": "uint256",
							"name": "",
							"type": "uint256"
						}
					],
					"stateMutability": "view",
					"type": "function"
				},
				{
					"inputs": [
						{
							"internalType": "address",
							"name": "recipient",
							"type": "address"
						},
						{
							"internalType": "uint256",
							"name": "amount",
							"type": "uint256"
						}
					],
					"name": "transfer",
					"outputs": [
						{
							"internalType": "bool",
							"name": "",
							"type": "bool"
						}
					],
					"stateMutability": "nonpayable",
					"type": "function"
				},
				{
					"inputs": [
						{
							"internalType": "address",
							"name": "sender",
							"type": "address"
						},
						{
							"internalType": "address",
							"name": "recipient",
							"type": "address"
						},
						{
							"internalType": "uint256",
							"name": "amount",
							"type": "uint256"
						}
					],
					"name": "transferFrom",
					"outputs": [
						{
							"internalType": "bool",
							"name": "",
							"type": "bool"
						}
					],
					"stateMutability": "nonpayable",
					"type": "function"
				},
				{
					"inputs": [
						{
							"internalType": "address",
							"name": "newOwner",
							"type": "address"
						}
					],
					"name": "transferOwnership",
					"outputs": [],
					"stateMutability": "nonpayable",
					"type": "function"
				},
				{
					"inputs": [],
					"name": "uniswapPool",
					"outputs": [
						{
							"internalType": "address",
							"name": "",
							"type": "address"
						}
					],
					"stateMutability": "view",
					"type": "function"
				}
			],
			"devdoc": {
				"errors": {
					"ERC20InsufficientAllowance(address,uint256,uint256)": [
						{
							"details": "Indicates a failure with the `spender`’s `allowance`. Used in transfers.",
							"params": {
								"allowance": "Amount of tokens a `spender` is allowed to operate with.",
								"needed": "Minimum amount required to perform a transfer.",
								"spender": "Address that may be allowed to operate on tokens without being their owner."
							}
						}
					],
					"ERC20InsufficientBalance(address,uint256,uint256)": [
						{
							"details": "Indicates an error related to the current `balance` of a `sender`. Used in transfers.",
							"params": {
								"balance": "Current balance for the interacting account.",
								"needed": "Minimum amount required to perform a transfer.",
								"sender": "Address whose tokens are being transferred."
							}
						}
					],
					"ERC20InvalidApprover(address)": [
						{
							"details": "Indicates a failure with the `approver` of a token to be approved. Used in approvals.",
							"params": {
								"approver": "Address initiating an approval operation."
							}
						}
					],
					"ERC20InvalidReceiver(address)": [
						{
							"details": "Indicates a failure with the token `receiver`. Used in transfers.",
							"params": {
								"receiver": "Address to which tokens are being transferred."
							}
						}
					],
					"ERC20InvalidSender(address)": [
						{
							"details": "Indicates a failure with the token `sender`. Used in transfers.",
							"params": {
								"sender": "Address whose tokens are being transferred."
							}
						}
					],
					"ERC20InvalidSpender(address)": [
						{
							"details": "Indicates a failure with the `spender` to be approved. Used in approvals.",
							"params": {
								"spender": "Address that may be allowed to operate on tokens without being their owner."
							}
						}
					],
					"OwnableInvalidOwner(address)": [
						{
							"details": "The owner is not a valid owner account. (eg. `address(0)`)"
						}
					],
					"OwnableUnauthorizedAccount(address)": [
						{
							"details": "The caller account is not authorized to perform an operation."
						}
					]
				},
				"events": {
					"Approval(address,address,uint256)": {
						"details": "Emitted when the allowance of a `spender` for an `owner` is set by a call to {approve}. `value` is the new allowance."
					},
					"Transfer(address,address,uint256)": {
						"details": "Emitted when `value` tokens are moved from one account (`from`) to another (`to`). Note that `value` may be zero."
					}
				},
				"kind": "dev",
				"methods": {
					"allowance(address,address)": {
						"details": "Returns the remaining number of tokens that `spender` will be allowed to spend on behalf of `owner` through {transferFrom}. This is zero by default. This value changes when {approve} or {transferFrom} are called."
					},
					"approve(address,uint256)": {
						"details": "See {IERC20-approve}. NOTE: If `value` is the maximum `uint256`, the allowance is not updated on `transferFrom`. This is semantically equivalent to an infinite approval. Requirements: - `spender` cannot be the zero address."
					},
					"balanceOf(address)": {
						"details": "Returns the value of tokens owned by `account`."
					},
					"decimals()": {
						"details": "Returns the number of decimals used to get its user representation. For example, if `decimals` equals `2`, a balance of `505` tokens should be displayed to a user as `5.05` (`505 / 10 ** 2`). Tokens usually opt for a value of 18, imitating the relationship between Ether and Wei. This is the default value returned by this function, unless it's overridden. NOTE: This information is only used for _display_ purposes: it in no way affects any of the arithmetic of the contract, including {IERC20-balanceOf} and {IERC20-transfer}."
					},
					"name()": {
						"details": "Returns the name of the token."
					},
					"owner()": {
						"details": "Returns the address of the current owner."
					},
					"renounceOwnership()": {
						"details": "Leaves the contract without owner. It will not be possible to call `onlyOwner` functions. Can only be called by the current owner. NOTE: Renouncing ownership will leave the contract without an owner, thereby disabling any functionality that is only available to the owner."
					},
					"symbol()": {
						"details": "Returns the symbol of the token, usually a shorter version of the name."
					},
					"totalSupply()": {
						"details": "Returns the value of tokens in existence."
					},
					"transferOwnership(address)": {
						"details": "Transfers ownership of the contract to a new account (`newOwner`). Can only be called by the current owner."
					}
				},
				"version": 1
			},
			"evm": {
				"assembly": "    /* \"contracts/CC/CCToken.sol\":2608:7669  contract CSYDToken is ERC20, Ownable {... */\n  mstore(0x40, 0x80)\n    /* \"contracts/CC/CCToken.sol\":3414:4880  constructor(TeamMember[] memory _teamMembers, address _uniswapPool) ... */\n  callvalue\n  dup1\n  iszero\n  tag_1\n  jumpi\n  revert(0x00, 0x00)\ntag_1:\n  pop\n  mload(0x40)\n  sub(codesize, bytecodeSize)\n  dup1\n  bytecodeSize\n  dup4\n  codecopy\n  dup2\n  dup2\n  add\n  0x40\n  mstore\n  dup2\n  add\n  swap1\n  tag_2\n  swap2\n  swap1\n  tag_3\n  jump\t// in\ntag_2:\n    /* \"contracts/CC/CCToken.sol\":3531:3541  msg.sender */\n  caller\n    /* \"https://github.com/OpenZeppelin/openzeppelin-contracts/blob/master/contracts/token/ERC20/ERC20.sol\":1582:1695  constructor(string memory name_, string memory symbol_) {... */\n  mload(0x40)\n  dup1\n  0x40\n  add\n  0x40\n  mstore\n  dup1\n  0x04\n  dup2\n  mstore\n  0x20\n  add\n  0x6373796400000000000000000000000000000000000000000000000000000000\n  dup2\n  mstore\n  pop\n  mload(0x40)\n  dup1\n  0x40\n  add\n  0x40\n  mstore\n  dup1\n  0x04\n  dup2\n  mstore\n  0x20\n  add\n  0x4353594400000000000000000000000000000000000000000000000000000000\n  dup2\n  mstore\n  pop\n    /* \"https://github.com/OpenZeppelin/openzeppelin-contracts/blob/master/contracts/token/ERC20/ERC20.sol\":1656:1661  name_ */\n  dup2\n    /* \"https://github.com/OpenZeppelin/openzeppelin-contracts/blob/master/contracts/token/ERC20/ERC20.sol\":1648:1653  _name */\n  0x03\n    /* \"https://github.com/OpenZeppelin/openzeppelin-contracts/blob/master/contracts/token/ERC20/ERC20.sol\":1648:1661  _name = name_ */\n  swap1\n  dup2\n  tag_8\n  swap2\n  swap1\n  tag_9\n  jump\t// in\ntag_8:\n  pop\n    /* \"https://github.com/OpenZeppelin/openzeppelin-contracts/blob/master/contracts/token/ERC20/ERC20.sol\":1681:1688  symbol_ */\n  dup1\n    /* \"https://github.com/OpenZeppelin/openzeppelin-contracts/blob/master/contracts/token/ERC20/ERC20.sol\":1671:1678  _symbol */\n  0x04\n    /* \"https://github.com/OpenZeppelin/openzeppelin-contracts/blob/master/contracts/token/ERC20/ERC20.sol\":1671:1688  _symbol = symbol_ */\n  swap1\n  dup2\n  tag_10\n  swap2\n  swap1\n  tag_9\n  jump\t// in\ntag_10:\n  pop\n    /* \"https://github.com/OpenZeppelin/openzeppelin-contracts/blob/master/contracts/token/ERC20/ERC20.sol\":1582:1695  constructor(string memory name_, string memory symbol_) {... */\n  pop\n  pop\n    /* \"https://github.com/OpenZeppelin/openzeppelin-contracts/blob/master/contracts/access/Ownable.sol\":1297:1298  0 */\n  0x00\n    /* \"https://github.com/OpenZeppelin/openzeppelin-contracts/blob/master/contracts/access/Ownable.sol\":1273:1299  initialOwner == address(0) */\n  0xffffffffffffffffffffffffffffffffffffffff\n  and\n    /* \"https://github.com/OpenZeppelin/openzeppelin-contracts/blob/master/contracts/access/Ownable.sol\":1273:1285  initialOwner */\n  dup2\n    /* \"https://github.com/OpenZeppelin/openzeppelin-contracts/blob/master/contracts/access/Ownable.sol\":1273:1299  initialOwner == address(0) */\n  0xffffffffffffffffffffffffffffffffffffffff\n  and\n  sub\n    /* \"https://github.com/OpenZeppelin/openzeppelin-contracts/blob/master/contracts/access/Ownable.sol\":1269:1364  if (initialOwner == address(0)) {... */\n  tag_12\n  jumpi\n    /* \"https://github.com/OpenZeppelin/openzeppelin-contracts/blob/master/contracts/access/Ownable.sol\":1350:1351  0 */\n  0x00\n    /* \"https://github.com/OpenZeppelin/openzeppelin-contracts/blob/master/contracts/access/Ownable.sol\":1322:1353  OwnableInvalidOwner(address(0)) */\n  mload(0x40)\n  0x1e4fbdf700000000000000000000000000000000000000000000000000000000\n  dup2\n  mstore\n  0x04\n  add\n  tag_13\n  swap2\n  swap1\n  tag_14\n  jump\t// in\ntag_13:\n  mload(0x40)\n  dup1\n  swap2\n  sub\n  swap1\n  revert\n    /* \"https://github.com/OpenZeppelin/openzeppelin-contracts/blob/master/contracts/access/Ownable.sol\":1269:1364  if (initialOwner == address(0)) {... */\ntag_12:\n    /* \"https://github.com/OpenZeppelin/openzeppelin-contracts/blob/master/contracts/access/Ownable.sol\":1373:1405  _transferOwnership(initialOwner) */\n  tag_15\n    /* \"https://github.com/OpenZeppelin/openzeppelin-contracts/blob/master/contracts/access/Ownable.sol\":1392:1404  initialOwner */\n  dup2\n    /* \"https://github.com/OpenZeppelin/openzeppelin-contracts/blob/master/contracts/access/Ownable.sol\":1373:1391  _transferOwnership */\n  shl(0x20, tag_16)\n    /* \"https://github.com/OpenZeppelin/openzeppelin-contracts/blob/master/contracts/access/Ownable.sol\":1373:1405  _transferOwnership(initialOwner) */\n  0x20\n  shr\n  jump\t// in\ntag_15:\n    /* \"https://github.com/OpenZeppelin/openzeppelin-contracts/blob/master/contracts/access/Ownable.sol\":1225:1412  constructor(address initialOwner) {... */\n  pop\n    /* \"contracts/CC/CCToken.sol\":3589:3590  0 */\n  0x00\n    /* \"contracts/CC/CCToken.sol\":3567:3579  _teamMembers */\n  dup3\n    /* \"contracts/CC/CCToken.sol\":3567:3586  _teamMembers.length */\n  mload\n    /* \"contracts/CC/CCToken.sol\":3567:3590  _teamMembers.length > 0 */\n  gt\n    /* \"contracts/CC/CCToken.sol\":3559:3628  require(_teamMembers.length > 0, \"At least one team member required\") */\n  tag_18\n  jumpi\n  mload(0x40)\n  0x08c379a000000000000000000000000000000000000000000000000000000000\n  dup2\n  mstore\n  0x04\n  add\n  tag_19\n  swap1\n  tag_20\n  jump\t// in\ntag_19:\n  mload(0x40)\n  dup1\n  swap2\n  sub\n  swap1\n  revert\ntag_18:\n    /* \"contracts/CC/CCToken.sol\":3653:3665  _uniswapPool */\n  dup1\n    /* \"contracts/CC/CCToken.sol\":3639:3650  uniswapPool */\n  0x09\n  0x00\n    /* \"contracts/CC/CCToken.sol\":3639:3665  uniswapPool = _uniswapPool */\n  0x0100\n  exp\n  dup2\n  sload\n  dup2\n  0xffffffffffffffffffffffffffffffffffffffff\n  mul\n  not\n  and\n  swap1\n  dup4\n  0xffffffffffffffffffffffffffffffffffffffff\n  and\n  mul\n  or\n  swap1\n  sstore\n  pop\n    /* \"contracts/CC/CCToken.sol\":3678:3701  uint256 totalInvestment */\n  0x00\n    /* \"contracts/CC/CCToken.sol\":3704:3705  0 */\n  0x00\n    /* \"contracts/CC/CCToken.sol\":3678:3705  uint256 totalInvestment = 0 */\n  swap1\n  pop\n    /* \"contracts/CC/CCToken.sol\":3774:3783  uint256 i */\n  0x00\n    /* \"contracts/CC/CCToken.sol\":3786:3787  0 */\n  0x00\n    /* \"contracts/CC/CCToken.sol\":3774:3787  uint256 i = 0 */\n  swap1\n  pop\n    /* \"contracts/CC/CCToken.sol\":3769:3967  for (uint256 i = 0; i < _teamMembers.length; i++) {... */\ntag_21:\n    /* \"contracts/CC/CCToken.sol\":3793:3805  _teamMembers */\n  dup4\n    /* \"contracts/CC/CCToken.sol\":3793:3812  _teamMembers.length */\n  mload\n    /* \"contracts/CC/CCToken.sol\":3789:3790  i */\n  dup2\n    /* \"contracts/CC/CCToken.sol\":3789:3812  i < _teamMembers.length */\n  lt\n    /* \"contracts/CC/CCToken.sol\":3769:3967  for (uint256 i = 0; i < _teamMembers.length; i++) {... */\n  iszero\n  tag_22\n  jumpi\n    /* \"contracts/CC/CCToken.sol\":3853:3865  _teamMembers */\n  dup4\n    /* \"contracts/CC/CCToken.sol\":3866:3867  i */\n  dup2\n    /* \"contracts/CC/CCToken.sol\":3853:3868  _teamMembers[i] */\n  dup2\n  mload\n  dup2\n  lt\n  tag_24\n  jumpi\n  tag_25\n  tag_26\n  jump\t// in\ntag_25:\ntag_24:\n  0x20\n  mul\n  0x20\n  add\n  add\n  mload\n    /* \"contracts/CC/CCToken.sol\":3853:3885  _teamMembers[i].investmentAmount */\n  0x20\n  add\n  mload\n    /* \"contracts/CC/CCToken.sol\":3834:3885  totalInvestment += _teamMembers[i].investmentAmount */\n  dup3\n  tag_27\n  swap2\n  swap1\n  tag_28\n  jump\t// in\ntag_27:\n  swap2\n  pop\n    /* \"contracts/CC/CCToken.sol\":3900:3911  teamMembers */\n  0x06\n    /* \"contracts/CC/CCToken.sol\":3917:3929  _teamMembers */\n  dup5\n    /* \"contracts/CC/CCToken.sol\":3930:3931  i */\n  dup3\n    /* \"contracts/CC/CCToken.sol\":3917:3932  _teamMembers[i] */\n  dup2\n  mload\n  dup2\n  lt\n  tag_29\n  jumpi\n  tag_30\n  tag_26\n  jump\t// in\ntag_30:\ntag_29:\n  0x20\n  mul\n  0x20\n  add\n  add\n  mload\n    /* \"contracts/CC/CCToken.sol\":3900:3933  teamMembers.push(_teamMembers[i]) */\n  swap1\n  dup1\n  0x01\n  dup2\n  sload\n  add\n  dup1\n  dup3\n  sstore\n  dup1\n  swap2\n  pop\n  pop\n  0x01\n  swap1\n  sub\n  swap1\n  0x00\n  mstore\n  keccak256(0x00, 0x20)\n  swap1\n  0x02\n  mul\n  add\n  0x00\n  swap1\n  swap2\n  swap1\n  swap2\n  swap1\n  swap2\n  pop\n  0x00\n  dup3\n  add\n  mload\n  dup2\n  0x00\n  add\n  exp(0x0100, 0x00)\n  dup2\n  sload\n  dup2\n  0xffffffffffffffffffffffffffffffffffffffff\n  mul\n  not\n  and\n  swap1\n  dup4\n  0xffffffffffffffffffffffffffffffffffffffff\n  and\n  mul\n  or\n  swap1\n  sstore\n  pop\n  0x20\n  dup3\n  add\n  mload\n  dup2\n  0x01\n  add\n  sstore\n  pop\n  pop\n    /* \"contracts/CC/CCToken.sol\":3814:3817  i++ */\n  dup1\n  dup1\n  0x01\n  add\n  swap2\n  pop\n  pop\n    /* \"contracts/CC/CCToken.sol\":3769:3967  for (uint256 i = 0; i < _teamMembers.length; i++) {... */\n  jump(tag_21)\ntag_22:\n  pop\n    /* \"contracts/CC/CCToken.sol\":3979:3993  uint256 market */\n  0x00\n    /* \"contracts/CC/CCToken.sol\":4016:4019  100 */\n  0x64\n    /* \"contracts/CC/CCToken.sol\":4011:4013  80 */\n  0x50\n    /* \"contracts/CC/CCToken.sol\":2695:2715  187_500_000 * 10**18 */\n  0x9b18ab5df7180b6b800000\n    /* \"contracts/CC/CCToken.sol\":3996:4013  TOTAL_SUPPLY * 80 */\n  tag_32\n  swap2\n  swap1\n  tag_33\n  jump\t// in\ntag_32:\n    /* \"contracts/CC/CCToken.sol\":3996:4019  TOTAL_SUPPLY * 80 / 100 */\n  tag_34\n  swap2\n  swap1\n  tag_35\n  jump\t// in\ntag_34:\n    /* \"contracts/CC/CCToken.sol\":3979:4019  uint256 market = TOTAL_SUPPLY * 80 / 100 */\n  swap1\n  pop\n    /* \"contracts/CC/CCToken.sol\":4049:4074  uint256 totalDistribution */\n  0x00\n    /* \"contracts/CC/CCToken.sol\":4077:4078  0 */\n  0x00\n    /* \"contracts/CC/CCToken.sol\":4049:4078  uint256 totalDistribution = 0 */\n  swap1\n  pop\n    /* \"contracts/CC/CCToken.sol\":4127:4136  uint256 i */\n  0x00\n    /* \"contracts/CC/CCToken.sol\":4139:4140  0 */\n  0x00\n    /* \"contracts/CC/CCToken.sol\":4127:4140  uint256 i = 0 */\n  swap1\n  pop\n    /* \"contracts/CC/CCToken.sol\":4122:4403  for (uint256 i = 0; i < teamMembers.length; i++) {... */\ntag_36:\n    /* \"contracts/CC/CCToken.sol\":4146:4157  teamMembers */\n  0x06\n    /* \"contracts/CC/CCToken.sol\":4146:4164  teamMembers.length */\n  dup1\n  sload\n  swap1\n  pop\n    /* \"contracts/CC/CCToken.sol\":4142:4143  i */\n  dup2\n    /* \"contracts/CC/CCToken.sol\":4142:4164  i < teamMembers.length */\n  lt\n    /* \"contracts/CC/CCToken.sol\":4122:4403  for (uint256 i = 0; i < teamMembers.length; i++) {... */\n  iszero\n  tag_37\n  jumpi\n    /* \"contracts/CC/CCToken.sol\":4186:4199  uint256 share */\n  0x00\n    /* \"contracts/CC/CCToken.sol\":4247:4262  totalInvestment */\n  dup5\n    /* \"contracts/CC/CCToken.sol\":4237:4243  market */\n  dup5\n    /* \"contracts/CC/CCToken.sol\":4203:4214  teamMembers */\n  0x06\n    /* \"contracts/CC/CCToken.sol\":4215:4216  i */\n  dup5\n    /* \"contracts/CC/CCToken.sol\":4203:4217  teamMembers[i] */\n  dup2\n  sload\n  dup2\n  lt\n  tag_39\n  jumpi\n  tag_40\n  tag_26\n  jump\t// in\ntag_40:\ntag_39:\n  swap1\n  0x00\n  mstore\n  keccak256(0x00, 0x20)\n  swap1\n  0x02\n  mul\n  add\n    /* \"contracts/CC/CCToken.sol\":4203:4234  teamMembers[i].investmentAmount */\n  0x01\n  add\n  sload\n    /* \"contracts/CC/CCToken.sol\":4203:4243  teamMembers[i].investmentAmount * market */\n  tag_42\n  swap2\n  swap1\n  tag_33\n  jump\t// in\ntag_42:\n    /* \"contracts/CC/CCToken.sol\":4202:4262  (teamMembers[i].investmentAmount * market) / totalInvestment */\n  tag_43\n  swap2\n  swap1\n  tag_35\n  jump\t// in\ntag_43:\n    /* \"contracts/CC/CCToken.sol\":4186:4262  uint256 share = (teamMembers[i].investmentAmount * market) / totalInvestment */\n  swap1\n  pop\n    /* \"contracts/CC/CCToken.sol\":4308:4350  _mint(teamMembers[i].memberAddress, share) */\n  tag_44\n    /* \"contracts/CC/CCToken.sol\":4314:4325  teamMembers */\n  0x06\n    /* \"contracts/CC/CCToken.sol\":4326:4327  i */\n  dup4\n    /* \"contracts/CC/CCToken.sol\":4314:4328  teamMembers[i] */\n  dup2\n  sload\n  dup2\n  lt\n  tag_45\n  jumpi\n  tag_46\n  tag_26\n  jump\t// in\ntag_46:\ntag_45:\n  swap1\n  0x00\n  mstore\n  keccak256(0x00, 0x20)\n  swap1\n  0x02\n  mul\n  add\n    /* \"contracts/CC/CCToken.sol\":4314:4342  teamMembers[i].memberAddress */\n  0x00\n  add\n  0x00\n  swap1\n  sload\n  swap1\n  0x0100\n  exp\n  swap1\n  div\n  0xffffffffffffffffffffffffffffffffffffffff\n  and\n    /* \"contracts/CC/CCToken.sol\":4344:4349  share */\n  dup3\n    /* \"contracts/CC/CCToken.sol\":4308:4313  _mint */\n  shl(0x20, tag_48)\n    /* \"contracts/CC/CCToken.sol\":4308:4350  _mint(teamMembers[i].memberAddress, share) */\n  0x20\n  shr\n  jump\t// in\ntag_44:\n    /* \"contracts/CC/CCToken.sol\":4386:4391  share */\n  dup1\n    /* \"contracts/CC/CCToken.sol\":4365:4391  totalDistribution += share */\n  dup4\n  tag_49\n  swap2\n  swap1\n  tag_28\n  jump\t// in\ntag_49:\n  swap3\n  pop\n    /* \"contracts/CC/CCToken.sol\":4171:4403  {... */\n  pop\n    /* \"contracts/CC/CCToken.sol\":4166:4169  i++ */\n  dup1\n  dup1\n  0x01\n  add\n  swap2\n  pop\n  pop\n    /* \"contracts/CC/CCToken.sol\":4122:4403  for (uint256 i = 0; i < teamMembers.length; i++) {... */\n  jump(tag_36)\ntag_37:\n  pop\n    /* \"contracts/CC/CCToken.sol\":4502:4508  market */\n  dup2\n    /* \"contracts/CC/CCToken.sol\":4481:4498  totalDistribution */\n  dup2\n    /* \"contracts/CC/CCToken.sol\":4481:4508  totalDistribution <= market */\n  gt\n  iszero\n    /* \"contracts/CC/CCToken.sol\":4473:4546  require(totalDistribution <= market, \"Total distribution exceeds market\") */\n  tag_50\n  jumpi\n  mload(0x40)\n  0x08c379a000000000000000000000000000000000000000000000000000000000\n  dup2\n  mstore\n  0x04\n  add\n  tag_51\n  swap1\n  tag_52\n  jump\t// in\ntag_51:\n  mload(0x40)\n  dup1\n  swap2\n  sub\n  swap1\n  revert\ntag_50:\n    /* \"contracts/CC/CCToken.sol\":4559:4604  _mint(msg.sender, market - totalDistribution) */\n  tag_53\n    /* \"contracts/CC/CCToken.sol\":4565:4575  msg.sender */\n  caller\n    /* \"contracts/CC/CCToken.sol\":4586:4603  totalDistribution */\n  dup3\n    /* \"contracts/CC/CCToken.sol\":4577:4583  market */\n  dup5\n    /* \"contracts/CC/CCToken.sol\":4577:4603  market - totalDistribution */\n  tag_54\n  swap2\n  swap1\n  tag_55\n  jump\t// in\ntag_54:\n    /* \"contracts/CC/CCToken.sol\":4559:4564  _mint */\n  shl(0x20, tag_48)\n    /* \"contracts/CC/CCToken.sol\":4559:4604  _mint(msg.sender, market - totalDistribution) */\n  0x20\n  shr\n  jump\t// in\ntag_53:\n    /* \"contracts/CC/CCToken.sol\":4661:4706  _mint(address(this), TOTAL_SUPPLY * 10 / 100) */\n  tag_56\n    /* \"contracts/CC/CCToken.sol\":4675:4679  this */\n  address\n    /* \"contracts/CC/CCToken.sol\":4702:4705  100 */\n  0x64\n    /* \"contracts/CC/CCToken.sol\":4697:4699  10 */\n  0x0a\n    /* \"contracts/CC/CCToken.sol\":2695:2715  187_500_000 * 10**18 */\n  0x9b18ab5df7180b6b800000\n    /* \"contracts/CC/CCToken.sol\":4682:4699  TOTAL_SUPPLY * 10 */\n  tag_57\n  swap2\n  swap1\n  tag_33\n  jump\t// in\ntag_57:\n    /* \"contracts/CC/CCToken.sol\":4682:4705  TOTAL_SUPPLY * 10 / 100 */\n  tag_58\n  swap2\n  swap1\n  tag_35\n  jump\t// in\ntag_58:\n    /* \"contracts/CC/CCToken.sol\":4661:4666  _mint */\n  shl(0x20, tag_48)\n    /* \"contracts/CC/CCToken.sol\":4661:4706  _mint(address(this), TOTAL_SUPPLY * 10 / 100) */\n  0x20\n  shr\n  jump\t// in\ntag_56:\n    /* \"contracts/CC/CCToken.sol\":2780:2792  3 * 365 days */\n  0x05a39a80\n    /* \"contracts/CC/CCToken.sol\":4753:4768  block.timestamp */\n  timestamp\n    /* \"contracts/CC/CCToken.sol\":4753:4787  block.timestamp + TEAM_LOCK_PERIOD */\n  tag_59\n  swap2\n  swap1\n  tag_28\n  jump\t// in\ntag_59:\n    /* \"contracts/CC/CCToken.sol\":4735:4750  teamLockedUntil */\n  0x08\n    /* \"contracts/CC/CCToken.sol\":4735:4787  teamLockedUntil = block.timestamp + TEAM_LOCK_PERIOD */\n  dup2\n  swap1\n  sstore\n  pop\n    /* \"contracts/CC/CCToken.sol\":4833:4848  block.timestamp */\n  timestamp\n    /* \"contracts/CC/CCToken.sol\":4816:4830  deploymentTime */\n  0x07\n    /* \"contracts/CC/CCToken.sol\":4816:4848  deploymentTime = block.timestamp */\n  dup2\n  swap1\n  sstore\n  pop\n    /* \"contracts/CC/CCToken.sol\":3548:4880  {... */\n  pop\n  pop\n  pop\n    /* \"contracts/CC/CCToken.sol\":3414:4880  constructor(TeamMember[] memory _teamMembers, address _uniswapPool) ... */\n  pop\n  pop\n    /* \"contracts/CC/CCToken.sol\":2608:7669  contract CSYDToken is ERC20, Ownable {... */\n  jump(tag_60)\n    /* \"https://github.com/OpenZeppelin/openzeppelin-contracts/blob/master/contracts/access/Ownable.sol\":2912:3099  function _transferOwnership(address newOwner) internal virtual {... */\ntag_16:\n    /* \"https://github.com/OpenZeppelin/openzeppelin-contracts/blob/master/contracts/access/Ownable.sol\":2985:3001  address oldOwner */\n  0x00\n    /* \"https://github.com/OpenZeppelin/openzeppelin-contracts/blob/master/contracts/access/Ownable.sol\":3004:3010  _owner */\n  0x05\n  0x00\n  swap1\n  sload\n  swap1\n  0x0100\n  exp\n  swap1\n  div\n  0xffffffffffffffffffffffffffffffffffffffff\n  and\n    /* \"https://github.com/OpenZeppelin/openzeppelin-contracts/blob/master/contracts/access/Ownable.sol\":2985:3010  address oldOwner = _owner */\n  swap1\n  pop\n    /* \"https://github.com/OpenZeppelin/openzeppelin-contracts/blob/master/contracts/access/Ownable.sol\":3029:3037  newOwner */\n  dup2\n    /* \"https://github.com/OpenZeppelin/openzeppelin-contracts/blob/master/contracts/access/Ownable.sol\":3020:3026  _owner */\n  0x05\n  0x00\n    /* \"https://github.com/OpenZeppelin/openzeppelin-contracts/blob/master/contracts/access/Ownable.sol\":3020:3037  _owner = newOwner */\n  0x0100\n  exp\n  dup2\n  sload\n  dup2\n  0xffffffffffffffffffffffffffffffffffffffff\n  mul\n  not\n  and\n  swap1\n  dup4\n  0xffffffffffffffffffffffffffffffffffffffff\n  and\n  mul\n  or\n  swap1\n  sstore\n  pop\n    /* \"https://github.com/OpenZeppelin/openzeppelin-contracts/blob/master/contracts/access/Ownable.sol\":3083:3091  newOwner */\n  dup2\n    /* \"https://github.com/OpenZeppelin/openzeppelin-contracts/blob/master/contracts/access/Ownable.sol\":3052:3092  OwnershipTransferred(oldOwner, newOwner) */\n  0xffffffffffffffffffffffffffffffffffffffff\n  and\n    /* \"https://github.com/OpenZeppelin/openzeppelin-contracts/blob/master/contracts/access/Ownable.sol\":3073:3081  oldOwner */\n  dup2\n    /* \"https://github.com/OpenZeppelin/openzeppelin-contracts/blob/master/contracts/access/Ownable.sol\":3052:3092  OwnershipTransferred(oldOwner, newOwner) */\n  0xffffffffffffffffffffffffffffffffffffffff\n  and\n  0x8be0079c531659141344cd1fd0a4f28419497f9722a3daafe3b4186f6b6457e0\n  mload(0x40)\n  mload(0x40)\n  dup1\n  swap2\n  sub\n  swap1\n  log3\n    /* \"https://github.com/OpenZeppelin/openzeppelin-contracts/blob/master/contracts/access/Ownable.sol\":2975:3099  {... */\n  pop\n    /* \"https://github.com/OpenZeppelin/openzeppelin-contracts/blob/master/contracts/access/Ownable.sol\":2912:3099  function _transferOwnership(address newOwner) internal virtual {... */\n  pop\n  jump\t// out\n    /* \"https://github.com/OpenZeppelin/openzeppelin-contracts/blob/master/contracts/token/ERC20/ERC20.sol\":7362:7570  function _mint(address account, uint256 value) internal {... */\ntag_48:\n    /* \"https://github.com/OpenZeppelin/openzeppelin-contracts/blob/master/contracts/token/ERC20/ERC20.sol\":7451:7452  0 */\n  0x00\n    /* \"https://github.com/OpenZeppelin/openzeppelin-contracts/blob/master/contracts/token/ERC20/ERC20.sol\":7432:7453  account == address(0) */\n  0xffffffffffffffffffffffffffffffffffffffff\n  and\n    /* \"https://github.com/OpenZeppelin/openzeppelin-contracts/blob/master/contracts/token/ERC20/ERC20.sol\":7432:7439  account */\n  dup3\n    /* \"https://github.com/OpenZeppelin/openzeppelin-contracts/blob/master/contracts/token/ERC20/ERC20.sol\":7432:7453  account == address(0) */\n  0xffffffffffffffffffffffffffffffffffffffff\n  and\n  sub\n    /* \"https://github.com/OpenZeppelin/openzeppelin-contracts/blob/master/contracts/token/ERC20/ERC20.sol\":7428:7519  if (account == address(0)) {... */\n  tag_63\n  jumpi\n    /* \"https://github.com/OpenZeppelin/openzeppelin-contracts/blob/master/contracts/token/ERC20/ERC20.sol\":7505:7506  0 */\n  0x00\n    /* \"https://github.com/OpenZeppelin/openzeppelin-contracts/blob/master/contracts/token/ERC20/ERC20.sol\":7476:7508  ERC20InvalidReceiver(address(0)) */\n  mload(0x40)\n  0xec442f0500000000000000000000000000000000000000000000000000000000\n  dup2\n  mstore\n  0x04\n  add\n  tag_64\n  swap2\n  swap1\n  tag_14\n  jump\t// in\ntag_64:\n  mload(0x40)\n  dup1\n  swap2\n  sub\n  swap1\n  revert\n    /* \"https://github.com/OpenZeppelin/openzeppelin-contracts/blob/master/contracts/token/ERC20/ERC20.sol\":7428:7519  if (account == address(0)) {... */\ntag_63:\n    /* \"https://github.com/OpenZeppelin/openzeppelin-contracts/blob/master/contracts/token/ERC20/ERC20.sol\":7528:7563  _update(address(0), account, value) */\n  tag_65\n    /* \"https://github.com/OpenZeppelin/openzeppelin-contracts/blob/master/contracts/token/ERC20/ERC20.sol\":7544:7545  0 */\n  0x00\n    /* \"https://github.com/OpenZeppelin/openzeppelin-contracts/blob/master/contracts/token/ERC20/ERC20.sol\":7548:7555  account */\n  dup4\n    /* \"https://github.com/OpenZeppelin/openzeppelin-contracts/blob/master/contracts/token/ERC20/ERC20.sol\":7557:7562  value */\n  dup4\n    /* \"https://github.com/OpenZeppelin/openzeppelin-contracts/blob/master/contracts/token/ERC20/ERC20.sol\":7528:7535  _update */\n  shl(0x20, tag_66)\n    /* \"https://github.com/OpenZeppelin/openzeppelin-contracts/blob/master/contracts/token/ERC20/ERC20.sol\":7528:7563  _update(address(0), account, value) */\n  0x20\n  shr\n  jump\t// in\ntag_65:\n    /* \"https://github.com/OpenZeppelin/openzeppelin-contracts/blob/master/contracts/token/ERC20/ERC20.sol\":7362:7570  function _mint(address account, uint256 value) internal {... */\n  pop\n  pop\n  jump\t// out\n    /* \"https://github.com/OpenZeppelin/openzeppelin-contracts/blob/master/contracts/token/ERC20/ERC20.sol\":5912:7019  function _update(address from, address to, uint256 value) internal virtual {... */\ntag_66:\n    /* \"https://github.com/OpenZeppelin/openzeppelin-contracts/blob/master/contracts/token/ERC20/ERC20.sol\":6017:6018  0 */\n  0x00\n    /* \"https://github.com/OpenZeppelin/openzeppelin-contracts/blob/master/contracts/token/ERC20/ERC20.sol\":6001:6019  from == address(0) */\n  0xffffffffffffffffffffffffffffffffffffffff\n  and\n    /* \"https://github.com/OpenZeppelin/openzeppelin-contracts/blob/master/contracts/token/ERC20/ERC20.sol\":6001:6005  from */\n  dup4\n    /* \"https://github.com/OpenZeppelin/openzeppelin-contracts/blob/master/contracts/token/ERC20/ERC20.sol\":6001:6019  from == address(0) */\n  0xffffffffffffffffffffffffffffffffffffffff\n  and\n  sub\n    /* \"https://github.com/OpenZeppelin/openzeppelin-contracts/blob/master/contracts/token/ERC20/ERC20.sol\":5997:6537  if (from == address(0)) {... */\n  tag_68\n  jumpi\n    /* \"https://github.com/OpenZeppelin/openzeppelin-contracts/blob/master/contracts/token/ERC20/ERC20.sol\":6153:6158  value */\n  dup1\n    /* \"https://github.com/OpenZeppelin/openzeppelin-contracts/blob/master/contracts/token/ERC20/ERC20.sol\":6137:6149  _totalSupply */\n  0x02\n  0x00\n    /* \"https://github.com/OpenZeppelin/openzeppelin-contracts/blob/master/contracts/token/ERC20/ERC20.sol\":6137:6158  _totalSupply += value */\n  dup3\n  dup3\n  sload\n  tag_69\n  swap2\n  swap1\n  tag_28\n  jump\t// in\ntag_69:\n  swap3\n  pop\n  pop\n  dup2\n  swap1\n  sstore\n  pop\n    /* \"https://github.com/OpenZeppelin/openzeppelin-contracts/blob/master/contracts/token/ERC20/ERC20.sol\":5997:6537  if (from == address(0)) {... */\n  jump(tag_70)\ntag_68:\n    /* \"https://github.com/OpenZeppelin/openzeppelin-contracts/blob/master/contracts/token/ERC20/ERC20.sol\":6189:6208  uint256 fromBalance */\n  0x00\n    /* \"https://github.com/OpenZeppelin/openzeppelin-contracts/blob/master/contracts/token/ERC20/ERC20.sol\":6211:6220  _balances */\n  0x00\n    /* \"https://github.com/OpenZeppelin/openzeppelin-contracts/blob/master/contracts/token/ERC20/ERC20.sol\":6211:6226  _balances[from] */\n  0x00\n    /* \"https://github.com/OpenZeppelin/openzeppelin-contracts/blob/master/contracts/token/ERC20/ERC20.sol\":6221:6225  from */\n  dup6\n    /* \"https://github.com/OpenZeppelin/openzeppelin-contracts/blob/master/contracts/token/ERC20/ERC20.sol\":6211:6226  _balances[from] */\n  0xffffffffffffffffffffffffffffffffffffffff\n  and\n  0xffffffffffffffffffffffffffffffffffffffff\n  and\n  dup2\n  mstore\n  0x20\n  add\n  swap1\n  dup2\n  mstore\n  0x20\n  add\n  0x00\n  keccak256\n  sload\n    /* \"https://github.com/OpenZeppelin/openzeppelin-contracts/blob/master/contracts/token/ERC20/ERC20.sol\":6189:6226  uint256 fromBalance = _balances[from] */\n  swap1\n  pop\n    /* \"https://github.com/OpenZeppelin/openzeppelin-contracts/blob/master/contracts/token/ERC20/ERC20.sol\":6258:6263  value */\n  dup2\n    /* \"https://github.com/OpenZeppelin/openzeppelin-contracts/blob/master/contracts/token/ERC20/ERC20.sol\":6244:6255  fromBalance */\n  dup2\n    /* \"https://github.com/OpenZeppelin/openzeppelin-contracts/blob/master/contracts/token/ERC20/ERC20.sol\":6244:6263  fromBalance < value */\n  lt\n    /* \"https://github.com/OpenZeppelin/openzeppelin-contracts/blob/master/contracts/token/ERC20/ERC20.sol\":6240:6355  if (fromBalance < value) {... */\n  iszero\n  tag_71\n  jumpi\n    /* \"https://github.com/OpenZeppelin/openzeppelin-contracts/blob/master/contracts/token/ERC20/ERC20.sol\":6315:6319  from */\n  dup4\n    /* \"https://github.com/OpenZeppelin/openzeppelin-contracts/blob/master/contracts/token/ERC20/ERC20.sol\":6321:6332  fromBalance */\n  dup2\n    /* \"https://github.com/OpenZeppelin/openzeppelin-contracts/blob/master/contracts/token/ERC20/ERC20.sol\":6334:6339  value */\n  dup4\n    /* \"https://github.com/OpenZeppelin/openzeppelin-contracts/blob/master/contracts/token/ERC20/ERC20.sol\":6290:6340  ERC20InsufficientBalance(from, fromBalance, value) */\n  mload(0x40)\n  0xe450d38c00000000000000000000000000000000000000000000000000000000\n  dup2\n  mstore\n  0x04\n  add\n  tag_72\n  swap4\n  swap3\n  swap2\n  swap1\n  tag_73\n  jump\t// in\ntag_72:\n  mload(0x40)\n  dup1\n  swap2\n  sub\n  swap1\n  revert\n    /* \"https://github.com/OpenZeppelin/openzeppelin-contracts/blob/master/contracts/token/ERC20/ERC20.sol\":6240:6355  if (fromBalance < value) {... */\ntag_71:\n    /* \"https://github.com/OpenZeppelin/openzeppelin-contracts/blob/master/contracts/token/ERC20/ERC20.sol\":6507:6512  value */\n  dup2\n    /* \"https://github.com/OpenZeppelin/openzeppelin-contracts/blob/master/contracts/token/ERC20/ERC20.sol\":6493:6504  fromBalance */\n  dup2\n    /* \"https://github.com/OpenZeppelin/openzeppelin-contracts/blob/master/contracts/token/ERC20/ERC20.sol\":6493:6512  fromBalance - value */\n  sub\n    /* \"https://github.com/OpenZeppelin/openzeppelin-contracts/blob/master/contracts/token/ERC20/ERC20.sol\":6475:6484  _balances */\n  0x00\n    /* \"https://github.com/OpenZeppelin/openzeppelin-contracts/blob/master/contracts/token/ERC20/ERC20.sol\":6475:6490  _balances[from] */\n  0x00\n    /* \"https://github.com/OpenZeppelin/openzeppelin-contracts/blob/master/contracts/token/ERC20/ERC20.sol\":6485:6489  from */\n  dup7\n    /* \"https://github.com/OpenZeppelin/openzeppelin-contracts/blob/master/contracts/token/ERC20/ERC20.sol\":6475:6490  _balances[from] */\n  0xffffffffffffffffffffffffffffffffffffffff\n  and\n  0xffffffffffffffffffffffffffffffffffffffff\n  and\n  dup2\n  mstore\n  0x20\n  add\n  swap1\n  dup2\n  mstore\n  0x20\n  add\n  0x00\n  keccak256\n    /* \"https://github.com/OpenZeppelin/openzeppelin-contracts/blob/master/contracts/token/ERC20/ERC20.sol\":6475:6512  _balances[from] = fromBalance - value */\n  dup2\n  swap1\n  sstore\n  pop\n    /* \"https://github.com/OpenZeppelin/openzeppelin-contracts/blob/master/contracts/token/ERC20/ERC20.sol\":6175:6537  {... */\n  pop\n    /* \"https://github.com/OpenZeppelin/openzeppelin-contracts/blob/master/contracts/token/ERC20/ERC20.sol\":5997:6537  if (from == address(0)) {... */\ntag_70:\n    /* \"https://github.com/OpenZeppelin/openzeppelin-contracts/blob/master/contracts/token/ERC20/ERC20.sol\":6565:6566  0 */\n  0x00\n    /* \"https://github.com/OpenZeppelin/openzeppelin-contracts/blob/master/contracts/token/ERC20/ERC20.sol\":6551:6567  to == address(0) */\n  0xffffffffffffffffffffffffffffffffffffffff\n  and\n    /* \"https://github.com/OpenZeppelin/openzeppelin-contracts/blob/master/contracts/token/ERC20/ERC20.sol\":6551:6553  to */\n  dup3\n    /* \"https://github.com/OpenZeppelin/openzeppelin-contracts/blob/master/contracts/token/ERC20/ERC20.sol\":6551:6567  to == address(0) */\n  0xffffffffffffffffffffffffffffffffffffffff\n  and\n  sub\n    /* \"https://github.com/OpenZeppelin/openzeppelin-contracts/blob/master/contracts/token/ERC20/ERC20.sol\":6547:6972  if (to == address(0)) {... */\n  tag_74\n  jumpi\n    /* \"https://github.com/OpenZeppelin/openzeppelin-contracts/blob/master/contracts/token/ERC20/ERC20.sol\":6730:6735  value */\n  dup1\n    /* \"https://github.com/OpenZeppelin/openzeppelin-contracts/blob/master/contracts/token/ERC20/ERC20.sol\":6714:6726  _totalSupply */\n  0x02\n  0x00\n    /* \"https://github.com/OpenZeppelin/openzeppelin-contracts/blob/master/contracts/token/ERC20/ERC20.sol\":6714:6735  _totalSupply -= value */\n  dup3\n  dup3\n  sload\n  sub\n  swap3\n  pop\n  pop\n  dup2\n  swap1\n  sstore\n  pop\n    /* \"https://github.com/OpenZeppelin/openzeppelin-contracts/blob/master/contracts/token/ERC20/ERC20.sol\":6547:6972  if (to == address(0)) {... */\n  jump(tag_75)\ntag_74:\n    /* \"https://github.com/OpenZeppelin/openzeppelin-contracts/blob/master/contracts/token/ERC20/ERC20.sol\":6942:6947  value */\n  dup1\n    /* \"https://github.com/OpenZeppelin/openzeppelin-contracts/blob/master/contracts/token/ERC20/ERC20.sol\":6925:6934  _balances */\n  0x00\n    /* \"https://github.com/OpenZeppelin/openzeppelin-contracts/blob/master/contracts/token/ERC20/ERC20.sol\":6925:6938  _balances[to] */\n  0x00\n    /* \"https://github.com/OpenZeppelin/openzeppelin-contracts/blob/master/contracts/token/ERC20/ERC20.sol\":6935:6937  to */\n  dup5\n    /* \"https://github.com/OpenZeppelin/openzeppelin-contracts/blob/master/contracts/token/ERC20/ERC20.sol\":6925:6938  _balances[to] */\n  0xffffffffffffffffffffffffffffffffffffffff\n  and\n  0xffffffffffffffffffffffffffffffffffffffff\n  and\n  dup2\n  mstore\n  0x20\n  add\n  swap1\n  dup2\n  mstore\n  0x20\n  add\n  0x00\n  keccak256\n  0x00\n    /* \"https://github.com/OpenZeppelin/openzeppelin-contracts/blob/master/contracts/token/ERC20/ERC20.sol\":6925:6947  _balances[to] += value */\n  dup3\n  dup3\n  sload\n  add\n  swap3\n  pop\n  pop\n  dup2\n  swap1\n  sstore\n  pop\n    /* \"https://github.com/OpenZeppelin/openzeppelin-contracts/blob/master/contracts/token/ERC20/ERC20.sol\":6547:6972  if (to == address(0)) {... */\ntag_75:\n    /* \"https://github.com/OpenZeppelin/openzeppelin-contracts/blob/master/contracts/token/ERC20/ERC20.sol\":7002:7004  to */\n  dup2\n    /* \"https://github.com/OpenZeppelin/openzeppelin-contracts/blob/master/contracts/token/ERC20/ERC20.sol\":6987:7012  Transfer(from, to, value) */\n  0xffffffffffffffffffffffffffffffffffffffff\n  and\n    /* \"https://github.com/OpenZeppelin/openzeppelin-contracts/blob/master/contracts/token/ERC20/ERC20.sol\":6996:7000  from */\n  dup4\n    /* \"https://github.com/OpenZeppelin/openzeppelin-contracts/blob/master/contracts/token/ERC20/ERC20.sol\":6987:7012  Transfer(from, to, value) */\n  0xffffffffffffffffffffffffffffffffffffffff\n  and\n  0xddf252ad1be2c89b69c2b068fc378daa952ba7f163c4a11628f55a4df523b3ef\n    /* \"https://github.com/OpenZeppelin/openzeppelin-contracts/blob/master/contracts/token/ERC20/ERC20.sol\":7006:7011  value */\n  dup4\n    /* \"https://github.com/OpenZeppelin/openzeppelin-contracts/blob/master/contracts/token/ERC20/ERC20.sol\":6987:7012  Transfer(from, to, value) */\n  mload(0x40)\n  tag_76\n  swap2\n  swap1\n  tag_77\n  jump\t// in\ntag_76:\n  mload(0x40)\n  dup1\n  swap2\n  sub\n  swap1\n  log3\n    /* \"https://github.com/OpenZeppelin/openzeppelin-contracts/blob/master/contracts/token/ERC20/ERC20.sol\":5912:7019  function _update(address from, address to, uint256 value) internal virtual {... */\n  pop\n  pop\n  pop\n  jump\t// out\n    /* \"#utility.yul\":7:82   */\ntag_78:\n    /* \"#utility.yul\":40:46   */\n  0x00\n    /* \"#utility.yul\":73:75   */\n  0x40\n    /* \"#utility.yul\":67:76   */\n  mload\n    /* \"#utility.yul\":57:76   */\n  swap1\n  pop\n    /* \"#utility.yul\":7:82   */\n  swap1\n  jump\t// out\n    /* \"#utility.yul\":88:205   */\ntag_79:\n    /* \"#utility.yul\":197:198   */\n  0x00\n    /* \"#utility.yul\":194:195   */\n  0x00\n    /* \"#utility.yul\":187:199   */\n  revert\n    /* \"#utility.yul\":211:328   */\ntag_80:\n    /* \"#utility.yul\":320:321   */\n  0x00\n    /* \"#utility.yul\":317:318   */\n  0x00\n    /* \"#utility.yul\":310:322   */\n  revert\n    /* \"#utility.yul\":334:451   */\ntag_81:\n    /* \"#utility.yul\":443:444   */\n  0x00\n    /* \"#utility.yul\":440:441   */\n  0x00\n    /* \"#utility.yul\":433:445   */\n  revert\n    /* \"#utility.yul\":457:559   */\ntag_82:\n    /* \"#utility.yul\":498:504   */\n  0x00\n    /* \"#utility.yul\":549:551   */\n  0x1f\n    /* \"#utility.yul\":545:552   */\n  not\n    /* \"#utility.yul\":540:542   */\n  0x1f\n    /* \"#utility.yul\":533:538   */\n  dup4\n    /* \"#utility.yul\":529:543   */\n  add\n    /* \"#utility.yul\":525:553   */\n  and\n    /* \"#utility.yul\":515:553   */\n  swap1\n  pop\n    /* \"#utility.yul\":457:559   */\n  swap2\n  swap1\n  pop\n  jump\t// out\n    /* \"#utility.yul\":565:745   */\ntag_83:\n    /* \"#utility.yul\":613:690   */\n  0x4e487b7100000000000000000000000000000000000000000000000000000000\n    /* \"#utility.yul\":610:611   */\n  0x00\n    /* \"#utility.yul\":603:691   */\n  mstore\n    /* \"#utility.yul\":710:714   */\n  0x41\n    /* \"#utility.yul\":707:708   */\n  0x04\n    /* \"#utility.yul\":700:715   */\n  mstore\n    /* \"#utility.yul\":734:738   */\n  0x24\n    /* \"#utility.yul\":731:732   */\n  0x00\n    /* \"#utility.yul\":724:739   */\n  revert\n    /* \"#utility.yul\":751:1032   */\ntag_84:\n    /* \"#utility.yul\":834:861   */\n  tag_135\n    /* \"#utility.yul\":856:860   */\n  dup3\n    /* \"#utility.yul\":834:861   */\n  tag_82\n  jump\t// in\ntag_135:\n    /* \"#utility.yul\":826:832   */\n  dup2\n    /* \"#utility.yul\":822:862   */\n  add\n    /* \"#utility.yul\":964:970   */\n  dup2\n    /* \"#utility.yul\":952:962   */\n  dup2\n    /* \"#utility.yul\":949:971   */\n  lt\n    /* \"#utility.yul\":928:946   */\n  0xffffffffffffffff\n    /* \"#utility.yul\":916:926   */\n  dup3\n    /* \"#utility.yul\":913:947   */\n  gt\n    /* \"#utility.yul\":910:972   */\n  or\n    /* \"#utility.yul\":907:995   */\n  iszero\n  tag_136\n  jumpi\n    /* \"#utility.yul\":975:993   */\n  tag_137\n  tag_83\n  jump\t// in\ntag_137:\n    /* \"#utility.yul\":907:995   */\ntag_136:\n    /* \"#utility.yul\":1015:1025   */\n  dup1\n    /* \"#utility.yul\":1011:1013   */\n  0x40\n    /* \"#utility.yul\":1004:1026   */\n  mstore\n    /* \"#utility.yul\":794:1032   */\n  pop\n    /* \"#utility.yul\":751:1032   */\n  pop\n  pop\n  jump\t// out\n    /* \"#utility.yul\":1038:1167   */\ntag_85:\n    /* \"#utility.yul\":1072:1078   */\n  0x00\n    /* \"#utility.yul\":1099:1119   */\n  tag_139\n  tag_78\n  jump\t// in\ntag_139:\n    /* \"#utility.yul\":1089:1119   */\n  swap1\n  pop\n    /* \"#utility.yul\":1128:1161   */\n  tag_140\n    /* \"#utility.yul\":1156:1160   */\n  dup3\n    /* \"#utility.yul\":1148:1154   */\n  dup3\n    /* \"#utility.yul\":1128:1161   */\n  tag_84\n  jump\t// in\ntag_140:\n    /* \"#utility.yul\":1038:1167   */\n  swap2\n  swap1\n  pop\n  jump\t// out\n    /* \"#utility.yul\":1173:1511   */\ntag_86:\n    /* \"#utility.yul\":1277:1281   */\n  0x00\n    /* \"#utility.yul\":1367:1385   */\n  0xffffffffffffffff\n    /* \"#utility.yul\":1359:1365   */\n  dup3\n    /* \"#utility.yul\":1356:1386   */\n  gt\n    /* \"#utility.yul\":1353:1409   */\n  iszero\n  tag_142\n  jumpi\n    /* \"#utility.yul\":1389:1407   */\n  tag_143\n  tag_83\n  jump\t// in\ntag_143:\n    /* \"#utility.yul\":1353:1409   */\ntag_142:\n    /* \"#utility.yul\":1439:1443   */\n  0x20\n    /* \"#utility.yul\":1431:1437   */\n  dup3\n    /* \"#utility.yul\":1427:1444   */\n  mul\n    /* \"#utility.yul\":1419:1444   */\n  swap1\n  pop\n    /* \"#utility.yul\":1499:1503   */\n  0x20\n    /* \"#utility.yul\":1493:1497   */\n  dup2\n    /* \"#utility.yul\":1489:1504   */\n  add\n    /* \"#utility.yul\":1481:1504   */\n  swap1\n  pop\n    /* \"#utility.yul\":1173:1511   */\n  swap2\n  swap1\n  pop\n  jump\t// out\n    /* \"#utility.yul\":1517:1634   */\ntag_87:\n    /* \"#utility.yul\":1626:1627   */\n  0x00\n    /* \"#utility.yul\":1623:1624   */\n  0x00\n    /* \"#utility.yul\":1616:1628   */\n  revert\n    /* \"#utility.yul\":1640:1757   */\ntag_88:\n    /* \"#utility.yul\":1749:1750   */\n  0x00\n    /* \"#utility.yul\":1746:1747   */\n  0x00\n    /* \"#utility.yul\":1739:1751   */\n  revert\n    /* \"#utility.yul\":1886:2012   */\ntag_90:\n    /* \"#utility.yul\":1923:1930   */\n  0x00\n    /* \"#utility.yul\":1963:2005   */\n  0xffffffffffffffffffffffffffffffffffffffff\n    /* \"#utility.yul\":1956:1961   */\n  dup3\n    /* \"#utility.yul\":1952:2006   */\n  and\n    /* \"#utility.yul\":1941:2006   */\n  swap1\n  pop\n    /* \"#utility.yul\":1886:2012   */\n  swap2\n  swap1\n  pop\n  jump\t// out\n    /* \"#utility.yul\":2018:2114   */\ntag_91:\n    /* \"#utility.yul\":2055:2062   */\n  0x00\n    /* \"#utility.yul\":2084:2108   */\n  tag_149\n    /* \"#utility.yul\":2102:2107   */\n  dup3\n    /* \"#utility.yul\":2084:2108   */\n  tag_90\n  jump\t// in\ntag_149:\n    /* \"#utility.yul\":2073:2108   */\n  swap1\n  pop\n    /* \"#utility.yul\":2018:2114   */\n  swap2\n  swap1\n  pop\n  jump\t// out\n    /* \"#utility.yul\":2120:2242   */\ntag_92:\n    /* \"#utility.yul\":2193:2217   */\n  tag_151\n    /* \"#utility.yul\":2211:2216   */\n  dup2\n    /* \"#utility.yul\":2193:2217   */\n  tag_91\n  jump\t// in\ntag_151:\n    /* \"#utility.yul\":2186:2191   */\n  dup2\n    /* \"#utility.yul\":2183:2218   */\n  eq\n    /* \"#utility.yul\":2173:2236   */\n  tag_152\n  jumpi\n    /* \"#utility.yul\":2232:2233   */\n  0x00\n    /* \"#utility.yul\":2229:2230   */\n  0x00\n    /* \"#utility.yul\":2222:2234   */\n  revert\n    /* \"#utility.yul\":2173:2236   */\ntag_152:\n    /* \"#utility.yul\":2120:2242   */\n  pop\n  jump\t// out\n    /* \"#utility.yul\":2248:2391   */\ntag_93:\n    /* \"#utility.yul\":2305:2310   */\n  0x00\n    /* \"#utility.yul\":2336:2342   */\n  dup2\n    /* \"#utility.yul\":2330:2343   */\n  mload\n    /* \"#utility.yul\":2321:2343   */\n  swap1\n  pop\n    /* \"#utility.yul\":2352:2385   */\n  tag_154\n    /* \"#utility.yul\":2379:2384   */\n  dup2\n    /* \"#utility.yul\":2352:2385   */\n  tag_92\n  jump\t// in\ntag_154:\n    /* \"#utility.yul\":2248:2391   */\n  swap3\n  swap2\n  pop\n  pop\n  jump\t// out\n    /* \"#utility.yul\":2397:2474   */\ntag_94:\n    /* \"#utility.yul\":2434:2441   */\n  0x00\n    /* \"#utility.yul\":2463:2468   */\n  dup2\n    /* \"#utility.yul\":2452:2468   */\n  swap1\n  pop\n    /* \"#utility.yul\":2397:2474   */\n  swap2\n  swap1\n  pop\n  jump\t// out\n    /* \"#utility.yul\":2480:2602   */\ntag_95:\n    /* \"#utility.yul\":2553:2577   */\n  tag_157\n    /* \"#utility.yul\":2571:2576   */\n  dup2\n    /* \"#utility.yul\":2553:2577   */\n  tag_94\n  jump\t// in\ntag_157:\n    /* \"#utility.yul\":2546:2551   */\n  dup2\n    /* \"#utility.yul\":2543:2578   */\n  eq\n    /* \"#utility.yul\":2533:2596   */\n  tag_158\n  jumpi\n    /* \"#utility.yul\":2592:2593   */\n  0x00\n    /* \"#utility.yul\":2589:2590   */\n  0x00\n    /* \"#utility.yul\":2582:2594   */\n  revert\n    /* \"#utility.yul\":2533:2596   */\ntag_158:\n    /* \"#utility.yul\":2480:2602   */\n  pop\n  jump\t// out\n    /* \"#utility.yul\":2608:2751   */\ntag_96:\n    /* \"#utility.yul\":2665:2670   */\n  0x00\n    /* \"#utility.yul\":2696:2702   */\n  dup2\n    /* \"#utility.yul\":2690:2703   */\n  mload\n    /* \"#utility.yul\":2681:2703   */\n  swap1\n  pop\n    /* \"#utility.yul\":2712:2745   */\n  tag_160\n    /* \"#utility.yul\":2739:2744   */\n  dup2\n    /* \"#utility.yul\":2712:2745   */\n  tag_95\n  jump\t// in\ntag_160:\n    /* \"#utility.yul\":2608:2751   */\n  swap3\n  swap2\n  pop\n  pop\n  jump\t// out\n    /* \"#utility.yul\":2792:3422   */\ntag_97:\n    /* \"#utility.yul\":2879:2884   */\n  0x00\n    /* \"#utility.yul\":2923:2927   */\n  0x40\n    /* \"#utility.yul\":2911:2920   */\n  dup3\n    /* \"#utility.yul\":2906:2909   */\n  dup5\n    /* \"#utility.yul\":2902:2921   */\n  sub\n    /* \"#utility.yul\":2898:2928   */\n  slt\n    /* \"#utility.yul\":2895:3012   */\n  iszero\n  tag_162\n  jumpi\n    /* \"#utility.yul\":2931:3010   */\n  tag_163\n  tag_88\n  jump\t// in\ntag_163:\n    /* \"#utility.yul\":2895:3012   */\ntag_162:\n    /* \"#utility.yul\":3030:3051   */\n  tag_164\n    /* \"#utility.yul\":3046:3050   */\n  0x40\n    /* \"#utility.yul\":3030:3051   */\n  tag_85\n  jump\t// in\ntag_164:\n    /* \"#utility.yul\":3021:3051   */\n  swap1\n  pop\n    /* \"#utility.yul\":3119:3120   */\n  0x00\n    /* \"#utility.yul\":3159:3219   */\n  tag_165\n    /* \"#utility.yul\":3215:3218   */\n  dup5\n    /* \"#utility.yul\":3206:3212   */\n  dup3\n    /* \"#utility.yul\":3195:3204   */\n  dup6\n    /* \"#utility.yul\":3191:3213   */\n  add\n    /* \"#utility.yul\":3159:3219   */\n  tag_93\n  jump\t// in\ntag_165:\n    /* \"#utility.yul\":3152:3156   */\n  0x00\n    /* \"#utility.yul\":3145:3150   */\n  dup4\n    /* \"#utility.yul\":3141:3157   */\n  add\n    /* \"#utility.yul\":3134:3220   */\n  mstore\n    /* \"#utility.yul\":3061:3231   */\n  pop\n    /* \"#utility.yul\":3302:3304   */\n  0x20\n    /* \"#utility.yul\":3343:3403   */\n  tag_166\n    /* \"#utility.yul\":3399:3402   */\n  dup5\n    /* \"#utility.yul\":3390:3396   */\n  dup3\n    /* \"#utility.yul\":3379:3388   */\n  dup6\n    /* \"#utility.yul\":3375:3397   */\n  add\n    /* \"#utility.yul\":3343:3403   */\n  tag_96\n  jump\t// in\ntag_166:\n    /* \"#utility.yul\":3336:3340   */\n  0x20\n    /* \"#utility.yul\":3329:3334   */\n  dup4\n    /* \"#utility.yul\":3325:3341   */\n  add\n    /* \"#utility.yul\":3318:3404   */\n  mstore\n    /* \"#utility.yul\":3241:3415   */\n  pop\n    /* \"#utility.yul\":2792:3422   */\n  swap3\n  swap2\n  pop\n  pop\n  jump\t// out\n    /* \"#utility.yul\":3465:4278   */\ntag_98:\n    /* \"#utility.yul\":3599:3604   */\n  0x00\n    /* \"#utility.yul\":3624:3732   */\n  tag_168\n    /* \"#utility.yul\":3640:3731   */\n  tag_169\n    /* \"#utility.yul\":3724:3730   */\n  dup5\n    /* \"#utility.yul\":3640:3731   */\n  tag_86\n  jump\t// in\ntag_169:\n    /* \"#utility.yul\":3624:3732   */\n  tag_85\n  jump\t// in\ntag_168:\n    /* \"#utility.yul\":3615:3732   */\n  swap1\n  pop\n    /* \"#utility.yul\":3752:3757   */\n  dup1\n    /* \"#utility.yul\":3781:3787   */\n  dup4\n    /* \"#utility.yul\":3774:3779   */\n  dup3\n    /* \"#utility.yul\":3767:3788   */\n  mstore\n    /* \"#utility.yul\":3815:3819   */\n  0x20\n    /* \"#utility.yul\":3808:3813   */\n  dup3\n    /* \"#utility.yul\":3804:3820   */\n  add\n    /* \"#utility.yul\":3797:3820   */\n  swap1\n  pop\n    /* \"#utility.yul\":3868:3872   */\n  0x40\n    /* \"#utility.yul\":3860:3866   */\n  dup5\n    /* \"#utility.yul\":3856:3873   */\n  mul\n    /* \"#utility.yul\":3848:3854   */\n  dup4\n    /* \"#utility.yul\":3844:3874   */\n  add\n    /* \"#utility.yul\":3897:3900   */\n  dup6\n    /* \"#utility.yul\":3889:3895   */\n  dup2\n    /* \"#utility.yul\":3886:3901   */\n  gt\n    /* \"#utility.yul\":3883:4005   */\n  iszero\n  tag_170\n  jumpi\n    /* \"#utility.yul\":3916:3995   */\n  tag_171\n  tag_87\n  jump\t// in\ntag_171:\n    /* \"#utility.yul\":3883:4005   */\ntag_170:\n    /* \"#utility.yul\":4031:4037   */\n  dup4\n    /* \"#utility.yul\":4014:4272   */\ntag_172:\n    /* \"#utility.yul\":4048:4054   */\n  dup2\n    /* \"#utility.yul\":4043:4046   */\n  dup2\n    /* \"#utility.yul\":4040:4055   */\n  lt\n    /* \"#utility.yul\":4014:4272   */\n  iszero\n  tag_174\n  jumpi\n    /* \"#utility.yul\":4123:4126   */\n  dup1\n    /* \"#utility.yul\":4152:4227   */\n  tag_175\n    /* \"#utility.yul\":4223:4226   */\n  dup9\n    /* \"#utility.yul\":4211:4221   */\n  dup3\n    /* \"#utility.yul\":4152:4227   */\n  tag_97\n  jump\t// in\ntag_175:\n    /* \"#utility.yul\":4147:4150   */\n  dup5\n    /* \"#utility.yul\":4140:4228   */\n  mstore\n    /* \"#utility.yul\":4257:4261   */\n  0x20\n    /* \"#utility.yul\":4252:4255   */\n  dup5\n    /* \"#utility.yul\":4248:4262   */\n  add\n    /* \"#utility.yul\":4241:4262   */\n  swap4\n  pop\n    /* \"#utility.yul\":4090:4272   */\n  pop\n    /* \"#utility.yul\":4074:4078   */\n  0x40\n    /* \"#utility.yul\":4069:4072   */\n  dup2\n    /* \"#utility.yul\":4065:4079   */\n  add\n    /* \"#utility.yul\":4058:4079   */\n  swap1\n  pop\n    /* \"#utility.yul\":4014:4272   */\n  jump(tag_172)\ntag_174:\n    /* \"#utility.yul\":4018:4039   */\n  pop\n    /* \"#utility.yul\":3605:4278   */\n  pop\n  pop\n    /* \"#utility.yul\":3465:4278   */\n  swap4\n  swap3\n  pop\n  pop\n  pop\n  jump\t// out\n    /* \"#utility.yul\":4321:4760   */\ntag_99:\n    /* \"#utility.yul\":4430:4435   */\n  0x00\n    /* \"#utility.yul\":4479:4482   */\n  dup3\n    /* \"#utility.yul\":4472:4476   */\n  0x1f\n    /* \"#utility.yul\":4464:4470   */\n  dup4\n    /* \"#utility.yul\":4460:4477   */\n  add\n    /* \"#utility.yul\":4456:4483   */\n  slt\n    /* \"#utility.yul\":4446:4568   */\n  tag_177\n  jumpi\n    /* \"#utility.yul\":4487:4566   */\n  tag_178\n  tag_81\n  jump\t// in\ntag_178:\n    /* \"#utility.yul\":4446:4568   */\ntag_177:\n    /* \"#utility.yul\":4597:4603   */\n  dup2\n    /* \"#utility.yul\":4591:4604   */\n  mload\n    /* \"#utility.yul\":4622:4754   */\n  tag_179\n    /* \"#utility.yul\":4750:4753   */\n  dup5\n    /* \"#utility.yul\":4742:4748   */\n  dup3\n    /* \"#utility.yul\":4735:4739   */\n  0x20\n    /* \"#utility.yul\":4727:4733   */\n  dup7\n    /* \"#utility.yul\":4723:4740   */\n  add\n    /* \"#utility.yul\":4622:4754   */\n  tag_98\n  jump\t// in\ntag_179:\n    /* \"#utility.yul\":4613:4754   */\n  swap2\n  pop\n    /* \"#utility.yul\":4436:4760   */\n  pop\n    /* \"#utility.yul\":4321:4760   */\n  swap3\n  swap2\n  pop\n  pop\n  jump\t// out\n    /* \"#utility.yul\":4766:5530   */\ntag_3:\n    /* \"#utility.yul\":4897:4903   */\n  0x00\n    /* \"#utility.yul\":4905:4911   */\n  0x00\n    /* \"#utility.yul\":4954:4956   */\n  0x40\n    /* \"#utility.yul\":4942:4951   */\n  dup4\n    /* \"#utility.yul\":4933:4940   */\n  dup6\n    /* \"#utility.yul\":4929:4952   */\n  sub\n    /* \"#utility.yul\":4925:4957   */\n  slt\n    /* \"#utility.yul\":4922:5041   */\n  iszero\n  tag_181\n  jumpi\n    /* \"#utility.yul\":4960:5039   */\n  tag_182\n  tag_79\n  jump\t// in\ntag_182:\n    /* \"#utility.yul\":4922:5041   */\ntag_181:\n    /* \"#utility.yul\":5101:5102   */\n  0x00\n    /* \"#utility.yul\":5090:5099   */\n  dup4\n    /* \"#utility.yul\":5086:5103   */\n  add\n    /* \"#utility.yul\":5080:5104   */\n  mload\n    /* \"#utility.yul\":5131:5149   */\n  0xffffffffffffffff\n    /* \"#utility.yul\":5123:5129   */\n  dup2\n    /* \"#utility.yul\":5120:5150   */\n  gt\n    /* \"#utility.yul\":5117:5234   */\n  iszero\n  tag_183\n  jumpi\n    /* \"#utility.yul\":5153:5232   */\n  tag_184\n  tag_80\n  jump\t// in\ntag_184:\n    /* \"#utility.yul\":5117:5234   */\ntag_183:\n    /* \"#utility.yul\":5258:5374   */\n  tag_185\n    /* \"#utility.yul\":5366:5373   */\n  dup6\n    /* \"#utility.yul\":5357:5363   */\n  dup3\n    /* \"#utility.yul\":5346:5355   */\n  dup7\n    /* \"#utility.yul\":5342:5364   */\n  add\n    /* \"#utility.yul\":5258:5374   */\n  tag_99\n  jump\t// in\ntag_185:\n    /* \"#utility.yul\":5248:5374   */\n  swap3\n  pop\n    /* \"#utility.yul\":5051:5384   */\n  pop\n    /* \"#utility.yul\":5423:5425   */\n  0x20\n    /* \"#utility.yul\":5449:5513   */\n  tag_186\n    /* \"#utility.yul\":5505:5512   */\n  dup6\n    /* \"#utility.yul\":5496:5502   */\n  dup3\n    /* \"#utility.yul\":5485:5494   */\n  dup7\n    /* \"#utility.yul\":5481:5503   */\n  add\n    /* \"#utility.yul\":5449:5513   */\n  tag_93\n  jump\t// in\ntag_186:\n    /* \"#utility.yul\":5439:5513   */\n  swap2\n  pop\n    /* \"#utility.yul\":5394:5523   */\n  pop\n    /* \"#utility.yul\":4766:5530   */\n  swap3\n  pop\n  swap3\n  swap1\n  pop\n  jump\t// out\n    /* \"#utility.yul\":5536:5635   */\ntag_100:\n    /* \"#utility.yul\":5588:5594   */\n  0x00\n    /* \"#utility.yul\":5622:5627   */\n  dup2\n    /* \"#utility.yul\":5616:5628   */\n  mload\n    /* \"#utility.yul\":5606:5628   */\n  swap1\n  pop\n    /* \"#utility.yul\":5536:5635   */\n  swap2\n  swap1\n  pop\n  jump\t// out\n    /* \"#utility.yul\":5641:5821   */\ntag_101:\n    /* \"#utility.yul\":5689:5766   */\n  0x4e487b7100000000000000000000000000000000000000000000000000000000\n    /* \"#utility.yul\":5686:5687   */\n  0x00\n    /* \"#utility.yul\":5679:5767   */\n  mstore\n    /* \"#utility.yul\":5786:5790   */\n  0x22\n    /* \"#utility.yul\":5783:5784   */\n  0x04\n    /* \"#utility.yul\":5776:5791   */\n  mstore\n    /* \"#utility.yul\":5810:5814   */\n  0x24\n    /* \"#utility.yul\":5807:5808   */\n  0x00\n    /* \"#utility.yul\":5800:5815   */\n  revert\n    /* \"#utility.yul\":5827:6147   */\ntag_102:\n    /* \"#utility.yul\":5871:5877   */\n  0x00\n    /* \"#utility.yul\":5908:5909   */\n  0x02\n    /* \"#utility.yul\":5902:5906   */\n  dup3\n    /* \"#utility.yul\":5898:5910   */\n  div\n    /* \"#utility.yul\":5888:5910   */\n  swap1\n  pop\n    /* \"#utility.yul\":5955:5956   */\n  0x01\n    /* \"#utility.yul\":5949:5953   */\n  dup3\n    /* \"#utility.yul\":5945:5957   */\n  and\n    /* \"#utility.yul\":5976:5994   */\n  dup1\n    /* \"#utility.yul\":5966:6047   */\n  tag_190\n  jumpi\n    /* \"#utility.yul\":6032:6036   */\n  0x7f\n    /* \"#utility.yul\":6024:6030   */\n  dup3\n    /* \"#utility.yul\":6020:6037   */\n  and\n    /* \"#utility.yul\":6010:6037   */\n  swap2\n  pop\n    /* \"#utility.yul\":5966:6047   */\ntag_190:\n    /* \"#utility.yul\":6094:6096   */\n  0x20\n    /* \"#utility.yul\":6086:6092   */\n  dup3\n    /* \"#utility.yul\":6083:6097   */\n  lt\n    /* \"#utility.yul\":6063:6081   */\n  dup2\n    /* \"#utility.yul\":6060:6098   */\n  sub\n    /* \"#utility.yul\":6057:6141   */\n  tag_191\n  jumpi\n    /* \"#utility.yul\":6113:6131   */\n  tag_192\n  tag_101\n  jump\t// in\ntag_192:\n    /* \"#utility.yul\":6057:6141   */\ntag_191:\n    /* \"#utility.yul\":5878:6147   */\n  pop\n    /* \"#utility.yul\":5827:6147   */\n  swap2\n  swap1\n  pop\n  jump\t// out\n    /* \"#utility.yul\":6153:6294   */\ntag_103:\n    /* \"#utility.yul\":6202:6206   */\n  0x00\n    /* \"#utility.yul\":6225:6228   */\n  dup2\n    /* \"#utility.yul\":6217:6228   */\n  swap1\n  pop\n    /* \"#utility.yul\":6248:6251   */\n  dup2\n    /* \"#utility.yul\":6245:6246   */\n  0x00\n    /* \"#utility.yul\":6238:6252   */\n  mstore\n    /* \"#utility.yul\":6282:6286   */\n  0x20\n    /* \"#utility.yul\":6279:6280   */\n  0x00\n    /* \"#utility.yul\":6269:6287   */\n  keccak256\n    /* \"#utility.yul\":6261:6287   */\n  swap1\n  pop\n    /* \"#utility.yul\":6153:6294   */\n  swap2\n  swap1\n  pop\n  jump\t// out\n    /* \"#utility.yul\":6300:6393   */\ntag_104:\n    /* \"#utility.yul\":6337:6343   */\n  0x00\n    /* \"#utility.yul\":6384:6386   */\n  0x20\n    /* \"#utility.yul\":6379:6381   */\n  0x1f\n    /* \"#utility.yul\":6372:6377   */\n  dup4\n    /* \"#utility.yul\":6368:6382   */\n  add\n    /* \"#utility.yul\":6364:6387   */\n  div\n    /* \"#utility.yul\":6354:6387   */\n  swap1\n  pop\n    /* \"#utility.yul\":6300:6393   */\n  swap2\n  swap1\n  pop\n  jump\t// out\n    /* \"#utility.yul\":6399:6506   */\ntag_105:\n    /* \"#utility.yul\":6443:6451   */\n  0x00\n    /* \"#utility.yul\":6493:6498   */\n  dup3\n    /* \"#utility.yul\":6487:6491   */\n  dup3\n    /* \"#utility.yul\":6483:6499   */\n  shl\n    /* \"#utility.yul\":6462:6499   */\n  swap1\n  pop\n    /* \"#utility.yul\":6399:6506   */\n  swap3\n  swap2\n  pop\n  pop\n  jump\t// out\n    /* \"#utility.yul\":6512:6905   */\ntag_106:\n    /* \"#utility.yul\":6581:6587   */\n  0x00\n    /* \"#utility.yul\":6631:6632   */\n  0x08\n    /* \"#utility.yul\":6619:6629   */\n  dup4\n    /* \"#utility.yul\":6615:6633   */\n  mul\n    /* \"#utility.yul\":6654:6751   */\n  tag_197\n    /* \"#utility.yul\":6684:6750   */\n  0xffffffffffffffffffffffffffffffffffffffffffffffffffffffffffffffff\n    /* \"#utility.yul\":6673:6682   */\n  dup3\n    /* \"#utility.yul\":6654:6751   */\n  tag_105\n  jump\t// in\ntag_197:\n    /* \"#utility.yul\":6772:6811   */\n  tag_198\n    /* \"#utility.yul\":6802:6810   */\n  dup7\n    /* \"#utility.yul\":6791:6800   */\n  dup4\n    /* \"#utility.yul\":6772:6811   */\n  tag_105\n  jump\t// in\ntag_198:\n    /* \"#utility.yul\":6760:6811   */\n  swap6\n  pop\n    /* \"#utility.yul\":6844:6848   */\n  dup1\n    /* \"#utility.yul\":6840:6849   */\n  not\n    /* \"#utility.yul\":6833:6838   */\n  dup5\n    /* \"#utility.yul\":6829:6850   */\n  and\n    /* \"#utility.yul\":6820:6850   */\n  swap4\n  pop\n    /* \"#utility.yul\":6893:6897   */\n  dup1\n    /* \"#utility.yul\":6883:6891   */\n  dup7\n    /* \"#utility.yul\":6879:6898   */\n  and\n    /* \"#utility.yul\":6872:6877   */\n  dup5\n    /* \"#utility.yul\":6869:6899   */\n  or\n    /* \"#utility.yul\":6859:6899   */\n  swap3\n  pop\n    /* \"#utility.yul\":6588:6905   */\n  pop\n  pop\n    /* \"#utility.yul\":6512:6905   */\n  swap4\n  swap3\n  pop\n  pop\n  pop\n  jump\t// out\n    /* \"#utility.yul\":6911:6971   */\ntag_107:\n    /* \"#utility.yul\":6939:6942   */\n  0x00\n    /* \"#utility.yul\":6960:6965   */\n  dup2\n    /* \"#utility.yul\":6953:6965   */\n  swap1\n  pop\n    /* \"#utility.yul\":6911:6971   */\n  swap2\n  swap1\n  pop\n  jump\t// out\n    /* \"#utility.yul\":6977:7119   */\ntag_108:\n    /* \"#utility.yul\":7027:7036   */\n  0x00\n    /* \"#utility.yul\":7060:7113   */\n  tag_201\n    /* \"#utility.yul\":7078:7112   */\n  tag_202\n    /* \"#utility.yul\":7087:7111   */\n  tag_203\n    /* \"#utility.yul\":7105:7110   */\n  dup5\n    /* \"#utility.yul\":7087:7111   */\n  tag_94\n  jump\t// in\ntag_203:\n    /* \"#utility.yul\":7078:7112   */\n  tag_107\n  jump\t// in\ntag_202:\n    /* \"#utility.yul\":7060:7113   */\n  tag_94\n  jump\t// in\ntag_201:\n    /* \"#utility.yul\":7047:7113   */\n  swap1\n  pop\n    /* \"#utility.yul\":6977:7119   */\n  swap2\n  swap1\n  pop\n  jump\t// out\n    /* \"#utility.yul\":7125:7200   */\ntag_109:\n    /* \"#utility.yul\":7168:7171   */\n  0x00\n    /* \"#utility.yul\":7189:7194   */\n  dup2\n    /* \"#utility.yul\":7182:7194   */\n  swap1\n  pop\n    /* \"#utility.yul\":7125:7200   */\n  swap2\n  swap1\n  pop\n  jump\t// out\n    /* \"#utility.yul\":7206:7475   */\ntag_110:\n    /* \"#utility.yul\":7316:7355   */\n  tag_206\n    /* \"#utility.yul\":7347:7354   */\n  dup4\n    /* \"#utility.yul\":7316:7355   */\n  tag_108\n  jump\t// in\ntag_206:\n    /* \"#utility.yul\":7377:7468   */\n  tag_207\n    /* \"#utility.yul\":7426:7467   */\n  tag_208\n    /* \"#utility.yul\":7450:7466   */\n  dup3\n    /* \"#utility.yul\":7426:7467   */\n  tag_109\n  jump\t// in\ntag_208:\n    /* \"#utility.yul\":7418:7424   */\n  dup5\n    /* \"#utility.yul\":7411:7415   */\n  dup5\n    /* \"#utility.yul\":7405:7416   */\n  sload\n    /* \"#utility.yul\":7377:7468   */\n  tag_106\n  jump\t// in\ntag_207:\n    /* \"#utility.yul\":7371:7375   */\n  dup3\n    /* \"#utility.yul\":7364:7469   */\n  sstore\n    /* \"#utility.yul\":7282:7475   */\n  pop\n    /* \"#utility.yul\":7206:7475   */\n  pop\n  pop\n  pop\n  jump\t// out\n    /* \"#utility.yul\":7481:7554   */\ntag_111:\n    /* \"#utility.yul\":7526:7529   */\n  0x00\n    /* \"#utility.yul\":7547:7548   */\n  0x00\n    /* \"#utility.yul\":7540:7548   */\n  swap1\n  pop\n    /* \"#utility.yul\":7481:7554   */\n  swap1\n  jump\t// out\n    /* \"#utility.yul\":7560:7749   */\ntag_112:\n    /* \"#utility.yul\":7637:7669   */\n  tag_211\n  tag_111\n  jump\t// in\ntag_211:\n    /* \"#utility.yul\":7678:7743   */\n  tag_212\n    /* \"#utility.yul\":7736:7742   */\n  dup2\n    /* \"#utility.yul\":7728:7734   */\n  dup5\n    /* \"#utility.yul\":7722:7726   */\n  dup5\n    /* \"#utility.yul\":7678:7743   */\n  tag_110\n  jump\t// in\ntag_212:\n    /* \"#utility.yul\":7613:7749   */\n  pop\n    /* \"#utility.yul\":7560:7749   */\n  pop\n  pop\n  jump\t// out\n    /* \"#utility.yul\":7755:7941   */\ntag_113:\n    /* \"#utility.yul\":7815:7935   */\ntag_214:\n    /* \"#utility.yul\":7832:7835   */\n  dup2\n    /* \"#utility.yul\":7825:7830   */\n  dup2\n    /* \"#utility.yul\":7822:7836   */\n  lt\n    /* \"#utility.yul\":7815:7935   */\n  iszero\n  tag_216\n  jumpi\n    /* \"#utility.yul\":7886:7925   */\n  tag_217\n    /* \"#utility.yul\":7923:7924   */\n  0x00\n    /* \"#utility.yul\":7916:7921   */\n  dup3\n    /* \"#utility.yul\":7886:7925   */\n  tag_112\n  jump\t// in\ntag_217:\n    /* \"#utility.yul\":7859:7860   */\n  0x01\n    /* \"#utility.yul\":7852:7857   */\n  dup2\n    /* \"#utility.yul\":7848:7861   */\n  add\n    /* \"#utility.yul\":7839:7861   */\n  swap1\n  pop\n    /* \"#utility.yul\":7815:7935   */\n  jump(tag_214)\ntag_216:\n    /* \"#utility.yul\":7755:7941   */\n  pop\n  pop\n  jump\t// out\n    /* \"#utility.yul\":7947:8490   */\ntag_114:\n    /* \"#utility.yul\":8048:8050   */\n  0x1f\n    /* \"#utility.yul\":8043:8046   */\n  dup3\n    /* \"#utility.yul\":8040:8051   */\n  gt\n    /* \"#utility.yul\":8037:8483   */\n  iszero\n  tag_219\n  jumpi\n    /* \"#utility.yul\":8082:8120   */\n  tag_220\n    /* \"#utility.yul\":8114:8119   */\n  dup2\n    /* \"#utility.yul\":8082:8120   */\n  tag_103\n  jump\t// in\ntag_220:\n    /* \"#utility.yul\":8166:8195   */\n  tag_221\n    /* \"#utility.yul\":8184:8194   */\n  dup5\n    /* \"#utility.yul\":8166:8195   */\n  tag_104\n  jump\t// in\ntag_221:\n    /* \"#utility.yul\":8156:8164   */\n  dup2\n    /* \"#utility.yul\":8152:8196   */\n  add\n    /* \"#utility.yul\":8349:8351   */\n  0x20\n    /* \"#utility.yul\":8337:8347   */\n  dup6\n    /* \"#utility.yul\":8334:8352   */\n  lt\n    /* \"#utility.yul\":8331:8380   */\n  iszero\n  tag_222\n  jumpi\n    /* \"#utility.yul\":8370:8378   */\n  dup2\n    /* \"#utility.yul\":8355:8378   */\n  swap1\n  pop\n    /* \"#utility.yul\":8331:8380   */\ntag_222:\n    /* \"#utility.yul\":8393:8473   */\n  tag_223\n    /* \"#utility.yul\":8449:8471   */\n  tag_224\n    /* \"#utility.yul\":8467:8470   */\n  dup6\n    /* \"#utility.yul\":8449:8471   */\n  tag_104\n  jump\t// in\ntag_224:\n    /* \"#utility.yul\":8439:8447   */\n  dup4\n    /* \"#utility.yul\":8435:8472   */\n  add\n    /* \"#utility.yul\":8422:8433   */\n  dup3\n    /* \"#utility.yul\":8393:8473   */\n  tag_113\n  jump\t// in\ntag_223:\n    /* \"#utility.yul\":8052:8483   */\n  pop\n  pop\n    /* \"#utility.yul\":8037:8483   */\ntag_219:\n    /* \"#utility.yul\":7947:8490   */\n  pop\n  pop\n  pop\n  jump\t// out\n    /* \"#utility.yul\":8496:8613   */\ntag_115:\n    /* \"#utility.yul\":8550:8558   */\n  0x00\n    /* \"#utility.yul\":8600:8605   */\n  dup3\n    /* \"#utility.yul\":8594:8598   */\n  dup3\n    /* \"#utility.yul\":8590:8606   */\n  shr\n    /* \"#utility.yul\":8569:8606   */\n  swap1\n  pop\n    /* \"#utility.yul\":8496:8613   */\n  swap3\n  swap2\n  pop\n  pop\n  jump\t// out\n    /* \"#utility.yul\":8619:8788   */\ntag_116:\n    /* \"#utility.yul\":8663:8669   */\n  0x00\n    /* \"#utility.yul\":8696:8747   */\n  tag_227\n    /* \"#utility.yul\":8744:8745   */\n  0x00\n    /* \"#utility.yul\":8740:8746   */\n  not\n    /* \"#utility.yul\":8732:8737   */\n  dup5\n    /* \"#utility.yul\":8729:8730   */\n  0x08\n    /* \"#utility.yul\":8725:8738   */\n  mul\n    /* \"#utility.yul\":8696:8747   */\n  tag_115\n  jump\t// in\ntag_227:\n    /* \"#utility.yul\":8692:8748   */\n  not\n    /* \"#utility.yul\":8777:8781   */\n  dup1\n    /* \"#utility.yul\":8771:8775   */\n  dup4\n    /* \"#utility.yul\":8767:8782   */\n  and\n    /* \"#utility.yul\":8757:8782   */\n  swap2\n  pop\n    /* \"#utility.yul\":8670:8788   */\n  pop\n    /* \"#utility.yul\":8619:8788   */\n  swap3\n  swap2\n  pop\n  pop\n  jump\t// out\n    /* \"#utility.yul\":8793:9088   */\ntag_117:\n    /* \"#utility.yul\":8869:8873   */\n  0x00\n    /* \"#utility.yul\":9015:9044   */\n  tag_229\n    /* \"#utility.yul\":9040:9043   */\n  dup4\n    /* \"#utility.yul\":9034:9038   */\n  dup4\n    /* \"#utility.yul\":9015:9044   */\n  tag_116\n  jump\t// in\ntag_229:\n    /* \"#utility.yul\":9007:9044   */\n  swap2\n  pop\n    /* \"#utility.yul\":9077:9080   */\n  dup3\n    /* \"#utility.yul\":9074:9075   */\n  0x02\n    /* \"#utility.yul\":9070:9081   */\n  mul\n    /* \"#utility.yul\":9064:9068   */\n  dup3\n    /* \"#utility.yul\":9061:9082   */\n  or\n    /* \"#utility.yul\":9053:9082   */\n  swap1\n  pop\n    /* \"#utility.yul\":8793:9088   */\n  swap3\n  swap2\n  pop\n  pop\n  jump\t// out\n    /* \"#utility.yul\":9093:10488   */\ntag_9:\n    /* \"#utility.yul\":9210:9247   */\n  tag_231\n    /* \"#utility.yul\":9243:9246   */\n  dup3\n    /* \"#utility.yul\":9210:9247   */\n  tag_100\n  jump\t// in\ntag_231:\n    /* \"#utility.yul\":9312:9330   */\n  0xffffffffffffffff\n    /* \"#utility.yul\":9304:9310   */\n  dup2\n    /* \"#utility.yul\":9301:9331   */\n  gt\n    /* \"#utility.yul\":9298:9354   */\n  iszero\n  tag_232\n  jumpi\n    /* \"#utility.yul\":9334:9352   */\n  tag_233\n  tag_83\n  jump\t// in\ntag_233:\n    /* \"#utility.yul\":9298:9354   */\ntag_232:\n    /* \"#utility.yul\":9378:9416   */\n  tag_234\n    /* \"#utility.yul\":9410:9414   */\n  dup3\n    /* \"#utility.yul\":9404:9415   */\n  sload\n    /* \"#utility.yul\":9378:9416   */\n  tag_102\n  jump\t// in\ntag_234:\n    /* \"#utility.yul\":9463:9530   */\n  tag_235\n    /* \"#utility.yul\":9523:9529   */\n  dup3\n    /* \"#utility.yul\":9515:9521   */\n  dup3\n    /* \"#utility.yul\":9509:9513   */\n  dup6\n    /* \"#utility.yul\":9463:9530   */\n  tag_114\n  jump\t// in\ntag_235:\n    /* \"#utility.yul\":9557:9558   */\n  0x00\n    /* \"#utility.yul\":9581:9585   */\n  0x20\n    /* \"#utility.yul\":9568:9585   */\n  swap1\n  pop\n    /* \"#utility.yul\":9613:9615   */\n  0x1f\n    /* \"#utility.yul\":9605:9611   */\n  dup4\n    /* \"#utility.yul\":9602:9616   */\n  gt\n    /* \"#utility.yul\":9630:9631   */\n  0x01\n    /* \"#utility.yul\":9625:10243   */\n  dup2\n  eq\n  tag_237\n  jumpi\n    /* \"#utility.yul\":10287:10288   */\n  0x00\n    /* \"#utility.yul\":10304:10310   */\n  dup5\n    /* \"#utility.yul\":10301:10378   */\n  iszero\n  tag_238\n  jumpi\n    /* \"#utility.yul\":10353:10362   */\n  dup3\n    /* \"#utility.yul\":10348:10351   */\n  dup8\n    /* \"#utility.yul\":10344:10363   */\n  add\n    /* \"#utility.yul\":10338:10364   */\n  mload\n    /* \"#utility.yul\":10329:10364   */\n  swap1\n  pop\n    /* \"#utility.yul\":10301:10378   */\ntag_238:\n    /* \"#utility.yul\":10404:10471   */\n  tag_239\n    /* \"#utility.yul\":10464:10470   */\n  dup6\n    /* \"#utility.yul\":10457:10462   */\n  dup3\n    /* \"#utility.yul\":10404:10471   */\n  tag_117\n  jump\t// in\ntag_239:\n    /* \"#utility.yul\":10398:10402   */\n  dup7\n    /* \"#utility.yul\":10391:10472   */\n  sstore\n    /* \"#utility.yul\":10260:10482   */\n  pop\n    /* \"#utility.yul\":9595:10482   */\n  jump(tag_236)\n    /* \"#utility.yul\":9625:10243   */\ntag_237:\n    /* \"#utility.yul\":9677:9681   */\n  0x1f\n    /* \"#utility.yul\":9673:9682   */\n  not\n    /* \"#utility.yul\":9665:9671   */\n  dup5\n    /* \"#utility.yul\":9661:9683   */\n  and\n    /* \"#utility.yul\":9711:9748   */\n  tag_240\n    /* \"#utility.yul\":9743:9747   */\n  dup7\n    /* \"#utility.yul\":9711:9748   */\n  tag_103\n  jump\t// in\ntag_240:\n    /* \"#utility.yul\":9770:9771   */\n  0x00\n    /* \"#utility.yul\":9784:9992   */\ntag_241:\n    /* \"#utility.yul\":9798:9805   */\n  dup3\n    /* \"#utility.yul\":9795:9796   */\n  dup2\n    /* \"#utility.yul\":9792:9806   */\n  lt\n    /* \"#utility.yul\":9784:9992   */\n  iszero\n  tag_243\n  jumpi\n    /* \"#utility.yul\":9877:9886   */\n  dup5\n    /* \"#utility.yul\":9872:9875   */\n  dup10\n    /* \"#utility.yul\":9868:9887   */\n  add\n    /* \"#utility.yul\":9862:9888   */\n  mload\n    /* \"#utility.yul\":9854:9860   */\n  dup3\n    /* \"#utility.yul\":9847:9889   */\n  sstore\n    /* \"#utility.yul\":9928:9929   */\n  0x01\n    /* \"#utility.yul\":9920:9926   */\n  dup3\n    /* \"#utility.yul\":9916:9930   */\n  add\n    /* \"#utility.yul\":9906:9930   */\n  swap2\n  pop\n    /* \"#utility.yul\":9975:9977   */\n  0x20\n    /* \"#utility.yul\":9964:9973   */\n  dup6\n    /* \"#utility.yul\":9960:9978   */\n  add\n    /* \"#utility.yul\":9947:9978   */\n  swap5\n  pop\n    /* \"#utility.yul\":9821:9825   */\n  0x20\n    /* \"#utility.yul\":9818:9819   */\n  dup2\n    /* \"#utility.yul\":9814:9826   */\n  add\n    /* \"#utility.yul\":9809:9826   */\n  swap1\n  pop\n    /* \"#utility.yul\":9784:9992   */\n  jump(tag_241)\ntag_243:\n    /* \"#utility.yul\":10020:10026   */\n  dup7\n    /* \"#utility.yul\":10011:10018   */\n  dup4\n    /* \"#utility.yul\":10008:10027   */\n  lt\n    /* \"#utility.yul\":10005:10184   */\n  iszero\n  tag_244\n  jumpi\n    /* \"#utility.yul\":10078:10087   */\n  dup5\n    /* \"#utility.yul\":10073:10076   */\n  dup10\n    /* \"#utility.yul\":10069:10088   */\n  add\n    /* \"#utility.yul\":10063:10089   */\n  mload\n    /* \"#utility.yul\":10121:10169   */\n  tag_245\n    /* \"#utility.yul\":10163:10167   */\n  0x1f\n    /* \"#utility.yul\":10155:10161   */\n  dup10\n    /* \"#utility.yul\":10151:10168   */\n  and\n    /* \"#utility.yul\":10140:10149   */\n  dup3\n    /* \"#utility.yul\":10121:10169   */\n  tag_116\n  jump\t// in\ntag_245:\n    /* \"#utility.yul\":10113:10119   */\n  dup4\n    /* \"#utility.yul\":10106:10170   */\n  sstore\n    /* \"#utility.yul\":10028:10184   */\n  pop\n    /* \"#utility.yul\":10005:10184   */\ntag_244:\n    /* \"#utility.yul\":10230:10231   */\n  0x01\n    /* \"#utility.yul\":10226:10227   */\n  0x02\n    /* \"#utility.yul\":10218:10224   */\n  dup9\n    /* \"#utility.yul\":10214:10228   */\n  mul\n    /* \"#utility.yul\":10210:10232   */\n  add\n    /* \"#utility.yul\":10204:10208   */\n  dup9\n    /* \"#utility.yul\":10197:10233   */\n  sstore\n    /* \"#utility.yul\":9632:10243   */\n  pop\n  pop\n  pop\n    /* \"#utility.yul\":9595:10482   */\ntag_236:\n  pop\n    /* \"#utility.yul\":9185:10488   */\n  pop\n  pop\n  pop\n    /* \"#utility.yul\":9093:10488   */\n  pop\n  pop\n  jump\t// out\n    /* \"#utility.yul\":10494:10612   */\ntag_118:\n    /* \"#utility.yul\":10581:10605   */\n  tag_247\n    /* \"#utility.yul\":10599:10604   */\n  dup2\n    /* \"#utility.yul\":10581:10605   */\n  tag_91\n  jump\t// in\ntag_247:\n    /* \"#utility.yul\":10576:10579   */\n  dup3\n    /* \"#utility.yul\":10569:10606   */\n  mstore\n    /* \"#utility.yul\":10494:10612   */\n  pop\n  pop\n  jump\t// out\n    /* \"#utility.yul\":10618:10840   */\ntag_14:\n    /* \"#utility.yul\":10711:10715   */\n  0x00\n    /* \"#utility.yul\":10749:10751   */\n  0x20\n    /* \"#utility.yul\":10738:10747   */\n  dup3\n    /* \"#utility.yul\":10734:10752   */\n  add\n    /* \"#utility.yul\":10726:10752   */\n  swap1\n  pop\n    /* \"#utility.yul\":10762:10833   */\n  tag_249\n    /* \"#utility.yul\":10830:10831   */\n  0x00\n    /* \"#utility.yul\":10819:10828   */\n  dup4\n    /* \"#utility.yul\":10815:10832   */\n  add\n    /* \"#utility.yul\":10806:10812   */\n  dup5\n    /* \"#utility.yul\":10762:10833   */\n  tag_118\n  jump\t// in\ntag_249:\n    /* \"#utility.yul\":10618:10840   */\n  swap3\n  swap2\n  pop\n  pop\n  jump\t// out\n    /* \"#utility.yul\":10846:11015   */\ntag_119:\n    /* \"#utility.yul\":10930:10941   */\n  0x00\n    /* \"#utility.yul\":10964:10970   */\n  dup3\n    /* \"#utility.yul\":10959:10962   */\n  dup3\n    /* \"#utility.yul\":10952:10971   */\n  mstore\n    /* \"#utility.yul\":11004:11008   */\n  0x20\n    /* \"#utility.yul\":10999:11002   */\n  dup3\n    /* \"#utility.yul\":10995:11009   */\n  add\n    /* \"#utility.yul\":10980:11009   */\n  swap1\n  pop\n    /* \"#utility.yul\":10846:11015   */\n  swap3\n  swap2\n  pop\n  pop\n  jump\t// out\n    /* \"#utility.yul\":11021:11241   */\ntag_120:\n    /* \"#utility.yul\":11161:11195   */\n  0x4174206c65617374206f6e65207465616d206d656d6265722072657175697265\n    /* \"#utility.yul\":11157:11158   */\n  0x00\n    /* \"#utility.yul\":11149:11155   */\n  dup3\n    /* \"#utility.yul\":11145:11159   */\n  add\n    /* \"#utility.yul\":11138:11196   */\n  mstore\n    /* \"#utility.yul\":11230:11233   */\n  0x6400000000000000000000000000000000000000000000000000000000000000\n    /* \"#utility.yul\":11225:11227   */\n  0x20\n    /* \"#utility.yul\":11217:11223   */\n  dup3\n    /* \"#utility.yul\":11213:11228   */\n  add\n    /* \"#utility.yul\":11206:11234   */\n  mstore\n    /* \"#utility.yul\":11021:11241   */\n  pop\n  jump\t// out\n    /* \"#utility.yul\":11247:11613   */\ntag_121:\n    /* \"#utility.yul\":11389:11392   */\n  0x00\n    /* \"#utility.yul\":11410:11477   */\n  tag_253\n    /* \"#utility.yul\":11474:11476   */\n  0x21\n    /* \"#utility.yul\":11469:11472   */\n  dup4\n    /* \"#utility.yul\":11410:11477   */\n  tag_119\n  jump\t// in\ntag_253:\n    /* \"#utility.yul\":11403:11477   */\n  swap2\n  pop\n    /* \"#utility.yul\":11486:11579   */\n  tag_254\n    /* \"#utility.yul\":11575:11578   */\n  dup3\n    /* \"#utility.yul\":11486:11579   */\n  tag_120\n  jump\t// in\ntag_254:\n    /* \"#utility.yul\":11604:11606   */\n  0x40\n    /* \"#utility.yul\":11599:11602   */\n  dup3\n    /* \"#utility.yul\":11595:11607   */\n  add\n    /* \"#utility.yul\":11588:11607   */\n  swap1\n  pop\n    /* \"#utility.yul\":11247:11613   */\n  swap2\n  swap1\n  pop\n  jump\t// out\n    /* \"#utility.yul\":11619:12038   */\ntag_20:\n    /* \"#utility.yul\":11785:11789   */\n  0x00\n    /* \"#utility.yul\":11823:11825   */\n  0x20\n    /* \"#utility.yul\":11812:11821   */\n  dup3\n    /* \"#utility.yul\":11808:11826   */\n  add\n    /* \"#utility.yul\":11800:11826   */\n  swap1\n  pop\n    /* \"#utility.yul\":11872:11881   */\n  dup2\n    /* \"#utility.yul\":11866:11870   */\n  dup2\n    /* \"#utility.yul\":11862:11882   */\n  sub\n    /* \"#utility.yul\":11858:11859   */\n  0x00\n    /* \"#utility.yul\":11847:11856   */\n  dup4\n    /* \"#utility.yul\":11843:11860   */\n  add\n    /* \"#utility.yul\":11836:11883   */\n  mstore\n    /* \"#utility.yul\":11900:12031   */\n  tag_256\n    /* \"#utility.yul\":12026:12030   */\n  dup2\n    /* \"#utility.yul\":11900:12031   */\n  tag_121\n  jump\t// in\ntag_256:\n    /* \"#utility.yul\":11892:12031   */\n  swap1\n  pop\n    /* \"#utility.yul\":11619:12038   */\n  swap2\n  swap1\n  pop\n  jump\t// out\n    /* \"#utility.yul\":12044:12224   */\ntag_26:\n    /* \"#utility.yul\":12092:12169   */\n  0x4e487b7100000000000000000000000000000000000000000000000000000000\n    /* \"#utility.yul\":12089:12090   */\n  0x00\n    /* \"#utility.yul\":12082:12170   */\n  mstore\n    /* \"#utility.yul\":12189:12193   */\n  0x32\n    /* \"#utility.yul\":12186:12187   */\n  0x04\n    /* \"#utility.yul\":12179:12194   */\n  mstore\n    /* \"#utility.yul\":12213:12217   */\n  0x24\n    /* \"#utility.yul\":12210:12211   */\n  0x00\n    /* \"#utility.yul\":12203:12218   */\n  revert\n    /* \"#utility.yul\":12230:12410   */\ntag_122:\n    /* \"#utility.yul\":12278:12355   */\n  0x4e487b7100000000000000000000000000000000000000000000000000000000\n    /* \"#utility.yul\":12275:12276   */\n  0x00\n    /* \"#utility.yul\":12268:12356   */\n  mstore\n    /* \"#utility.yul\":12375:12379   */\n  0x11\n    /* \"#utility.yul\":12372:12373   */\n  0x04\n    /* \"#utility.yul\":12365:12380   */\n  mstore\n    /* \"#utility.yul\":12399:12403   */\n  0x24\n    /* \"#utility.yul\":12396:12397   */\n  0x00\n    /* \"#utility.yul\":12389:12404   */\n  revert\n    /* \"#utility.yul\":12416:12607   */\ntag_28:\n    /* \"#utility.yul\":12456:12459   */\n  0x00\n    /* \"#utility.yul\":12475:12495   */\n  tag_260\n    /* \"#utility.yul\":12493:12494   */\n  dup3\n    /* \"#utility.yul\":12475:12495   */\n  tag_94\n  jump\t// in\ntag_260:\n    /* \"#utility.yul\":12470:12495   */\n  swap2\n  pop\n    /* \"#utility.yul\":12509:12529   */\n  tag_261\n    /* \"#utility.yul\":12527:12528   */\n  dup4\n    /* \"#utility.yul\":12509:12529   */\n  tag_94\n  jump\t// in\ntag_261:\n    /* \"#utility.yul\":12504:12529   */\n  swap3\n  pop\n    /* \"#utility.yul\":12552:12553   */\n  dup3\n    /* \"#utility.yul\":12549:12550   */\n  dup3\n    /* \"#utility.yul\":12545:12554   */\n  add\n    /* \"#utility.yul\":12538:12554   */\n  swap1\n  pop\n    /* \"#utility.yul\":12573:12576   */\n  dup1\n    /* \"#utility.yul\":12570:12571   */\n  dup3\n    /* \"#utility.yul\":12567:12577   */\n  gt\n    /* \"#utility.yul\":12564:12600   */\n  iszero\n  tag_262\n  jumpi\n    /* \"#utility.yul\":12580:12598   */\n  tag_263\n  tag_122\n  jump\t// in\ntag_263:\n    /* \"#utility.yul\":12564:12600   */\ntag_262:\n    /* \"#utility.yul\":12416:12607   */\n  swap3\n  swap2\n  pop\n  pop\n  jump\t// out\n    /* \"#utility.yul\":12613:13023   */\ntag_33:\n    /* \"#utility.yul\":12653:12660   */\n  0x00\n    /* \"#utility.yul\":12676:12696   */\n  tag_265\n    /* \"#utility.yul\":12694:12695   */\n  dup3\n    /* \"#utility.yul\":12676:12696   */\n  tag_94\n  jump\t// in\ntag_265:\n    /* \"#utility.yul\":12671:12696   */\n  swap2\n  pop\n    /* \"#utility.yul\":12710:12730   */\n  tag_266\n    /* \"#utility.yul\":12728:12729   */\n  dup4\n    /* \"#utility.yul\":12710:12730   */\n  tag_94\n  jump\t// in\ntag_266:\n    /* \"#utility.yul\":12705:12730   */\n  swap3\n  pop\n    /* \"#utility.yul\":12765:12766   */\n  dup3\n    /* \"#utility.yul\":12762:12763   */\n  dup3\n    /* \"#utility.yul\":12758:12767   */\n  mul\n    /* \"#utility.yul\":12787:12817   */\n  tag_267\n    /* \"#utility.yul\":12805:12816   */\n  dup2\n    /* \"#utility.yul\":12787:12817   */\n  tag_94\n  jump\t// in\ntag_267:\n    /* \"#utility.yul\":12776:12817   */\n  swap2\n  pop\n    /* \"#utility.yul\":12966:12967   */\n  dup3\n    /* \"#utility.yul\":12957:12964   */\n  dup3\n    /* \"#utility.yul\":12953:12968   */\n  div\n    /* \"#utility.yul\":12950:12951   */\n  dup5\n    /* \"#utility.yul\":12947:12969   */\n  eq\n    /* \"#utility.yul\":12927:12928   */\n  dup4\n    /* \"#utility.yul\":12920:12929   */\n  iszero\n    /* \"#utility.yul\":12900:12983   */\n  or\n    /* \"#utility.yul\":12877:13016   */\n  tag_268\n  jumpi\n    /* \"#utility.yul\":12996:13014   */\n  tag_269\n  tag_122\n  jump\t// in\ntag_269:\n    /* \"#utility.yul\":12877:13016   */\ntag_268:\n    /* \"#utility.yul\":12661:13023   */\n  pop\n    /* \"#utility.yul\":12613:13023   */\n  swap3\n  swap2\n  pop\n  pop\n  jump\t// out\n    /* \"#utility.yul\":13029:13209   */\ntag_123:\n    /* \"#utility.yul\":13077:13154   */\n  0x4e487b7100000000000000000000000000000000000000000000000000000000\n    /* \"#utility.yul\":13074:13075   */\n  0x00\n    /* \"#utility.yul\":13067:13155   */\n  mstore\n    /* \"#utility.yul\":13174:13178   */\n  0x12\n    /* \"#utility.yul\":13171:13172   */\n  0x04\n    /* \"#utility.yul\":13164:13179   */\n  mstore\n    /* \"#utility.yul\":13198:13202   */\n  0x24\n    /* \"#utility.yul\":13195:13196   */\n  0x00\n    /* \"#utility.yul\":13188:13203   */\n  revert\n    /* \"#utility.yul\":13215:13400   */\ntag_35:\n    /* \"#utility.yul\":13255:13256   */\n  0x00\n    /* \"#utility.yul\":13272:13292   */\n  tag_272\n    /* \"#utility.yul\":13290:13291   */\n  dup3\n    /* \"#utility.yul\":13272:13292   */\n  tag_94\n  jump\t// in\ntag_272:\n    /* \"#utility.yul\":13267:13292   */\n  swap2\n  pop\n    /* \"#utility.yul\":13306:13326   */\n  tag_273\n    /* \"#utility.yul\":13324:13325   */\n  dup4\n    /* \"#utility.yul\":13306:13326   */\n  tag_94\n  jump\t// in\ntag_273:\n    /* \"#utility.yul\":13301:13326   */\n  swap3\n  pop\n    /* \"#utility.yul\":13345:13346   */\n  dup3\n    /* \"#utility.yul\":13335:13370   */\n  tag_274\n  jumpi\n    /* \"#utility.yul\":13350:13368   */\n  tag_275\n  tag_123\n  jump\t// in\ntag_275:\n    /* \"#utility.yul\":13335:13370   */\ntag_274:\n    /* \"#utility.yul\":13392:13393   */\n  dup3\n    /* \"#utility.yul\":13389:13390   */\n  dup3\n    /* \"#utility.yul\":13385:13394   */\n  div\n    /* \"#utility.yul\":13380:13394   */\n  swap1\n  pop\n    /* \"#utility.yul\":13215:13400   */\n  swap3\n  swap2\n  pop\n  pop\n  jump\t// out\n    /* \"#utility.yul\":13406:13626   */\ntag_124:\n    /* \"#utility.yul\":13546:13580   */\n  0x546f74616c20646973747269627574696f6e2065786365656473206d61726b65\n    /* \"#utility.yul\":13542:13543   */\n  0x00\n    /* \"#utility.yul\":13534:13540   */\n  dup3\n    /* \"#utility.yul\":13530:13544   */\n  add\n    /* \"#utility.yul\":13523:13581   */\n  mstore\n    /* \"#utility.yul\":13615:13618   */\n  0x7400000000000000000000000000000000000000000000000000000000000000\n    /* \"#utility.yul\":13610:13612   */\n  0x20\n    /* \"#utility.yul\":13602:13608   */\n  dup3\n    /* \"#utility.yul\":13598:13613   */\n  add\n    /* \"#utility.yul\":13591:13619   */\n  mstore\n    /* \"#utility.yul\":13406:13626   */\n  pop\n  jump\t// out\n    /* \"#utility.yul\":13632:13998   */\ntag_125:\n    /* \"#utility.yul\":13774:13777   */\n  0x00\n    /* \"#utility.yul\":13795:13862   */\n  tag_278\n    /* \"#utility.yul\":13859:13861   */\n  0x21\n    /* \"#utility.yul\":13854:13857   */\n  dup4\n    /* \"#utility.yul\":13795:13862   */\n  tag_119\n  jump\t// in\ntag_278:\n    /* \"#utility.yul\":13788:13862   */\n  swap2\n  pop\n    /* \"#utility.yul\":13871:13964   */\n  tag_279\n    /* \"#utility.yul\":13960:13963   */\n  dup3\n    /* \"#utility.yul\":13871:13964   */\n  tag_124\n  jump\t// in\ntag_279:\n    /* \"#utility.yul\":13989:13991   */\n  0x40\n    /* \"#utility.yul\":13984:13987   */\n  dup3\n    /* \"#utility.yul\":13980:13992   */\n  add\n    /* \"#utility.yul\":13973:13992   */\n  swap1\n  pop\n    /* \"#utility.yul\":13632:13998   */\n  swap2\n  swap1\n  pop\n  jump\t// out\n    /* \"#utility.yul\":14004:14423   */\ntag_52:\n    /* \"#utility.yul\":14170:14174   */\n  0x00\n    /* \"#utility.yul\":14208:14210   */\n  0x20\n    /* \"#utility.yul\":14197:14206   */\n  dup3\n    /* \"#utility.yul\":14193:14211   */\n  add\n    /* \"#utility.yul\":14185:14211   */\n  swap1\n  pop\n    /* \"#utility.yul\":14257:14266   */\n  dup2\n    /* \"#utility.yul\":14251:14255   */\n  dup2\n    /* \"#utility.yul\":14247:14267   */\n  sub\n    /* \"#utility.yul\":14243:14244   */\n  0x00\n    /* \"#utility.yul\":14232:14241   */\n  dup4\n    /* \"#utility.yul\":14228:14245   */\n  add\n    /* \"#utility.yul\":14221:14268   */\n  mstore\n    /* \"#utility.yul\":14285:14416   */\n  tag_281\n    /* \"#utility.yul\":14411:14415   */\n  dup2\n    /* \"#utility.yul\":14285:14416   */\n  tag_125\n  jump\t// in\ntag_281:\n    /* \"#utility.yul\":14277:14416   */\n  swap1\n  pop\n    /* \"#utility.yul\":14004:14423   */\n  swap2\n  swap1\n  pop\n  jump\t// out\n    /* \"#utility.yul\":14429:14623   */\ntag_55:\n    /* \"#utility.yul\":14469:14473   */\n  0x00\n    /* \"#utility.yul\":14489:14509   */\n  tag_283\n    /* \"#utility.yul\":14507:14508   */\n  dup3\n    /* \"#utility.yul\":14489:14509   */\n  tag_94\n  jump\t// in\ntag_283:\n    /* \"#utility.yul\":14484:14509   */\n  swap2\n  pop\n    /* \"#utility.yul\":14523:14543   */\n  tag_284\n    /* \"#utility.yul\":14541:14542   */\n  dup4\n    /* \"#utility.yul\":14523:14543   */\n  tag_94\n  jump\t// in\ntag_284:\n    /* \"#utility.yul\":14518:14543   */\n  swap3\n  pop\n    /* \"#utility.yul\":14567:14568   */\n  dup3\n    /* \"#utility.yul\":14564:14565   */\n  dup3\n    /* \"#utility.yul\":14560:14569   */\n  sub\n    /* \"#utility.yul\":14552:14569   */\n  swap1\n  pop\n    /* \"#utility.yul\":14591:14592   */\n  dup2\n    /* \"#utility.yul\":14585:14589   */\n  dup2\n    /* \"#utility.yul\":14582:14593   */\n  gt\n    /* \"#utility.yul\":14579:14616   */\n  iszero\n  tag_285\n  jumpi\n    /* \"#utility.yul\":14596:14614   */\n  tag_286\n  tag_122\n  jump\t// in\ntag_286:\n    /* \"#utility.yul\":14579:14616   */\ntag_285:\n    /* \"#utility.yul\":14429:14623   */\n  swap3\n  swap2\n  pop\n  pop\n  jump\t// out\n    /* \"#utility.yul\":14629:14747   */\ntag_126:\n    /* \"#utility.yul\":14716:14740   */\n  tag_288\n    /* \"#utility.yul\":14734:14739   */\n  dup2\n    /* \"#utility.yul\":14716:14740   */\n  tag_94\n  jump\t// in\ntag_288:\n    /* \"#utility.yul\":14711:14714   */\n  dup3\n    /* \"#utility.yul\":14704:14741   */\n  mstore\n    /* \"#utility.yul\":14629:14747   */\n  pop\n  pop\n  jump\t// out\n    /* \"#utility.yul\":14753:15195   */\ntag_73:\n    /* \"#utility.yul\":14902:14906   */\n  0x00\n    /* \"#utility.yul\":14940:14942   */\n  0x60\n    /* \"#utility.yul\":14929:14938   */\n  dup3\n    /* \"#utility.yul\":14925:14943   */\n  add\n    /* \"#utility.yul\":14917:14943   */\n  swap1\n  pop\n    /* \"#utility.yul\":14953:15024   */\n  tag_290\n    /* \"#utility.yul\":15021:15022   */\n  0x00\n    /* \"#utility.yul\":15010:15019   */\n  dup4\n    /* \"#utility.yul\":15006:15023   */\n  add\n    /* \"#utility.yul\":14997:15003   */\n  dup7\n    /* \"#utility.yul\":14953:15024   */\n  tag_118\n  jump\t// in\ntag_290:\n    /* \"#utility.yul\":15034:15106   */\n  tag_291\n    /* \"#utility.yul\":15102:15104   */\n  0x20\n    /* \"#utility.yul\":15091:15100   */\n  dup4\n    /* \"#utility.yul\":15087:15105   */\n  add\n    /* \"#utility.yul\":15078:15084   */\n  dup6\n    /* \"#utility.yul\":15034:15106   */\n  tag_126\n  jump\t// in\ntag_291:\n    /* \"#utility.yul\":15116:15188   */\n  tag_292\n    /* \"#utility.yul\":15184:15186   */\n  0x40\n    /* \"#utility.yul\":15173:15182   */\n  dup4\n    /* \"#utility.yul\":15169:15187   */\n  add\n    /* \"#utility.yul\":15160:15166   */\n  dup5\n    /* \"#utility.yul\":15116:15188   */\n  tag_126\n  jump\t// in\ntag_292:\n    /* \"#utility.yul\":14753:15195   */\n  swap5\n  swap4\n  pop\n  pop\n  pop\n  pop\n  jump\t// out\n    /* \"#utility.yul\":15201:15423   */\ntag_77:\n    /* \"#utility.yul\":15294:15298   */\n  0x00\n    /* \"#utility.yul\":15332:15334   */\n  0x20\n    /* \"#utility.yul\":15321:15330   */\n  dup3\n    /* \"#utility.yul\":15317:15335   */\n  add\n    /* \"#utility.yul\":15309:15335   */\n  swap1\n  pop\n    /* \"#utility.yul\":15345:15416   */\n  tag_294\n    /* \"#utility.yul\":15413:15414   */\n  0x00\n    /* \"#utility.yul\":15402:15411   */\n  dup4\n    /* \"#utility.yul\":15398:15415   */\n  add\n    /* \"#utility.yul\":15389:15395   */\n  dup5\n    /* \"#utility.yul\":15345:15416   */\n  tag_126\n  jump\t// in\ntag_294:\n    /* \"#utility.yul\":15201:15423   */\n  swap3\n  swap2\n  pop\n  pop\n  jump\t// out\n    /* \"contracts/CC/CCToken.sol\":2608:7669  contract CSYDToken is ERC20, Ownable {... */\ntag_60:\n  dataSize(sub_0)\n  dup1\n  dataOffset(sub_0)\n  0x00\n  codecopy\n  0x00\n  return\nstop\n\nsub_0: assembly {\n        /* \"contracts/CC/CCToken.sol\":2608:7669  contract CSYDToken is ERC20, Ownable {... */\n      mstore(0x40, 0x80)\n      callvalue\n      dup1\n      iszero\n      tag_1\n      jumpi\n      revert(0x00, 0x00)\n    tag_1:\n      pop\n      jumpi(tag_2, lt(calldatasize, 0x04))\n      shr(0xe0, calldataload(0x00))\n      dup1\n      0x88e56ec6\n      gt\n      tag_25\n      jumpi\n      dup1\n      0xbdd3d825\n      gt\n      tag_26\n      jumpi\n      dup1\n      0xbdd3d825\n      eq\n      tag_19\n      jumpi\n      dup1\n      0xdd62ed3e\n      eq\n      tag_20\n      jumpi\n      dup1\n      0xeb91d37e\n      eq\n      tag_21\n      jumpi\n      dup1\n      0xecda10f5\n      eq\n      tag_22\n      jumpi\n      dup1\n      0xefded147\n      eq\n      tag_23\n      jumpi\n      dup1\n      0xf2fde38b\n      eq\n      tag_24\n      jumpi\n      jump(tag_2)\n    tag_26:\n      dup1\n      0x88e56ec6\n      eq\n      tag_14\n      jumpi\n      dup1\n      0x8da5cb5b\n      eq\n      tag_15\n      jumpi\n      dup1\n      0x902d55a5\n      eq\n      tag_16\n      jumpi\n      dup1\n      0x95d89b41\n      eq\n      tag_17\n      jumpi\n      dup1\n      0xa9059cbb\n      eq\n      tag_18\n      jumpi\n      jump(tag_2)\n    tag_25:\n      dup1\n      0x23b872dd\n      gt\n      tag_27\n      jumpi\n      dup1\n      0x23b872dd\n      eq\n      tag_8\n      jumpi\n      dup1\n      0x313ce567\n      eq\n      tag_9\n      jumpi\n      dup1\n      0x35928998\n      eq\n      tag_10\n      jumpi\n      dup1\n      0x70a08231\n      eq\n      tag_11\n      jumpi\n      dup1\n      0x715018a6\n      eq\n      tag_12\n      jumpi\n      dup1\n      0x76ae9b2d\n      eq\n      tag_13\n      jumpi\n      jump(tag_2)\n    tag_27:\n      dup1\n      0x053f9040\n      eq\n      tag_3\n      jumpi\n      dup1\n      0x06fdde03\n      eq\n      tag_4\n      jumpi\n      dup1\n      0x095ea7b3\n      eq\n      tag_5\n      jumpi\n      dup1\n      0x18160ddd\n      eq\n      tag_6\n      jumpi\n      dup1\n      0x19ca43ab\n      eq\n      tag_7\n      jumpi\n    tag_2:\n      revert(0x00, 0x00)\n        /* \"contracts/CC/CCToken.sol\":6429:7666  function buyBack(uint256 amount) public onlyOwner {... */\n    tag_3:\n      tag_28\n      0x04\n      dup1\n      calldatasize\n      sub\n      dup2\n      add\n      swap1\n      tag_29\n      swap2\n      swap1\n      tag_30\n      jump\t// in\n    tag_29:\n      tag_31\n      jump\t// in\n    tag_28:\n      stop\n        /* \"https://github.com/OpenZeppelin/openzeppelin-contracts/blob/master/contracts/token/ERC20/ERC20.sol\":1760:1849  function name() public view virtual returns (string memory) {... */\n    tag_4:\n      tag_32\n      tag_33\n      jump\t// in\n    tag_32:\n      mload(0x40)\n      tag_34\n      swap2\n      swap1\n      tag_35\n      jump\t// in\n    tag_34:\n      mload(0x40)\n      dup1\n      swap2\n      sub\n      swap1\n      return\n        /* \"https://github.com/OpenZeppelin/openzeppelin-contracts/blob/master/contracts/token/ERC20/ERC20.sol\":3902:4088  function approve(address spender, uint256 value) public virtual returns (bool) {... */\n    tag_5:\n      tag_36\n      0x04\n      dup1\n      calldatasize\n      sub\n      dup2\n      add\n      swap1\n      tag_37\n      swap2\n      swap1\n      tag_38\n      jump\t// in\n    tag_37:\n      tag_39\n      jump\t// in\n    tag_36:\n      mload(0x40)\n      tag_40\n      swap2\n      swap1\n      tag_41\n      jump\t// in\n    tag_40:\n      mload(0x40)\n      dup1\n      swap2\n      sub\n      swap1\n      return\n        /* \"https://github.com/OpenZeppelin/openzeppelin-contracts/blob/master/contracts/token/ERC20/ERC20.sol\":2803:2900  function totalSupply() public view virtual returns (uint256) {... */\n    tag_6:\n      tag_42\n      tag_43\n      jump\t// in\n    tag_42:\n      mload(0x40)\n      tag_44\n      swap2\n      swap1\n      tag_45\n      jump\t// in\n    tag_44:\n      mload(0x40)\n      dup1\n      swap2\n      sub\n      swap1\n      return\n        /* \"contracts/CC/CCToken.sol\":6265:6400  function getTeamMemberCount() public view returns (uint256) {... */\n    tag_7:\n      tag_46\n      tag_47\n      jump\t// in\n    tag_46:\n      mload(0x40)\n      tag_48\n      swap2\n      swap1\n      tag_45\n      jump\t// in\n    tag_48:\n      mload(0x40)\n      dup1\n      swap2\n      sub\n      swap1\n      return\n        /* \"contracts/CC/CCToken.sol\":5290:5484  function transferFrom(address sender, address recipient, uint256 amount) public override teamLocked(amount) returns (bool) {... */\n    tag_8:\n      tag_49\n      0x04\n      dup1\n      calldatasize\n      sub\n      dup2\n      add\n      swap1\n      tag_50\n      swap2\n      swap1\n      tag_51\n      jump\t// in\n    tag_50:\n      tag_52\n      jump\t// in\n    tag_49:\n      mload(0x40)\n      tag_53\n      swap2\n      swap1\n      tag_41\n      jump\t// in\n    tag_53:\n      mload(0x40)\n      dup1\n      swap2\n      sub\n      swap1\n      return\n        /* \"https://github.com/OpenZeppelin/openzeppelin-contracts/blob/master/contracts/token/ERC20/ERC20.sol\":2688:2770  function decimals() public view virtual returns (uint8) {... */\n    tag_9:\n      tag_54\n      tag_55\n      jump\t// in\n    tag_54:\n      mload(0x40)\n      tag_56\n      swap2\n      swap1\n      tag_57\n      jump\t// in\n    tag_56:\n      mload(0x40)\n      dup1\n      swap2\n      sub\n      swap1\n      return\n        /* \"contracts/CC/CCToken.sol\":2737:2792  uint256 public constant TEAM_LOCK_PERIOD = 3 * 365 days */\n    tag_10:\n      tag_58\n      tag_59\n      jump\t// in\n    tag_58:\n      mload(0x40)\n      tag_60\n      swap2\n      swap1\n      tag_45\n      jump\t// in\n    tag_60:\n      mload(0x40)\n      dup1\n      swap2\n      sub\n      swap1\n      return\n        /* \"https://github.com/OpenZeppelin/openzeppelin-contracts/blob/master/contracts/token/ERC20/ERC20.sol\":2933:3049  function balanceOf(address account) public view virtual returns (uint256) {... */\n    tag_11:\n      tag_61\n      0x04\n      dup1\n      calldatasize\n      sub\n      dup2\n      add\n      swap1\n      tag_62\n      swap2\n      swap1\n      tag_63\n      jump\t// in\n    tag_62:\n      tag_64\n      jump\t// in\n    tag_61:\n      mload(0x40)\n      tag_65\n      swap2\n      swap1\n      tag_45\n      jump\t// in\n    tag_65:\n      mload(0x40)\n      dup1\n      swap2\n      sub\n      swap1\n      return\n        /* \"https://github.com/OpenZeppelin/openzeppelin-contracts/blob/master/contracts/access/Ownable.sol\":2293:2394  function renounceOwnership() public virtual onlyOwner {... */\n    tag_12:\n      tag_66\n      tag_67\n      jump\t// in\n    tag_66:\n      stop\n        /* \"contracts/CC/CCToken.sol\":3085:3115  uint256 public teamLockedUntil */\n    tag_13:\n      tag_68\n      tag_69\n      jump\t// in\n    tag_68:\n      mload(0x40)\n      tag_70\n      swap2\n      swap1\n      tag_45\n      jump\t// in\n    tag_70:\n      mload(0x40)\n      dup1\n      swap2\n      sub\n      swap1\n      return\n        /* \"contracts/CC/CCToken.sol\":5929:6257  function getTeamMember(uint256 index) public view returns (address, uint256) {... */\n    tag_14:\n      tag_71\n      0x04\n      dup1\n      calldatasize\n      sub\n      dup2\n      add\n      swap1\n      tag_72\n      swap2\n      swap1\n      tag_30\n      jump\t// in\n    tag_72:\n      tag_73\n      jump\t// in\n    tag_71:\n      mload(0x40)\n      tag_74\n      swap3\n      swap2\n      swap1\n      tag_75\n      jump\t// in\n    tag_74:\n      mload(0x40)\n      dup1\n      swap2\n      sub\n      swap1\n      return\n        /* \"https://github.com/OpenZeppelin/openzeppelin-contracts/blob/master/contracts/access/Ownable.sol\":1638:1723  function owner() public view virtual returns (address) {... */\n    tag_15:\n      tag_76\n      tag_77\n      jump\t// in\n    tag_76:\n      mload(0x40)\n      tag_78\n      swap2\n      swap1\n      tag_79\n      jump\t// in\n    tag_78:\n      mload(0x40)\n      dup1\n      swap2\n      sub\n      swap1\n      return\n        /* \"contracts/CC/CCToken.sol\":2656:2715  uint256 public constant TOTAL_SUPPLY = 187_500_000 * 10**18 */\n    tag_16:\n      tag_80\n      tag_81\n      jump\t// in\n    tag_80:\n      mload(0x40)\n      tag_82\n      swap2\n      swap1\n      tag_45\n      jump\t// in\n    tag_82:\n      mload(0x40)\n      dup1\n      swap2\n      sub\n      swap1\n      return\n        /* \"https://github.com/OpenZeppelin/openzeppelin-contracts/blob/master/contracts/token/ERC20/ERC20.sol\":1962:2055  function symbol() public view virtual returns (string memory) {... */\n    tag_17:\n      tag_83\n      tag_84\n      jump\t// in\n    tag_83:\n      mload(0x40)\n      tag_85\n      swap2\n      swap1\n      tag_35\n      jump\t// in\n    tag_85:\n      mload(0x40)\n      dup1\n      swap2\n      sub\n      swap1\n      return\n        /* \"contracts/CC/CCToken.sol\":5090:5252  function transfer(address recipient, uint256 amount) public override teamLocked(amount) returns (bool) {... */\n    tag_18:\n      tag_86\n      0x04\n      dup1\n      calldatasize\n      sub\n      dup2\n      add\n      swap1\n      tag_87\n      swap2\n      swap1\n      tag_38\n      jump\t// in\n    tag_87:\n      tag_88\n      jump\t// in\n    tag_86:\n      mload(0x40)\n      tag_89\n      swap2\n      swap1\n      tag_41\n      jump\t// in\n    tag_89:\n      mload(0x40)\n      dup1\n      swap2\n      sub\n      swap1\n      return\n        /* \"contracts/CC/CCToken.sol\":3122:3148  address public uniswapPool */\n    tag_19:\n      tag_90\n      tag_91\n      jump\t// in\n    tag_90:\n      mload(0x40)\n      tag_92\n      swap2\n      swap1\n      tag_79\n      jump\t// in\n    tag_92:\n      mload(0x40)\n      dup1\n      swap2\n      sub\n      swap1\n      return\n        /* \"https://github.com/OpenZeppelin/openzeppelin-contracts/blob/master/contracts/token/ERC20/ERC20.sol\":3455:3595  function allowance(address owner, address spender) public view virtual returns (uint256) {... */\n    tag_20:\n      tag_93\n      0x04\n      dup1\n      calldatasize\n      sub\n      dup2\n      add\n      swap1\n      tag_94\n      swap2\n      swap1\n      tag_95\n      jump\t// in\n    tag_94:\n      tag_96\n      jump\t// in\n    tag_93:\n      mload(0x40)\n      tag_97\n      swap2\n      swap1\n      tag_45\n      jump\t// in\n    tag_97:\n      mload(0x40)\n      dup1\n      swap2\n      sub\n      swap1\n      return\n        /* \"contracts/CC/CCToken.sol\":5492:5774  function getCurrentPrice() public view returns (uint256 price) {... */\n    tag_21:\n      tag_98\n      tag_99\n      jump\t// in\n    tag_98:\n      mload(0x40)\n      tag_100\n      swap2\n      swap1\n      tag_45\n      jump\t// in\n    tag_100:\n      mload(0x40)\n      dup1\n      swap2\n      sub\n      swap1\n      return\n        /* \"contracts/CC/CCToken.sol\":3027:3056  uint256 public deploymentTime */\n    tag_22:\n      tag_101\n      tag_102\n      jump\t// in\n    tag_101:\n      mload(0x40)\n      tag_103\n      swap2\n      swap1\n      tag_45\n      jump\t// in\n    tag_103:\n      mload(0x40)\n      dup1\n      swap2\n      sub\n      swap1\n      return\n        /* \"contracts/CC/CCToken.sol\":5782:5921  function getTeamMembers() public view returns (TeamMember[] memory) {... */\n    tag_23:\n      tag_104\n      tag_105\n      jump\t// in\n    tag_104:\n      mload(0x40)\n      tag_106\n      swap2\n      swap1\n      tag_107\n      jump\t// in\n    tag_106:\n      mload(0x40)\n      dup1\n      swap2\n      sub\n      swap1\n      return\n        /* \"https://github.com/OpenZeppelin/openzeppelin-contracts/blob/master/contracts/access/Ownable.sol\":2543:2758  function transferOwnership(address newOwner) public virtual onlyOwner {... */\n    tag_24:\n      tag_108\n      0x04\n      dup1\n      calldatasize\n      sub\n      dup2\n      add\n      swap1\n      tag_109\n      swap2\n      swap1\n      tag_63\n      jump\t// in\n    tag_109:\n      tag_110\n      jump\t// in\n    tag_108:\n      stop\n        /* \"contracts/CC/CCToken.sol\":6429:7666  function buyBack(uint256 amount) public onlyOwner {... */\n    tag_31:\n        /* \"https://github.com/OpenZeppelin/openzeppelin-contracts/blob/master/contracts/access/Ownable.sol\":1531:1544  _checkOwner() */\n      tag_112\n        /* \"https://github.com/OpenZeppelin/openzeppelin-contracts/blob/master/contracts/access/Ownable.sol\":1531:1542  _checkOwner */\n      tag_113\n        /* \"https://github.com/OpenZeppelin/openzeppelin-contracts/blob/master/contracts/access/Ownable.sol\":1531:1544  _checkOwner() */\n      jump\t// in\n    tag_112:\n        /* \"contracts/CC/CCToken.sol\":6515:6516  0 */\n      0x00\n        /* \"contracts/CC/CCToken.sol\":6498:6512  deploymentTime */\n      sload(0x07)\n        /* \"contracts/CC/CCToken.sol\":6498:6516  deploymentTime > 0 */\n      gt\n        /* \"contracts/CC/CCToken.sol\":6490:6544  require(deploymentTime > 0, \"Deployment time not set\") */\n      tag_115\n      jumpi\n      mload(0x40)\n      0x08c379a000000000000000000000000000000000000000000000000000000000\n      dup2\n      mstore\n      0x04\n      add\n      tag_116\n      swap1\n      tag_117\n      jump\t// in\n    tag_116:\n      mload(0x40)\n      dup1\n      swap2\n      sub\n      swap1\n      revert\n    tag_115:\n        /* \"contracts/CC/CCToken.sol\":6557:6576  uint256 yearsPassed */\n      0x00\n        /* \"contracts/CC/CCToken.sol\":6616:6624  365 days */\n      0x01e13380\n        /* \"contracts/CC/CCToken.sol\":6598:6612  deploymentTime */\n      sload(0x07)\n        /* \"contracts/CC/CCToken.sol\":6580:6595  block.timestamp */\n      timestamp\n        /* \"contracts/CC/CCToken.sol\":6580:6612  block.timestamp - deploymentTime */\n      tag_118\n      swap2\n      swap1\n      tag_119\n      jump\t// in\n    tag_118:\n        /* \"contracts/CC/CCToken.sol\":6579:6624  (block.timestamp - deploymentTime) / 365 days */\n      tag_120\n      swap2\n      swap1\n      tag_121\n      jump\t// in\n    tag_120:\n        /* \"contracts/CC/CCToken.sol\":6557:6624  uint256 yearsPassed = (block.timestamp - deploymentTime) / 365 days */\n      swap1\n      pop\n        /* \"contracts/CC/CCToken.sol\":6660:6661  5 */\n      0x05\n        /* \"contracts/CC/CCToken.sol\":6645:6656  yearsPassed */\n      dup2\n        /* \"contracts/CC/CCToken.sol\":6645:6661  yearsPassed >= 5 */\n      lt\n      iszero\n        /* \"contracts/CC/CCToken.sol\":6637:6696  require(yearsPassed >= 5, \"Five years have not passed yet\") */\n      tag_122\n      jumpi\n      mload(0x40)\n      0x08c379a000000000000000000000000000000000000000000000000000000000\n      dup2\n      mstore\n      0x04\n      add\n      tag_123\n      swap1\n      tag_124\n      jump\t// in\n    tag_123:\n      mload(0x40)\n      dup1\n      swap2\n      sub\n      swap1\n      revert\n    tag_122:\n        /* \"contracts/CC/CCToken.sol\":6815:6833  uint256 multiplier */\n      0x00\n        /* \"contracts/CC/CCToken.sol\":6857:6858  5 */\n      0x05\n        /* \"contracts/CC/CCToken.sol\":6843:6854  yearsPassed */\n      dup3\n        /* \"contracts/CC/CCToken.sol\":6843:6858  yearsPassed - 5 */\n      tag_125\n      swap2\n      swap1\n      tag_119\n      jump\t// in\n    tag_125:\n        /* \"contracts/CC/CCToken.sol\":6836:6839  105 */\n      0x69\n        /* \"contracts/CC/CCToken.sol\":6836:6859  105 + (yearsPassed - 5) */\n      tag_126\n      swap2\n      swap1\n      tag_127\n      jump\t// in\n    tag_126:\n        /* \"contracts/CC/CCToken.sol\":6815:6859  uint256 multiplier = 105 + (yearsPassed - 5) */\n      swap1\n      pop\n        /* \"contracts/CC/CCToken.sol\":6887:6908  uint256 buybackAmount */\n      0x00\n        /* \"contracts/CC/CCToken.sol\":6935:6938  100 */\n      0x64\n        /* \"contracts/CC/CCToken.sol\":6921:6931  multiplier */\n      dup3\n        /* \"contracts/CC/CCToken.sol\":6912:6918  amount */\n      dup6\n        /* \"contracts/CC/CCToken.sol\":6912:6931  amount * multiplier */\n      tag_128\n      swap2\n      swap1\n      tag_129\n      jump\t// in\n    tag_128:\n        /* \"contracts/CC/CCToken.sol\":6911:6938  (amount * multiplier) / 100 */\n      tag_130\n      swap2\n      swap1\n      tag_121\n      jump\t// in\n    tag_130:\n        /* \"contracts/CC/CCToken.sol\":6887:6938  uint256 buybackAmount = (amount * multiplier) / 100 */\n      swap1\n      pop\n        /* \"contracts/CC/CCToken.sol\":7607:7658  _transfer(address(this), msg.sender, buybackAmount) */\n      tag_131\n        /* \"contracts/CC/CCToken.sol\":7625:7629  this */\n      address\n        /* \"contracts/CC/CCToken.sol\":7632:7642  msg.sender */\n      caller\n        /* \"contracts/CC/CCToken.sol\":7644:7657  buybackAmount */\n      dup4\n        /* \"contracts/CC/CCToken.sol\":7607:7616  _transfer */\n      tag_132\n        /* \"contracts/CC/CCToken.sol\":7607:7658  _transfer(address(this), msg.sender, buybackAmount) */\n      jump\t// in\n    tag_131:\n        /* \"contracts/CC/CCToken.sol\":6479:7666  {... */\n      pop\n      pop\n      pop\n        /* \"contracts/CC/CCToken.sol\":6429:7666  function buyBack(uint256 amount) public onlyOwner {... */\n      pop\n      jump\t// out\n        /* \"https://github.com/OpenZeppelin/openzeppelin-contracts/blob/master/contracts/token/ERC20/ERC20.sol\":1760:1849  function name() public view virtual returns (string memory) {... */\n    tag_33:\n        /* \"https://github.com/OpenZeppelin/openzeppelin-contracts/blob/master/contracts/token/ERC20/ERC20.sol\":1805:1818  string memory */\n      0x60\n        /* \"https://github.com/OpenZeppelin/openzeppelin-contracts/blob/master/contracts/token/ERC20/ERC20.sol\":1837:1842  _name */\n      0x03\n        /* \"https://github.com/OpenZeppelin/openzeppelin-contracts/blob/master/contracts/token/ERC20/ERC20.sol\":1830:1842  return _name */\n      dup1\n      sload\n      tag_134\n      swap1\n      tag_135\n      jump\t// in\n    tag_134:\n      dup1\n      0x1f\n      add\n      0x20\n      dup1\n      swap2\n      div\n      mul\n      0x20\n      add\n      mload(0x40)\n      swap1\n      dup2\n      add\n      0x40\n      mstore\n      dup1\n      swap3\n      swap2\n      swap1\n      dup2\n      dup2\n      mstore\n      0x20\n      add\n      dup3\n      dup1\n      sload\n      tag_136\n      swap1\n      tag_135\n      jump\t// in\n    tag_136:\n      dup1\n      iszero\n      tag_137\n      jumpi\n      dup1\n      0x1f\n      lt\n      tag_138\n      jumpi\n      0x0100\n      dup1\n      dup4\n      sload\n      div\n      mul\n      dup4\n      mstore\n      swap2\n      0x20\n      add\n      swap2\n      jump(tag_137)\n    tag_138:\n      dup3\n      add\n      swap2\n      swap1\n      0x00\n      mstore\n      keccak256(0x00, 0x20)\n      swap1\n    tag_139:\n      dup2\n      sload\n      dup2\n      mstore\n      swap1\n      0x01\n      add\n      swap1\n      0x20\n      add\n      dup1\n      dup4\n      gt\n      tag_139\n      jumpi\n      dup3\n      swap1\n      sub\n      0x1f\n      and\n      dup3\n      add\n      swap2\n    tag_137:\n      pop\n      pop\n      pop\n      pop\n      pop\n      swap1\n      pop\n        /* \"https://github.com/OpenZeppelin/openzeppelin-contracts/blob/master/contracts/token/ERC20/ERC20.sol\":1760:1849  function name() public view virtual returns (string memory) {... */\n      swap1\n      jump\t// out\n        /* \"https://github.com/OpenZeppelin/openzeppelin-contracts/blob/master/contracts/token/ERC20/ERC20.sol\":3902:4088  function approve(address spender, uint256 value) public virtual returns (bool) {... */\n    tag_39:\n        /* \"https://github.com/OpenZeppelin/openzeppelin-contracts/blob/master/contracts/token/ERC20/ERC20.sol\":3975:3979  bool */\n      0x00\n        /* \"https://github.com/OpenZeppelin/openzeppelin-contracts/blob/master/contracts/token/ERC20/ERC20.sol\":3991:4004  address owner */\n      0x00\n        /* \"https://github.com/OpenZeppelin/openzeppelin-contracts/blob/master/contracts/token/ERC20/ERC20.sol\":4007:4019  _msgSender() */\n      tag_141\n        /* \"https://github.com/OpenZeppelin/openzeppelin-contracts/blob/master/contracts/token/ERC20/ERC20.sol\":4007:4017  _msgSender */\n      tag_142\n        /* \"https://github.com/OpenZeppelin/openzeppelin-contracts/blob/master/contracts/token/ERC20/ERC20.sol\":4007:4019  _msgSender() */\n      jump\t// in\n    tag_141:\n        /* \"https://github.com/OpenZeppelin/openzeppelin-contracts/blob/master/contracts/token/ERC20/ERC20.sol\":3991:4019  address owner = _msgSender() */\n      swap1\n      pop\n        /* \"https://github.com/OpenZeppelin/openzeppelin-contracts/blob/master/contracts/token/ERC20/ERC20.sol\":4029:4060  _approve(owner, spender, value) */\n      tag_143\n        /* \"https://github.com/OpenZeppelin/openzeppelin-contracts/blob/master/contracts/token/ERC20/ERC20.sol\":4038:4043  owner */\n      dup2\n        /* \"https://github.com/OpenZeppelin/openzeppelin-contracts/blob/master/contracts/token/ERC20/ERC20.sol\":4045:4052  spender */\n      dup6\n        /* \"https://github.com/OpenZeppelin/openzeppelin-contracts/blob/master/contracts/token/ERC20/ERC20.sol\":4054:4059  value */\n      dup6\n        /* \"https://github.com/OpenZeppelin/openzeppelin-contracts/blob/master/contracts/token/ERC20/ERC20.sol\":4029:4037  _approve */\n      tag_144\n        /* \"https://github.com/OpenZeppelin/openzeppelin-contracts/blob/master/contracts/token/ERC20/ERC20.sol\":4029:4060  _approve(owner, spender, value) */\n      jump\t// in\n    tag_143:\n        /* \"https://github.com/OpenZeppelin/openzeppelin-contracts/blob/master/contracts/token/ERC20/ERC20.sol\":4077:4081  true */\n      0x01\n        /* \"https://github.com/OpenZeppelin/openzeppelin-contracts/blob/master/contracts/token/ERC20/ERC20.sol\":4070:4081  return true */\n      swap2\n      pop\n      pop\n        /* \"https://github.com/OpenZeppelin/openzeppelin-contracts/blob/master/contracts/token/ERC20/ERC20.sol\":3902:4088  function approve(address spender, uint256 value) public virtual returns (bool) {... */\n      swap3\n      swap2\n      pop\n      pop\n      jump\t// out\n        /* \"https://github.com/OpenZeppelin/openzeppelin-contracts/blob/master/contracts/token/ERC20/ERC20.sol\":2803:2900  function totalSupply() public view virtual returns (uint256) {... */\n    tag_43:\n        /* \"https://github.com/OpenZeppelin/openzeppelin-contracts/blob/master/contracts/token/ERC20/ERC20.sol\":2855:2862  uint256 */\n      0x00\n        /* \"https://github.com/OpenZeppelin/openzeppelin-contracts/blob/master/contracts/token/ERC20/ERC20.sol\":2881:2893  _totalSupply */\n      sload(0x02)\n        /* \"https://github.com/OpenZeppelin/openzeppelin-contracts/blob/master/contracts/token/ERC20/ERC20.sol\":2874:2893  return _totalSupply */\n      swap1\n      pop\n        /* \"https://github.com/OpenZeppelin/openzeppelin-contracts/blob/master/contracts/token/ERC20/ERC20.sol\":2803:2900  function totalSupply() public view virtual returns (uint256) {... */\n      swap1\n      jump\t// out\n        /* \"contracts/CC/CCToken.sol\":6265:6400  function getTeamMemberCount() public view returns (uint256) {... */\n    tag_47:\n        /* \"contracts/CC/CCToken.sol\":6316:6323  uint256 */\n      0x00\n        /* \"contracts/CC/CCToken.sol\":6343:6354  teamMembers */\n      0x06\n        /* \"contracts/CC/CCToken.sol\":6343:6361  teamMembers.length */\n      dup1\n      sload\n      swap1\n      pop\n        /* \"contracts/CC/CCToken.sol\":6336:6361  return teamMembers.length */\n      swap1\n      pop\n        /* \"contracts/CC/CCToken.sol\":6265:6400  function getTeamMemberCount() public view returns (uint256) {... */\n      swap1\n      jump\t// out\n        /* \"contracts/CC/CCToken.sol\":5290:5484  function transferFrom(address sender, address recipient, uint256 amount) public override teamLocked(amount) returns (bool) {... */\n    tag_52:\n        /* \"contracts/CC/CCToken.sol\":5407:5411  bool */\n      0x00\n        /* \"contracts/CC/CCToken.sol\":5390:5396  amount */\n      dup2\n        /* \"contracts/CC/CCToken.sol\":4964:4979  teamLockedUntil */\n      sload(0x08)\n        /* \"contracts/CC/CCToken.sol\":4945:4960  block.timestamp */\n      timestamp\n        /* \"contracts/CC/CCToken.sol\":4945:4979  block.timestamp >= teamLockedUntil */\n      lt\n      iszero\n        /* \"contracts/CC/CCToken.sol\":4945:5014  block.timestamp >= teamLockedUntil || balanceOf(msg.sender) >= amount */\n      dup1\n      tag_148\n      jumpi\n      pop\n        /* \"contracts/CC/CCToken.sol\":5008:5014  amount */\n      dup1\n        /* \"contracts/CC/CCToken.sol\":4983:5004  balanceOf(msg.sender) */\n      tag_149\n        /* \"contracts/CC/CCToken.sol\":4993:5003  msg.sender */\n      caller\n        /* \"contracts/CC/CCToken.sol\":4983:4992  balanceOf */\n      tag_64\n        /* \"contracts/CC/CCToken.sol\":4983:5004  balanceOf(msg.sender) */\n      jump\t// in\n    tag_149:\n        /* \"contracts/CC/CCToken.sol\":4983:5014  balanceOf(msg.sender) >= amount */\n      lt\n      iszero\n        /* \"contracts/CC/CCToken.sol\":4945:5014  block.timestamp >= teamLockedUntil || balanceOf(msg.sender) >= amount */\n    tag_148:\n        /* \"contracts/CC/CCToken.sol\":4937:5041  require(block.timestamp >= teamLockedUntil || balanceOf(msg.sender) >= amount, \"Team tokens are locked\") */\n      tag_150\n      jumpi\n      mload(0x40)\n      0x08c379a000000000000000000000000000000000000000000000000000000000\n      dup2\n      mstore\n      0x04\n      add\n      tag_151\n      swap1\n      tag_152\n      jump\t// in\n    tag_151:\n      mload(0x40)\n      dup1\n      swap2\n      sub\n      swap1\n      revert\n    tag_150:\n        /* \"contracts/CC/CCToken.sol\":5431:5476  super.transferFrom(sender, recipient, amount) */\n      tag_154\n        /* \"contracts/CC/CCToken.sol\":5450:5456  sender */\n      dup6\n        /* \"contracts/CC/CCToken.sol\":5458:5467  recipient */\n      dup6\n        /* \"contracts/CC/CCToken.sol\":5469:5475  amount */\n      dup6\n        /* \"contracts/CC/CCToken.sol\":5431:5449  super.transferFrom */\n      tag_155\n        /* \"contracts/CC/CCToken.sol\":5431:5476  super.transferFrom(sender, recipient, amount) */\n      jump\t// in\n    tag_154:\n        /* \"contracts/CC/CCToken.sol\":5424:5476  return super.transferFrom(sender, recipient, amount) */\n      swap2\n      pop\n        /* \"contracts/CC/CCToken.sol\":5290:5484  function transferFrom(address sender, address recipient, uint256 amount) public override teamLocked(amount) returns (bool) {... */\n      pop\n      swap4\n      swap3\n      pop\n      pop\n      pop\n      jump\t// out\n        /* \"https://github.com/OpenZeppelin/openzeppelin-contracts/blob/master/contracts/token/ERC20/ERC20.sol\":2688:2770  function decimals() public view virtual returns (uint8) {... */\n    tag_55:\n        /* \"https://github.com/OpenZeppelin/openzeppelin-contracts/blob/master/contracts/token/ERC20/ERC20.sol\":2737:2742  uint8 */\n      0x00\n        /* \"https://github.com/OpenZeppelin/openzeppelin-contracts/blob/master/contracts/token/ERC20/ERC20.sol\":2761:2763  18 */\n      0x12\n        /* \"https://github.com/OpenZeppelin/openzeppelin-contracts/blob/master/contracts/token/ERC20/ERC20.sol\":2754:2763  return 18 */\n      swap1\n      pop\n        /* \"https://github.com/OpenZeppelin/openzeppelin-contracts/blob/master/contracts/token/ERC20/ERC20.sol\":2688:2770  function decimals() public view virtual returns (uint8) {... */\n      swap1\n      jump\t// out\n        /* \"contracts/CC/CCToken.sol\":2737:2792  uint256 public constant TEAM_LOCK_PERIOD = 3 * 365 days */\n    tag_59:\n        /* \"contracts/CC/CCToken.sol\":2780:2792  3 * 365 days */\n      0x05a39a80\n        /* \"contracts/CC/CCToken.sol\":2737:2792  uint256 public constant TEAM_LOCK_PERIOD = 3 * 365 days */\n      dup2\n      jump\t// out\n        /* \"https://github.com/OpenZeppelin/openzeppelin-contracts/blob/master/contracts/token/ERC20/ERC20.sol\":2933:3049  function balanceOf(address account) public view virtual returns (uint256) {... */\n    tag_64:\n        /* \"https://github.com/OpenZeppelin/openzeppelin-contracts/blob/master/contracts/token/ERC20/ERC20.sol\":2998:3005  uint256 */\n      0x00\n        /* \"https://github.com/OpenZeppelin/openzeppelin-contracts/blob/master/contracts/token/ERC20/ERC20.sol\":3024:3033  _balances */\n      0x00\n        /* \"https://github.com/OpenZeppelin/openzeppelin-contracts/blob/master/contracts/token/ERC20/ERC20.sol\":3024:3042  _balances[account] */\n      0x00\n        /* \"https://github.com/OpenZeppelin/openzeppelin-contracts/blob/master/contracts/token/ERC20/ERC20.sol\":3034:3041  account */\n      dup4\n        /* \"https://github.com/OpenZeppelin/openzeppelin-contracts/blob/master/contracts/token/ERC20/ERC20.sol\":3024:3042  _balances[account] */\n      0xffffffffffffffffffffffffffffffffffffffff\n      and\n      0xffffffffffffffffffffffffffffffffffffffff\n      and\n      dup2\n      mstore\n      0x20\n      add\n      swap1\n      dup2\n      mstore\n      0x20\n      add\n      0x00\n      keccak256\n      sload\n        /* \"https://github.com/OpenZeppelin/openzeppelin-contracts/blob/master/contracts/token/ERC20/ERC20.sol\":3017:3042  return _balances[account] */\n      swap1\n      pop\n        /* \"https://github.com/OpenZeppelin/openzeppelin-contracts/blob/master/contracts/token/ERC20/ERC20.sol\":2933:3049  function balanceOf(address account) public view virtual returns (uint256) {... */\n      swap2\n      swap1\n      pop\n      jump\t// out\n        /* \"https://github.com/OpenZeppelin/openzeppelin-contracts/blob/master/contracts/access/Ownable.sol\":2293:2394  function renounceOwnership() public virtual onlyOwner {... */\n    tag_67:\n        /* \"https://github.com/OpenZeppelin/openzeppelin-contracts/blob/master/contracts/access/Ownable.sol\":1531:1544  _checkOwner() */\n      tag_159\n        /* \"https://github.com/OpenZeppelin/openzeppelin-contracts/blob/master/contracts/access/Ownable.sol\":1531:1542  _checkOwner */\n      tag_113\n        /* \"https://github.com/OpenZeppelin/openzeppelin-contracts/blob/master/contracts/access/Ownable.sol\":1531:1544  _checkOwner() */\n      jump\t// in\n    tag_159:\n        /* \"https://github.com/OpenZeppelin/openzeppelin-contracts/blob/master/contracts/access/Ownable.sol\":2357:2387  _transferOwnership(address(0)) */\n      tag_161\n        /* \"https://github.com/OpenZeppelin/openzeppelin-contracts/blob/master/contracts/access/Ownable.sol\":2384:2385  0 */\n      0x00\n        /* \"https://github.com/OpenZeppelin/openzeppelin-contracts/blob/master/contracts/access/Ownable.sol\":2357:2375  _transferOwnership */\n      tag_162\n        /* \"https://github.com/OpenZeppelin/openzeppelin-contracts/blob/master/contracts/access/Ownable.sol\":2357:2387  _transferOwnership(address(0)) */\n      jump\t// in\n    tag_161:\n        /* \"https://github.com/OpenZeppelin/openzeppelin-contracts/blob/master/contracts/access/Ownable.sol\":2293:2394  function renounceOwnership() public virtual onlyOwner {... */\n      jump\t// out\n        /* \"contracts/CC/CCToken.sol\":3085:3115  uint256 public teamLockedUntil */\n    tag_69:\n      sload(0x08)\n      dup2\n      jump\t// out\n        /* \"contracts/CC/CCToken.sol\":5929:6257  function getTeamMember(uint256 index) public view returns (address, uint256) {... */\n    tag_73:\n        /* \"contracts/CC/CCToken.sol\":5988:5995  address */\n      0x00\n        /* \"contracts/CC/CCToken.sol\":5997:6004  uint256 */\n      0x00\n        /* \"contracts/CC/CCToken.sol\":6033:6044  teamMembers */\n      0x06\n        /* \"contracts/CC/CCToken.sol\":6033:6051  teamMembers.length */\n      dup1\n      sload\n      swap1\n      pop\n        /* \"contracts/CC/CCToken.sol\":6025:6030  index */\n      dup4\n        /* \"contracts/CC/CCToken.sol\":6025:6051  index < teamMembers.length */\n      lt\n        /* \"contracts/CC/CCToken.sol\":6017:6075  require(index < teamMembers.length, \"Index out of bounds\") */\n      tag_164\n      jumpi\n      mload(0x40)\n      0x08c379a000000000000000000000000000000000000000000000000000000000\n      dup2\n      mstore\n      0x04\n      add\n      tag_165\n      swap1\n      tag_166\n      jump\t// in\n    tag_165:\n      mload(0x40)\n      dup1\n      swap2\n      sub\n      swap1\n      revert\n    tag_164:\n        /* \"contracts/CC/CCToken.sol\":6108:6132  TeamMember memory member */\n      0x00\n        /* \"contracts/CC/CCToken.sol\":6135:6146  teamMembers */\n      0x06\n        /* \"contracts/CC/CCToken.sol\":6147:6152  index */\n      dup5\n        /* \"contracts/CC/CCToken.sol\":6135:6153  teamMembers[index] */\n      dup2\n      sload\n      dup2\n      lt\n      tag_167\n      jumpi\n      tag_168\n      tag_169\n      jump\t// in\n    tag_168:\n    tag_167:\n      swap1\n      0x00\n      mstore\n      keccak256(0x00, 0x20)\n      swap1\n      0x02\n      mul\n      add\n        /* \"contracts/CC/CCToken.sol\":6108:6153  TeamMember memory member = teamMembers[index] */\n      mload(0x40)\n      dup1\n      0x40\n      add\n      0x40\n      mstore\n      swap1\n      dup2\n      0x00\n      dup3\n      add\n      0x00\n      swap1\n      sload\n      swap1\n      0x0100\n      exp\n      swap1\n      div\n      0xffffffffffffffffffffffffffffffffffffffff\n      and\n      0xffffffffffffffffffffffffffffffffffffffff\n      and\n      0xffffffffffffffffffffffffffffffffffffffff\n      and\n      dup2\n      mstore\n      0x20\n      add\n      0x01\n      dup3\n      add\n      sload\n      dup2\n      mstore\n      pop\n      pop\n      swap1\n      pop\n        /* \"contracts/CC/CCToken.sol\":6172:6178  member */\n      dup1\n        /* \"contracts/CC/CCToken.sol\":6172:6192  member.memberAddress */\n      0x00\n      add\n      mload\n        /* \"contracts/CC/CCToken.sol\":6194:6200  member */\n      dup2\n        /* \"contracts/CC/CCToken.sol\":6194:6217  member.investmentAmount */\n      0x20\n      add\n      mload\n        /* \"contracts/CC/CCToken.sol\":6164:6218  return (member.memberAddress, member.investmentAmount) */\n      swap3\n      pop\n      swap3\n      pop\n      pop\n        /* \"contracts/CC/CCToken.sol\":5929:6257  function getTeamMember(uint256 index) public view returns (address, uint256) {... */\n      swap2\n      pop\n      swap2\n      jump\t// out\n        /* \"https://github.com/OpenZeppelin/openzeppelin-contracts/blob/master/contracts/access/Ownable.sol\":1638:1723  function owner() public view virtual returns (address) {... */\n    tag_77:\n        /* \"https://github.com/OpenZeppelin/openzeppelin-contracts/blob/master/contracts/access/Ownable.sol\":1684:1691  address */\n      0x00\n        /* \"https://github.com/OpenZeppelin/openzeppelin-contracts/blob/master/contracts/access/Ownable.sol\":1710:1716  _owner */\n      0x05\n      0x00\n      swap1\n      sload\n      swap1\n      0x0100\n      exp\n      swap1\n      div\n      0xffffffffffffffffffffffffffffffffffffffff\n      and\n        /* \"https://github.com/OpenZeppelin/openzeppelin-contracts/blob/master/contracts/access/Ownable.sol\":1703:1716  return _owner */\n      swap1\n      pop\n        /* \"https://github.com/OpenZeppelin/openzeppelin-contracts/blob/master/contracts/access/Ownable.sol\":1638:1723  function owner() public view virtual returns (address) {... */\n      swap1\n      jump\t// out\n        /* \"contracts/CC/CCToken.sol\":2656:2715  uint256 public constant TOTAL_SUPPLY = 187_500_000 * 10**18 */\n    tag_81:\n        /* \"contracts/CC/CCToken.sol\":2695:2715  187_500_000 * 10**18 */\n      0x9b18ab5df7180b6b800000\n        /* \"contracts/CC/CCToken.sol\":2656:2715  uint256 public constant TOTAL_SUPPLY = 187_500_000 * 10**18 */\n      dup2\n      jump\t// out\n        /* \"https://github.com/OpenZeppelin/openzeppelin-contracts/blob/master/contracts/token/ERC20/ERC20.sol\":1962:2055  function symbol() public view virtual returns (string memory) {... */\n    tag_84:\n        /* \"https://github.com/OpenZeppelin/openzeppelin-contracts/blob/master/contracts/token/ERC20/ERC20.sol\":2009:2022  string memory */\n      0x60\n        /* \"https://github.com/OpenZeppelin/openzeppelin-contracts/blob/master/contracts/token/ERC20/ERC20.sol\":2041:2048  _symbol */\n      0x04\n        /* \"https://github.com/OpenZeppelin/openzeppelin-contracts/blob/master/contracts/token/ERC20/ERC20.sol\":2034:2048  return _symbol */\n      dup1\n      sload\n      tag_173\n      swap1\n      tag_135\n      jump\t// in\n    tag_173:\n      dup1\n      0x1f\n      add\n      0x20\n      dup1\n      swap2\n      div\n      mul\n      0x20\n      add\n      mload(0x40)\n      swap1\n      dup2\n      add\n      0x40\n      mstore\n      dup1\n      swap3\n      swap2\n      swap1\n      dup2\n      dup2\n      mstore\n      0x20\n      add\n      dup3\n      dup1\n      sload\n      tag_174\n      swap1\n      tag_135\n      jump\t// in\n    tag_174:\n      dup1\n      iszero\n      tag_175\n      jumpi\n      dup1\n      0x1f\n      lt\n      tag_176\n      jumpi\n      0x0100\n      dup1\n      dup4\n      sload\n      div\n      mul\n      dup4\n      mstore\n      swap2\n      0x20\n      add\n      swap2\n      jump(tag_175)\n    tag_176:\n      dup3\n      add\n      swap2\n      swap1\n      0x00\n      mstore\n      keccak256(0x00, 0x20)\n      swap1\n    tag_177:\n      dup2\n      sload\n      dup2\n      mstore\n      swap1\n      0x01\n      add\n      swap1\n      0x20\n      add\n      dup1\n      dup4\n      gt\n      tag_177\n      jumpi\n      dup3\n      swap1\n      sub\n      0x1f\n      and\n      dup3\n      add\n      swap2\n    tag_175:\n      pop\n      pop\n      pop\n      pop\n      pop\n      swap1\n      pop\n        /* \"https://github.com/OpenZeppelin/openzeppelin-contracts/blob/master/contracts/token/ERC20/ERC20.sol\":1962:2055  function symbol() public view virtual returns (string memory) {... */\n      swap1\n      jump\t// out\n        /* \"contracts/CC/CCToken.sol\":5090:5252  function transfer(address recipient, uint256 amount) public override teamLocked(amount) returns (bool) {... */\n    tag_88:\n        /* \"contracts/CC/CCToken.sol\":5187:5191  bool */\n      0x00\n        /* \"contracts/CC/CCToken.sol\":5170:5176  amount */\n      dup2\n        /* \"contracts/CC/CCToken.sol\":4964:4979  teamLockedUntil */\n      sload(0x08)\n        /* \"contracts/CC/CCToken.sol\":4945:4960  block.timestamp */\n      timestamp\n        /* \"contracts/CC/CCToken.sol\":4945:4979  block.timestamp >= teamLockedUntil */\n      lt\n      iszero\n        /* \"contracts/CC/CCToken.sol\":4945:5014  block.timestamp >= teamLockedUntil || balanceOf(msg.sender) >= amount */\n      dup1\n      tag_179\n      jumpi\n      pop\n        /* \"contracts/CC/CCToken.sol\":5008:5014  amount */\n      dup1\n        /* \"contracts/CC/CCToken.sol\":4983:5004  balanceOf(msg.sender) */\n      tag_180\n        /* \"contracts/CC/CCToken.sol\":4993:5003  msg.sender */\n      caller\n        /* \"contracts/CC/CCToken.sol\":4983:4992  balanceOf */\n      tag_64\n        /* \"contracts/CC/CCToken.sol\":4983:5004  balanceOf(msg.sender) */\n      jump\t// in\n    tag_180:\n        /* \"contracts/CC/CCToken.sol\":4983:5014  balanceOf(msg.sender) >= amount */\n      lt\n      iszero\n        /* \"contracts/CC/CCToken.sol\":4945:5014  block.timestamp >= teamLockedUntil || balanceOf(msg.sender) >= amount */\n    tag_179:\n        /* \"contracts/CC/CCToken.sol\":4937:5041  require(block.timestamp >= teamLockedUntil || balanceOf(msg.sender) >= amount, \"Team tokens are locked\") */\n      tag_181\n      jumpi\n      mload(0x40)\n      0x08c379a000000000000000000000000000000000000000000000000000000000\n      dup2\n      mstore\n      0x04\n      add\n      tag_182\n      swap1\n      tag_152\n      jump\t// in\n    tag_182:\n      mload(0x40)\n      dup1\n      swap2\n      sub\n      swap1\n      revert\n    tag_181:\n        /* \"contracts/CC/CCToken.sol\":5211:5244  super.transfer(recipient, amount) */\n      tag_184\n        /* \"contracts/CC/CCToken.sol\":5226:5235  recipient */\n      dup5\n        /* \"contracts/CC/CCToken.sol\":5237:5243  amount */\n      dup5\n        /* \"contracts/CC/CCToken.sol\":5211:5225  super.transfer */\n      tag_185\n        /* \"contracts/CC/CCToken.sol\":5211:5244  super.transfer(recipient, amount) */\n      jump\t// in\n    tag_184:\n        /* \"contracts/CC/CCToken.sol\":5204:5244  return super.transfer(recipient, amount) */\n      swap2\n      pop\n        /* \"contracts/CC/CCToken.sol\":5090:5252  function transfer(address recipient, uint256 amount) public override teamLocked(amount) returns (bool) {... */\n      pop\n      swap3\n      swap2\n      pop\n      pop\n      jump\t// out\n        /* \"contracts/CC/CCToken.sol\":3122:3148  address public uniswapPool */\n    tag_91:\n      0x09\n      0x00\n      swap1\n      sload\n      swap1\n      0x0100\n      exp\n      swap1\n      div\n      0xffffffffffffffffffffffffffffffffffffffff\n      and\n      dup2\n      jump\t// out\n        /* \"https://github.com/OpenZeppelin/openzeppelin-contracts/blob/master/contracts/token/ERC20/ERC20.sol\":3455:3595  function allowance(address owner, address spender) public view virtual returns (uint256) {... */\n    tag_96:\n        /* \"https://github.com/OpenZeppelin/openzeppelin-contracts/blob/master/contracts/token/ERC20/ERC20.sol\":3535:3542  uint256 */\n      0x00\n        /* \"https://github.com/OpenZeppelin/openzeppelin-contracts/blob/master/contracts/token/ERC20/ERC20.sol\":3561:3572  _allowances */\n      0x01\n        /* \"https://github.com/OpenZeppelin/openzeppelin-contracts/blob/master/contracts/token/ERC20/ERC20.sol\":3561:3579  _allowances[owner] */\n      0x00\n        /* \"https://github.com/OpenZeppelin/openzeppelin-contracts/blob/master/contracts/token/ERC20/ERC20.sol\":3573:3578  owner */\n      dup5\n        /* \"https://github.com/OpenZeppelin/openzeppelin-contracts/blob/master/contracts/token/ERC20/ERC20.sol\":3561:3579  _allowances[owner] */\n      0xffffffffffffffffffffffffffffffffffffffff\n      and\n      0xffffffffffffffffffffffffffffffffffffffff\n      and\n      dup2\n      mstore\n      0x20\n      add\n      swap1\n      dup2\n      mstore\n      0x20\n      add\n      0x00\n      keccak256\n        /* \"https://github.com/OpenZeppelin/openzeppelin-contracts/blob/master/contracts/token/ERC20/ERC20.sol\":3561:3588  _allowances[owner][spender] */\n      0x00\n        /* \"https://github.com/OpenZeppelin/openzeppelin-contracts/blob/master/contracts/token/ERC20/ERC20.sol\":3580:3587  spender */\n      dup4\n        /* \"https://github.com/OpenZeppelin/openzeppelin-contracts/blob/master/contracts/token/ERC20/ERC20.sol\":3561:3588  _allowances[owner][spender] */\n      0xffffffffffffffffffffffffffffffffffffffff\n      and\n      0xffffffffffffffffffffffffffffffffffffffff\n      and\n      dup2\n      mstore\n      0x20\n      add\n      swap1\n      dup2\n      mstore\n      0x20\n      add\n      0x00\n      keccak256\n      sload\n        /* \"https://github.com/OpenZeppelin/openzeppelin-contracts/blob/master/contracts/token/ERC20/ERC20.sol\":3554:3588  return _allowances[owner][spender] */\n      swap1\n      pop\n        /* \"https://github.com/OpenZeppelin/openzeppelin-contracts/blob/master/contracts/token/ERC20/ERC20.sol\":3455:3595  function allowance(address owner, address spender) public view virtual returns (uint256) {... */\n      swap3\n      swap2\n      pop\n      pop\n      jump\t// out\n        /* \"contracts/CC/CCToken.sol\":5492:5774  function getCurrentPrice() public view returns (uint256 price) {... */\n    tag_99:\n        /* \"contracts/CC/CCToken.sol\":5540:5553  uint256 price */\n      0x00\n        /* \"contracts/CC/CCToken.sol\":5566:5585  IUniswapV3Pool pool */\n      0x00\n        /* \"contracts/CC/CCToken.sol\":5603:5614  uniswapPool */\n      0x09\n      0x00\n      swap1\n      sload\n      swap1\n      0x0100\n      exp\n      swap1\n      div\n      0xffffffffffffffffffffffffffffffffffffffff\n      and\n        /* \"contracts/CC/CCToken.sol\":5566:5615  IUniswapV3Pool pool = IUniswapV3Pool(uniswapPool) */\n      swap1\n      pop\n        /* \"contracts/CC/CCToken.sol\":5627:5647  uint160 sqrtPriceX96 */\n      0x00\n        /* \"contracts/CC/CCToken.sol\":5663:5667  pool */\n      dup2\n        /* \"contracts/CC/CCToken.sol\":5663:5673  pool.slot0 */\n      0xffffffffffffffffffffffffffffffffffffffff\n      and\n      0x3850c7bd\n        /* \"contracts/CC/CCToken.sol\":5663:5675  pool.slot0() */\n      mload(0x40)\n      dup2\n      0xffffffff\n      and\n      0xe0\n      shl\n      dup2\n      mstore\n      0x04\n      add\n      0xe0\n      mload(0x40)\n      dup1\n      dup4\n      sub\n      dup2\n      dup7\n      gas\n      staticcall\n      iszero\n      dup1\n      iszero\n      tag_189\n      jumpi\n      returndatacopy(0x00, 0x00, returndatasize)\n      revert(0x00, returndatasize)\n    tag_189:\n      pop\n      pop\n      pop\n      pop\n      mload(0x40)\n      returndatasize\n      not(0x1f)\n      0x1f\n      dup3\n      add\n      and\n      dup3\n      add\n      dup1\n      0x40\n      mstore\n      pop\n      dup2\n      add\n      swap1\n      tag_190\n      swap2\n      swap1\n      tag_191\n      jump\t// in\n    tag_190:\n        /* \"contracts/CC/CCToken.sol\":5626:5675  (uint160 sqrtPriceX96, , , , , , ) = pool.slot0() */\n      pop\n      pop\n      pop\n      pop\n      pop\n      pop\n      swap1\n      pop\n        /* \"contracts/CC/CCToken.sol\":5743:5749  2**192 */\n      0x01000000000000000000000000000000000000000000000000\n        /* \"contracts/CC/CCToken.sol\":5726:5738  sqrtPriceX96 */\n      dup2\n        /* \"contracts/CC/CCToken.sol\":5718:5739  uint256(sqrtPriceX96) */\n      0xffffffffffffffffffffffffffffffffffffffff\n      and\n        /* \"contracts/CC/CCToken.sol\":5702:5714  sqrtPriceX96 */\n      dup3\n        /* \"contracts/CC/CCToken.sol\":5694:5715  uint256(sqrtPriceX96) */\n      0xffffffffffffffffffffffffffffffffffffffff\n      and\n        /* \"contracts/CC/CCToken.sol\":5694:5739  uint256(sqrtPriceX96) * uint256(sqrtPriceX96) */\n      tag_192\n      swap2\n      swap1\n      tag_129\n      jump\t// in\n    tag_192:\n        /* \"contracts/CC/CCToken.sol\":5694:5750  uint256(sqrtPriceX96) * uint256(sqrtPriceX96) / (2**192) */\n      tag_193\n      swap2\n      swap1\n      tag_121\n      jump\t// in\n    tag_193:\n        /* \"contracts/CC/CCToken.sol\":5686:5750  price = uint256(sqrtPriceX96) * uint256(sqrtPriceX96) / (2**192) */\n      swap3\n      pop\n        /* \"contracts/CC/CCToken.sol\":5555:5774  {... */\n      pop\n      pop\n        /* \"contracts/CC/CCToken.sol\":5492:5774  function getCurrentPrice() public view returns (uint256 price) {... */\n      swap1\n      jump\t// out\n        /* \"contracts/CC/CCToken.sol\":3027:3056  uint256 public deploymentTime */\n    tag_102:\n      sload(0x07)\n      dup2\n      jump\t// out\n        /* \"contracts/CC/CCToken.sol\":5782:5921  function getTeamMembers() public view returns (TeamMember[] memory) {... */\n    tag_105:\n        /* \"contracts/CC/CCToken.sol\":5829:5848  TeamMember[] memory */\n      0x60\n        /* \"contracts/CC/CCToken.sol\":5868:5879  teamMembers */\n      0x06\n        /* \"contracts/CC/CCToken.sol\":5861:5879  return teamMembers */\n      dup1\n      sload\n      dup1\n      0x20\n      mul\n      0x20\n      add\n      mload(0x40)\n      swap1\n      dup2\n      add\n      0x40\n      mstore\n      dup1\n      swap3\n      swap2\n      swap1\n      dup2\n      dup2\n      mstore\n      0x20\n      add\n      0x00\n      swap1\n    tag_195:\n      dup3\n      dup3\n      lt\n      iszero\n      tag_196\n      jumpi\n      dup4\n      dup3\n      swap1\n      0x00\n      mstore\n      keccak256(0x00, 0x20)\n      swap1\n      0x02\n      mul\n      add\n      mload(0x40)\n      dup1\n      0x40\n      add\n      0x40\n      mstore\n      swap1\n      dup2\n      0x00\n      dup3\n      add\n      0x00\n      swap1\n      sload\n      swap1\n      0x0100\n      exp\n      swap1\n      div\n      0xffffffffffffffffffffffffffffffffffffffff\n      and\n      0xffffffffffffffffffffffffffffffffffffffff\n      and\n      0xffffffffffffffffffffffffffffffffffffffff\n      and\n      dup2\n      mstore\n      0x20\n      add\n      0x01\n      dup3\n      add\n      sload\n      dup2\n      mstore\n      pop\n      pop\n      dup2\n      mstore\n      0x20\n      add\n      swap1\n      0x01\n      add\n      swap1\n      jump(tag_195)\n    tag_196:\n      pop\n      pop\n      pop\n      pop\n      swap1\n      pop\n        /* \"contracts/CC/CCToken.sol\":5782:5921  function getTeamMembers() public view returns (TeamMember[] memory) {... */\n      swap1\n      jump\t// out\n        /* \"https://github.com/OpenZeppelin/openzeppelin-contracts/blob/master/contracts/access/Ownable.sol\":2543:2758  function transferOwnership(address newOwner) public virtual onlyOwner {... */\n    tag_110:\n        /* \"https://github.com/OpenZeppelin/openzeppelin-contracts/blob/master/contracts/access/Ownable.sol\":1531:1544  _checkOwner() */\n      tag_199\n        /* \"https://github.com/OpenZeppelin/openzeppelin-contracts/blob/master/contracts/access/Ownable.sol\":1531:1542  _checkOwner */\n      tag_113\n        /* \"https://github.com/OpenZeppelin/openzeppelin-contracts/blob/master/contracts/access/Ownable.sol\":1531:1544  _checkOwner() */\n      jump\t// in\n    tag_199:\n        /* \"https://github.com/OpenZeppelin/openzeppelin-contracts/blob/master/contracts/access/Ownable.sol\":2647:2648  0 */\n      0x00\n        /* \"https://github.com/OpenZeppelin/openzeppelin-contracts/blob/master/contracts/access/Ownable.sol\":2627:2649  newOwner == address(0) */\n      0xffffffffffffffffffffffffffffffffffffffff\n      and\n        /* \"https://github.com/OpenZeppelin/openzeppelin-contracts/blob/master/contracts/access/Ownable.sol\":2627:2635  newOwner */\n      dup2\n        /* \"https://github.com/OpenZeppelin/openzeppelin-contracts/blob/master/contracts/access/Ownable.sol\":2627:2649  newOwner == address(0) */\n      0xffffffffffffffffffffffffffffffffffffffff\n      and\n      sub\n        /* \"https://github.com/OpenZeppelin/openzeppelin-contracts/blob/master/contracts/access/Ownable.sol\":2623:2714  if (newOwner == address(0)) {... */\n      tag_201\n      jumpi\n        /* \"https://github.com/OpenZeppelin/openzeppelin-contracts/blob/master/contracts/access/Ownable.sol\":2700:2701  0 */\n      0x00\n        /* \"https://github.com/OpenZeppelin/openzeppelin-contracts/blob/master/contracts/access/Ownable.sol\":2672:2703  OwnableInvalidOwner(address(0)) */\n      mload(0x40)\n      0x1e4fbdf700000000000000000000000000000000000000000000000000000000\n      dup2\n      mstore\n      0x04\n      add\n      tag_202\n      swap2\n      swap1\n      tag_79\n      jump\t// in\n    tag_202:\n      mload(0x40)\n      dup1\n      swap2\n      sub\n      swap1\n      revert\n        /* \"https://github.com/OpenZeppelin/openzeppelin-contracts/blob/master/contracts/access/Ownable.sol\":2623:2714  if (newOwner == address(0)) {... */\n    tag_201:\n        /* \"https://github.com/OpenZeppelin/openzeppelin-contracts/blob/master/contracts/access/Ownable.sol\":2723:2751  _transferOwnership(newOwner) */\n      tag_203\n        /* \"https://github.com/OpenZeppelin/openzeppelin-contracts/blob/master/contracts/access/Ownable.sol\":2742:2750  newOwner */\n      dup2\n        /* \"https://github.com/OpenZeppelin/openzeppelin-contracts/blob/master/contracts/access/Ownable.sol\":2723:2741  _transferOwnership */\n      tag_162\n        /* \"https://github.com/OpenZeppelin/openzeppelin-contracts/blob/master/contracts/access/Ownable.sol\":2723:2751  _transferOwnership(newOwner) */\n      jump\t// in\n    tag_203:\n        /* \"https://github.com/OpenZeppelin/openzeppelin-contracts/blob/master/contracts/access/Ownable.sol\":2543:2758  function transferOwnership(address newOwner) public virtual onlyOwner {... */\n      pop\n      jump\t// out\n        /* \"https://github.com/OpenZeppelin/openzeppelin-contracts/blob/master/contracts/access/Ownable.sol\":1796:1958  function _checkOwner() internal view virtual {... */\n    tag_113:\n        /* \"https://github.com/OpenZeppelin/openzeppelin-contracts/blob/master/contracts/access/Ownable.sol\":1866:1878  _msgSender() */\n      tag_205\n        /* \"https://github.com/OpenZeppelin/openzeppelin-contracts/blob/master/contracts/access/Ownable.sol\":1866:1876  _msgSender */\n      tag_142\n        /* \"https://github.com/OpenZeppelin/openzeppelin-contracts/blob/master/contracts/access/Ownable.sol\":1866:1878  _msgSender() */\n      jump\t// in\n    tag_205:\n        /* \"https://github.com/OpenZeppelin/openzeppelin-contracts/blob/master/contracts/access/Ownable.sol\":1855:1878  owner() != _msgSender() */\n      0xffffffffffffffffffffffffffffffffffffffff\n      and\n        /* \"https://github.com/OpenZeppelin/openzeppelin-contracts/blob/master/contracts/access/Ownable.sol\":1855:1862  owner() */\n      tag_206\n        /* \"https://github.com/OpenZeppelin/openzeppelin-contracts/blob/master/contracts/access/Ownable.sol\":1855:1860  owner */\n      tag_77\n        /* \"https://github.com/OpenZeppelin/openzeppelin-contracts/blob/master/contracts/access/Ownable.sol\":1855:1862  owner() */\n      jump\t// in\n    tag_206:\n        /* \"https://github.com/OpenZeppelin/openzeppelin-contracts/blob/master/contracts/access/Ownable.sol\":1855:1878  owner() != _msgSender() */\n      0xffffffffffffffffffffffffffffffffffffffff\n      and\n      eq\n        /* \"https://github.com/OpenZeppelin/openzeppelin-contracts/blob/master/contracts/access/Ownable.sol\":1851:1952  if (owner() != _msgSender()) {... */\n      tag_207\n      jumpi\n        /* \"https://github.com/OpenZeppelin/openzeppelin-contracts/blob/master/contracts/access/Ownable.sol\":1928:1940  _msgSender() */\n      tag_208\n        /* \"https://github.com/OpenZeppelin/openzeppelin-contracts/blob/master/contracts/access/Ownable.sol\":1928:1938  _msgSender */\n      tag_142\n        /* \"https://github.com/OpenZeppelin/openzeppelin-contracts/blob/master/contracts/access/Ownable.sol\":1928:1940  _msgSender() */\n      jump\t// in\n    tag_208:\n        /* \"https://github.com/OpenZeppelin/openzeppelin-contracts/blob/master/contracts/access/Ownable.sol\":1901:1941  OwnableUnauthorizedAccount(_msgSender()) */\n      mload(0x40)\n      0x118cdaa700000000000000000000000000000000000000000000000000000000\n      dup2\n      mstore\n      0x04\n      add\n      tag_209\n      swap2\n      swap1\n      tag_79\n      jump\t// in\n    tag_209:\n      mload(0x40)\n      dup1\n      swap2\n      sub\n      swap1\n      revert\n        /* \"https://github.com/OpenZeppelin/openzeppelin-contracts/blob/master/contracts/access/Ownable.sol\":1851:1952  if (owner() != _msgSender()) {... */\n    tag_207:\n        /* \"https://github.com/OpenZeppelin/openzeppelin-contracts/blob/master/contracts/access/Ownable.sol\":1796:1958  function _checkOwner() internal view virtual {... */\n      jump\t// out\n        /* \"https://github.com/OpenZeppelin/openzeppelin-contracts/blob/master/contracts/token/ERC20/ERC20.sol\":5297:5597  function _transfer(address from, address to, uint256 value) internal {... */\n    tag_132:\n        /* \"https://github.com/OpenZeppelin/openzeppelin-contracts/blob/master/contracts/token/ERC20/ERC20.sol\":5396:5397  0 */\n      0x00\n        /* \"https://github.com/OpenZeppelin/openzeppelin-contracts/blob/master/contracts/token/ERC20/ERC20.sol\":5380:5398  from == address(0) */\n      0xffffffffffffffffffffffffffffffffffffffff\n      and\n        /* \"https://github.com/OpenZeppelin/openzeppelin-contracts/blob/master/contracts/token/ERC20/ERC20.sol\":5380:5384  from */\n      dup4\n        /* \"https://github.com/OpenZeppelin/openzeppelin-contracts/blob/master/contracts/token/ERC20/ERC20.sol\":5380:5398  from == address(0) */\n      0xffffffffffffffffffffffffffffffffffffffff\n      and\n      sub\n        /* \"https://github.com/OpenZeppelin/openzeppelin-contracts/blob/master/contracts/token/ERC20/ERC20.sol\":5376:5462  if (from == address(0)) {... */\n      tag_211\n      jumpi\n        /* \"https://github.com/OpenZeppelin/openzeppelin-contracts/blob/master/contracts/token/ERC20/ERC20.sol\":5448:5449  0 */\n      0x00\n        /* \"https://github.com/OpenZeppelin/openzeppelin-contracts/blob/master/contracts/token/ERC20/ERC20.sol\":5421:5451  ERC20InvalidSender(address(0)) */\n      mload(0x40)\n      0x96c6fd1e00000000000000000000000000000000000000000000000000000000\n      dup2\n      mstore\n      0x04\n      add\n      tag_212\n      swap2\n      swap1\n      tag_79\n      jump\t// in\n    tag_212:\n      mload(0x40)\n      dup1\n      swap2\n      sub\n      swap1\n      revert\n        /* \"https://github.com/OpenZeppelin/openzeppelin-contracts/blob/master/contracts/token/ERC20/ERC20.sol\":5376:5462  if (from == address(0)) {... */\n    tag_211:\n        /* \"https://github.com/OpenZeppelin/openzeppelin-contracts/blob/master/contracts/token/ERC20/ERC20.sol\":5489:5490  0 */\n      0x00\n        /* \"https://github.com/OpenZeppelin/openzeppelin-contracts/blob/master/contracts/token/ERC20/ERC20.sol\":5475:5491  to == address(0) */\n      0xffffffffffffffffffffffffffffffffffffffff\n      and\n        /* \"https://github.com/OpenZeppelin/openzeppelin-contracts/blob/master/contracts/token/ERC20/ERC20.sol\":5475:5477  to */\n      dup3\n        /* \"https://github.com/OpenZeppelin/openzeppelin-contracts/blob/master/contracts/token/ERC20/ERC20.sol\":5475:5491  to == address(0) */\n      0xffffffffffffffffffffffffffffffffffffffff\n      and\n      sub\n        /* \"https://github.com/OpenZeppelin/openzeppelin-contracts/blob/master/contracts/token/ERC20/ERC20.sol\":5471:5557  if (to == address(0)) {... */\n      tag_213\n      jumpi\n        /* \"https://github.com/OpenZeppelin/openzeppelin-contracts/blob/master/contracts/token/ERC20/ERC20.sol\":5543:5544  0 */\n      0x00\n        /* \"https://github.com/OpenZeppelin/openzeppelin-contracts/blob/master/contracts/token/ERC20/ERC20.sol\":5514:5546  ERC20InvalidReceiver(address(0)) */\n      mload(0x40)\n      0xec442f0500000000000000000000000000000000000000000000000000000000\n      dup2\n      mstore\n      0x04\n      add\n      tag_214\n      swap2\n      swap1\n      tag_79\n      jump\t// in\n    tag_214:\n      mload(0x40)\n      dup1\n      swap2\n      sub\n      swap1\n      revert\n        /* \"https://github.com/OpenZeppelin/openzeppelin-contracts/blob/master/contracts/token/ERC20/ERC20.sol\":5471:5557  if (to == address(0)) {... */\n    tag_213:\n        /* \"https://github.com/OpenZeppelin/openzeppelin-contracts/blob/master/contracts/token/ERC20/ERC20.sol\":5566:5590  _update(from, to, value) */\n      tag_215\n        /* \"https://github.com/OpenZeppelin/openzeppelin-contracts/blob/master/contracts/token/ERC20/ERC20.sol\":5574:5578  from */\n      dup4\n        /* \"https://github.com/OpenZeppelin/openzeppelin-contracts/blob/master/contracts/token/ERC20/ERC20.sol\":5580:5582  to */\n      dup4\n        /* \"https://github.com/OpenZeppelin/openzeppelin-contracts/blob/master/contracts/token/ERC20/ERC20.sol\":5584:5589  value */\n      dup4\n        /* \"https://github.com/OpenZeppelin/openzeppelin-contracts/blob/master/contracts/token/ERC20/ERC20.sol\":5566:5573  _update */\n      tag_216\n        /* \"https://github.com/OpenZeppelin/openzeppelin-contracts/blob/master/contracts/token/ERC20/ERC20.sol\":5566:5590  _update(from, to, value) */\n      jump\t// in\n    tag_215:\n        /* \"https://github.com/OpenZeppelin/openzeppelin-contracts/blob/master/contracts/token/ERC20/ERC20.sol\":5297:5597  function _transfer(address from, address to, uint256 value) internal {... */\n      pop\n      pop\n      pop\n      jump\t// out\n        /* \"https://github.com/OpenZeppelin/openzeppelin-contracts/blob/master/contracts/utils/Context.sol\":656:752  function _msgSender() internal view virtual returns (address) {... */\n    tag_142:\n        /* \"https://github.com/OpenZeppelin/openzeppelin-contracts/blob/master/contracts/utils/Context.sol\":709:716  address */\n      0x00\n        /* \"https://github.com/OpenZeppelin/openzeppelin-contracts/blob/master/contracts/utils/Context.sol\":735:745  msg.sender */\n      caller\n        /* \"https://github.com/OpenZeppelin/openzeppelin-contracts/blob/master/contracts/utils/Context.sol\":728:745  return msg.sender */\n      swap1\n      pop\n        /* \"https://github.com/OpenZeppelin/openzeppelin-contracts/blob/master/contracts/utils/Context.sol\":656:752  function _msgSender() internal view virtual returns (address) {... */\n      swap1\n      jump\t// out\n        /* \"https://github.com/OpenZeppelin/openzeppelin-contracts/blob/master/contracts/token/ERC20/ERC20.sol\":8630:8758  function _approve(address owner, address spender, uint256 value) internal {... */\n    tag_144:\n        /* \"https://github.com/OpenZeppelin/openzeppelin-contracts/blob/master/contracts/token/ERC20/ERC20.sol\":8714:8751  _approve(owner, spender, value, true) */\n      tag_219\n        /* \"https://github.com/OpenZeppelin/openzeppelin-contracts/blob/master/contracts/token/ERC20/ERC20.sol\":8723:8728  owner */\n      dup4\n        /* \"https://github.com/OpenZeppelin/openzeppelin-contracts/blob/master/contracts/token/ERC20/ERC20.sol\":8730:8737  spender */\n      dup4\n        /* \"https://github.com/OpenZeppelin/openzeppelin-contracts/blob/master/contracts/token/ERC20/ERC20.sol\":8739:8744  value */\n      dup4\n        /* \"https://github.com/OpenZeppelin/openzeppelin-contracts/blob/master/contracts/token/ERC20/ERC20.sol\":8746:8750  true */\n      0x01\n        /* \"https://github.com/OpenZeppelin/openzeppelin-contracts/blob/master/contracts/token/ERC20/ERC20.sol\":8714:8722  _approve */\n      tag_220\n        /* \"https://github.com/OpenZeppelin/openzeppelin-contracts/blob/master/contracts/token/ERC20/ERC20.sol\":8714:8751  _approve(owner, spender, value, true) */\n      jump\t// in\n    tag_219:\n        /* \"https://github.com/OpenZeppelin/openzeppelin-contracts/blob/master/contracts/token/ERC20/ERC20.sol\":8630:8758  function _approve(address owner, address spender, uint256 value) internal {... */\n      pop\n      pop\n      pop\n      jump\t// out\n        /* \"https://github.com/OpenZeppelin/openzeppelin-contracts/blob/master/contracts/token/ERC20/ERC20.sol\":4680:4924  function transferFrom(address from, address to, uint256 value) public virtual returns (bool) {... */\n    tag_155:\n        /* \"https://github.com/OpenZeppelin/openzeppelin-contracts/blob/master/contracts/token/ERC20/ERC20.sol\":4767:4771  bool */\n      0x00\n        /* \"https://github.com/OpenZeppelin/openzeppelin-contracts/blob/master/contracts/token/ERC20/ERC20.sol\":4783:4798  address spender */\n      0x00\n        /* \"https://github.com/OpenZeppelin/openzeppelin-contracts/blob/master/contracts/token/ERC20/ERC20.sol\":4801:4813  _msgSender() */\n      tag_222\n        /* \"https://github.com/OpenZeppelin/openzeppelin-contracts/blob/master/contracts/token/ERC20/ERC20.sol\":4801:4811  _msgSender */\n      tag_142\n        /* \"https://github.com/OpenZeppelin/openzeppelin-contracts/blob/master/contracts/token/ERC20/ERC20.sol\":4801:4813  _msgSender() */\n      jump\t// in\n    tag_222:\n        /* \"https://github.com/OpenZeppelin/openzeppelin-contracts/blob/master/contracts/token/ERC20/ERC20.sol\":4783:4813  address spender = _msgSender() */\n      swap1\n      pop\n        /* \"https://github.com/OpenZeppelin/openzeppelin-contracts/blob/master/contracts/token/ERC20/ERC20.sol\":4823:4860  _spendAllowance(from, spender, value) */\n      tag_223\n        /* \"https://github.com/OpenZeppelin/openzeppelin-contracts/blob/master/contracts/token/ERC20/ERC20.sol\":4839:4843  from */\n      dup6\n        /* \"https://github.com/OpenZeppelin/openzeppelin-contracts/blob/master/contracts/token/ERC20/ERC20.sol\":4845:4852  spender */\n      dup3\n        /* \"https://github.com/OpenZeppelin/openzeppelin-contracts/blob/master/contracts/token/ERC20/ERC20.sol\":4854:4859  value */\n      dup6\n        /* \"https://github.com/OpenZeppelin/openzeppelin-contracts/blob/master/contracts/token/ERC20/ERC20.sol\":4823:4838  _spendAllowance */\n      tag_224\n        /* \"https://github.com/OpenZeppelin/openzeppelin-contracts/blob/master/contracts/token/ERC20/ERC20.sol\":4823:4860  _spendAllowance(from, spender, value) */\n      jump\t// in\n    tag_223:\n        /* \"https://github.com/OpenZeppelin/openzeppelin-contracts/blob/master/contracts/token/ERC20/ERC20.sol\":4870:4896  _transfer(from, to, value) */\n      tag_225\n        /* \"https://github.com/OpenZeppelin/openzeppelin-contracts/blob/master/contracts/token/ERC20/ERC20.sol\":4880:4884  from */\n      dup6\n        /* \"https://github.com/OpenZeppelin/openzeppelin-contracts/blob/master/contracts/token/ERC20/ERC20.sol\":4886:4888  to */\n      dup6\n        /* \"https://github.com/OpenZeppelin/openzeppelin-contracts/blob/master/contracts/token/ERC20/ERC20.sol\":4890:4895  value */\n      dup6\n        /* \"https://github.com/OpenZeppelin/openzeppelin-contracts/blob/master/contracts/token/ERC20/ERC20.sol\":4870:4879  _transfer */\n      tag_132\n        /* \"https://github.com/OpenZeppelin/openzeppelin-contracts/blob/master/contracts/token/ERC20/ERC20.sol\":4870:4896  _transfer(from, to, value) */\n      jump\t// in\n    tag_225:\n        /* \"https://github.com/OpenZeppelin/openzeppelin-contracts/blob/master/contracts/token/ERC20/ERC20.sol\":4913:4917  true */\n      0x01\n        /* \"https://github.com/OpenZeppelin/openzeppelin-contracts/blob/master/contracts/token/ERC20/ERC20.sol\":4906:4917  return true */\n      swap2\n      pop\n      pop\n        /* \"https://github.com/OpenZeppelin/openzeppelin-contracts/blob/master/contracts/token/ERC20/ERC20.sol\":4680:4924  function transferFrom(address from, address to, uint256 value) public virtual returns (bool) {... */\n      swap4\n      swap3\n      pop\n      pop\n      pop\n      jump\t// out\n        /* \"https://github.com/OpenZeppelin/openzeppelin-contracts/blob/master/contracts/access/Ownable.sol\":2912:3099  function _transferOwnership(address newOwner) internal virtual {... */\n    tag_162:\n        /* \"https://github.com/OpenZeppelin/openzeppelin-contracts/blob/master/contracts/access/Ownable.sol\":2985:3001  address oldOwner */\n      0x00\n        /* \"https://github.com/OpenZeppelin/openzeppelin-contracts/blob/master/contracts/access/Ownable.sol\":3004:3010  _owner */\n      0x05\n      0x00\n      swap1\n      sload\n      swap1\n      0x0100\n      exp\n      swap1\n      div\n      0xffffffffffffffffffffffffffffffffffffffff\n      and\n        /* \"https://github.com/OpenZeppelin/openzeppelin-contracts/blob/master/contracts/access/Ownable.sol\":2985:3010  address oldOwner = _owner */\n      swap1\n      pop\n        /* \"https://github.com/OpenZeppelin/openzeppelin-contracts/blob/master/contracts/access/Ownable.sol\":3029:3037  newOwner */\n      dup2\n        /* \"https://github.com/OpenZeppelin/openzeppelin-contracts/blob/master/contracts/access/Ownable.sol\":3020:3026  _owner */\n      0x05\n      0x00\n        /* \"https://github.com/OpenZeppelin/openzeppelin-contracts/blob/master/contracts/access/Ownable.sol\":3020:3037  _owner = newOwner */\n      0x0100\n      exp\n      dup2\n      sload\n      dup2\n      0xffffffffffffffffffffffffffffffffffffffff\n      mul\n      not\n      and\n      swap1\n      dup4\n      0xffffffffffffffffffffffffffffffffffffffff\n      and\n      mul\n      or\n      swap1\n      sstore\n      pop\n        /* \"https://github.com/OpenZeppelin/openzeppelin-contracts/blob/master/contracts/access/Ownable.sol\":3083:3091  newOwner */\n      dup2\n        /* \"https://github.com/OpenZeppelin/openzeppelin-contracts/blob/master/contracts/access/Ownable.sol\":3052:3092  OwnershipTransferred(oldOwner, newOwner) */\n      0xffffffffffffffffffffffffffffffffffffffff\n      and\n        /* \"https://github.com/OpenZeppelin/openzeppelin-contracts/blob/master/contracts/access/Ownable.sol\":3073:3081  oldOwner */\n      dup2\n        /* \"https://github.com/OpenZeppelin/openzeppelin-contracts/blob/master/contracts/access/Ownable.sol\":3052:3092  OwnershipTransferred(oldOwner, newOwner) */\n      0xffffffffffffffffffffffffffffffffffffffff\n      and\n      0x8be0079c531659141344cd1fd0a4f28419497f9722a3daafe3b4186f6b6457e0\n      mload(0x40)\n      mload(0x40)\n      dup1\n      swap2\n      sub\n      swap1\n      log3\n        /* \"https://github.com/OpenZeppelin/openzeppelin-contracts/blob/master/contracts/access/Ownable.sol\":2975:3099  {... */\n      pop\n        /* \"https://github.com/OpenZeppelin/openzeppelin-contracts/blob/master/contracts/access/Ownable.sol\":2912:3099  function _transferOwnership(address newOwner) internal virtual {... */\n      pop\n      jump\t// out\n        /* \"https://github.com/OpenZeppelin/openzeppelin-contracts/blob/master/contracts/token/ERC20/ERC20.sol\":3244:3422  function transfer(address to, uint256 value) public virtual returns (bool) {... */\n    tag_185:\n        /* \"https://github.com/OpenZeppelin/openzeppelin-contracts/blob/master/contracts/token/ERC20/ERC20.sol\":3313:3317  bool */\n      0x00\n        /* \"https://github.com/OpenZeppelin/openzeppelin-contracts/blob/master/contracts/token/ERC20/ERC20.sol\":3329:3342  address owner */\n      0x00\n        /* \"https://github.com/OpenZeppelin/openzeppelin-contracts/blob/master/contracts/token/ERC20/ERC20.sol\":3345:3357  _msgSender() */\n      tag_228\n        /* \"https://github.com/OpenZeppelin/openzeppelin-contracts/blob/master/contracts/token/ERC20/ERC20.sol\":3345:3355  _msgSender */\n      tag_142\n        /* \"https://github.com/OpenZeppelin/openzeppelin-contracts/blob/master/contracts/token/ERC20/ERC20.sol\":3345:3357  _msgSender() */\n      jump\t// in\n    tag_228:\n        /* \"https://github.com/OpenZeppelin/openzeppelin-contracts/blob/master/contracts/token/ERC20/ERC20.sol\":3329:3357  address owner = _msgSender() */\n      swap1\n      pop\n        /* \"https://github.com/OpenZeppelin/openzeppelin-contracts/blob/master/contracts/token/ERC20/ERC20.sol\":3367:3394  _transfer(owner, to, value) */\n      tag_229\n        /* \"https://github.com/OpenZeppelin/openzeppelin-contracts/blob/master/contracts/token/ERC20/ERC20.sol\":3377:3382  owner */\n      dup2\n        /* \"https://github.com/OpenZeppelin/openzeppelin-contracts/blob/master/contracts/token/ERC20/ERC20.sol\":3384:3386  to */\n      dup6\n        /* \"https://github.com/OpenZeppelin/openzeppelin-contracts/blob/master/contracts/token/ERC20/ERC20.sol\":3388:3393  value */\n      dup6\n        /* \"https://github.com/OpenZeppelin/openzeppelin-contracts/blob/master/contracts/token/ERC20/ERC20.sol\":3367:3376  _transfer */\n      tag_132\n        /* \"https://github.com/OpenZeppelin/openzeppelin-contracts/blob/master/contracts/token/ERC20/ERC20.sol\":3367:3394  _transfer(owner, to, value) */\n      jump\t// in\n    tag_229:\n        /* \"https://github.com/OpenZeppelin/openzeppelin-contracts/blob/master/contracts/token/ERC20/ERC20.sol\":3411:3415  true */\n      0x01\n        /* \"https://github.com/OpenZeppelin/openzeppelin-contracts/blob/master/contracts/token/ERC20/ERC20.sol\":3404:3415  return true */\n      swap2\n      pop\n      pop\n        /* \"https://github.com/OpenZeppelin/openzeppelin-contracts/blob/master/contracts/token/ERC20/ERC20.sol\":3244:3422  function transfer(address to, uint256 value) public virtual returns (bool) {... */\n      swap3\n      swap2\n      pop\n      pop\n      jump\t// out\n        /* \"https://github.com/OpenZeppelin/openzeppelin-contracts/blob/master/contracts/token/ERC20/ERC20.sol\":5912:7019  function _update(address from, address to, uint256 value) internal virtual {... */\n    tag_216:\n        /* \"https://github.com/OpenZeppelin/openzeppelin-contracts/blob/master/contracts/token/ERC20/ERC20.sol\":6017:6018  0 */\n      0x00\n        /* \"https://github.com/OpenZeppelin/openzeppelin-contracts/blob/master/contracts/token/ERC20/ERC20.sol\":6001:6019  from == address(0) */\n      0xffffffffffffffffffffffffffffffffffffffff\n      and\n        /* \"https://github.com/OpenZeppelin/openzeppelin-contracts/blob/master/contracts/token/ERC20/ERC20.sol\":6001:6005  from */\n      dup4\n        /* \"https://github.com/OpenZeppelin/openzeppelin-contracts/blob/master/contracts/token/ERC20/ERC20.sol\":6001:6019  from == address(0) */\n      0xffffffffffffffffffffffffffffffffffffffff\n      and\n      sub\n        /* \"https://github.com/OpenZeppelin/openzeppelin-contracts/blob/master/contracts/token/ERC20/ERC20.sol\":5997:6537  if (from == address(0)) {... */\n      tag_231\n      jumpi\n        /* \"https://github.com/OpenZeppelin/openzeppelin-contracts/blob/master/contracts/token/ERC20/ERC20.sol\":6153:6158  value */\n      dup1\n        /* \"https://github.com/OpenZeppelin/openzeppelin-contracts/blob/master/contracts/token/ERC20/ERC20.sol\":6137:6149  _totalSupply */\n      0x02\n      0x00\n        /* \"https://github.com/OpenZeppelin/openzeppelin-contracts/blob/master/contracts/token/ERC20/ERC20.sol\":6137:6158  _totalSupply += value */\n      dup3\n      dup3\n      sload\n      tag_232\n      swap2\n      swap1\n      tag_127\n      jump\t// in\n    tag_232:\n      swap3\n      pop\n      pop\n      dup2\n      swap1\n      sstore\n      pop\n        /* \"https://github.com/OpenZeppelin/openzeppelin-contracts/blob/master/contracts/token/ERC20/ERC20.sol\":5997:6537  if (from == address(0)) {... */\n      jump(tag_233)\n    tag_231:\n        /* \"https://github.com/OpenZeppelin/openzeppelin-contracts/blob/master/contracts/token/ERC20/ERC20.sol\":6189:6208  uint256 fromBalance */\n      0x00\n        /* \"https://github.com/OpenZeppelin/openzeppelin-contracts/blob/master/contracts/token/ERC20/ERC20.sol\":6211:6220  _balances */\n      0x00\n        /* \"https://github.com/OpenZeppelin/openzeppelin-contracts/blob/master/contracts/token/ERC20/ERC20.sol\":6211:6226  _balances[from] */\n      0x00\n        /* \"https://github.com/OpenZeppelin/openzeppelin-contracts/blob/master/contracts/token/ERC20/ERC20.sol\":6221:6225  from */\n      dup6\n        /* \"https://github.com/OpenZeppelin/openzeppelin-contracts/blob/master/contracts/token/ERC20/ERC20.sol\":6211:6226  _balances[from] */\n      0xffffffffffffffffffffffffffffffffffffffff\n      and\n      0xffffffffffffffffffffffffffffffffffffffff\n      and\n      dup2\n      mstore\n      0x20\n      add\n      swap1\n      dup2\n      mstore\n      0x20\n      add\n      0x00\n      keccak256\n      sload\n        /* \"https://github.com/OpenZeppelin/openzeppelin-contracts/blob/master/contracts/token/ERC20/ERC20.sol\":6189:6226  uint256 fromBalance = _balances[from] */\n      swap1\n      pop\n        /* \"https://github.com/OpenZeppelin/openzeppelin-contracts/blob/master/contracts/token/ERC20/ERC20.sol\":6258:6263  value */\n      dup2\n        /* \"https://github.com/OpenZeppelin/openzeppelin-contracts/blob/master/contracts/token/ERC20/ERC20.sol\":6244:6255  fromBalance */\n      dup2\n        /* \"https://github.com/OpenZeppelin/openzeppelin-contracts/blob/master/contracts/token/ERC20/ERC20.sol\":6244:6263  fromBalance < value */\n      lt\n        /* \"https://github.com/OpenZeppelin/openzeppelin-contracts/blob/master/contracts/token/ERC20/ERC20.sol\":6240:6355  if (fromBalance < value) {... */\n      iszero\n      tag_234\n      jumpi\n        /* \"https://github.com/OpenZeppelin/openzeppelin-contracts/blob/master/contracts/token/ERC20/ERC20.sol\":6315:6319  from */\n      dup4\n        /* \"https://github.com/OpenZeppelin/openzeppelin-contracts/blob/master/contracts/token/ERC20/ERC20.sol\":6321:6332  fromBalance */\n      dup2\n        /* \"https://github.com/OpenZeppelin/openzeppelin-contracts/blob/master/contracts/token/ERC20/ERC20.sol\":6334:6339  value */\n      dup4\n        /* \"https://github.com/OpenZeppelin/openzeppelin-contracts/blob/master/contracts/token/ERC20/ERC20.sol\":6290:6340  ERC20InsufficientBalance(from, fromBalance, value) */\n      mload(0x40)\n      0xe450d38c00000000000000000000000000000000000000000000000000000000\n      dup2\n      mstore\n      0x04\n      add\n      tag_235\n      swap4\n      swap3\n      swap2\n      swap1\n      tag_236\n      jump\t// in\n    tag_235:\n      mload(0x40)\n      dup1\n      swap2\n      sub\n      swap1\n      revert\n        /* \"https://github.com/OpenZeppelin/openzeppelin-contracts/blob/master/contracts/token/ERC20/ERC20.sol\":6240:6355  if (fromBalance < value) {... */\n    tag_234:\n        /* \"https://github.com/OpenZeppelin/openzeppelin-contracts/blob/master/contracts/token/ERC20/ERC20.sol\":6507:6512  value */\n      dup2\n        /* \"https://github.com/OpenZeppelin/openzeppelin-contracts/blob/master/contracts/token/ERC20/ERC20.sol\":6493:6504  fromBalance */\n      dup2\n        /* \"https://github.com/OpenZeppelin/openzeppelin-contracts/blob/master/contracts/token/ERC20/ERC20.sol\":6493:6512  fromBalance - value */\n      sub\n        /* \"https://github.com/OpenZeppelin/openzeppelin-contracts/blob/master/contracts/token/ERC20/ERC20.sol\":6475:6484  _balances */\n      0x00\n        /* \"https://github.com/OpenZeppelin/openzeppelin-contracts/blob/master/contracts/token/ERC20/ERC20.sol\":6475:6490  _balances[from] */\n      0x00\n        /* \"https://github.com/OpenZeppelin/openzeppelin-contracts/blob/master/contracts/token/ERC20/ERC20.sol\":6485:6489  from */\n      dup7\n        /* \"https://github.com/OpenZeppelin/openzeppelin-contracts/blob/master/contracts/token/ERC20/ERC20.sol\":6475:6490  _balances[from] */\n      0xffffffffffffffffffffffffffffffffffffffff\n      and\n      0xffffffffffffffffffffffffffffffffffffffff\n      and\n      dup2\n      mstore\n      0x20\n      add\n      swap1\n      dup2\n      mstore\n      0x20\n      add\n      0x00\n      keccak256\n        /* \"https://github.com/OpenZeppelin/openzeppelin-contracts/blob/master/contracts/token/ERC20/ERC20.sol\":6475:6512  _balances[from] = fromBalance - value */\n      dup2\n      swap1\n      sstore\n      pop\n        /* \"https://github.com/OpenZeppelin/openzeppelin-contracts/blob/master/contracts/token/ERC20/ERC20.sol\":6175:6537  {... */\n      pop\n        /* \"https://github.com/OpenZeppelin/openzeppelin-contracts/blob/master/contracts/token/ERC20/ERC20.sol\":5997:6537  if (from == address(0)) {... */\n    tag_233:\n        /* \"https://github.com/OpenZeppelin/openzeppelin-contracts/blob/master/contracts/token/ERC20/ERC20.sol\":6565:6566  0 */\n      0x00\n        /* \"https://github.com/OpenZeppelin/openzeppelin-contracts/blob/master/contracts/token/ERC20/ERC20.sol\":6551:6567  to == address(0) */\n      0xffffffffffffffffffffffffffffffffffffffff\n      and\n        /* \"https://github.com/OpenZeppelin/openzeppelin-contracts/blob/master/contracts/token/ERC20/ERC20.sol\":6551:6553  to */\n      dup3\n        /* \"https://github.com/OpenZeppelin/openzeppelin-contracts/blob/master/contracts/token/ERC20/ERC20.sol\":6551:6567  to == address(0) */\n      0xffffffffffffffffffffffffffffffffffffffff\n      and\n      sub\n        /* \"https://github.com/OpenZeppelin/openzeppelin-contracts/blob/master/contracts/token/ERC20/ERC20.sol\":6547:6972  if (to == address(0)) {... */\n      tag_237\n      jumpi\n        /* \"https://github.com/OpenZeppelin/openzeppelin-contracts/blob/master/contracts/token/ERC20/ERC20.sol\":6730:6735  value */\n      dup1\n        /* \"https://github.com/OpenZeppelin/openzeppelin-contracts/blob/master/contracts/token/ERC20/ERC20.sol\":6714:6726  _totalSupply */\n      0x02\n      0x00\n        /* \"https://github.com/OpenZeppelin/openzeppelin-contracts/blob/master/contracts/token/ERC20/ERC20.sol\":6714:6735  _totalSupply -= value */\n      dup3\n      dup3\n      sload\n      sub\n      swap3\n      pop\n      pop\n      dup2\n      swap1\n      sstore\n      pop\n        /* \"https://github.com/OpenZeppelin/openzeppelin-contracts/blob/master/contracts/token/ERC20/ERC20.sol\":6547:6972  if (to == address(0)) {... */\n      jump(tag_238)\n    tag_237:\n        /* \"https://github.com/OpenZeppelin/openzeppelin-contracts/blob/master/contracts/token/ERC20/ERC20.sol\":6942:6947  value */\n      dup1\n        /* \"https://github.com/OpenZeppelin/openzeppelin-contracts/blob/master/contracts/token/ERC20/ERC20.sol\":6925:6934  _balances */\n      0x00\n        /* \"https://github.com/OpenZeppelin/openzeppelin-contracts/blob/master/contracts/token/ERC20/ERC20.sol\":6925:6938  _balances[to] */\n      0x00\n        /* \"https://github.com/OpenZeppelin/openzeppelin-contracts/blob/master/contracts/token/ERC20/ERC20.sol\":6935:6937  to */\n      dup5\n        /* \"https://github.com/OpenZeppelin/openzeppelin-contracts/blob/master/contracts/token/ERC20/ERC20.sol\":6925:6938  _balances[to] */\n      0xffffffffffffffffffffffffffffffffffffffff\n      and\n      0xffffffffffffffffffffffffffffffffffffffff\n      and\n      dup2\n      mstore\n      0x20\n      add\n      swap1\n      dup2\n      mstore\n      0x20\n      add\n      0x00\n      keccak256\n      0x00\n        /* \"https://github.com/OpenZeppelin/openzeppelin-contracts/blob/master/contracts/token/ERC20/ERC20.sol\":6925:6947  _balances[to] += value */\n      dup3\n      dup3\n      sload\n      add\n      swap3\n      pop\n      pop\n      dup2\n      swap1\n      sstore\n      pop\n        /* \"https://github.com/OpenZeppelin/openzeppelin-contracts/blob/master/contracts/token/ERC20/ERC20.sol\":6547:6972  if (to == address(0)) {... */\n    tag_238:\n        /* \"https://github.com/OpenZeppelin/openzeppelin-contracts/blob/master/contracts/token/ERC20/ERC20.sol\":7002:7004  to */\n      dup2\n        /* \"https://github.com/OpenZeppelin/openzeppelin-contracts/blob/master/contracts/token/ERC20/ERC20.sol\":6987:7012  Transfer(from, to, value) */\n      0xffffffffffffffffffffffffffffffffffffffff\n      and\n        /* \"https://github.com/OpenZeppelin/openzeppelin-contracts/blob/master/contracts/token/ERC20/ERC20.sol\":6996:7000  from */\n      dup4\n        /* \"https://github.com/OpenZeppelin/openzeppelin-contracts/blob/master/contracts/token/ERC20/ERC20.sol\":6987:7012  Transfer(from, to, value) */\n      0xffffffffffffffffffffffffffffffffffffffff\n      and\n      0xddf252ad1be2c89b69c2b068fc378daa952ba7f163c4a11628f55a4df523b3ef\n        /* \"https://github.com/OpenZeppelin/openzeppelin-contracts/blob/master/contracts/token/ERC20/ERC20.sol\":7006:7011  value */\n      dup4\n        /* \"https://github.com/OpenZeppelin/openzeppelin-contracts/blob/master/contracts/token/ERC20/ERC20.sol\":6987:7012  Transfer(from, to, value) */\n      mload(0x40)\n      tag_239\n      swap2\n      swap1\n      tag_45\n      jump\t// in\n    tag_239:\n      mload(0x40)\n      dup1\n      swap2\n      sub\n      swap1\n      log3\n        /* \"https://github.com/OpenZeppelin/openzeppelin-contracts/blob/master/contracts/token/ERC20/ERC20.sol\":5912:7019  function _update(address from, address to, uint256 value) internal virtual {... */\n      pop\n      pop\n      pop\n      jump\t// out\n        /* \"https://github.com/OpenZeppelin/openzeppelin-contracts/blob/master/contracts/token/ERC20/ERC20.sol\":9605:10037  function _approve(address owner, address spender, uint256 value, bool emitEvent) internal virtual {... */\n    tag_220:\n        /* \"https://github.com/OpenZeppelin/openzeppelin-contracts/blob/master/contracts/token/ERC20/ERC20.sol\":9734:9735  0 */\n      0x00\n        /* \"https://github.com/OpenZeppelin/openzeppelin-contracts/blob/master/contracts/token/ERC20/ERC20.sol\":9717:9736  owner == address(0) */\n      0xffffffffffffffffffffffffffffffffffffffff\n      and\n        /* \"https://github.com/OpenZeppelin/openzeppelin-contracts/blob/master/contracts/token/ERC20/ERC20.sol\":9717:9722  owner */\n      dup5\n        /* \"https://github.com/OpenZeppelin/openzeppelin-contracts/blob/master/contracts/token/ERC20/ERC20.sol\":9717:9736  owner == address(0) */\n      0xffffffffffffffffffffffffffffffffffffffff\n      and\n      sub\n        /* \"https://github.com/OpenZeppelin/openzeppelin-contracts/blob/master/contracts/token/ERC20/ERC20.sol\":9713:9802  if (owner == address(0)) {... */\n      tag_241\n      jumpi\n        /* \"https://github.com/OpenZeppelin/openzeppelin-contracts/blob/master/contracts/token/ERC20/ERC20.sol\":9788:9789  0 */\n      0x00\n        /* \"https://github.com/OpenZeppelin/openzeppelin-contracts/blob/master/contracts/token/ERC20/ERC20.sol\":9759:9791  ERC20InvalidApprover(address(0)) */\n      mload(0x40)\n      0xe602df0500000000000000000000000000000000000000000000000000000000\n      dup2\n      mstore\n      0x04\n      add\n      tag_242\n      swap2\n      swap1\n      tag_79\n      jump\t// in\n    tag_242:\n      mload(0x40)\n      dup1\n      swap2\n      sub\n      swap1\n      revert\n        /* \"https://github.com/OpenZeppelin/openzeppelin-contracts/blob/master/contracts/token/ERC20/ERC20.sol\":9713:9802  if (owner == address(0)) {... */\n    tag_241:\n        /* \"https://github.com/OpenZeppelin/openzeppelin-contracts/blob/master/contracts/token/ERC20/ERC20.sol\":9834:9835  0 */\n      0x00\n        /* \"https://github.com/OpenZeppelin/openzeppelin-contracts/blob/master/contracts/token/ERC20/ERC20.sol\":9815:9836  spender == address(0) */\n      0xffffffffffffffffffffffffffffffffffffffff\n      and\n        /* \"https://github.com/OpenZeppelin/openzeppelin-contracts/blob/master/contracts/token/ERC20/ERC20.sol\":9815:9822  spender */\n      dup4\n        /* \"https://github.com/OpenZeppelin/openzeppelin-contracts/blob/master/contracts/token/ERC20/ERC20.sol\":9815:9836  spender == address(0) */\n      0xffffffffffffffffffffffffffffffffffffffff\n      and\n      sub\n        /* \"https://github.com/OpenZeppelin/openzeppelin-contracts/blob/master/contracts/token/ERC20/ERC20.sol\":9811:9901  if (spender == address(0)) {... */\n      tag_243\n      jumpi\n        /* \"https://github.com/OpenZeppelin/openzeppelin-contracts/blob/master/contracts/token/ERC20/ERC20.sol\":9887:9888  0 */\n      0x00\n        /* \"https://github.com/OpenZeppelin/openzeppelin-contracts/blob/master/contracts/token/ERC20/ERC20.sol\":9859:9890  ERC20InvalidSpender(address(0)) */\n      mload(0x40)\n      0x94280d6200000000000000000000000000000000000000000000000000000000\n      dup2\n      mstore\n      0x04\n      add\n      tag_244\n      swap2\n      swap1\n      tag_79\n      jump\t// in\n    tag_244:\n      mload(0x40)\n      dup1\n      swap2\n      sub\n      swap1\n      revert\n        /* \"https://github.com/OpenZeppelin/openzeppelin-contracts/blob/master/contracts/token/ERC20/ERC20.sol\":9811:9901  if (spender == address(0)) {... */\n    tag_243:\n        /* \"https://github.com/OpenZeppelin/openzeppelin-contracts/blob/master/contracts/token/ERC20/ERC20.sol\":9940:9945  value */\n      dup2\n        /* \"https://github.com/OpenZeppelin/openzeppelin-contracts/blob/master/contracts/token/ERC20/ERC20.sol\":9910:9921  _allowances */\n      0x01\n        /* \"https://github.com/OpenZeppelin/openzeppelin-contracts/blob/master/contracts/token/ERC20/ERC20.sol\":9910:9928  _allowances[owner] */\n      0x00\n        /* \"https://github.com/OpenZeppelin/openzeppelin-contracts/blob/master/contracts/token/ERC20/ERC20.sol\":9922:9927  owner */\n      dup7\n        /* \"https://github.com/OpenZeppelin/openzeppelin-contracts/blob/master/contracts/token/ERC20/ERC20.sol\":9910:9928  _allowances[owner] */\n      0xffffffffffffffffffffffffffffffffffffffff\n      and\n      0xffffffffffffffffffffffffffffffffffffffff\n      and\n      dup2\n      mstore\n      0x20\n      add\n      swap1\n      dup2\n      mstore\n      0x20\n      add\n      0x00\n      keccak256\n        /* \"https://github.com/OpenZeppelin/openzeppelin-contracts/blob/master/contracts/token/ERC20/ERC20.sol\":9910:9937  _allowances[owner][spender] */\n      0x00\n        /* \"https://github.com/OpenZeppelin/openzeppelin-contracts/blob/master/contracts/token/ERC20/ERC20.sol\":9929:9936  spender */\n      dup6\n        /* \"https://github.com/OpenZeppelin/openzeppelin-contracts/blob/master/contracts/token/ERC20/ERC20.sol\":9910:9937  _allowances[owner][spender] */\n      0xffffffffffffffffffffffffffffffffffffffff\n      and\n      0xffffffffffffffffffffffffffffffffffffffff\n      and\n      dup2\n      mstore\n      0x20\n      add\n      swap1\n      dup2\n      mstore\n      0x20\n      add\n      0x00\n      keccak256\n        /* \"https://github.com/OpenZeppelin/openzeppelin-contracts/blob/master/contracts/token/ERC20/ERC20.sol\":9910:9945  _allowances[owner][spender] = value */\n      dup2\n      swap1\n      sstore\n      pop\n        /* \"https://github.com/OpenZeppelin/openzeppelin-contracts/blob/master/contracts/token/ERC20/ERC20.sol\":9959:9968  emitEvent */\n      dup1\n        /* \"https://github.com/OpenZeppelin/openzeppelin-contracts/blob/master/contracts/token/ERC20/ERC20.sol\":9955:10031  if (emitEvent) {... */\n      iszero\n      tag_245\n      jumpi\n        /* \"https://github.com/OpenZeppelin/openzeppelin-contracts/blob/master/contracts/token/ERC20/ERC20.sol\":10005:10012  spender */\n      dup3\n        /* \"https://github.com/OpenZeppelin/openzeppelin-contracts/blob/master/contracts/token/ERC20/ERC20.sol\":9989:10020  Approval(owner, spender, value) */\n      0xffffffffffffffffffffffffffffffffffffffff\n      and\n        /* \"https://github.com/OpenZeppelin/openzeppelin-contracts/blob/master/contracts/token/ERC20/ERC20.sol\":9998:10003  owner */\n      dup5\n        /* \"https://github.com/OpenZeppelin/openzeppelin-contracts/blob/master/contracts/token/ERC20/ERC20.sol\":9989:10020  Approval(owner, spender, value) */\n      0xffffffffffffffffffffffffffffffffffffffff\n      and\n      0x8c5be1e5ebec7d5bd14f71427d1e84f3dd0314c0f7b2291e5b200ac8c7c3b925\n        /* \"https://github.com/OpenZeppelin/openzeppelin-contracts/blob/master/contracts/token/ERC20/ERC20.sol\":10014:10019  value */\n      dup5\n        /* \"https://github.com/OpenZeppelin/openzeppelin-contracts/blob/master/contracts/token/ERC20/ERC20.sol\":9989:10020  Approval(owner, spender, value) */\n      mload(0x40)\n      tag_246\n      swap2\n      swap1\n      tag_45\n      jump\t// in\n    tag_246:\n      mload(0x40)\n      dup1\n      swap2\n      sub\n      swap1\n      log3\n        /* \"https://github.com/OpenZeppelin/openzeppelin-contracts/blob/master/contracts/token/ERC20/ERC20.sol\":9955:10031  if (emitEvent) {... */\n    tag_245:\n        /* \"https://github.com/OpenZeppelin/openzeppelin-contracts/blob/master/contracts/token/ERC20/ERC20.sol\":9605:10037  function _approve(address owner, address spender, uint256 value, bool emitEvent) internal virtual {... */\n      pop\n      pop\n      pop\n      pop\n      jump\t// out\n        /* \"https://github.com/OpenZeppelin/openzeppelin-contracts/blob/master/contracts/token/ERC20/ERC20.sol\":10319:10795  function _spendAllowance(address owner, address spender, uint256 value) internal virtual {... */\n    tag_224:\n        /* \"https://github.com/OpenZeppelin/openzeppelin-contracts/blob/master/contracts/token/ERC20/ERC20.sol\":10418:10442  uint256 currentAllowance */\n      0x00\n        /* \"https://github.com/OpenZeppelin/openzeppelin-contracts/blob/master/contracts/token/ERC20/ERC20.sol\":10445:10470  allowance(owner, spender) */\n      tag_248\n        /* \"https://github.com/OpenZeppelin/openzeppelin-contracts/blob/master/contracts/token/ERC20/ERC20.sol\":10455:10460  owner */\n      dup5\n        /* \"https://github.com/OpenZeppelin/openzeppelin-contracts/blob/master/contracts/token/ERC20/ERC20.sol\":10462:10469  spender */\n      dup5\n        /* \"https://github.com/OpenZeppelin/openzeppelin-contracts/blob/master/contracts/token/ERC20/ERC20.sol\":10445:10454  allowance */\n      tag_96\n        /* \"https://github.com/OpenZeppelin/openzeppelin-contracts/blob/master/contracts/token/ERC20/ERC20.sol\":10445:10470  allowance(owner, spender) */\n      jump\t// in\n    tag_248:\n        /* \"https://github.com/OpenZeppelin/openzeppelin-contracts/blob/master/contracts/token/ERC20/ERC20.sol\":10418:10470  uint256 currentAllowance = allowance(owner, spender) */\n      swap1\n      pop\n        /* \"https://github.com/OpenZeppelin/openzeppelin-contracts/blob/master/contracts/token/ERC20/ERC20.sol\":10503:10520  type(uint256).max */\n      0xffffffffffffffffffffffffffffffffffffffffffffffffffffffffffffffff\n        /* \"https://github.com/OpenZeppelin/openzeppelin-contracts/blob/master/contracts/token/ERC20/ERC20.sol\":10484:10500  currentAllowance */\n      dup2\n        /* \"https://github.com/OpenZeppelin/openzeppelin-contracts/blob/master/contracts/token/ERC20/ERC20.sol\":10484:10520  currentAllowance < type(uint256).max */\n      lt\n        /* \"https://github.com/OpenZeppelin/openzeppelin-contracts/blob/master/contracts/token/ERC20/ERC20.sol\":10480:10789  if (currentAllowance < type(uint256).max) {... */\n      iszero\n      tag_249\n      jumpi\n        /* \"https://github.com/OpenZeppelin/openzeppelin-contracts/blob/master/contracts/token/ERC20/ERC20.sol\":10559:10564  value */\n      dup2\n        /* \"https://github.com/OpenZeppelin/openzeppelin-contracts/blob/master/contracts/token/ERC20/ERC20.sol\":10540:10556  currentAllowance */\n      dup2\n        /* \"https://github.com/OpenZeppelin/openzeppelin-contracts/blob/master/contracts/token/ERC20/ERC20.sol\":10540:10564  currentAllowance < value */\n      lt\n        /* \"https://github.com/OpenZeppelin/openzeppelin-contracts/blob/master/contracts/token/ERC20/ERC20.sol\":10536:10666  if (currentAllowance < value) {... */\n      iszero\n      tag_250\n      jumpi\n        /* \"https://github.com/OpenZeppelin/openzeppelin-contracts/blob/master/contracts/token/ERC20/ERC20.sol\":10618:10625  spender */\n      dup3\n        /* \"https://github.com/OpenZeppelin/openzeppelin-contracts/blob/master/contracts/token/ERC20/ERC20.sol\":10627:10643  currentAllowance */\n      dup2\n        /* \"https://github.com/OpenZeppelin/openzeppelin-contracts/blob/master/contracts/token/ERC20/ERC20.sol\":10645:10650  value */\n      dup4\n        /* \"https://github.com/OpenZeppelin/openzeppelin-contracts/blob/master/contracts/token/ERC20/ERC20.sol\":10591:10651  ERC20InsufficientAllowance(spender, currentAllowance, value) */\n      mload(0x40)\n      0xfb8f41b200000000000000000000000000000000000000000000000000000000\n      dup2\n      mstore\n      0x04\n      add\n      tag_251\n      swap4\n      swap3\n      swap2\n      swap1\n      tag_236\n      jump\t// in\n    tag_251:\n      mload(0x40)\n      dup1\n      swap2\n      sub\n      swap1\n      revert\n        /* \"https://github.com/OpenZeppelin/openzeppelin-contracts/blob/master/contracts/token/ERC20/ERC20.sol\":10536:10666  if (currentAllowance < value) {... */\n    tag_250:\n        /* \"https://github.com/OpenZeppelin/openzeppelin-contracts/blob/master/contracts/token/ERC20/ERC20.sol\":10707:10764  _approve(owner, spender, currentAllowance - value, false) */\n      tag_252\n        /* \"https://github.com/OpenZeppelin/openzeppelin-contracts/blob/master/contracts/token/ERC20/ERC20.sol\":10716:10721  owner */\n      dup5\n        /* \"https://github.com/OpenZeppelin/openzeppelin-contracts/blob/master/contracts/token/ERC20/ERC20.sol\":10723:10730  spender */\n      dup5\n        /* \"https://github.com/OpenZeppelin/openzeppelin-contracts/blob/master/contracts/token/ERC20/ERC20.sol\":10751:10756  value */\n      dup5\n        /* \"https://github.com/OpenZeppelin/openzeppelin-contracts/blob/master/contracts/token/ERC20/ERC20.sol\":10732:10748  currentAllowance */\n      dup5\n        /* \"https://github.com/OpenZeppelin/openzeppelin-contracts/blob/master/contracts/token/ERC20/ERC20.sol\":10732:10756  currentAllowance - value */\n      sub\n        /* \"https://github.com/OpenZeppelin/openzeppelin-contracts/blob/master/contracts/token/ERC20/ERC20.sol\":10758:10763  false */\n      0x00\n        /* \"https://github.com/OpenZeppelin/openzeppelin-contracts/blob/master/contracts/token/ERC20/ERC20.sol\":10707:10715  _approve */\n      tag_220\n        /* \"https://github.com/OpenZeppelin/openzeppelin-contracts/blob/master/contracts/token/ERC20/ERC20.sol\":10707:10764  _approve(owner, spender, currentAllowance - value, false) */\n      jump\t// in\n    tag_252:\n        /* \"https://github.com/OpenZeppelin/openzeppelin-contracts/blob/master/contracts/token/ERC20/ERC20.sol\":10480:10789  if (currentAllowance < type(uint256).max) {... */\n    tag_249:\n        /* \"https://github.com/OpenZeppelin/openzeppelin-contracts/blob/master/contracts/token/ERC20/ERC20.sol\":10408:10795  {... */\n      pop\n        /* \"https://github.com/OpenZeppelin/openzeppelin-contracts/blob/master/contracts/token/ERC20/ERC20.sol\":10319:10795  function _spendAllowance(address owner, address spender, uint256 value) internal virtual {... */\n      pop\n      pop\n      pop\n      jump\t// out\n        /* \"#utility.yul\":88:205   */\n    tag_254:\n        /* \"#utility.yul\":197:198   */\n      0x00\n        /* \"#utility.yul\":194:195   */\n      0x00\n        /* \"#utility.yul\":187:199   */\n      revert\n        /* \"#utility.yul\":334:411   */\n    tag_256:\n        /* \"#utility.yul\":371:378   */\n      0x00\n        /* \"#utility.yul\":400:405   */\n      dup2\n        /* \"#utility.yul\":389:405   */\n      swap1\n      pop\n        /* \"#utility.yul\":334:411   */\n      swap2\n      swap1\n      pop\n      jump\t// out\n        /* \"#utility.yul\":417:539   */\n    tag_257:\n        /* \"#utility.yul\":490:514   */\n      tag_312\n        /* \"#utility.yul\":508:513   */\n      dup2\n        /* \"#utility.yul\":490:514   */\n      tag_256\n      jump\t// in\n    tag_312:\n        /* \"#utility.yul\":483:488   */\n      dup2\n        /* \"#utility.yul\":480:515   */\n      eq\n        /* \"#utility.yul\":470:533   */\n      tag_313\n      jumpi\n        /* \"#utility.yul\":529:530   */\n      0x00\n        /* \"#utility.yul\":526:527   */\n      0x00\n        /* \"#utility.yul\":519:531   */\n      revert\n        /* \"#utility.yul\":470:533   */\n    tag_313:\n        /* \"#utility.yul\":417:539   */\n      pop\n      jump\t// out\n        /* \"#utility.yul\":545:684   */\n    tag_258:\n        /* \"#utility.yul\":591:596   */\n      0x00\n        /* \"#utility.yul\":629:635   */\n      dup2\n        /* \"#utility.yul\":616:636   */\n      calldataload\n        /* \"#utility.yul\":607:636   */\n      swap1\n      pop\n        /* \"#utility.yul\":645:678   */\n      tag_315\n        /* \"#utility.yul\":672:677   */\n      dup2\n        /* \"#utility.yul\":645:678   */\n      tag_257\n      jump\t// in\n    tag_315:\n        /* \"#utility.yul\":545:684   */\n      swap3\n      swap2\n      pop\n      pop\n      jump\t// out\n        /* \"#utility.yul\":690:1019   */\n    tag_30:\n        /* \"#utility.yul\":749:755   */\n      0x00\n        /* \"#utility.yul\":798:800   */\n      0x20\n        /* \"#utility.yul\":786:795   */\n      dup3\n        /* \"#utility.yul\":777:784   */\n      dup5\n        /* \"#utility.yul\":773:796   */\n      sub\n        /* \"#utility.yul\":769:801   */\n      slt\n        /* \"#utility.yul\":766:885   */\n      iszero\n      tag_317\n      jumpi\n        /* \"#utility.yul\":804:883   */\n      tag_318\n      tag_254\n      jump\t// in\n    tag_318:\n        /* \"#utility.yul\":766:885   */\n    tag_317:\n        /* \"#utility.yul\":924:925   */\n      0x00\n        /* \"#utility.yul\":949:1002   */\n      tag_319\n        /* \"#utility.yul\":994:1001   */\n      dup5\n        /* \"#utility.yul\":985:991   */\n      dup3\n        /* \"#utility.yul\":974:983   */\n      dup6\n        /* \"#utility.yul\":970:992   */\n      add\n        /* \"#utility.yul\":949:1002   */\n      tag_258\n      jump\t// in\n    tag_319:\n        /* \"#utility.yul\":939:1002   */\n      swap2\n      pop\n        /* \"#utility.yul\":895:1012   */\n      pop\n        /* \"#utility.yul\":690:1019   */\n      swap3\n      swap2\n      pop\n      pop\n      jump\t// out\n        /* \"#utility.yul\":1025:1124   */\n    tag_259:\n        /* \"#utility.yul\":1077:1083   */\n      0x00\n        /* \"#utility.yul\":1111:1116   */\n      dup2\n        /* \"#utility.yul\":1105:1117   */\n      mload\n        /* \"#utility.yul\":1095:1117   */\n      swap1\n      pop\n        /* \"#utility.yul\":1025:1124   */\n      swap2\n      swap1\n      pop\n      jump\t// out\n        /* \"#utility.yul\":1130:1299   */\n    tag_260:\n        /* \"#utility.yul\":1214:1225   */\n      0x00\n        /* \"#utility.yul\":1248:1254   */\n      dup3\n        /* \"#utility.yul\":1243:1246   */\n      dup3\n        /* \"#utility.yul\":1236:1255   */\n      mstore\n        /* \"#utility.yul\":1288:1292   */\n      0x20\n        /* \"#utility.yul\":1283:1286   */\n      dup3\n        /* \"#utility.yul\":1279:1293   */\n      add\n        /* \"#utility.yul\":1264:1293   */\n      swap1\n      pop\n        /* \"#utility.yul\":1130:1299   */\n      swap3\n      swap2\n      pop\n      pop\n      jump\t// out\n        /* \"#utility.yul\":1305:1444   */\n    tag_261:\n        /* \"#utility.yul\":1394:1400   */\n      dup3\n        /* \"#utility.yul\":1389:1392   */\n      dup2\n        /* \"#utility.yul\":1384:1387   */\n      dup4\n        /* \"#utility.yul\":1378:1401   */\n      mcopy\n        /* \"#utility.yul\":1435:1436   */\n      0x00\n        /* \"#utility.yul\":1426:1432   */\n      dup4\n        /* \"#utility.yul\":1421:1424   */\n      dup4\n        /* \"#utility.yul\":1417:1433   */\n      add\n        /* \"#utility.yul\":1410:1437   */\n      mstore\n        /* \"#utility.yul\":1305:1444   */\n      pop\n      pop\n      pop\n      jump\t// out\n        /* \"#utility.yul\":1450:1552   */\n    tag_262:\n        /* \"#utility.yul\":1491:1497   */\n      0x00\n        /* \"#utility.yul\":1542:1544   */\n      0x1f\n        /* \"#utility.yul\":1538:1545   */\n      not\n        /* \"#utility.yul\":1533:1535   */\n      0x1f\n        /* \"#utility.yul\":1526:1531   */\n      dup4\n        /* \"#utility.yul\":1522:1536   */\n      add\n        /* \"#utility.yul\":1518:1546   */\n      and\n        /* \"#utility.yul\":1508:1546   */\n      swap1\n      pop\n        /* \"#utility.yul\":1450:1552   */\n      swap2\n      swap1\n      pop\n      jump\t// out\n        /* \"#utility.yul\":1558:1935   */\n    tag_263:\n        /* \"#utility.yul\":1646:1649   */\n      0x00\n        /* \"#utility.yul\":1674:1713   */\n      tag_325\n        /* \"#utility.yul\":1707:1712   */\n      dup3\n        /* \"#utility.yul\":1674:1713   */\n      tag_259\n      jump\t// in\n    tag_325:\n        /* \"#utility.yul\":1729:1800   */\n      tag_326\n        /* \"#utility.yul\":1793:1799   */\n      dup2\n        /* \"#utility.yul\":1788:1791   */\n      dup6\n        /* \"#utility.yul\":1729:1800   */\n      tag_260\n      jump\t// in\n    tag_326:\n        /* \"#utility.yul\":1722:1800   */\n      swap4\n      pop\n        /* \"#utility.yul\":1809:1874   */\n      tag_327\n        /* \"#utility.yul\":1867:1873   */\n      dup2\n        /* \"#utility.yul\":1862:1865   */\n      dup6\n        /* \"#utility.yul\":1855:1859   */\n      0x20\n        /* \"#utility.yul\":1848:1853   */\n      dup7\n        /* \"#utility.yul\":1844:1860   */\n      add\n        /* \"#utility.yul\":1809:1874   */\n      tag_261\n      jump\t// in\n    tag_327:\n        /* \"#utility.yul\":1899:1928   */\n      tag_328\n        /* \"#utility.yul\":1921:1927   */\n      dup2\n        /* \"#utility.yul\":1899:1928   */\n      tag_262\n      jump\t// in\n    tag_328:\n        /* \"#utility.yul\":1894:1897   */\n      dup5\n        /* \"#utility.yul\":1890:1929   */\n      add\n        /* \"#utility.yul\":1883:1929   */\n      swap2\n      pop\n        /* \"#utility.yul\":1650:1935   */\n      pop\n        /* \"#utility.yul\":1558:1935   */\n      swap3\n      swap2\n      pop\n      pop\n      jump\t// out\n        /* \"#utility.yul\":1941:2254   */\n    tag_35:\n        /* \"#utility.yul\":2054:2058   */\n      0x00\n        /* \"#utility.yul\":2092:2094   */\n      0x20\n        /* \"#utility.yul\":2081:2090   */\n      dup3\n        /* \"#utility.yul\":2077:2095   */\n      add\n        /* \"#utility.yul\":2069:2095   */\n      swap1\n      pop\n        /* \"#utility.yul\":2141:2150   */\n      dup2\n        /* \"#utility.yul\":2135:2139   */\n      dup2\n        /* \"#utility.yul\":2131:2151   */\n      sub\n        /* \"#utility.yul\":2127:2128   */\n      0x00\n        /* \"#utility.yul\":2116:2125   */\n      dup4\n        /* \"#utility.yul\":2112:2129   */\n      add\n        /* \"#utility.yul\":2105:2152   */\n      mstore\n        /* \"#utility.yul\":2169:2247   */\n      tag_330\n        /* \"#utility.yul\":2242:2246   */\n      dup2\n        /* \"#utility.yul\":2233:2239   */\n      dup5\n        /* \"#utility.yul\":2169:2247   */\n      tag_263\n      jump\t// in\n    tag_330:\n        /* \"#utility.yul\":2161:2247   */\n      swap1\n      pop\n        /* \"#utility.yul\":1941:2254   */\n      swap3\n      swap2\n      pop\n      pop\n      jump\t// out\n        /* \"#utility.yul\":2260:2386   */\n    tag_264:\n        /* \"#utility.yul\":2297:2304   */\n      0x00\n        /* \"#utility.yul\":2337:2379   */\n      0xffffffffffffffffffffffffffffffffffffffff\n        /* \"#utility.yul\":2330:2335   */\n      dup3\n        /* \"#utility.yul\":2326:2380   */\n      and\n        /* \"#utility.yul\":2315:2380   */\n      swap1\n      pop\n        /* \"#utility.yul\":2260:2386   */\n      swap2\n      swap1\n      pop\n      jump\t// out\n        /* \"#utility.yul\":2392:2488   */\n    tag_265:\n        /* \"#utility.yul\":2429:2436   */\n      0x00\n        /* \"#utility.yul\":2458:2482   */\n      tag_333\n        /* \"#utility.yul\":2476:2481   */\n      dup3\n        /* \"#utility.yul\":2458:2482   */\n      tag_264\n      jump\t// in\n    tag_333:\n        /* \"#utility.yul\":2447:2482   */\n      swap1\n      pop\n        /* \"#utility.yul\":2392:2488   */\n      swap2\n      swap1\n      pop\n      jump\t// out\n        /* \"#utility.yul\":2494:2616   */\n    tag_266:\n        /* \"#utility.yul\":2567:2591   */\n      tag_335\n        /* \"#utility.yul\":2585:2590   */\n      dup2\n        /* \"#utility.yul\":2567:2591   */\n      tag_265\n      jump\t// in\n    tag_335:\n        /* \"#utility.yul\":2560:2565   */\n      dup2\n        /* \"#utility.yul\":2557:2592   */\n      eq\n        /* \"#utility.yul\":2547:2610   */\n      tag_336\n      jumpi\n        /* \"#utility.yul\":2606:2607   */\n      0x00\n        /* \"#utility.yul\":2603:2604   */\n      0x00\n        /* \"#utility.yul\":2596:2608   */\n      revert\n        /* \"#utility.yul\":2547:2610   */\n    tag_336:\n        /* \"#utility.yul\":2494:2616   */\n      pop\n      jump\t// out\n        /* \"#utility.yul\":2622:2761   */\n    tag_267:\n        /* \"#utility.yul\":2668:2673   */\n      0x00\n        /* \"#utility.yul\":2706:2712   */\n      dup2\n        /* \"#utility.yul\":2693:2713   */\n      calldataload\n        /* \"#utility.yul\":2684:2713   */\n      swap1\n      pop\n        /* \"#utility.yul\":2722:2755   */\n      tag_338\n        /* \"#utility.yul\":2749:2754   */\n      dup2\n        /* \"#utility.yul\":2722:2755   */\n      tag_266\n      jump\t// in\n    tag_338:\n        /* \"#utility.yul\":2622:2761   */\n      swap3\n      swap2\n      pop\n      pop\n      jump\t// out\n        /* \"#utility.yul\":2767:3241   */\n    tag_38:\n        /* \"#utility.yul\":2835:2841   */\n      0x00\n        /* \"#utility.yul\":2843:2849   */\n      0x00\n        /* \"#utility.yul\":2892:2894   */\n      0x40\n        /* \"#utility.yul\":2880:2889   */\n      dup4\n        /* \"#utility.yul\":2871:2878   */\n      dup6\n        /* \"#utility.yul\":2867:2890   */\n      sub\n        /* \"#utility.yul\":2863:2895   */\n      slt\n        /* \"#utility.yul\":2860:2979   */\n      iszero\n      tag_340\n      jumpi\n        /* \"#utility.yul\":2898:2977   */\n      tag_341\n      tag_254\n      jump\t// in\n    tag_341:\n        /* \"#utility.yul\":2860:2979   */\n    tag_340:\n        /* \"#utility.yul\":3018:3019   */\n      0x00\n        /* \"#utility.yul\":3043:3096   */\n      tag_342\n        /* \"#utility.yul\":3088:3095   */\n      dup6\n        /* \"#utility.yul\":3079:3085   */\n      dup3\n        /* \"#utility.yul\":3068:3077   */\n      dup7\n        /* \"#utility.yul\":3064:3086   */\n      add\n        /* \"#utility.yul\":3043:3096   */\n      tag_267\n      jump\t// in\n    tag_342:\n        /* \"#utility.yul\":3033:3096   */\n      swap3\n      pop\n        /* \"#utility.yul\":2989:3106   */\n      pop\n        /* \"#utility.yul\":3145:3147   */\n      0x20\n        /* \"#utility.yul\":3171:3224   */\n      tag_343\n        /* \"#utility.yul\":3216:3223   */\n      dup6\n        /* \"#utility.yul\":3207:3213   */\n      dup3\n        /* \"#utility.yul\":3196:3205   */\n      dup7\n        /* \"#utility.yul\":3192:3214   */\n      add\n        /* \"#utility.yul\":3171:3224   */\n      tag_258\n      jump\t// in\n    tag_343:\n        /* \"#utility.yul\":3161:3224   */\n      swap2\n      pop\n        /* \"#utility.yul\":3116:3234   */\n      pop\n        /* \"#utility.yul\":2767:3241   */\n      swap3\n      pop\n      swap3\n      swap1\n      pop\n      jump\t// out\n        /* \"#utility.yul\":3247:3337   */\n    tag_268:\n        /* \"#utility.yul\":3281:3288   */\n      0x00\n        /* \"#utility.yul\":3324:3329   */\n      dup2\n        /* \"#utility.yul\":3317:3330   */\n      iszero\n        /* \"#utility.yul\":3310:3331   */\n      iszero\n        /* \"#utility.yul\":3299:3331   */\n      swap1\n      pop\n        /* \"#utility.yul\":3247:3337   */\n      swap2\n      swap1\n      pop\n      jump\t// out\n        /* \"#utility.yul\":3343:3452   */\n    tag_269:\n        /* \"#utility.yul\":3424:3445   */\n      tag_346\n        /* \"#utility.yul\":3439:3444   */\n      dup2\n        /* \"#utility.yul\":3424:3445   */\n      tag_268\n      jump\t// in\n    tag_346:\n        /* \"#utility.yul\":3419:3422   */\n      dup3\n        /* \"#utility.yul\":3412:3446   */\n      mstore\n        /* \"#utility.yul\":3343:3452   */\n      pop\n      pop\n      jump\t// out\n        /* \"#utility.yul\":3458:3668   */\n    tag_41:\n        /* \"#utility.yul\":3545:3549   */\n      0x00\n        /* \"#utility.yul\":3583:3585   */\n      0x20\n        /* \"#utility.yul\":3572:3581   */\n      dup3\n        /* \"#utility.yul\":3568:3586   */\n      add\n        /* \"#utility.yul\":3560:3586   */\n      swap1\n      pop\n        /* \"#utility.yul\":3596:3661   */\n      tag_348\n        /* \"#utility.yul\":3658:3659   */\n      0x00\n        /* \"#utility.yul\":3647:3656   */\n      dup4\n        /* \"#utility.yul\":3643:3660   */\n      add\n        /* \"#utility.yul\":3634:3640   */\n      dup5\n        /* \"#utility.yul\":3596:3661   */\n      tag_269\n      jump\t// in\n    tag_348:\n        /* \"#utility.yul\":3458:3668   */\n      swap3\n      swap2\n      pop\n      pop\n      jump\t// out\n        /* \"#utility.yul\":3674:3792   */\n    tag_270:\n        /* \"#utility.yul\":3761:3785   */\n      tag_350\n        /* \"#utility.yul\":3779:3784   */\n      dup2\n        /* \"#utility.yul\":3761:3785   */\n      tag_256\n      jump\t// in\n    tag_350:\n        /* \"#utility.yul\":3756:3759   */\n      dup3\n        /* \"#utility.yul\":3749:3786   */\n      mstore\n        /* \"#utility.yul\":3674:3792   */\n      pop\n      pop\n      jump\t// out\n        /* \"#utility.yul\":3798:4020   */\n    tag_45:\n        /* \"#utility.yul\":3891:3895   */\n      0x00\n        /* \"#utility.yul\":3929:3931   */\n      0x20\n        /* \"#utility.yul\":3918:3927   */\n      dup3\n        /* \"#utility.yul\":3914:3932   */\n      add\n        /* \"#utility.yul\":3906:3932   */\n      swap1\n      pop\n        /* \"#utility.yul\":3942:4013   */\n      tag_352\n        /* \"#utility.yul\":4010:4011   */\n      0x00\n        /* \"#utility.yul\":3999:4008   */\n      dup4\n        /* \"#utility.yul\":3995:4012   */\n      add\n        /* \"#utility.yul\":3986:3992   */\n      dup5\n        /* \"#utility.yul\":3942:4013   */\n      tag_270\n      jump\t// in\n    tag_352:\n        /* \"#utility.yul\":3798:4020   */\n      swap3\n      swap2\n      pop\n      pop\n      jump\t// out\n        /* \"#utility.yul\":4026:4645   */\n    tag_51:\n        /* \"#utility.yul\":4103:4109   */\n      0x00\n        /* \"#utility.yul\":4111:4117   */\n      0x00\n        /* \"#utility.yul\":4119:4125   */\n      0x00\n        /* \"#utility.yul\":4168:4170   */\n      0x60\n        /* \"#utility.yul\":4156:4165   */\n      dup5\n        /* \"#utility.yul\":4147:4154   */\n      dup7\n        /* \"#utility.yul\":4143:4166   */\n      sub\n        /* \"#utility.yul\":4139:4171   */\n      slt\n        /* \"#utility.yul\":4136:4255   */\n      iszero\n      tag_354\n      jumpi\n        /* \"#utility.yul\":4174:4253   */\n      tag_355\n      tag_254\n      jump\t// in\n    tag_355:\n        /* \"#utility.yul\":4136:4255   */\n    tag_354:\n        /* \"#utility.yul\":4294:4295   */\n      0x00\n        /* \"#utility.yul\":4319:4372   */\n      tag_356\n        /* \"#utility.yul\":4364:4371   */\n      dup7\n        /* \"#utility.yul\":4355:4361   */\n      dup3\n        /* \"#utility.yul\":4344:4353   */\n      dup8\n        /* \"#utility.yul\":4340:4362   */\n      add\n        /* \"#utility.yul\":4319:4372   */\n      tag_267\n      jump\t// in\n    tag_356:\n        /* \"#utility.yul\":4309:4372   */\n      swap4\n      pop\n        /* \"#utility.yul\":4265:4382   */\n      pop\n        /* \"#utility.yul\":4421:4423   */\n      0x20\n        /* \"#utility.yul\":4447:4500   */\n      tag_357\n        /* \"#utility.yul\":4492:4499   */\n      dup7\n        /* \"#utility.yul\":4483:4489   */\n      dup3\n        /* \"#utility.yul\":4472:4481   */\n      dup8\n        /* \"#utility.yul\":4468:4490   */\n      add\n        /* \"#utility.yul\":4447:4500   */\n      tag_267\n      jump\t// in\n    tag_357:\n        /* \"#utility.yul\":4437:4500   */\n      swap3\n      pop\n        /* \"#utility.yul\":4392:4510   */\n      pop\n        /* \"#utility.yul\":4549:4551   */\n      0x40\n        /* \"#utility.yul\":4575:4628   */\n      tag_358\n        /* \"#utility.yul\":4620:4627   */\n      dup7\n        /* \"#utility.yul\":4611:4617   */\n      dup3\n        /* \"#utility.yul\":4600:4609   */\n      dup8\n        /* \"#utility.yul\":4596:4618   */\n      add\n        /* \"#utility.yul\":4575:4628   */\n      tag_258\n      jump\t// in\n    tag_358:\n        /* \"#utility.yul\":4565:4628   */\n      swap2\n      pop\n        /* \"#utility.yul\":4520:4638   */\n      pop\n        /* \"#utility.yul\":4026:4645   */\n      swap3\n      pop\n      swap3\n      pop\n      swap3\n      jump\t// out\n        /* \"#utility.yul\":4651:4737   */\n    tag_271:\n        /* \"#utility.yul\":4686:4693   */\n      0x00\n        /* \"#utility.yul\":4726:4730   */\n      0xff\n        /* \"#utility.yul\":4719:4724   */\n      dup3\n        /* \"#utility.yul\":4715:4731   */\n      and\n        /* \"#utility.yul\":4704:4731   */\n      swap1\n      pop\n        /* \"#utility.yul\":4651:4737   */\n      swap2\n      swap1\n      pop\n      jump\t// out\n        /* \"#utility.yul\":4743:4855   */\n    tag_272:\n        /* \"#utility.yul\":4826:4848   */\n      tag_361\n        /* \"#utility.yul\":4842:4847   */\n      dup2\n        /* \"#utility.yul\":4826:4848   */\n      tag_271\n      jump\t// in\n    tag_361:\n        /* \"#utility.yul\":4821:4824   */\n      dup3\n        /* \"#utility.yul\":4814:4849   */\n      mstore\n        /* \"#utility.yul\":4743:4855   */\n      pop\n      pop\n      jump\t// out\n        /* \"#utility.yul\":4861:5075   */\n    tag_57:\n        /* \"#utility.yul\":4950:4954   */\n      0x00\n        /* \"#utility.yul\":4988:4990   */\n      0x20\n        /* \"#utility.yul\":4977:4986   */\n      dup3\n        /* \"#utility.yul\":4973:4991   */\n      add\n        /* \"#utility.yul\":4965:4991   */\n      swap1\n      pop\n        /* \"#utility.yul\":5001:5068   */\n      tag_363\n        /* \"#utility.yul\":5065:5066   */\n      0x00\n        /* \"#utility.yul\":5054:5063   */\n      dup4\n        /* \"#utility.yul\":5050:5067   */\n      add\n        /* \"#utility.yul\":5041:5047   */\n      dup5\n        /* \"#utility.yul\":5001:5068   */\n      tag_272\n      jump\t// in\n    tag_363:\n        /* \"#utility.yul\":4861:5075   */\n      swap3\n      swap2\n      pop\n      pop\n      jump\t// out\n        /* \"#utility.yul\":5081:5410   */\n    tag_63:\n        /* \"#utility.yul\":5140:5146   */\n      0x00\n        /* \"#utility.yul\":5189:5191   */\n      0x20\n        /* \"#utility.yul\":5177:5186   */\n      dup3\n        /* \"#utility.yul\":5168:5175   */\n      dup5\n        /* \"#utility.yul\":5164:5187   */\n      sub\n        /* \"#utility.yul\":5160:5192   */\n      slt\n        /* \"#utility.yul\":5157:5276   */\n      iszero\n      tag_365\n      jumpi\n        /* \"#utility.yul\":5195:5274   */\n      tag_366\n      tag_254\n      jump\t// in\n    tag_366:\n        /* \"#utility.yul\":5157:5276   */\n    tag_365:\n        /* \"#utility.yul\":5315:5316   */\n      0x00\n        /* \"#utility.yul\":5340:5393   */\n      tag_367\n        /* \"#utility.yul\":5385:5392   */\n      dup5\n        /* \"#utility.yul\":5376:5382   */\n      dup3\n        /* \"#utility.yul\":5365:5374   */\n      dup6\n        /* \"#utility.yul\":5361:5383   */\n      add\n        /* \"#utility.yul\":5340:5393   */\n      tag_267\n      jump\t// in\n    tag_367:\n        /* \"#utility.yul\":5330:5393   */\n      swap2\n      pop\n        /* \"#utility.yul\":5286:5403   */\n      pop\n        /* \"#utility.yul\":5081:5410   */\n      swap3\n      swap2\n      pop\n      pop\n      jump\t// out\n        /* \"#utility.yul\":5416:5534   */\n    tag_273:\n        /* \"#utility.yul\":5503:5527   */\n      tag_369\n        /* \"#utility.yul\":5521:5526   */\n      dup2\n        /* \"#utility.yul\":5503:5527   */\n      tag_265\n      jump\t// in\n    tag_369:\n        /* \"#utility.yul\":5498:5501   */\n      dup3\n        /* \"#utility.yul\":5491:5528   */\n      mstore\n        /* \"#utility.yul\":5416:5534   */\n      pop\n      pop\n      jump\t// out\n        /* \"#utility.yul\":5540:5872   */\n    tag_75:\n        /* \"#utility.yul\":5661:5665   */\n      0x00\n        /* \"#utility.yul\":5699:5701   */\n      0x40\n        /* \"#utility.yul\":5688:5697   */\n      dup3\n        /* \"#utility.yul\":5684:5702   */\n      add\n        /* \"#utility.yul\":5676:5702   */\n      swap1\n      pop\n        /* \"#utility.yul\":5712:5783   */\n      tag_371\n        /* \"#utility.yul\":5780:5781   */\n      0x00\n        /* \"#utility.yul\":5769:5778   */\n      dup4\n        /* \"#utility.yul\":5765:5782   */\n      add\n        /* \"#utility.yul\":5756:5762   */\n      dup6\n        /* \"#utility.yul\":5712:5783   */\n      tag_273\n      jump\t// in\n    tag_371:\n        /* \"#utility.yul\":5793:5865   */\n      tag_372\n        /* \"#utility.yul\":5861:5863   */\n      0x20\n        /* \"#utility.yul\":5850:5859   */\n      dup4\n        /* \"#utility.yul\":5846:5864   */\n      add\n        /* \"#utility.yul\":5837:5843   */\n      dup5\n        /* \"#utility.yul\":5793:5865   */\n      tag_270\n      jump\t// in\n    tag_372:\n        /* \"#utility.yul\":5540:5872   */\n      swap4\n      swap3\n      pop\n      pop\n      pop\n      jump\t// out\n        /* \"#utility.yul\":5878:6100   */\n    tag_79:\n        /* \"#utility.yul\":5971:5975   */\n      0x00\n        /* \"#utility.yul\":6009:6011   */\n      0x20\n        /* \"#utility.yul\":5998:6007   */\n      dup3\n        /* \"#utility.yul\":5994:6012   */\n      add\n        /* \"#utility.yul\":5986:6012   */\n      swap1\n      pop\n        /* \"#utility.yul\":6022:6093   */\n      tag_374\n        /* \"#utility.yul\":6090:6091   */\n      0x00\n        /* \"#utility.yul\":6079:6088   */\n      dup4\n        /* \"#utility.yul\":6075:6092   */\n      add\n        /* \"#utility.yul\":6066:6072   */\n      dup5\n        /* \"#utility.yul\":6022:6093   */\n      tag_273\n      jump\t// in\n    tag_374:\n        /* \"#utility.yul\":5878:6100   */\n      swap3\n      swap2\n      pop\n      pop\n      jump\t// out\n        /* \"#utility.yul\":6106:6580   */\n    tag_95:\n        /* \"#utility.yul\":6174:6180   */\n      0x00\n        /* \"#utility.yul\":6182:6188   */\n      0x00\n        /* \"#utility.yul\":6231:6233   */\n      0x40\n        /* \"#utility.yul\":6219:6228   */\n      dup4\n        /* \"#utility.yul\":6210:6217   */\n      dup6\n        /* \"#utility.yul\":6206:6229   */\n      sub\n        /* \"#utility.yul\":6202:6234   */\n      slt\n        /* \"#utility.yul\":6199:6318   */\n      iszero\n      tag_376\n      jumpi\n        /* \"#utility.yul\":6237:6316   */\n      tag_377\n      tag_254\n      jump\t// in\n    tag_377:\n        /* \"#utility.yul\":6199:6318   */\n    tag_376:\n        /* \"#utility.yul\":6357:6358   */\n      0x00\n        /* \"#utility.yul\":6382:6435   */\n      tag_378\n        /* \"#utility.yul\":6427:6434   */\n      dup6\n        /* \"#utility.yul\":6418:6424   */\n      dup3\n        /* \"#utility.yul\":6407:6416   */\n      dup7\n        /* \"#utility.yul\":6403:6425   */\n      add\n        /* \"#utility.yul\":6382:6435   */\n      tag_267\n      jump\t// in\n    tag_378:\n        /* \"#utility.yul\":6372:6435   */\n      swap3\n      pop\n        /* \"#utility.yul\":6328:6445   */\n      pop\n        /* \"#utility.yul\":6484:6486   */\n      0x20\n        /* \"#utility.yul\":6510:6563   */\n      tag_379\n        /* \"#utility.yul\":6555:6562   */\n      dup6\n        /* \"#utility.yul\":6546:6552   */\n      dup3\n        /* \"#utility.yul\":6535:6544   */\n      dup7\n        /* \"#utility.yul\":6531:6553   */\n      add\n        /* \"#utility.yul\":6510:6563   */\n      tag_267\n      jump\t// in\n    tag_379:\n        /* \"#utility.yul\":6500:6563   */\n      swap2\n      pop\n        /* \"#utility.yul\":6455:6573   */\n      pop\n        /* \"#utility.yul\":6106:6580   */\n      swap3\n      pop\n      swap3\n      swap1\n      pop\n      jump\t// out\n        /* \"#utility.yul\":6586:6727   */\n    tag_274:\n        /* \"#utility.yul\":6680:6686   */\n      0x00\n        /* \"#utility.yul\":6714:6719   */\n      dup2\n        /* \"#utility.yul\":6708:6720   */\n      mload\n        /* \"#utility.yul\":6698:6720   */\n      swap1\n      pop\n        /* \"#utility.yul\":6586:6727   */\n      swap2\n      swap1\n      pop\n      jump\t// out\n        /* \"#utility.yul\":6733:6944   */\n    tag_275:\n        /* \"#utility.yul\":6859:6870   */\n      0x00\n        /* \"#utility.yul\":6893:6899   */\n      dup3\n        /* \"#utility.yul\":6888:6891   */\n      dup3\n        /* \"#utility.yul\":6881:6900   */\n      mstore\n        /* \"#utility.yul\":6933:6937   */\n      0x20\n        /* \"#utility.yul\":6928:6931   */\n      dup3\n        /* \"#utility.yul\":6924:6938   */\n      add\n        /* \"#utility.yul\":6909:6938   */\n      swap1\n      pop\n        /* \"#utility.yul\":6733:6944   */\n      swap3\n      swap2\n      pop\n      pop\n      jump\t// out\n        /* \"#utility.yul\":6950:7109   */\n    tag_276:\n        /* \"#utility.yul\":7044:7048   */\n      0x00\n        /* \"#utility.yul\":7067:7070   */\n      dup2\n        /* \"#utility.yul\":7059:7070   */\n      swap1\n      pop\n        /* \"#utility.yul\":7097:7101   */\n      0x20\n        /* \"#utility.yul\":7092:7095   */\n      dup3\n        /* \"#utility.yul\":7088:7102   */\n      add\n        /* \"#utility.yul\":7080:7102   */\n      swap1\n      pop\n        /* \"#utility.yul\":6950:7109   */\n      swap2\n      swap1\n      pop\n      jump\t// out\n        /* \"#utility.yul\":7115:7223   */\n    tag_277:\n        /* \"#utility.yul\":7192:7216   */\n      tag_384\n        /* \"#utility.yul\":7210:7215   */\n      dup2\n        /* \"#utility.yul\":7192:7216   */\n      tag_265\n      jump\t// in\n    tag_384:\n        /* \"#utility.yul\":7187:7190   */\n      dup3\n        /* \"#utility.yul\":7180:7217   */\n      mstore\n        /* \"#utility.yul\":7115:7223   */\n      pop\n      pop\n      jump\t// out\n        /* \"#utility.yul\":7229:7337   */\n    tag_278:\n        /* \"#utility.yul\":7306:7330   */\n      tag_386\n        /* \"#utility.yul\":7324:7329   */\n      dup2\n        /* \"#utility.yul\":7306:7330   */\n      tag_256\n      jump\t// in\n    tag_386:\n        /* \"#utility.yul\":7301:7304   */\n      dup3\n        /* \"#utility.yul\":7294:7331   */\n      mstore\n        /* \"#utility.yul\":7229:7337   */\n      pop\n      pop\n      jump\t// out\n        /* \"#utility.yul\":7409:7931   */\n    tag_279:\n        /* \"#utility.yul\":7550:7554   */\n      0x40\n        /* \"#utility.yul\":7545:7548   */\n      dup3\n        /* \"#utility.yul\":7541:7555   */\n      add\n        /* \"#utility.yul\":7646:7650   */\n      0x00\n        /* \"#utility.yul\":7639:7644   */\n      dup3\n        /* \"#utility.yul\":7635:7651   */\n      add\n        /* \"#utility.yul\":7629:7652   */\n      mload\n        /* \"#utility.yul\":7665:7728   */\n      tag_388\n        /* \"#utility.yul\":7722:7726   */\n      0x00\n        /* \"#utility.yul\":7717:7720   */\n      dup6\n        /* \"#utility.yul\":7713:7727   */\n      add\n        /* \"#utility.yul\":7699:7711   */\n      dup3\n        /* \"#utility.yul\":7665:7728   */\n      tag_277\n      jump\t// in\n    tag_388:\n        /* \"#utility.yul\":7565:7738   */\n      pop\n        /* \"#utility.yul\":7832:7836   */\n      0x20\n        /* \"#utility.yul\":7825:7830   */\n      dup3\n        /* \"#utility.yul\":7821:7837   */\n      add\n        /* \"#utility.yul\":7815:7838   */\n      mload\n        /* \"#utility.yul\":7851:7914   */\n      tag_389\n        /* \"#utility.yul\":7908:7912   */\n      0x20\n        /* \"#utility.yul\":7903:7906   */\n      dup6\n        /* \"#utility.yul\":7899:7913   */\n      add\n        /* \"#utility.yul\":7885:7897   */\n      dup3\n        /* \"#utility.yul\":7851:7914   */\n      tag_278\n      jump\t// in\n    tag_389:\n        /* \"#utility.yul\":7748:7924   */\n      pop\n        /* \"#utility.yul\":7519:7931   */\n      pop\n        /* \"#utility.yul\":7409:7931   */\n      pop\n      pop\n      jump\t// out\n        /* \"#utility.yul\":7937:8224   */\n    tag_280:\n        /* \"#utility.yul\":8060:8070   */\n      0x00\n        /* \"#utility.yul\":8081:8181   */\n      tag_391\n        /* \"#utility.yul\":8177:8180   */\n      dup4\n        /* \"#utility.yul\":8169:8175   */\n      dup4\n        /* \"#utility.yul\":8081:8181   */\n      tag_279\n      jump\t// in\n    tag_391:\n        /* \"#utility.yul\":8213:8217   */\n      0x40\n        /* \"#utility.yul\":8208:8211   */\n      dup4\n        /* \"#utility.yul\":8204:8218   */\n      add\n        /* \"#utility.yul\":8190:8218   */\n      swap1\n      pop\n        /* \"#utility.yul\":7937:8224   */\n      swap3\n      swap2\n      pop\n      pop\n      jump\t// out\n        /* \"#utility.yul\":8230:8370   */\n    tag_281:\n        /* \"#utility.yul\":8327:8331   */\n      0x00\n        /* \"#utility.yul\":8359:8363   */\n      0x20\n        /* \"#utility.yul\":8354:8357   */\n      dup3\n        /* \"#utility.yul\":8350:8364   */\n      add\n        /* \"#utility.yul\":8342:8364   */\n      swap1\n      pop\n        /* \"#utility.yul\":8230:8370   */\n      swap2\n      swap1\n      pop\n      jump\t// out\n        /* \"#utility.yul\":8446:9394   */\n    tag_282:\n        /* \"#utility.yul\":8619:8622   */\n      0x00\n        /* \"#utility.yul\":8648:8729   */\n      tag_394\n        /* \"#utility.yul\":8723:8728   */\n      dup3\n        /* \"#utility.yul\":8648:8729   */\n      tag_274\n      jump\t// in\n    tag_394:\n        /* \"#utility.yul\":8745:8858   */\n      tag_395\n        /* \"#utility.yul\":8851:8857   */\n      dup2\n        /* \"#utility.yul\":8846:8849   */\n      dup6\n        /* \"#utility.yul\":8745:8858   */\n      tag_275\n      jump\t// in\n    tag_395:\n        /* \"#utility.yul\":8738:8858   */\n      swap4\n      pop\n        /* \"#utility.yul\":8882:8965   */\n      tag_396\n        /* \"#utility.yul\":8959:8964   */\n      dup4\n        /* \"#utility.yul\":8882:8965   */\n      tag_276\n      jump\t// in\n    tag_396:\n        /* \"#utility.yul\":8988:8995   */\n      dup1\n        /* \"#utility.yul\":9019:9020   */\n      0x00\n        /* \"#utility.yul\":9004:9369   */\n    tag_397:\n        /* \"#utility.yul\":9029:9035   */\n      dup4\n        /* \"#utility.yul\":9026:9027   */\n      dup2\n        /* \"#utility.yul\":9023:9036   */\n      lt\n        /* \"#utility.yul\":9004:9369   */\n      iszero\n      tag_399\n      jumpi\n        /* \"#utility.yul\":9105:9111   */\n      dup2\n        /* \"#utility.yul\":9099:9112   */\n      mload\n        /* \"#utility.yul\":9132:9249   */\n      tag_400\n        /* \"#utility.yul\":9245:9248   */\n      dup9\n        /* \"#utility.yul\":9230:9243   */\n      dup3\n        /* \"#utility.yul\":9132:9249   */\n      tag_280\n      jump\t// in\n    tag_400:\n        /* \"#utility.yul\":9125:9249   */\n      swap8\n      pop\n        /* \"#utility.yul\":9272:9359   */\n      tag_401\n        /* \"#utility.yul\":9352:9358   */\n      dup4\n        /* \"#utility.yul\":9272:9359   */\n      tag_281\n      jump\t// in\n    tag_401:\n        /* \"#utility.yul\":9262:9359   */\n      swap3\n      pop\n        /* \"#utility.yul\":9064:9369   */\n      pop\n        /* \"#utility.yul\":9051:9052   */\n      0x01\n        /* \"#utility.yul\":9048:9049   */\n      dup2\n        /* \"#utility.yul\":9044:9053   */\n      add\n        /* \"#utility.yul\":9039:9053   */\n      swap1\n      pop\n        /* \"#utility.yul\":9004:9369   */\n      jump(tag_397)\n    tag_399:\n        /* \"#utility.yul\":9008:9022   */\n      pop\n        /* \"#utility.yul\":9385:9388   */\n      dup6\n        /* \"#utility.yul\":9378:9388   */\n      swap4\n      pop\n        /* \"#utility.yul\":8624:9394   */\n      pop\n      pop\n      pop\n        /* \"#utility.yul\":8446:9394   */\n      swap3\n      swap2\n      pop\n      pop\n      jump\t// out\n        /* \"#utility.yul\":9400:9881   */\n    tag_107:\n        /* \"#utility.yul\":9597:9601   */\n      0x00\n        /* \"#utility.yul\":9635:9637   */\n      0x20\n        /* \"#utility.yul\":9624:9633   */\n      dup3\n        /* \"#utility.yul\":9620:9638   */\n      add\n        /* \"#utility.yul\":9612:9638   */\n      swap1\n      pop\n        /* \"#utility.yul\":9684:9693   */\n      dup2\n        /* \"#utility.yul\":9678:9682   */\n      dup2\n        /* \"#utility.yul\":9674:9694   */\n      sub\n        /* \"#utility.yul\":9670:9671   */\n      0x00\n        /* \"#utility.yul\":9659:9668   */\n      dup4\n        /* \"#utility.yul\":9655:9672   */\n      add\n        /* \"#utility.yul\":9648:9695   */\n      mstore\n        /* \"#utility.yul\":9712:9874   */\n      tag_403\n        /* \"#utility.yul\":9869:9873   */\n      dup2\n        /* \"#utility.yul\":9860:9866   */\n      dup5\n        /* \"#utility.yul\":9712:9874   */\n      tag_282\n      jump\t// in\n    tag_403:\n        /* \"#utility.yul\":9704:9874   */\n      swap1\n      pop\n        /* \"#utility.yul\":9400:9881   */\n      swap3\n      swap2\n      pop\n      pop\n      jump\t// out\n        /* \"#utility.yul\":9887:10060   */\n    tag_283:\n        /* \"#utility.yul\":10027:10052   */\n      0x4465706c6f796d656e742074696d65206e6f7420736574000000000000000000\n        /* \"#utility.yul\":10023:10024   */\n      0x00\n        /* \"#utility.yul\":10015:10021   */\n      dup3\n        /* \"#utility.yul\":10011:10025   */\n      add\n        /* \"#utility.yul\":10004:10053   */\n      mstore\n        /* \"#utility.yul\":9887:10060   */\n      pop\n      jump\t// out\n        /* \"#utility.yul\":10066:10432   */\n    tag_284:\n        /* \"#utility.yul\":10208:10211   */\n      0x00\n        /* \"#utility.yul\":10229:10296   */\n      tag_406\n        /* \"#utility.yul\":10293:10295   */\n      0x17\n        /* \"#utility.yul\":10288:10291   */\n      dup4\n        /* \"#utility.yul\":10229:10296   */\n      tag_260\n      jump\t// in\n    tag_406:\n        /* \"#utility.yul\":10222:10296   */\n      swap2\n      pop\n        /* \"#utility.yul\":10305:10398   */\n      tag_407\n        /* \"#utility.yul\":10394:10397   */\n      dup3\n        /* \"#utility.yul\":10305:10398   */\n      tag_283\n      jump\t// in\n    tag_407:\n        /* \"#utility.yul\":10423:10425   */\n      0x20\n        /* \"#utility.yul\":10418:10421   */\n      dup3\n        /* \"#utility.yul\":10414:10426   */\n      add\n        /* \"#utility.yul\":10407:10426   */\n      swap1\n      pop\n        /* \"#utility.yul\":10066:10432   */\n      swap2\n      swap1\n      pop\n      jump\t// out\n        /* \"#utility.yul\":10438:10857   */\n    tag_117:\n        /* \"#utility.yul\":10604:10608   */\n      0x00\n        /* \"#utility.yul\":10642:10644   */\n      0x20\n        /* \"#utility.yul\":10631:10640   */\n      dup3\n        /* \"#utility.yul\":10627:10645   */\n      add\n        /* \"#utility.yul\":10619:10645   */\n      swap1\n      pop\n        /* \"#utility.yul\":10691:10700   */\n      dup2\n        /* \"#utility.yul\":10685:10689   */\n      dup2\n        /* \"#utility.yul\":10681:10701   */\n      sub\n        /* \"#utility.yul\":10677:10678   */\n      0x00\n        /* \"#utility.yul\":10666:10675   */\n      dup4\n        /* \"#utility.yul\":10662:10679   */\n      add\n        /* \"#utility.yul\":10655:10702   */\n      mstore\n        /* \"#utility.yul\":10719:10850   */\n      tag_409\n        /* \"#utility.yul\":10845:10849   */\n      dup2\n        /* \"#utility.yul\":10719:10850   */\n      tag_284\n      jump\t// in\n    tag_409:\n        /* \"#utility.yul\":10711:10850   */\n      swap1\n      pop\n        /* \"#utility.yul\":10438:10857   */\n      swap2\n      swap1\n      pop\n      jump\t// out\n        /* \"#utility.yul\":10863:11043   */\n    tag_285:\n        /* \"#utility.yul\":10911:10988   */\n      0x4e487b7100000000000000000000000000000000000000000000000000000000\n        /* \"#utility.yul\":10908:10909   */\n      0x00\n        /* \"#utility.yul\":10901:10989   */\n      mstore\n        /* \"#utility.yul\":11008:11012   */\n      0x11\n        /* \"#utility.yul\":11005:11006   */\n      0x04\n        /* \"#utility.yul\":10998:11013   */\n      mstore\n        /* \"#utility.yul\":11032:11036   */\n      0x24\n        /* \"#utility.yul\":11029:11030   */\n      0x00\n        /* \"#utility.yul\":11022:11037   */\n      revert\n        /* \"#utility.yul\":11049:11243   */\n    tag_119:\n        /* \"#utility.yul\":11089:11093   */\n      0x00\n        /* \"#utility.yul\":11109:11129   */\n      tag_412\n        /* \"#utility.yul\":11127:11128   */\n      dup3\n        /* \"#utility.yul\":11109:11129   */\n      tag_256\n      jump\t// in\n    tag_412:\n        /* \"#utility.yul\":11104:11129   */\n      swap2\n      pop\n        /* \"#utility.yul\":11143:11163   */\n      tag_413\n        /* \"#utility.yul\":11161:11162   */\n      dup4\n        /* \"#utility.yul\":11143:11163   */\n      tag_256\n      jump\t// in\n    tag_413:\n        /* \"#utility.yul\":11138:11163   */\n      swap3\n      pop\n        /* \"#utility.yul\":11187:11188   */\n      dup3\n        /* \"#utility.yul\":11184:11185   */\n      dup3\n        /* \"#utility.yul\":11180:11189   */\n      sub\n        /* \"#utility.yul\":11172:11189   */\n      swap1\n      pop\n        /* \"#utility.yul\":11211:11212   */\n      dup2\n        /* \"#utility.yul\":11205:11209   */\n      dup2\n        /* \"#utility.yul\":11202:11213   */\n      gt\n        /* \"#utility.yul\":11199:11236   */\n      iszero\n      tag_414\n      jumpi\n        /* \"#utility.yul\":11216:11234   */\n      tag_415\n      tag_285\n      jump\t// in\n    tag_415:\n        /* \"#utility.yul\":11199:11236   */\n    tag_414:\n        /* \"#utility.yul\":11049:11243   */\n      swap3\n      swap2\n      pop\n      pop\n      jump\t// out\n        /* \"#utility.yul\":11249:11429   */\n    tag_286:\n        /* \"#utility.yul\":11297:11374   */\n      0x4e487b7100000000000000000000000000000000000000000000000000000000\n        /* \"#utility.yul\":11294:11295   */\n      0x00\n        /* \"#utility.yul\":11287:11375   */\n      mstore\n        /* \"#utility.yul\":11394:11398   */\n      0x12\n        /* \"#utility.yul\":11391:11392   */\n      0x04\n        /* \"#utility.yul\":11384:11399   */\n      mstore\n        /* \"#utility.yul\":11418:11422   */\n      0x24\n        /* \"#utility.yul\":11415:11416   */\n      0x00\n        /* \"#utility.yul\":11408:11423   */\n      revert\n        /* \"#utility.yul\":11435:11620   */\n    tag_121:\n        /* \"#utility.yul\":11475:11476   */\n      0x00\n        /* \"#utility.yul\":11492:11512   */\n      tag_418\n        /* \"#utility.yul\":11510:11511   */\n      dup3\n        /* \"#utility.yul\":11492:11512   */\n      tag_256\n      jump\t// in\n    tag_418:\n        /* \"#utility.yul\":11487:11512   */\n      swap2\n      pop\n        /* \"#utility.yul\":11526:11546   */\n      tag_419\n        /* \"#utility.yul\":11544:11545   */\n      dup4\n        /* \"#utility.yul\":11526:11546   */\n      tag_256\n      jump\t// in\n    tag_419:\n        /* \"#utility.yul\":11521:11546   */\n      swap3\n      pop\n        /* \"#utility.yul\":11565:11566   */\n      dup3\n        /* \"#utility.yul\":11555:11590   */\n      tag_420\n      jumpi\n        /* \"#utility.yul\":11570:11588   */\n      tag_421\n      tag_286\n      jump\t// in\n    tag_421:\n        /* \"#utility.yul\":11555:11590   */\n    tag_420:\n        /* \"#utility.yul\":11612:11613   */\n      dup3\n        /* \"#utility.yul\":11609:11610   */\n      dup3\n        /* \"#utility.yul\":11605:11614   */\n      div\n        /* \"#utility.yul\":11600:11614   */\n      swap1\n      pop\n        /* \"#utility.yul\":11435:11620   */\n      swap3\n      swap2\n      pop\n      pop\n      jump\t// out\n        /* \"#utility.yul\":11626:11806   */\n    tag_287:\n        /* \"#utility.yul\":11766:11798   */\n      0x466976652079656172732068617665206e6f7420706173736564207965740000\n        /* \"#utility.yul\":11762:11763   */\n      0x00\n        /* \"#utility.yul\":11754:11760   */\n      dup3\n        /* \"#utility.yul\":11750:11764   */\n      add\n        /* \"#utility.yul\":11743:11799   */\n      mstore\n        /* \"#utility.yul\":11626:11806   */\n      pop\n      jump\t// out\n        /* \"#utility.yul\":11812:12178   */\n    tag_288:\n        /* \"#utility.yul\":11954:11957   */\n      0x00\n        /* \"#utility.yul\":11975:12042   */\n      tag_424\n        /* \"#utility.yul\":12039:12041   */\n      0x1e\n        /* \"#utility.yul\":12034:12037   */\n      dup4\n        /* \"#utility.yul\":11975:12042   */\n      tag_260\n      jump\t// in\n    tag_424:\n        /* \"#utility.yul\":11968:12042   */\n      swap2\n      pop\n        /* \"#utility.yul\":12051:12144   */\n      tag_425\n        /* \"#utility.yul\":12140:12143   */\n      dup3\n        /* \"#utility.yul\":12051:12144   */\n      tag_287\n      jump\t// in\n    tag_425:\n        /* \"#utility.yul\":12169:12171   */\n      0x20\n        /* \"#utility.yul\":12164:12167   */\n      dup3\n        /* \"#utility.yul\":12160:12172   */\n      add\n        /* \"#utility.yul\":12153:12172   */\n      swap1\n      pop\n        /* \"#utility.yul\":11812:12178   */\n      swap2\n      swap1\n      pop\n      jump\t// out\n        /* \"#utility.yul\":12184:12603   */\n    tag_124:\n        /* \"#utility.yul\":12350:12354   */\n      0x00\n        /* \"#utility.yul\":12388:12390   */\n      0x20\n        /* \"#utility.yul\":12377:12386   */\n      dup3\n        /* \"#utility.yul\":12373:12391   */\n      add\n        /* \"#utility.yul\":12365:12391   */\n      swap1\n      pop\n        /* \"#utility.yul\":12437:12446   */\n      dup2\n        /* \"#utility.yul\":12431:12435   */\n      dup2\n        /* \"#utility.yul\":12427:12447   */\n      sub\n        /* \"#utility.yul\":12423:12424   */\n      0x00\n        /* \"#utility.yul\":12412:12421   */\n      dup4\n        /* \"#utility.yul\":12408:12425   */\n      add\n        /* \"#utility.yul\":12401:12448   */\n      mstore\n        /* \"#utility.yul\":12465:12596   */\n      tag_427\n        /* \"#utility.yul\":12591:12595   */\n      dup2\n        /* \"#utility.yul\":12465:12596   */\n      tag_288\n      jump\t// in\n    tag_427:\n        /* \"#utility.yul\":12457:12596   */\n      swap1\n      pop\n        /* \"#utility.yul\":12184:12603   */\n      swap2\n      swap1\n      pop\n      jump\t// out\n        /* \"#utility.yul\":12609:12800   */\n    tag_127:\n        /* \"#utility.yul\":12649:12652   */\n      0x00\n        /* \"#utility.yul\":12668:12688   */\n      tag_429\n        /* \"#utility.yul\":12686:12687   */\n      dup3\n        /* \"#utility.yul\":12668:12688   */\n      tag_256\n      jump\t// in\n    tag_429:\n        /* \"#utility.yul\":12663:12688   */\n      swap2\n      pop\n        /* \"#utility.yul\":12702:12722   */\n      tag_430\n        /* \"#utility.yul\":12720:12721   */\n      dup4\n        /* \"#utility.yul\":12702:12722   */\n      tag_256\n      jump\t// in\n    tag_430:\n        /* \"#utility.yul\":12697:12722   */\n      swap3\n      pop\n        /* \"#utility.yul\":12745:12746   */\n      dup3\n        /* \"#utility.yul\":12742:12743   */\n      dup3\n        /* \"#utility.yul\":12738:12747   */\n      add\n        /* \"#utility.yul\":12731:12747   */\n      swap1\n      pop\n        /* \"#utility.yul\":12766:12769   */\n      dup1\n        /* \"#utility.yul\":12763:12764   */\n      dup3\n        /* \"#utility.yul\":12760:12770   */\n      gt\n        /* \"#utility.yul\":12757:12793   */\n      iszero\n      tag_431\n      jumpi\n        /* \"#utility.yul\":12773:12791   */\n      tag_432\n      tag_285\n      jump\t// in\n    tag_432:\n        /* \"#utility.yul\":12757:12793   */\n    tag_431:\n        /* \"#utility.yul\":12609:12800   */\n      swap3\n      swap2\n      pop\n      pop\n      jump\t// out\n        /* \"#utility.yul\":12806:13216   */\n    tag_129:\n        /* \"#utility.yul\":12846:12853   */\n      0x00\n        /* \"#utility.yul\":12869:12889   */\n      tag_434\n        /* \"#utility.yul\":12887:12888   */\n      dup3\n        /* \"#utility.yul\":12869:12889   */\n      tag_256\n      jump\t// in\n    tag_434:\n        /* \"#utility.yul\":12864:12889   */\n      swap2\n      pop\n        /* \"#utility.yul\":12903:12923   */\n      tag_435\n        /* \"#utility.yul\":12921:12922   */\n      dup4\n        /* \"#utility.yul\":12903:12923   */\n      tag_256\n      jump\t// in\n    tag_435:\n        /* \"#utility.yul\":12898:12923   */\n      swap3\n      pop\n        /* \"#utility.yul\":12958:12959   */\n      dup3\n        /* \"#utility.yul\":12955:12956   */\n      dup3\n        /* \"#utility.yul\":12951:12960   */\n      mul\n        /* \"#utility.yul\":12980:13010   */\n      tag_436\n        /* \"#utility.yul\":12998:13009   */\n      dup2\n        /* \"#utility.yul\":12980:13010   */\n      tag_256\n      jump\t// in\n    tag_436:\n        /* \"#utility.yul\":12969:13010   */\n      swap2\n      pop\n        /* \"#utility.yul\":13159:13160   */\n      dup3\n        /* \"#utility.yul\":13150:13157   */\n      dup3\n        /* \"#utility.yul\":13146:13161   */\n      div\n        /* \"#utility.yul\":13143:13144   */\n      dup5\n        /* \"#utility.yul\":13140:13162   */\n      eq\n        /* \"#utility.yul\":13120:13121   */\n      dup4\n        /* \"#utility.yul\":13113:13122   */\n      iszero\n        /* \"#utility.yul\":13093:13176   */\n      or\n        /* \"#utility.yul\":13070:13209   */\n      tag_437\n      jumpi\n        /* \"#utility.yul\":13189:13207   */\n      tag_438\n      tag_285\n      jump\t// in\n    tag_438:\n        /* \"#utility.yul\":13070:13209   */\n    tag_437:\n        /* \"#utility.yul\":12854:13216   */\n      pop\n        /* \"#utility.yul\":12806:13216   */\n      swap3\n      swap2\n      pop\n      pop\n      jump\t// out\n        /* \"#utility.yul\":13222:13402   */\n    tag_289:\n        /* \"#utility.yul\":13270:13347   */\n      0x4e487b7100000000000000000000000000000000000000000000000000000000\n        /* \"#utility.yul\":13267:13268   */\n      0x00\n        /* \"#utility.yul\":13260:13348   */\n      mstore\n        /* \"#utility.yul\":13367:13371   */\n      0x22\n        /* \"#utility.yul\":13364:13365   */\n      0x04\n        /* \"#utility.yul\":13357:13372   */\n      mstore\n        /* \"#utility.yul\":13391:13395   */\n      0x24\n        /* \"#utility.yul\":13388:13389   */\n      0x00\n        /* \"#utility.yul\":13381:13396   */\n      revert\n        /* \"#utility.yul\":13408:13728   */\n    tag_135:\n        /* \"#utility.yul\":13452:13458   */\n      0x00\n        /* \"#utility.yul\":13489:13490   */\n      0x02\n        /* \"#utility.yul\":13483:13487   */\n      dup3\n        /* \"#utility.yul\":13479:13491   */\n      div\n        /* \"#utility.yul\":13469:13491   */\n      swap1\n      pop\n        /* \"#utility.yul\":13536:13537   */\n      0x01\n        /* \"#utility.yul\":13530:13534   */\n      dup3\n        /* \"#utility.yul\":13526:13538   */\n      and\n        /* \"#utility.yul\":13557:13575   */\n      dup1\n        /* \"#utility.yul\":13547:13628   */\n      tag_441\n      jumpi\n        /* \"#utility.yul\":13613:13617   */\n      0x7f\n        /* \"#utility.yul\":13605:13611   */\n      dup3\n        /* \"#utility.yul\":13601:13618   */\n      and\n        /* \"#utility.yul\":13591:13618   */\n      swap2\n      pop\n        /* \"#utility.yul\":13547:13628   */\n    tag_441:\n        /* \"#utility.yul\":13675:13677   */\n      0x20\n        /* \"#utility.yul\":13667:13673   */\n      dup3\n        /* \"#utility.yul\":13664:13678   */\n      lt\n        /* \"#utility.yul\":13644:13662   */\n      dup2\n        /* \"#utility.yul\":13641:13679   */\n      sub\n        /* \"#utility.yul\":13638:13722   */\n      tag_442\n      jumpi\n        /* \"#utility.yul\":13694:13712   */\n      tag_443\n      tag_289\n      jump\t// in\n    tag_443:\n        /* \"#utility.yul\":13638:13722   */\n    tag_442:\n        /* \"#utility.yul\":13459:13728   */\n      pop\n        /* \"#utility.yul\":13408:13728   */\n      swap2\n      swap1\n      pop\n      jump\t// out\n        /* \"#utility.yul\":13734:13906   */\n    tag_290:\n        /* \"#utility.yul\":13874:13898   */\n      0x5465616d20746f6b656e7320617265206c6f636b656400000000000000000000\n        /* \"#utility.yul\":13870:13871   */\n      0x00\n        /* \"#utility.yul\":13862:13868   */\n      dup3\n        /* \"#utility.yul\":13858:13872   */\n      add\n        /* \"#utility.yul\":13851:13899   */\n      mstore\n        /* \"#utility.yul\":13734:13906   */\n      pop\n      jump\t// out\n        /* \"#utility.yul\":13912:14278   */\n    tag_291:\n        /* \"#utility.yul\":14054:14057   */\n      0x00\n        /* \"#utility.yul\":14075:14142   */\n      tag_446\n        /* \"#utility.yul\":14139:14141   */\n      0x16\n        /* \"#utility.yul\":14134:14137   */\n      dup4\n        /* \"#utility.yul\":14075:14142   */\n      tag_260\n      jump\t// in\n    tag_446:\n        /* \"#utility.yul\":14068:14142   */\n      swap2\n      pop\n        /* \"#utility.yul\":14151:14244   */\n      tag_447\n        /* \"#utility.yul\":14240:14243   */\n      dup3\n        /* \"#utility.yul\":14151:14244   */\n      tag_290\n      jump\t// in\n    tag_447:\n        /* \"#utility.yul\":14269:14271   */\n      0x20\n        /* \"#utility.yul\":14264:14267   */\n      dup3\n        /* \"#utility.yul\":14260:14272   */\n      add\n        /* \"#utility.yul\":14253:14272   */\n      swap1\n      pop\n        /* \"#utility.yul\":13912:14278   */\n      swap2\n      swap1\n      pop\n      jump\t// out\n        /* \"#utility.yul\":14284:14703   */\n    tag_152:\n        /* \"#utility.yul\":14450:14454   */\n      0x00\n        /* \"#utility.yul\":14488:14490   */\n      0x20\n        /* \"#utility.yul\":14477:14486   */\n      dup3\n        /* \"#utility.yul\":14473:14491   */\n      add\n        /* \"#utility.yul\":14465:14491   */\n      swap1\n      pop\n        /* \"#utility.yul\":14537:14546   */\n      dup2\n        /* \"#utility.yul\":14531:14535   */\n      dup2\n        /* \"#utility.yul\":14527:14547   */\n      sub\n        /* \"#utility.yul\":14523:14524   */\n      0x00\n        /* \"#utility.yul\":14512:14521   */\n      dup4\n        /* \"#utility.yul\":14508:14525   */\n      add\n        /* \"#utility.yul\":14501:14548   */\n      mstore\n        /* \"#utility.yul\":14565:14696   */\n      tag_449\n        /* \"#utility.yul\":14691:14695   */\n      dup2\n        /* \"#utility.yul\":14565:14696   */\n      tag_291\n      jump\t// in\n    tag_449:\n        /* \"#utility.yul\":14557:14696   */\n      swap1\n      pop\n        /* \"#utility.yul\":14284:14703   */\n      swap2\n      swap1\n      pop\n      jump\t// out\n        /* \"#utility.yul\":14709:14878   */\n    tag_292:\n        /* \"#utility.yul\":14849:14870   */\n      0x496e646578206f7574206f6620626f756e647300000000000000000000000000\n        /* \"#utility.yul\":14845:14846   */\n      0x00\n        /* \"#utility.yul\":14837:14843   */\n      dup3\n        /* \"#utility.yul\":14833:14847   */\n      add\n        /* \"#utility.yul\":14826:14871   */\n      mstore\n        /* \"#utility.yul\":14709:14878   */\n      pop\n      jump\t// out\n        /* \"#utility.yul\":14884:15250   */\n    tag_293:\n        /* \"#utility.yul\":15026:15029   */\n      0x00\n        /* \"#utility.yul\":15047:15114   */\n      tag_452\n        /* \"#utility.yul\":15111:15113   */\n      0x13\n        /* \"#utility.yul\":15106:15109   */\n      dup4\n        /* \"#utility.yul\":15047:15114   */\n      tag_260\n      jump\t// in\n    tag_452:\n        /* \"#utility.yul\":15040:15114   */\n      swap2\n      pop\n        /* \"#utility.yul\":15123:15216   */\n      tag_453\n        /* \"#utility.yul\":15212:15215   */\n      dup3\n        /* \"#utility.yul\":15123:15216   */\n      tag_292\n      jump\t// in\n    tag_453:\n        /* \"#utility.yul\":15241:15243   */\n      0x20\n        /* \"#utility.yul\":15236:15239   */\n      dup3\n        /* \"#utility.yul\":15232:15244   */\n      add\n        /* \"#utility.yul\":15225:15244   */\n      swap1\n      pop\n        /* \"#utility.yul\":14884:15250   */\n      swap2\n      swap1\n      pop\n      jump\t// out\n        /* \"#utility.yul\":15256:15675   */\n    tag_166:\n        /* \"#utility.yul\":15422:15426   */\n      0x00\n        /* \"#utility.yul\":15460:15462   */\n      0x20\n        /* \"#utility.yul\":15449:15458   */\n      dup3\n        /* \"#utility.yul\":15445:15463   */\n      add\n        /* \"#utility.yul\":15437:15463   */\n      swap1\n      pop\n        /* \"#utility.yul\":15509:15518   */\n      dup2\n        /* \"#utility.yul\":15503:15507   */\n      dup2\n        /* \"#utility.yul\":15499:15519   */\n      sub\n        /* \"#utility.yul\":15495:15496   */\n      0x00\n        /* \"#utility.yul\":15484:15493   */\n      dup4\n        /* \"#utility.yul\":15480:15497   */\n      add\n        /* \"#utility.yul\":15473:15520   */\n      mstore\n        /* \"#utility.yul\":15537:15668   */\n      tag_455\n        /* \"#utility.yul\":15663:15667   */\n      dup2\n        /* \"#utility.yul\":15537:15668   */\n      tag_293\n      jump\t// in\n    tag_455:\n        /* \"#utility.yul\":15529:15668   */\n      swap1\n      pop\n        /* \"#utility.yul\":15256:15675   */\n      swap2\n      swap1\n      pop\n      jump\t// out\n        /* \"#utility.yul\":15681:15861   */\n    tag_169:\n        /* \"#utility.yul\":15729:15806   */\n      0x4e487b7100000000000000000000000000000000000000000000000000000000\n        /* \"#utility.yul\":15726:15727   */\n      0x00\n        /* \"#utility.yul\":15719:15807   */\n      mstore\n        /* \"#utility.yul\":15826:15830   */\n      0x32\n        /* \"#utility.yul\":15823:15824   */\n      0x04\n        /* \"#utility.yul\":15816:15831   */\n      mstore\n        /* \"#utility.yul\":15850:15854   */\n      0x24\n        /* \"#utility.yul\":15847:15848   */\n      0x00\n        /* \"#utility.yul\":15840:15855   */\n      revert\n        /* \"#utility.yul\":15867:15989   */\n    tag_294:\n        /* \"#utility.yul\":15940:15964   */\n      tag_458\n        /* \"#utility.yul\":15958:15963   */\n      dup2\n        /* \"#utility.yul\":15940:15964   */\n      tag_264\n      jump\t// in\n    tag_458:\n        /* \"#utility.yul\":15933:15938   */\n      dup2\n        /* \"#utility.yul\":15930:15965   */\n      eq\n        /* \"#utility.yul\":15920:15983   */\n      tag_459\n      jumpi\n        /* \"#utility.yul\":15979:15980   */\n      0x00\n        /* \"#utility.yul\":15976:15977   */\n      0x00\n        /* \"#utility.yul\":15969:15981   */\n      revert\n        /* \"#utility.yul\":15920:15983   */\n    tag_459:\n        /* \"#utility.yul\":15867:15989   */\n      pop\n      jump\t// out\n        /* \"#utility.yul\":15995:16138   */\n    tag_295:\n        /* \"#utility.yul\":16052:16057   */\n      0x00\n        /* \"#utility.yul\":16083:16089   */\n      dup2\n        /* \"#utility.yul\":16077:16090   */\n      mload\n        /* \"#utility.yul\":16068:16090   */\n      swap1\n      pop\n        /* \"#utility.yul\":16099:16132   */\n      tag_461\n        /* \"#utility.yul\":16126:16131   */\n      dup2\n        /* \"#utility.yul\":16099:16132   */\n      tag_294\n      jump\t// in\n    tag_461:\n        /* \"#utility.yul\":15995:16138   */\n      swap3\n      swap2\n      pop\n      pop\n      jump\t// out\n        /* \"#utility.yul\":16144:16234   */\n    tag_296:\n        /* \"#utility.yul\":16179:16186   */\n      0x00\n        /* \"#utility.yul\":16222:16227   */\n      dup2\n        /* \"#utility.yul\":16219:16220   */\n      0x02\n        /* \"#utility.yul\":16208:16228   */\n      signextend\n        /* \"#utility.yul\":16197:16228   */\n      swap1\n      pop\n        /* \"#utility.yul\":16144:16234   */\n      swap2\n      swap1\n      pop\n      jump\t// out\n        /* \"#utility.yul\":16240:16358   */\n    tag_297:\n        /* \"#utility.yul\":16311:16333   */\n      tag_464\n        /* \"#utility.yul\":16327:16332   */\n      dup2\n        /* \"#utility.yul\":16311:16333   */\n      tag_296\n      jump\t// in\n    tag_464:\n        /* \"#utility.yul\":16304:16309   */\n      dup2\n        /* \"#utility.yul\":16301:16334   */\n      eq\n        /* \"#utility.yul\":16291:16352   */\n      tag_465\n      jumpi\n        /* \"#utility.yul\":16348:16349   */\n      0x00\n        /* \"#utility.yul\":16345:16346   */\n      0x00\n        /* \"#utility.yul\":16338:16350   */\n      revert\n        /* \"#utility.yul\":16291:16352   */\n    tag_465:\n        /* \"#utility.yul\":16240:16358   */\n      pop\n      jump\t// out\n        /* \"#utility.yul\":16364:16503   */\n    tag_298:\n        /* \"#utility.yul\":16419:16424   */\n      0x00\n        /* \"#utility.yul\":16450:16456   */\n      dup2\n        /* \"#utility.yul\":16444:16457   */\n      mload\n        /* \"#utility.yul\":16435:16457   */\n      swap1\n      pop\n        /* \"#utility.yul\":16466:16497   */\n      tag_467\n        /* \"#utility.yul\":16491:16496   */\n      dup2\n        /* \"#utility.yul\":16466:16497   */\n      tag_297\n      jump\t// in\n    tag_467:\n        /* \"#utility.yul\":16364:16503   */\n      swap3\n      swap2\n      pop\n      pop\n      jump\t// out\n        /* \"#utility.yul\":16509:16598   */\n    tag_299:\n        /* \"#utility.yul\":16545:16552   */\n      0x00\n        /* \"#utility.yul\":16585:16591   */\n      0xffff\n        /* \"#utility.yul\":16578:16583   */\n      dup3\n        /* \"#utility.yul\":16574:16592   */\n      and\n        /* \"#utility.yul\":16563:16592   */\n      swap1\n      pop\n        /* \"#utility.yul\":16509:16598   */\n      swap2\n      swap1\n      pop\n      jump\t// out\n        /* \"#utility.yul\":16604:16724   */\n    tag_300:\n        /* \"#utility.yul\":16676:16699   */\n      tag_470\n        /* \"#utility.yul\":16693:16698   */\n      dup2\n        /* \"#utility.yul\":16676:16699   */\n      tag_299\n      jump\t// in\n    tag_470:\n        /* \"#utility.yul\":16669:16674   */\n      dup2\n        /* \"#utility.yul\":16666:16700   */\n      eq\n        /* \"#utility.yul\":16656:16718   */\n      tag_471\n      jumpi\n        /* \"#utility.yul\":16714:16715   */\n      0x00\n        /* \"#utility.yul\":16711:16712   */\n      0x00\n        /* \"#utility.yul\":16704:16716   */\n      revert\n        /* \"#utility.yul\":16656:16718   */\n    tag_471:\n        /* \"#utility.yul\":16604:16724   */\n      pop\n      jump\t// out\n        /* \"#utility.yul\":16730:16871   */\n    tag_301:\n        /* \"#utility.yul\":16786:16791   */\n      0x00\n        /* \"#utility.yul\":16817:16823   */\n      dup2\n        /* \"#utility.yul\":16811:16824   */\n      mload\n        /* \"#utility.yul\":16802:16824   */\n      swap1\n      pop\n        /* \"#utility.yul\":16833:16865   */\n      tag_473\n        /* \"#utility.yul\":16859:16864   */\n      dup2\n        /* \"#utility.yul\":16833:16865   */\n      tag_300\n      jump\t// in\n    tag_473:\n        /* \"#utility.yul\":16730:16871   */\n      swap3\n      swap2\n      pop\n      pop\n      jump\t// out\n        /* \"#utility.yul\":16877:16995   */\n    tag_302:\n        /* \"#utility.yul\":16948:16970   */\n      tag_475\n        /* \"#utility.yul\":16964:16969   */\n      dup2\n        /* \"#utility.yul\":16948:16970   */\n      tag_271\n      jump\t// in\n    tag_475:\n        /* \"#utility.yul\":16941:16946   */\n      dup2\n        /* \"#utility.yul\":16938:16971   */\n      eq\n        /* \"#utility.yul\":16928:16989   */\n      tag_476\n      jumpi\n        /* \"#utility.yul\":16985:16986   */\n      0x00\n        /* \"#utility.yul\":16982:16983   */\n      0x00\n        /* \"#utility.yul\":16975:16987   */\n      revert\n        /* \"#utility.yul\":16928:16989   */\n    tag_476:\n        /* \"#utility.yul\":16877:16995   */\n      pop\n      jump\t// out\n        /* \"#utility.yul\":17001:17140   */\n    tag_303:\n        /* \"#utility.yul\":17056:17061   */\n      0x00\n        /* \"#utility.yul\":17087:17093   */\n      dup2\n        /* \"#utility.yul\":17081:17094   */\n      mload\n        /* \"#utility.yul\":17072:17094   */\n      swap1\n      pop\n        /* \"#utility.yul\":17103:17134   */\n      tag_478\n        /* \"#utility.yul\":17128:17133   */\n      dup2\n        /* \"#utility.yul\":17103:17134   */\n      tag_302\n      jump\t// in\n    tag_478:\n        /* \"#utility.yul\":17001:17140   */\n      swap3\n      swap2\n      pop\n      pop\n      jump\t// out\n        /* \"#utility.yul\":17146:17262   */\n    tag_304:\n        /* \"#utility.yul\":17216:17237   */\n      tag_480\n        /* \"#utility.yul\":17231:17236   */\n      dup2\n        /* \"#utility.yul\":17216:17237   */\n      tag_268\n      jump\t// in\n    tag_480:\n        /* \"#utility.yul\":17209:17214   */\n      dup2\n        /* \"#utility.yul\":17206:17238   */\n      eq\n        /* \"#utility.yul\":17196:17256   */\n      tag_481\n      jumpi\n        /* \"#utility.yul\":17252:17253   */\n      0x00\n        /* \"#utility.yul\":17249:17250   */\n      0x00\n        /* \"#utility.yul\":17242:17254   */\n      revert\n        /* \"#utility.yul\":17196:17256   */\n    tag_481:\n        /* \"#utility.yul\":17146:17262   */\n      pop\n      jump\t// out\n        /* \"#utility.yul\":17268:17405   */\n    tag_305:\n        /* \"#utility.yul\":17322:17327   */\n      0x00\n        /* \"#utility.yul\":17353:17359   */\n      dup2\n        /* \"#utility.yul\":17347:17360   */\n      mload\n        /* \"#utility.yul\":17338:17360   */\n      swap1\n      pop\n        /* \"#utility.yul\":17369:17399   */\n      tag_483\n        /* \"#utility.yul\":17393:17398   */\n      dup2\n        /* \"#utility.yul\":17369:17399   */\n      tag_304\n      jump\t// in\n    tag_483:\n        /* \"#utility.yul\":17268:17405   */\n      swap3\n      swap2\n      pop\n      pop\n      jump\t// out\n        /* \"#utility.yul\":17411:18682   */\n    tag_191:\n        /* \"#utility.yul\":17525:17531   */\n      0x00\n        /* \"#utility.yul\":17533:17539   */\n      0x00\n        /* \"#utility.yul\":17541:17547   */\n      0x00\n        /* \"#utility.yul\":17549:17555   */\n      0x00\n        /* \"#utility.yul\":17557:17563   */\n      0x00\n        /* \"#utility.yul\":17565:17571   */\n      0x00\n        /* \"#utility.yul\":17573:17579   */\n      0x00\n        /* \"#utility.yul\":17622:17625   */\n      0xe0\n        /* \"#utility.yul\":17610:17619   */\n      dup9\n        /* \"#utility.yul\":17601:17608   */\n      dup11\n        /* \"#utility.yul\":17597:17620   */\n      sub\n        /* \"#utility.yul\":17593:17626   */\n      slt\n        /* \"#utility.yul\":17590:17710   */\n      iszero\n      tag_485\n      jumpi\n        /* \"#utility.yul\":17629:17708   */\n      tag_486\n      tag_254\n      jump\t// in\n    tag_486:\n        /* \"#utility.yul\":17590:17710   */\n    tag_485:\n        /* \"#utility.yul\":17749:17750   */\n      0x00\n        /* \"#utility.yul\":17774:17838   */\n      tag_487\n        /* \"#utility.yul\":17830:17837   */\n      dup11\n        /* \"#utility.yul\":17821:17827   */\n      dup3\n        /* \"#utility.yul\":17810:17819   */\n      dup12\n        /* \"#utility.yul\":17806:17828   */\n      add\n        /* \"#utility.yul\":17774:17838   */\n      tag_295\n      jump\t// in\n    tag_487:\n        /* \"#utility.yul\":17764:17838   */\n      swap8\n      pop\n        /* \"#utility.yul\":17720:17848   */\n      pop\n        /* \"#utility.yul\":17887:17889   */\n      0x20\n        /* \"#utility.yul\":17913:17975   */\n      tag_488\n        /* \"#utility.yul\":17967:17974   */\n      dup11\n        /* \"#utility.yul\":17958:17964   */\n      dup3\n        /* \"#utility.yul\":17947:17956   */\n      dup12\n        /* \"#utility.yul\":17943:17965   */\n      add\n        /* \"#utility.yul\":17913:17975   */\n      tag_298\n      jump\t// in\n    tag_488:\n        /* \"#utility.yul\":17903:17975   */\n      swap7\n      pop\n        /* \"#utility.yul\":17858:17985   */\n      pop\n        /* \"#utility.yul\":18024:18026   */\n      0x40\n        /* \"#utility.yul\":18050:18113   */\n      tag_489\n        /* \"#utility.yul\":18105:18112   */\n      dup11\n        /* \"#utility.yul\":18096:18102   */\n      dup3\n        /* \"#utility.yul\":18085:18094   */\n      dup12\n        /* \"#utility.yul\":18081:18103   */\n      add\n        /* \"#utility.yul\":18050:18113   */\n      tag_301\n      jump\t// in\n    tag_489:\n        /* \"#utility.yul\":18040:18113   */\n      swap6\n      pop\n        /* \"#utility.yul\":17995:18123   */\n      pop\n        /* \"#utility.yul\":18162:18164   */\n      0x60\n        /* \"#utility.yul\":18188:18251   */\n      tag_490\n        /* \"#utility.yul\":18243:18250   */\n      dup11\n        /* \"#utility.yul\":18234:18240   */\n      dup3\n        /* \"#utility.yul\":18223:18232   */\n      dup12\n        /* \"#utility.yul\":18219:18241   */\n      add\n        /* \"#utility.yul\":18188:18251   */\n      tag_301\n      jump\t// in\n    tag_490:\n        /* \"#utility.yul\":18178:18251   */\n      swap5\n      pop\n        /* \"#utility.yul\":18133:18261   */\n      pop\n        /* \"#utility.yul\":18300:18303   */\n      0x80\n        /* \"#utility.yul\":18327:18390   */\n      tag_491\n        /* \"#utility.yul\":18382:18389   */\n      dup11\n        /* \"#utility.yul\":18373:18379   */\n      dup3\n        /* \"#utility.yul\":18362:18371   */\n      dup12\n        /* \"#utility.yul\":18358:18380   */\n      add\n        /* \"#utility.yul\":18327:18390   */\n      tag_301\n      jump\t// in\n    tag_491:\n        /* \"#utility.yul\":18317:18390   */\n      swap4\n      pop\n        /* \"#utility.yul\":18271:18400   */\n      pop\n        /* \"#utility.yul\":18439:18442   */\n      0xa0\n        /* \"#utility.yul\":18466:18528   */\n      tag_492\n        /* \"#utility.yul\":18520:18527   */\n      dup11\n        /* \"#utility.yul\":18511:18517   */\n      dup3\n        /* \"#utility.yul\":18500:18509   */\n      dup12\n        /* \"#utility.yul\":18496:18518   */\n      add\n        /* \"#utility.yul\":18466:18528   */\n      tag_303\n      jump\t// in\n    tag_492:\n        /* \"#utility.yul\":18456:18528   */\n      swap3\n      pop\n        /* \"#utility.yul\":18410:18538   */\n      pop\n        /* \"#utility.yul\":18577:18580   */\n      0xc0\n        /* \"#utility.yul\":18604:18665   */\n      tag_493\n        /* \"#utility.yul\":18657:18664   */\n      dup11\n        /* \"#utility.yul\":18648:18654   */\n      dup3\n        /* \"#utility.yul\":18637:18646   */\n      dup12\n        /* \"#utility.yul\":18633:18655   */\n      add\n        /* \"#utility.yul\":18604:18665   */\n      tag_305\n      jump\t// in\n    tag_493:\n        /* \"#utility.yul\":18594:18665   */\n      swap2\n      pop\n        /* \"#utility.yul\":18548:18675   */\n      pop\n        /* \"#utility.yul\":17411:18682   */\n      swap3\n      swap6\n      swap9\n      swap2\n      swap5\n      swap8\n      pop\n      swap3\n      swap6\n      pop\n      jump\t// out\n        /* \"#utility.yul\":18688:19130   */\n    tag_236:\n        /* \"#utility.yul\":18837:18841   */\n      0x00\n        /* \"#utility.yul\":18875:18877   */\n      0x60\n        /* \"#utility.yul\":18864:18873   */\n      dup3\n        /* \"#utility.yul\":18860:18878   */\n      add\n        /* \"#utility.yul\":18852:18878   */\n      swap1\n      pop\n        /* \"#utility.yul\":18888:18959   */\n      tag_495\n        /* \"#utility.yul\":18956:18957   */\n      0x00\n        /* \"#utility.yul\":18945:18954   */\n      dup4\n        /* \"#utility.yul\":18941:18958   */\n      add\n        /* \"#utility.yul\":18932:18938   */\n      dup7\n        /* \"#utility.yul\":18888:18959   */\n      tag_273\n      jump\t// in\n    tag_495:\n        /* \"#utility.yul\":18969:19041   */\n      tag_496\n        /* \"#utility.yul\":19037:19039   */\n      0x20\n        /* \"#utility.yul\":19026:19035   */\n      dup4\n        /* \"#utility.yul\":19022:19040   */\n      add\n        /* \"#utility.yul\":19013:19019   */\n      dup6\n        /* \"#utility.yul\":18969:19041   */\n      tag_270\n      jump\t// in\n    tag_496:\n        /* \"#utility.yul\":19051:19123   */\n      tag_497\n        /* \"#utility.yul\":19119:19121   */\n      0x40\n        /* \"#utility.yul\":19108:19117   */\n      dup4\n        /* \"#utility.yul\":19104:19122   */\n      add\n        /* \"#utility.yul\":19095:19101   */\n      dup5\n        /* \"#utility.yul\":19051:19123   */\n      tag_270\n      jump\t// in\n    tag_497:\n        /* \"#utility.yul\":18688:19130   */\n      swap5\n      swap4\n      pop\n      pop\n      pop\n      pop\n      jump\t// out\n\n    auxdata: 0xa26469706673582212207a760eafbc58ac9b3880ed4c4591aea8276ae27f9839e5897dff855ffd424dba64736f6c634300081e0033\n}\n",
				"bytecode": {
					"linkReferences": {},
					"object": "608060405234801561000f575f5ffd5b50604051612c9d380380612c9d833981810160405281019061003191906109e2565b336040518060400160405280600481526020017f63737964000000000000000000000000000000000000000000000000000000008152506040518060400160405280600481526020017f435359440000000000000000000000000000000000000000000000000000000081525081600390816100ad9190610c43565b5080600490816100bd9190610c43565b5050505f73ffffffffffffffffffffffffffffffffffffffff168173ffffffffffffffffffffffffffffffffffffffff1603610130575f6040517f1e4fbdf70000000000000000000000000000000000000000000000000000000081526004016101279190610d21565b60405180910390fd5b61013f8161044260201b60201c565b505f825111610183576040517f08c379a000000000000000000000000000000000000000000000000000000000815260040161017a90610dba565b60405180910390fd5b8060095f6101000a81548173ffffffffffffffffffffffffffffffffffffffff021916908373ffffffffffffffffffffffffffffffffffffffff1602179055505f5f90505f5f90505b83518110156102a1578381815181106101e8576101e7610dd8565b5b602002602001015160200151826101ff9190610e32565b9150600684828151811061021657610215610dd8565b5b6020026020010151908060018154018082558091505060019003905f5260205f2090600202015f909190919091505f820151815f015f6101000a81548173ffffffffffffffffffffffffffffffffffffffff021916908373ffffffffffffffffffffffffffffffffffffffff16021790555060208201518160010155505080806001019150506101cc565b505f606460506a9b18ab5df7180b6b8000006102bd9190610e65565b6102c79190610ed3565b90505f5f90505f5f90505b600680549050811015610389575f8484600684815481106102f6576102f5610dd8565b5b905f5260205f209060020201600101546103109190610e65565b61031a9190610ed3565b905061036d6006838154811061033357610332610dd8565b5b905f5260205f2090600202015f015f9054906101000a900473ffffffffffffffffffffffffffffffffffffffff168261050560201b60201c565b80836103799190610e32565b92505080806001019150506102d2565b50818111156103cd576040517f08c379a00000000000000000000000000000000000000000000000000000000081526004016103c490610f73565b60405180910390fd5b6103e83382846103dd9190610f91565b61050560201b60201c565b61041b306064600a6a9b18ab5df7180b6b8000006104069190610e65565b6104109190610ed3565b61050560201b60201c565b6305a39a804261042b9190610e32565b600881905550426007819055505050505050611021565b5f60055f9054906101000a900473ffffffffffffffffffffffffffffffffffffffff1690508160055f6101000a81548173ffffffffffffffffffffffffffffffffffffffff021916908373ffffffffffffffffffffffffffffffffffffffff1602179055508173ffffffffffffffffffffffffffffffffffffffff168173ffffffffffffffffffffffffffffffffffffffff167f8be0079c531659141344cd1fd0a4f28419497f9722a3daafe3b4186f6b6457e060405160405180910390a35050565b5f73ffffffffffffffffffffffffffffffffffffffff168273ffffffffffffffffffffffffffffffffffffffff1603610575575f6040517fec442f0500000000000000000000000000000000000000000000000000000000815260040161056c9190610d21565b60405180910390fd5b6105865f838361058a60201b60201c565b5050565b5f73ffffffffffffffffffffffffffffffffffffffff168373ffffffffffffffffffffffffffffffffffffffff16036105da578060025f8282546105ce9190610e32565b925050819055506106a8565b5f5f5f8573ffffffffffffffffffffffffffffffffffffffff1673ffffffffffffffffffffffffffffffffffffffff1681526020019081526020015f2054905081811015610663578381836040517fe450d38c00000000000000000000000000000000000000000000000000000000815260040161065a93929190610fd3565b60405180910390fd5b8181035f5f8673ffffffffffffffffffffffffffffffffffffffff1673ffffffffffffffffffffffffffffffffffffffff1681526020019081526020015f2081905550505b5f73ffffffffffffffffffffffffffffffffffffffff168273ffffffffffffffffffffffffffffffffffffffff16036106ef578060025f8282540392505081905550610739565b805f5f8473ffffffffffffffffffffffffffffffffffffffff1673ffffffffffffffffffffffffffffffffffffffff1681526020019081526020015f205f82825401925050819055505b8173ffffffffffffffffffffffffffffffffffffffff168373ffffffffffffffffffffffffffffffffffffffff167fddf252ad1be2c89b69c2b068fc378daa952ba7f163c4a11628f55a4df523b3ef836040516107969190611008565b60405180910390a3505050565b5f604051905090565b5f5ffd5b5f5ffd5b5f5ffd5b5f601f19601f8301169050919050565b7f4e487b71000000000000000000000000000000000000000000000000000000005f52604160045260245ffd5b6107fe826107b8565b810181811067ffffffffffffffff8211171561081d5761081c6107c8565b5b80604052505050565b5f61082f6107a3565b905061083b82826107f5565b919050565b5f67ffffffffffffffff82111561085a576108596107c8565b5b602082029050602081019050919050565b5f5ffd5b5f5ffd5b5f73ffffffffffffffffffffffffffffffffffffffff82169050919050565b5f61089c82610873565b9050919050565b6108ac81610892565b81146108b6575f5ffd5b50565b5f815190506108c7816108a3565b92915050565b5f819050919050565b6108df816108cd565b81146108e9575f5ffd5b50565b5f815190506108fa816108d6565b92915050565b5f604082840312156109155761091461086f565b5b61091f6040610826565b90505f61092e848285016108b9565b5f830152506020610941848285016108ec565b60208301525092915050565b5f61095f61095a84610840565b610826565b905080838252602082019050604084028301858111156109825761098161086b565b5b835b818110156109ab57806109978882610900565b845260208401935050604081019050610984565b5050509392505050565b5f82601f8301126109c9576109c86107b4565b5b81516109d984826020860161094d565b91505092915050565b5f5f604083850312156109f8576109f76107ac565b5b5f83015167ffffffffffffffff811115610a1557610a146107b0565b5b610a21858286016109b5565b9250506020610a32858286016108b9565b9150509250929050565b5f81519050919050565b7f4e487b71000000000000000000000000000000000000000000000000000000005f52602260045260245ffd5b5f6002820490506001821680610a8a57607f821691505b602082108103610a9d57610a9c610a46565b5b50919050565b5f819050815f5260205f209050919050565b5f6020601f8301049050919050565b5f82821b905092915050565b5f60088302610aff7fffffffffffffffffffffffffffffffffffffffffffffffffffffffffffffffff82610ac4565b610b098683610ac4565b95508019841693508086168417925050509392505050565b5f819050919050565b5f610b44610b3f610b3a846108cd565b610b21565b6108cd565b9050919050565b5f819050919050565b610b5d83610b2a565b610b71610b6982610b4b565b848454610ad0565b825550505050565b5f5f905090565b610b88610b79565b610b93818484610b54565b505050565b5b81811015610bb657610bab5f82610b80565b600181019050610b99565b5050565b601f821115610bfb57610bcc81610aa3565b610bd584610ab5565b81016020851015610be4578190505b610bf8610bf085610ab5565b830182610b98565b50505b505050565b5f82821c905092915050565b5f610c1b5f1984600802610c00565b1980831691505092915050565b5f610c338383610c0c565b9150826002028217905092915050565b610c4c82610a3c565b67ffffffffffffffff811115610c6557610c646107c8565b5b610c6f8254610a73565b610c7a828285610bba565b5f60209050601f831160018114610cab575f8415610c99578287015190505b610ca38582610c28565b865550610d0a565b601f198416610cb986610aa3565b5f5b82811015610ce057848901518255600182019150602085019450602081019050610cbb565b86831015610cfd5784890151610cf9601f891682610c0c565b8355505b6001600288020188555050505b505050505050565b610d1b81610892565b82525050565b5f602082019050610d345f830184610d12565b92915050565b5f82825260208201905092915050565b7f4174206c65617374206f6e65207465616d206d656d62657220726571756972655f8201527f6400000000000000000000000000000000000000000000000000000000000000602082015250565b5f610da4602183610d3a565b9150610daf82610d4a565b604082019050919050565b5f6020820190508181035f830152610dd181610d98565b9050919050565b7f4e487b71000000000000000000000000000000000000000000000000000000005f52603260045260245ffd5b7f4e487b71000000000000000000000000000000000000000000000000000000005f52601160045260245ffd5b5f610e3c826108cd565b9150610e47836108cd565b9250828201905080821115610e5f57610e5e610e05565b5b92915050565b5f610e6f826108cd565b9150610e7a836108cd565b9250828202610e88816108cd565b91508282048414831517610e9f57610e9e610e05565b5b5092915050565b7f4e487b71000000000000000000000000000000000000000000000000000000005f52601260045260245ffd5b5f610edd826108cd565b9150610ee8836108cd565b925082610ef857610ef7610ea6565b5b828204905092915050565b7f546f74616c20646973747269627574696f6e2065786365656473206d61726b655f8201527f7400000000000000000000000000000000000000000000000000000000000000602082015250565b5f610f5d602183610d3a565b9150610f6882610f03565b604082019050919050565b5f6020820190508181035f830152610f8a81610f51565b9050919050565b5f610f9b826108cd565b9150610fa6836108cd565b9250828203905081811115610fbe57610fbd610e05565b5b92915050565b610fcd816108cd565b82525050565b5f606082019050610fe65f830186610d12565b610ff36020830185610fc4565b6110006040830184610fc4565b949350505050565b5f60208201905061101b5f830184610fc4565b92915050565b611c6f8061102e5f395ff3fe608060405234801561000f575f5ffd5b5060043610610140575f3560e01c806388e56ec6116100b6578063bdd3d8251161007a578063bdd3d82514610369578063dd62ed3e14610387578063eb91d37e146103b7578063ecda10f5146103d5578063efded147146103f3578063f2fde38b1461041157610140565b806388e56ec6146102ae5780638da5cb5b146102df578063902d55a5146102fd57806395d89b411461031b578063a9059cbb1461033957610140565b806323b872dd1161010857806323b872dd146101ea578063313ce5671461021a578063359289981461023857806370a0823114610256578063715018a61461028657806376ae9b2d1461029057610140565b8063053f90401461014457806306fdde0314610160578063095ea7b31461017e57806318160ddd146101ae57806319ca43ab146101cc575b5f5ffd5b61015e60048036038101906101599190611324565b61042d565b005b610168610525565b60405161017591906113bf565b60405180910390f35b61019860048036038101906101939190611439565b6105b5565b6040516101a59190611491565b60405180910390f35b6101b66105d7565b6040516101c391906114b9565b60405180910390f35b6101d46105e0565b6040516101e191906114b9565b60405180910390f35b61020460048036038101906101ff91906114d2565b6105ec565b6040516102119190611491565b60405180910390f35b61022261065b565b60405161022f919061153d565b60405180910390f35b610240610663565b60405161024d91906114b9565b60405180910390f35b610270600480360381019061026b9190611556565b61066b565b60405161027d91906114b9565b60405180910390f35b61028e6106b0565b005b6102986106c3565b6040516102a591906114b9565b60405180910390f35b6102c860048036038101906102c39190611324565b6106c9565b6040516102d6929190611590565b60405180910390f35b6102e76107b1565b6040516102f491906115b7565b60405180910390f35b6103056107d9565b60405161031291906114b9565b60405180910390f35b6103236107e8565b60405161033091906113bf565b60405180910390f35b610353600480360381019061034e9190611439565b610878565b6040516103609190611491565b60405180910390f35b6103716108e5565b60405161037e91906115b7565b60405180910390f35b6103a1600480360381019061039c91906115d0565b61090a565b6040516103ae91906114b9565b60405180910390f35b6103bf61098c565b6040516103cc91906114b9565b60405180910390f35b6103dd610a8b565b6040516103ea91906114b9565b60405180910390f35b6103fb610a91565b6040516104089190611701565b60405180910390f35b61042b60048036038101906104269190611556565b610b4b565b005b610435610bcf565b5f60075411610479576040517f08c379a00000000000000000000000000000000000000000000000000000000081526004016104709061176b565b60405180910390fd5b5f6301e133806007544261048d91906117b6565b6104979190611816565b905060058110156104dd576040517f08c379a00000000000000000000000000000000000000000000000000000000081526004016104d490611890565b60405180910390fd5b5f6005826104eb91906117b6565b60696104f791906118ae565b90505f6064828561050891906118e1565b6105129190611816565b905061051f303383610c56565b50505050565b6060600380546105349061194f565b80601f01602080910402602001604051908101604052809291908181526020018280546105609061194f565b80156105ab5780601f10610582576101008083540402835291602001916105ab565b820191905f5260205f20905b81548152906001019060200180831161058e57829003601f168201915b5050505050905090565b5f5f6105bf610d46565b90506105cc818585610d4d565b600191505092915050565b5f600254905090565b5f600680549050905090565b5f81600854421015806106075750806106043361066b565b10155b610646576040517f08c379a000000000000000000000000000000000000000000000000000000000815260040161063d906119c9565b60405180910390fd5b610651858585610d5f565b9150509392505050565b5f6012905090565b6305a39a8081565b5f5f5f8373ffffffffffffffffffffffffffffffffffffffff1673ffffffffffffffffffffffffffffffffffffffff1681526020019081526020015f20549050919050565b6106b8610bcf565b6106c15f610d8d565b565b60085481565b5f5f6006805490508310610712576040517f08c379a000000000000000000000000000000000000000000000000000000000815260040161070990611a31565b60405180910390fd5b5f6006848154811061072757610726611a4f565b5b905f5260205f2090600202016040518060400160405290815f82015f9054906101000a900473ffffffffffffffffffffffffffffffffffffffff1673ffffffffffffffffffffffffffffffffffffffff1673ffffffffffffffffffffffffffffffffffffffff1681526020016001820154815250509050805f015181602001519250925050915091565b5f60055f9054906101000a900473ffffffffffffffffffffffffffffffffffffffff16905090565b6a9b18ab5df7180b6b80000081565b6060600480546107f79061194f565b80601f01602080910402602001604051908101604052809291908181526020018280546108239061194f565b801561086e5780601f106108455761010080835404028352916020019161086e565b820191905f5260205f20905b81548152906001019060200180831161085157829003601f168201915b5050505050905090565b5f81600854421015806108935750806108903361066b565b10155b6108d2576040517f08c379a00000000000000000000000000000000000000000000000000000000081526004016108c9906119c9565b60405180910390fd5b6108dc8484610e50565b91505092915050565b60095f9054906101000a900473ffffffffffffffffffffffffffffffffffffffff1681565b5f60015f8473ffffffffffffffffffffffffffffffffffffffff1673ffffffffffffffffffffffffffffffffffffffff1681526020019081526020015f205f8373ffffffffffffffffffffffffffffffffffffffff1673ffffffffffffffffffffffffffffffffffffffff1681526020019081526020015f2054905092915050565b5f5f60095f9054906101000a900473ffffffffffffffffffffffffffffffffffffffff1690505f8173ffffffffffffffffffffffffffffffffffffffff16633850c7bd6040518163ffffffff1660e01b815260040160e060405180830381865afa1580156109fc573d5f5f3e3d5ffd5b505050506040513d601f19601f82011682018060405250810190610a209190611b67565b505050505050905078010000000000000000000000000000000000000000000000008173ffffffffffffffffffffffffffffffffffffffff168273ffffffffffffffffffffffffffffffffffffffff16610a7a91906118e1565b610a849190611816565b9250505090565b60075481565b60606006805480602002602001604051908101604052809291908181526020015f905b82821015610b42578382905f5260205f2090600202016040518060400160405290815f82015f9054906101000a900473ffffffffffffffffffffffffffffffffffffffff1673ffffffffffffffffffffffffffffffffffffffff1673ffffffffffffffffffffffffffffffffffffffff16815260200160018201548152505081526020019060010190610ab4565b50505050905090565b610b53610bcf565b5f73ffffffffffffffffffffffffffffffffffffffff168173ffffffffffffffffffffffffffffffffffffffff1603610bc3575f6040517f1e4fbdf7000000000000000000000000000000000000000000000000000000008152600401610bba91906115b7565b60405180910390fd5b610bcc81610d8d565b50565b610bd7610d46565b73ffffffffffffffffffffffffffffffffffffffff16610bf56107b1565b73ffffffffffffffffffffffffffffffffffffffff1614610c5457610c18610d46565b6040517f118cdaa7000000000000000000000000000000000000000000000000000000008152600401610c4b91906115b7565b60405180910390fd5b565b5f73ffffffffffffffffffffffffffffffffffffffff168373ffffffffffffffffffffffffffffffffffffffff1603610cc6575f6040517f96c6fd1e000000000000000000000000000000000000000000000000000000008152600401610cbd91906115b7565b60405180910390fd5b5f73ffffffffffffffffffffffffffffffffffffffff168273ffffffffffffffffffffffffffffffffffffffff1603610d36575f6040517fec442f05000000000000000000000000000000000000000000000000000000008152600401610d2d91906115b7565b60405180910390fd5b610d41838383610e72565b505050565b5f33905090565b610d5a838383600161108b565b505050565b5f5f610d69610d46565b9050610d7685828561125a565b610d81858585610c56565b60019150509392505050565b5f60055f9054906101000a900473ffffffffffffffffffffffffffffffffffffffff1690508160055f6101000a81548173ffffffffffffffffffffffffffffffffffffffff021916908373ffffffffffffffffffffffffffffffffffffffff1602179055508173ffffffffffffffffffffffffffffffffffffffff168173ffffffffffffffffffffffffffffffffffffffff167f8be0079c531659141344cd1fd0a4f28419497f9722a3daafe3b4186f6b6457e060405160405180910390a35050565b5f5f610e5a610d46565b9050610e67818585610c56565b600191505092915050565b5f73ffffffffffffffffffffffffffffffffffffffff168373ffffffffffffffffffffffffffffffffffffffff1603610ec2578060025f828254610eb691906118ae565b92505081905550610f90565b5f5f5f8573ffffffffffffffffffffffffffffffffffffffff1673ffffffffffffffffffffffffffffffffffffffff1681526020019081526020015f2054905081811015610f4b578381836040517fe450d38c000000000000000000000000000000000000000000000000000000008152600401610f4293929190611c04565b60405180910390fd5b8181035f5f8673ffffffffffffffffffffffffffffffffffffffff1673ffffffffffffffffffffffffffffffffffffffff1681526020019081526020015f2081905550505b5f73ffffffffffffffffffffffffffffffffffffffff168273ffffffffffffffffffffffffffffffffffffffff1603610fd7578060025f8282540392505081905550611021565b805f5f8473ffffffffffffffffffffffffffffffffffffffff1673ffffffffffffffffffffffffffffffffffffffff1681526020019081526020015f205f82825401925050819055505b8173ffffffffffffffffffffffffffffffffffffffff168373ffffffffffffffffffffffffffffffffffffffff167fddf252ad1be2c89b69c2b068fc378daa952ba7f163c4a11628f55a4df523b3ef8360405161107e91906114b9565b60405180910390a3505050565b5f73ffffffffffffffffffffffffffffffffffffffff168473ffffffffffffffffffffffffffffffffffffffff16036110fb575f6040517fe602df050000000000000000000000000000000000000000000000000000000081526004016110f291906115b7565b60405180910390fd5b5f73ffffffffffffffffffffffffffffffffffffffff168373ffffffffffffffffffffffffffffffffffffffff160361116b575f6040517f94280d6200000000000000000000000000000000000000000000000000000000815260040161116291906115b7565b60405180910390fd5b8160015f8673ffffffffffffffffffffffffffffffffffffffff1673ffffffffffffffffffffffffffffffffffffffff1681526020019081526020015f205f8573ffffffffffffffffffffffffffffffffffffffff1673ffffffffffffffffffffffffffffffffffffffff1681526020019081526020015f20819055508015611254578273ffffffffffffffffffffffffffffffffffffffff168473ffffffffffffffffffffffffffffffffffffffff167f8c5be1e5ebec7d5bd14f71427d1e84f3dd0314c0f7b2291e5b200ac8c7c3b9258460405161124b91906114b9565b60405180910390a35b50505050565b5f611265848461090a565b90507fffffffffffffffffffffffffffffffffffffffffffffffffffffffffffffffff8110156112e757818110156112d8578281836040517ffb8f41b20000000000000000000000000000000000000000000000000000000081526004016112cf93929190611c04565b60405180910390fd5b6112e684848484035f61108b565b5b50505050565b5f5ffd5b5f819050919050565b611303816112f1565b811461130d575f5ffd5b50565b5f8135905061131e816112fa565b92915050565b5f60208284031215611339576113386112ed565b5b5f61134684828501611310565b91505092915050565b5f81519050919050565b5f82825260208201905092915050565b8281835e5f83830152505050565b5f601f19601f8301169050919050565b5f6113918261134f565b61139b8185611359565b93506113ab818560208601611369565b6113b481611377565b840191505092915050565b5f6020820190508181035f8301526113d78184611387565b905092915050565b5f73ffffffffffffffffffffffffffffffffffffffff82169050919050565b5f611408826113df565b9050919050565b611418816113fe565b8114611422575f5ffd5b50565b5f813590506114338161140f565b92915050565b5f5f6040838503121561144f5761144e6112ed565b5b5f61145c85828601611425565b925050602061146d85828601611310565b9150509250929050565b5f8115159050919050565b61148b81611477565b82525050565b5f6020820190506114a45f830184611482565b92915050565b6114b3816112f1565b82525050565b5f6020820190506114cc5f8301846114aa565b92915050565b5f5f5f606084860312156114e9576114e86112ed565b5b5f6114f686828701611425565b935050602061150786828701611425565b925050604061151886828701611310565b9150509250925092565b5f60ff82169050919050565b61153781611522565b82525050565b5f6020820190506115505f83018461152e565b92915050565b5f6020828403121561156b5761156a6112ed565b5b5f61157884828501611425565b91505092915050565b61158a816113fe565b82525050565b5f6040820190506115a35f830185611581565b6115b060208301846114aa565b9392505050565b5f6020820190506115ca5f830184611581565b92915050565b5f5f604083850312156115e6576115e56112ed565b5b5f6115f385828601611425565b925050602061160485828601611425565b9150509250929050565b5f81519050919050565b5f82825260208201905092915050565b5f819050602082019050919050565b611640816113fe565b82525050565b61164f816112f1565b82525050565b604082015f8201516116695f850182611637565b50602082015161167c6020850182611646565b50505050565b5f61168d8383611655565b60408301905092915050565b5f602082019050919050565b5f6116af8261160e565b6116b98185611618565b93506116c483611628565b805f5b838110156116f45781516116db8882611682565b97506116e683611699565b9250506001810190506116c7565b5085935050505092915050565b5f6020820190508181035f83015261171981846116a5565b905092915050565b7f4465706c6f796d656e742074696d65206e6f74207365740000000000000000005f82015250565b5f611755601783611359565b915061176082611721565b602082019050919050565b5f6020820190508181035f83015261178281611749565b9050919050565b7f4e487b71000000000000000000000000000000000000000000000000000000005f52601160045260245ffd5b5f6117c0826112f1565b91506117cb836112f1565b92508282039050818111156117e3576117e2611789565b5b92915050565b7f4e487b71000000000000000000000000000000000000000000000000000000005f52601260045260245ffd5b5f611820826112f1565b915061182b836112f1565b92508261183b5761183a6117e9565b5b828204905092915050565b7f466976652079656172732068617665206e6f74207061737365642079657400005f82015250565b5f61187a601e83611359565b915061188582611846565b602082019050919050565b5f6020820190508181035f8301526118a78161186e565b9050919050565b5f6118b8826112f1565b91506118c3836112f1565b92508282019050808211156118db576118da611789565b5b92915050565b5f6118eb826112f1565b91506118f6836112f1565b9250828202611904816112f1565b9150828204841483151761191b5761191a611789565b5b5092915050565b7f4e487b71000000000000000000000000000000000000000000000000000000005f52602260045260245ffd5b5f600282049050600182168061196657607f821691505b60208210810361197957611978611922565b5b50919050565b7f5465616d20746f6b656e7320617265206c6f636b6564000000000000000000005f82015250565b5f6119b3601683611359565b91506119be8261197f565b602082019050919050565b5f6020820190508181035f8301526119e0816119a7565b9050919050565b7f496e646578206f7574206f6620626f756e6473000000000000000000000000005f82015250565b5f611a1b601383611359565b9150611a26826119e7565b602082019050919050565b5f6020820190508181035f830152611a4881611a0f565b9050919050565b7f4e487b71000000000000000000000000000000000000000000000000000000005f52603260045260245ffd5b611a85816113df565b8114611a8f575f5ffd5b50565b5f81519050611aa081611a7c565b92915050565b5f8160020b9050919050565b611abb81611aa6565b8114611ac5575f5ffd5b50565b5f81519050611ad681611ab2565b92915050565b5f61ffff82169050919050565b611af281611adc565b8114611afc575f5ffd5b50565b5f81519050611b0d81611ae9565b92915050565b611b1c81611522565b8114611b26575f5ffd5b50565b5f81519050611b3781611b13565b92915050565b611b4681611477565b8114611b50575f5ffd5b50565b5f81519050611b6181611b3d565b92915050565b5f5f5f5f5f5f5f60e0888a031215611b8257611b816112ed565b5b5f611b8f8a828b01611a92565b9750506020611ba08a828b01611ac8565b9650506040611bb18a828b01611aff565b9550506060611bc28a828b01611aff565b9450506080611bd38a828b01611aff565b93505060a0611be48a828b01611b29565b92505060c0611bf58a828b01611b53565b91505092959891949750929550565b5f606082019050611c175f830186611581565b611c2460208301856114aa565b611c3160408301846114aa565b94935050505056fea26469706673582212207a760eafbc58ac9b3880ed4c4591aea8276ae27f9839e5897dff855ffd424dba64736f6c634300081e0033",
					"opcodes": "PUSH1 0x80 PUSH1 0x40 MSTORE CALLVALUE DUP1 ISZERO PUSH2 0xF JUMPI PUSH0 PUSH0 REVERT JUMPDEST POP PUSH1 0x40 MLOAD PUSH2 0x2C9D CODESIZE SUB DUP1 PUSH2 0x2C9D DUP4 CODECOPY DUP2 DUP2 ADD PUSH1 0x40 MSTORE DUP2 ADD SWAP1 PUSH2 0x31 SWAP2 SWAP1 PUSH2 0x9E2 JUMP JUMPDEST CALLER PUSH1 0x40 MLOAD DUP1 PUSH1 0x40 ADD PUSH1 0x40 MSTORE DUP1 PUSH1 0x4 DUP2 MSTORE PUSH1 0x20 ADD PUSH32 0x6373796400000000000000000000000000000000000000000000000000000000 DUP2 MSTORE POP PUSH1 0x40 MLOAD DUP1 PUSH1 0x40 ADD PUSH1 0x40 MSTORE DUP1 PUSH1 0x4 DUP2 MSTORE PUSH1 0x20 ADD PUSH32 0x4353594400000000000000000000000000000000000000000000000000000000 DUP2 MSTORE POP DUP2 PUSH1 0x3 SWAP1 DUP2 PUSH2 0xAD SWAP2 SWAP1 PUSH2 0xC43 JUMP JUMPDEST POP DUP1 PUSH1 0x4 SWAP1 DUP2 PUSH2 0xBD SWAP2 SWAP1 PUSH2 0xC43 JUMP JUMPDEST POP POP POP PUSH0 PUSH20 0xFFFFFFFFFFFFFFFFFFFFFFFFFFFFFFFFFFFFFFFF AND DUP2 PUSH20 0xFFFFFFFFFFFFFFFFFFFFFFFFFFFFFFFFFFFFFFFF AND SUB PUSH2 0x130 JUMPI PUSH0 PUSH1 0x40 MLOAD PUSH32 0x1E4FBDF700000000000000000000000000000000000000000000000000000000 DUP2 MSTORE PUSH1 0x4 ADD PUSH2 0x127 SWAP2 SWAP1 PUSH2 0xD21 JUMP JUMPDEST PUSH1 0x40 MLOAD DUP1 SWAP2 SUB SWAP1 REVERT JUMPDEST PUSH2 0x13F DUP2 PUSH2 0x442 PUSH1 0x20 SHL PUSH1 0x20 SHR JUMP JUMPDEST POP PUSH0 DUP3 MLOAD GT PUSH2 0x183 JUMPI PUSH1 0x40 MLOAD PUSH32 0x8C379A000000000000000000000000000000000000000000000000000000000 DUP2 MSTORE PUSH1 0x4 ADD PUSH2 0x17A SWAP1 PUSH2 0xDBA JUMP JUMPDEST PUSH1 0x40 MLOAD DUP1 SWAP2 SUB SWAP1 REVERT JUMPDEST DUP1 PUSH1 0x9 PUSH0 PUSH2 0x100 EXP DUP2 SLOAD DUP2 PUSH20 0xFFFFFFFFFFFFFFFFFFFFFFFFFFFFFFFFFFFFFFFF MUL NOT AND SWAP1 DUP4 PUSH20 0xFFFFFFFFFFFFFFFFFFFFFFFFFFFFFFFFFFFFFFFF AND MUL OR SWAP1 SSTORE POP PUSH0 PUSH0 SWAP1 POP PUSH0 PUSH0 SWAP1 POP JUMPDEST DUP4 MLOAD DUP2 LT ISZERO PUSH2 0x2A1 JUMPI DUP4 DUP2 DUP2 MLOAD DUP2 LT PUSH2 0x1E8 JUMPI PUSH2 0x1E7 PUSH2 0xDD8 JUMP JUMPDEST JUMPDEST PUSH1 0x20 MUL PUSH1 0x20 ADD ADD MLOAD PUSH1 0x20 ADD MLOAD DUP3 PUSH2 0x1FF SWAP2 SWAP1 PUSH2 0xE32 JUMP JUMPDEST SWAP2 POP PUSH1 0x6 DUP5 DUP3 DUP2 MLOAD DUP2 LT PUSH2 0x216 JUMPI PUSH2 0x215 PUSH2 0xDD8 JUMP JUMPDEST JUMPDEST PUSH1 0x20 MUL PUSH1 0x20 ADD ADD MLOAD SWAP1 DUP1 PUSH1 0x1 DUP2 SLOAD ADD DUP1 DUP3 SSTORE DUP1 SWAP2 POP POP PUSH1 0x1 SWAP1 SUB SWAP1 PUSH0 MSTORE PUSH1 0x20 PUSH0 KECCAK256 SWAP1 PUSH1 0x2 MUL ADD PUSH0 SWAP1 SWAP2 SWAP1 SWAP2 SWAP1 SWAP2 POP PUSH0 DUP3 ADD MLOAD DUP2 PUSH0 ADD PUSH0 PUSH2 0x100 EXP DUP2 SLOAD DUP2 PUSH20 0xFFFFFFFFFFFFFFFFFFFFFFFFFFFFFFFFFFFFFFFF MUL NOT AND SWAP1 DUP4 PUSH20 0xFFFFFFFFFFFFFFFFFFFFFFFFFFFFFFFFFFFFFFFF AND MUL OR SWAP1 SSTORE POP PUSH1 0x20 DUP3 ADD MLOAD DUP2 PUSH1 0x1 ADD SSTORE POP POP DUP1 DUP1 PUSH1 0x1 ADD SWAP2 POP POP PUSH2 0x1CC JUMP JUMPDEST POP PUSH0 PUSH1 0x64 PUSH1 0x50 PUSH11 0x9B18AB5DF7180B6B800000 PUSH2 0x2BD SWAP2 SWAP1 PUSH2 0xE65 JUMP JUMPDEST PUSH2 0x2C7 SWAP2 SWAP1 PUSH2 0xED3 JUMP JUMPDEST SWAP1 POP PUSH0 PUSH0 SWAP1 POP PUSH0 PUSH0 SWAP1 POP JUMPDEST PUSH1 0x6 DUP1 SLOAD SWAP1 POP DUP2 LT ISZERO PUSH2 0x389 JUMPI PUSH0 DUP5 DUP5 PUSH1 0x6 DUP5 DUP2 SLOAD DUP2 LT PUSH2 0x2F6 JUMPI PUSH2 0x2F5 PUSH2 0xDD8 JUMP JUMPDEST JUMPDEST SWAP1 PUSH0 MSTORE PUSH1 0x20 PUSH0 KECCAK256 SWAP1 PUSH1 0x2 MUL ADD PUSH1 0x1 ADD SLOAD PUSH2 0x310 SWAP2 SWAP1 PUSH2 0xE65 JUMP JUMPDEST PUSH2 0x31A SWAP2 SWAP1 PUSH2 0xED3 JUMP JUMPDEST SWAP1 POP PUSH2 0x36D PUSH1 0x6 DUP4 DUP2 SLOAD DUP2 LT PUSH2 0x333 JUMPI PUSH2 0x332 PUSH2 0xDD8 JUMP JUMPDEST JUMPDEST SWAP1 PUSH0 MSTORE PUSH1 0x20 PUSH0 KECCAK256 SWAP1 PUSH1 0x2 MUL ADD PUSH0 ADD PUSH0 SWAP1 SLOAD SWAP1 PUSH2 0x100 EXP SWAP1 DIV PUSH20 0xFFFFFFFFFFFFFFFFFFFFFFFFFFFFFFFFFFFFFFFF AND DUP3 PUSH2 0x505 PUSH1 0x20 SHL PUSH1 0x20 SHR JUMP JUMPDEST DUP1 DUP4 PUSH2 0x379 SWAP2 SWAP1 PUSH2 0xE32 JUMP JUMPDEST SWAP3 POP POP DUP1 DUP1 PUSH1 0x1 ADD SWAP2 POP POP PUSH2 0x2D2 JUMP JUMPDEST POP DUP2 DUP2 GT ISZERO PUSH2 0x3CD JUMPI PUSH1 0x40 MLOAD PUSH32 0x8C379A000000000000000000000000000000000000000000000000000000000 DUP2 MSTORE PUSH1 0x4 ADD PUSH2 0x3C4 SWAP1 PUSH2 0xF73 JUMP JUMPDEST PUSH1 0x40 MLOAD DUP1 SWAP2 SUB SWAP1 REVERT JUMPDEST PUSH2 0x3E8 CALLER DUP3 DUP5 PUSH2 0x3DD SWAP2 SWAP1 PUSH2 0xF91 JUMP JUMPDEST PUSH2 0x505 PUSH1 0x20 SHL PUSH1 0x20 SHR JUMP JUMPDEST PUSH2 0x41B ADDRESS PUSH1 0x64 PUSH1 0xA PUSH11 0x9B18AB5DF7180B6B800000 PUSH2 0x406 SWAP2 SWAP1 PUSH2 0xE65 JUMP JUMPDEST PUSH2 0x410 SWAP2 SWAP1 PUSH2 0xED3 JUMP JUMPDEST PUSH2 0x505 PUSH1 0x20 SHL PUSH1 0x20 SHR JUMP JUMPDEST PUSH4 0x5A39A80 TIMESTAMP PUSH2 0x42B SWAP2 SWAP1 PUSH2 0xE32 JUMP JUMPDEST PUSH1 0x8 DUP2 SWAP1 SSTORE POP TIMESTAMP PUSH1 0x7 DUP2 SWAP1 SSTORE POP POP POP POP POP POP PUSH2 0x1021 JUMP JUMPDEST PUSH0 PUSH1 0x5 PUSH0 SWAP1 SLOAD SWAP1 PUSH2 0x100 EXP SWAP1 DIV PUSH20 0xFFFFFFFFFFFFFFFFFFFFFFFFFFFFFFFFFFFFFFFF AND SWAP1 POP DUP2 PUSH1 0x5 PUSH0 PUSH2 0x100 EXP DUP2 SLOAD DUP2 PUSH20 0xFFFFFFFFFFFFFFFFFFFFFFFFFFFFFFFFFFFFFFFF MUL NOT AND SWAP1 DUP4 PUSH20 0xFFFFFFFFFFFFFFFFFFFFFFFFFFFFFFFFFFFFFFFF AND MUL OR SWAP1 SSTORE POP DUP2 PUSH20 0xFFFFFFFFFFFFFFFFFFFFFFFFFFFFFFFFFFFFFFFF AND DUP2 PUSH20 0xFFFFFFFFFFFFFFFFFFFFFFFFFFFFFFFFFFFFFFFF AND PUSH32 0x8BE0079C531659141344CD1FD0A4F28419497F9722A3DAAFE3B4186F6B6457E0 PUSH1 0x40 MLOAD PUSH1 0x40 MLOAD DUP1 SWAP2 SUB SWAP1 LOG3 POP POP JUMP JUMPDEST PUSH0 PUSH20 0xFFFFFFFFFFFFFFFFFFFFFFFFFFFFFFFFFFFFFFFF AND DUP3 PUSH20 0xFFFFFFFFFFFFFFFFFFFFFFFFFFFFFFFFFFFFFFFF AND SUB PUSH2 0x575 JUMPI PUSH0 PUSH1 0x40 MLOAD PUSH32 0xEC442F0500000000000000000000000000000000000000000000000000000000 DUP2 MSTORE PUSH1 0x4 ADD PUSH2 0x56C SWAP2 SWAP1 PUSH2 0xD21 JUMP JUMPDEST PUSH1 0x40 MLOAD DUP1 SWAP2 SUB SWAP1 REVERT JUMPDEST PUSH2 0x586 PUSH0 DUP4 DUP4 PUSH2 0x58A PUSH1 0x20 SHL PUSH1 0x20 SHR JUMP JUMPDEST POP POP JUMP JUMPDEST PUSH0 PUSH20 0xFFFFFFFFFFFFFFFFFFFFFFFFFFFFFFFFFFFFFFFF AND DUP4 PUSH20 0xFFFFFFFFFFFFFFFFFFFFFFFFFFFFFFFFFFFFFFFF AND SUB PUSH2 0x5DA JUMPI DUP1 PUSH1 0x2 PUSH0 DUP3 DUP3 SLOAD PUSH2 0x5CE SWAP2 SWAP1 PUSH2 0xE32 JUMP JUMPDEST SWAP3 POP POP DUP2 SWAP1 SSTORE POP PUSH2 0x6A8 JUMP JUMPDEST PUSH0 PUSH0 PUSH0 DUP6 PUSH20 0xFFFFFFFFFFFFFFFFFFFFFFFFFFFFFFFFFFFFFFFF AND PUSH20 0xFFFFFFFFFFFFFFFFFFFFFFFFFFFFFFFFFFFFFFFF AND DUP2 MSTORE PUSH1 0x20 ADD SWAP1 DUP2 MSTORE PUSH1 0x20 ADD PUSH0 KECCAK256 SLOAD SWAP1 POP DUP2 DUP2 LT ISZERO PUSH2 0x663 JUMPI DUP4 DUP2 DUP4 PUSH1 0x40 MLOAD PUSH32 0xE450D38C00000000000000000000000000000000000000000000000000000000 DUP2 MSTORE PUSH1 0x4 ADD PUSH2 0x65A SWAP4 SWAP3 SWAP2 SWAP1 PUSH2 0xFD3 JUMP JUMPDEST PUSH1 0x40 MLOAD DUP1 SWAP2 SUB SWAP1 REVERT JUMPDEST DUP2 DUP2 SUB PUSH0 PUSH0 DUP7 PUSH20 0xFFFFFFFFFFFFFFFFFFFFFFFFFFFFFFFFFFFFFFFF AND PUSH20 0xFFFFFFFFFFFFFFFFFFFFFFFFFFFFFFFFFFFFFFFF AND DUP2 MSTORE PUSH1 0x20 ADD SWAP1 DUP2 MSTORE PUSH1 0x20 ADD PUSH0 KECCAK256 DUP2 SWAP1 SSTORE POP POP JUMPDEST PUSH0 PUSH20 0xFFFFFFFFFFFFFFFFFFFFFFFFFFFFFFFFFFFFFFFF AND DUP3 PUSH20 0xFFFFFFFFFFFFFFFFFFFFFFFFFFFFFFFFFFFFFFFF AND SUB PUSH2 0x6EF JUMPI DUP1 PUSH1 0x2 PUSH0 DUP3 DUP3 SLOAD SUB SWAP3 POP POP DUP2 SWAP1 SSTORE POP PUSH2 0x739 JUMP JUMPDEST DUP1 PUSH0 PUSH0 DUP5 PUSH20 0xFFFFFFFFFFFFFFFFFFFFFFFFFFFFFFFFFFFFFFFF AND PUSH20 0xFFFFFFFFFFFFFFFFFFFFFFFFFFFFFFFFFFFFFFFF AND DUP2 MSTORE PUSH1 0x20 ADD SWAP1 DUP2 MSTORE PUSH1 0x20 ADD PUSH0 KECCAK256 PUSH0 DUP3 DUP3 SLOAD ADD SWAP3 POP POP DUP2 SWAP1 SSTORE POP JUMPDEST DUP2 PUSH20 0xFFFFFFFFFFFFFFFFFFFFFFFFFFFFFFFFFFFFFFFF AND DUP4 PUSH20 0xFFFFFFFFFFFFFFFFFFFFFFFFFFFFFFFFFFFFFFFF AND PUSH32 0xDDF252AD1BE2C89B69C2B068FC378DAA952BA7F163C4A11628F55A4DF523B3EF DUP4 PUSH1 0x40 MLOAD PUSH2 0x796 SWAP2 SWAP1 PUSH2 0x1008 JUMP JUMPDEST PUSH1 0x40 MLOAD DUP1 SWAP2 SUB SWAP1 LOG3 POP POP POP JUMP JUMPDEST PUSH0 PUSH1 0x40 MLOAD SWAP1 POP SWAP1 JUMP JUMPDEST PUSH0 PUSH0 REVERT JUMPDEST PUSH0 PUSH0 REVERT JUMPDEST PUSH0 PUSH0 REVERT JUMPDEST PUSH0 PUSH1 0x1F NOT PUSH1 0x1F DUP4 ADD AND SWAP1 POP SWAP2 SWAP1 POP JUMP JUMPDEST PUSH32 0x4E487B7100000000000000000000000000000000000000000000000000000000 PUSH0 MSTORE PUSH1 0x41 PUSH1 0x4 MSTORE PUSH1 0x24 PUSH0 REVERT JUMPDEST PUSH2 0x7FE DUP3 PUSH2 0x7B8 JUMP JUMPDEST DUP2 ADD DUP2 DUP2 LT PUSH8 0xFFFFFFFFFFFFFFFF DUP3 GT OR ISZERO PUSH2 0x81D JUMPI PUSH2 0x81C PUSH2 0x7C8 JUMP JUMPDEST JUMPDEST DUP1 PUSH1 0x40 MSTORE POP POP POP JUMP JUMPDEST PUSH0 PUSH2 0x82F PUSH2 0x7A3 JUMP JUMPDEST SWAP1 POP PUSH2 0x83B DUP3 DUP3 PUSH2 0x7F5 JUMP JUMPDEST SWAP2 SWAP1 POP JUMP JUMPDEST PUSH0 PUSH8 0xFFFFFFFFFFFFFFFF DUP3 GT ISZERO PUSH2 0x85A JUMPI PUSH2 0x859 PUSH2 0x7C8 JUMP JUMPDEST JUMPDEST PUSH1 0x20 DUP3 MUL SWAP1 POP PUSH1 0x20 DUP2 ADD SWAP1 POP SWAP2 SWAP1 POP JUMP JUMPDEST PUSH0 PUSH0 REVERT JUMPDEST PUSH0 PUSH0 REVERT JUMPDEST PUSH0 PUSH20 0xFFFFFFFFFFFFFFFFFFFFFFFFFFFFFFFFFFFFFFFF DUP3 AND SWAP1 POP SWAP2 SWAP1 POP JUMP JUMPDEST PUSH0 PUSH2 0x89C DUP3 PUSH2 0x873 JUMP JUMPDEST SWAP1 POP SWAP2 SWAP1 POP JUMP JUMPDEST PUSH2 0x8AC DUP2 PUSH2 0x892 JUMP JUMPDEST DUP2 EQ PUSH2 0x8B6 JUMPI PUSH0 PUSH0 REVERT JUMPDEST POP JUMP JUMPDEST PUSH0 DUP2 MLOAD SWAP1 POP PUSH2 0x8C7 DUP2 PUSH2 0x8A3 JUMP JUMPDEST SWAP3 SWAP2 POP POP JUMP JUMPDEST PUSH0 DUP2 SWAP1 POP SWAP2 SWAP1 POP JUMP JUMPDEST PUSH2 0x8DF DUP2 PUSH2 0x8CD JUMP JUMPDEST DUP2 EQ PUSH2 0x8E9 JUMPI PUSH0 PUSH0 REVERT JUMPDEST POP JUMP JUMPDEST PUSH0 DUP2 MLOAD SWAP1 POP PUSH2 0x8FA DUP2 PUSH2 0x8D6 JUMP JUMPDEST SWAP3 SWAP2 POP POP JUMP JUMPDEST PUSH0 PUSH1 0x40 DUP3 DUP5 SUB SLT ISZERO PUSH2 0x915 JUMPI PUSH2 0x914 PUSH2 0x86F JUMP JUMPDEST JUMPDEST PUSH2 0x91F PUSH1 0x40 PUSH2 0x826 JUMP JUMPDEST SWAP1 POP PUSH0 PUSH2 0x92E DUP5 DUP3 DUP6 ADD PUSH2 0x8B9 JUMP JUMPDEST PUSH0 DUP4 ADD MSTORE POP PUSH1 0x20 PUSH2 0x941 DUP5 DUP3 DUP6 ADD PUSH2 0x8EC JUMP JUMPDEST PUSH1 0x20 DUP4 ADD MSTORE POP SWAP3 SWAP2 POP POP JUMP JUMPDEST PUSH0 PUSH2 0x95F PUSH2 0x95A DUP5 PUSH2 0x840 JUMP JUMPDEST PUSH2 0x826 JUMP JUMPDEST SWAP1 POP DUP1 DUP4 DUP3 MSTORE PUSH1 0x20 DUP3 ADD SWAP1 POP PUSH1 0x40 DUP5 MUL DUP4 ADD DUP6 DUP2 GT ISZERO PUSH2 0x982 JUMPI PUSH2 0x981 PUSH2 0x86B JUMP JUMPDEST JUMPDEST DUP4 JUMPDEST DUP2 DUP2 LT ISZERO PUSH2 0x9AB JUMPI DUP1 PUSH2 0x997 DUP9 DUP3 PUSH2 0x900 JUMP JUMPDEST DUP5 MSTORE PUSH1 0x20 DUP5 ADD SWAP4 POP POP PUSH1 0x40 DUP2 ADD SWAP1 POP PUSH2 0x984 JUMP JUMPDEST POP POP POP SWAP4 SWAP3 POP POP POP JUMP JUMPDEST PUSH0 DUP3 PUSH1 0x1F DUP4 ADD SLT PUSH2 0x9C9 JUMPI PUSH2 0x9C8 PUSH2 0x7B4 JUMP JUMPDEST JUMPDEST DUP2 MLOAD PUSH2 0x9D9 DUP5 DUP3 PUSH1 0x20 DUP7 ADD PUSH2 0x94D JUMP JUMPDEST SWAP2 POP POP SWAP3 SWAP2 POP POP JUMP JUMPDEST PUSH0 PUSH0 PUSH1 0x40 DUP4 DUP6 SUB SLT ISZERO PUSH2 0x9F8 JUMPI PUSH2 0x9F7 PUSH2 0x7AC JUMP JUMPDEST JUMPDEST PUSH0 DUP4 ADD MLOAD PUSH8 0xFFFFFFFFFFFFFFFF DUP2 GT ISZERO PUSH2 0xA15 JUMPI PUSH2 0xA14 PUSH2 0x7B0 JUMP JUMPDEST JUMPDEST PUSH2 0xA21 DUP6 DUP3 DUP7 ADD PUSH2 0x9B5 JUMP JUMPDEST SWAP3 POP POP PUSH1 0x20 PUSH2 0xA32 DUP6 DUP3 DUP7 ADD PUSH2 0x8B9 JUMP JUMPDEST SWAP2 POP POP SWAP3 POP SWAP3 SWAP1 POP JUMP JUMPDEST PUSH0 DUP2 MLOAD SWAP1 POP SWAP2 SWAP1 POP JUMP JUMPDEST PUSH32 0x4E487B7100000000000000000000000000000000000000000000000000000000 PUSH0 MSTORE PUSH1 0x22 PUSH1 0x4 MSTORE PUSH1 0x24 PUSH0 REVERT JUMPDEST PUSH0 PUSH1 0x2 DUP3 DIV SWAP1 POP PUSH1 0x1 DUP3 AND DUP1 PUSH2 0xA8A JUMPI PUSH1 0x7F DUP3 AND SWAP2 POP JUMPDEST PUSH1 0x20 DUP3 LT DUP2 SUB PUSH2 0xA9D JUMPI PUSH2 0xA9C PUSH2 0xA46 JUMP JUMPDEST JUMPDEST POP SWAP2 SWAP1 POP JUMP JUMPDEST PUSH0 DUP2 SWAP1 POP DUP2 PUSH0 MSTORE PUSH1 0x20 PUSH0 KECCAK256 SWAP1 POP SWAP2 SWAP1 POP JUMP JUMPDEST PUSH0 PUSH1 0x20 PUSH1 0x1F DUP4 ADD DIV SWAP1 POP SWAP2 SWAP1 POP JUMP JUMPDEST PUSH0 DUP3 DUP3 SHL SWAP1 POP SWAP3 SWAP2 POP POP JUMP JUMPDEST PUSH0 PUSH1 0x8 DUP4 MUL PUSH2 0xAFF PUSH32 0xFFFFFFFFFFFFFFFFFFFFFFFFFFFFFFFFFFFFFFFFFFFFFFFFFFFFFFFFFFFFFFFF DUP3 PUSH2 0xAC4 JUMP JUMPDEST PUSH2 0xB09 DUP7 DUP4 PUSH2 0xAC4 JUMP JUMPDEST SWAP6 POP DUP1 NOT DUP5 AND SWAP4 POP DUP1 DUP7 AND DUP5 OR SWAP3 POP POP POP SWAP4 SWAP3 POP POP POP JUMP JUMPDEST PUSH0 DUP2 SWAP1 POP SWAP2 SWAP1 POP JUMP JUMPDEST PUSH0 PUSH2 0xB44 PUSH2 0xB3F PUSH2 0xB3A DUP5 PUSH2 0x8CD JUMP JUMPDEST PUSH2 0xB21 JUMP JUMPDEST PUSH2 0x8CD JUMP JUMPDEST SWAP1 POP SWAP2 SWAP1 POP JUMP JUMPDEST PUSH0 DUP2 SWAP1 POP SWAP2 SWAP1 POP JUMP JUMPDEST PUSH2 0xB5D DUP4 PUSH2 0xB2A JUMP JUMPDEST PUSH2 0xB71 PUSH2 0xB69 DUP3 PUSH2 0xB4B JUMP JUMPDEST DUP5 DUP5 SLOAD PUSH2 0xAD0 JUMP JUMPDEST DUP3 SSTORE POP POP POP POP JUMP JUMPDEST PUSH0 PUSH0 SWAP1 POP SWAP1 JUMP JUMPDEST PUSH2 0xB88 PUSH2 0xB79 JUMP JUMPDEST PUSH2 0xB93 DUP2 DUP5 DUP5 PUSH2 0xB54 JUMP JUMPDEST POP POP POP JUMP JUMPDEST JUMPDEST DUP2 DUP2 LT ISZERO PUSH2 0xBB6 JUMPI PUSH2 0xBAB PUSH0 DUP3 PUSH2 0xB80 JUMP JUMPDEST PUSH1 0x1 DUP2 ADD SWAP1 POP PUSH2 0xB99 JUMP JUMPDEST POP POP JUMP JUMPDEST PUSH1 0x1F DUP3 GT ISZERO PUSH2 0xBFB JUMPI PUSH2 0xBCC DUP2 PUSH2 0xAA3 JUMP JUMPDEST PUSH2 0xBD5 DUP5 PUSH2 0xAB5 JUMP JUMPDEST DUP2 ADD PUSH1 0x20 DUP6 LT ISZERO PUSH2 0xBE4 JUMPI DUP2 SWAP1 POP JUMPDEST PUSH2 0xBF8 PUSH2 0xBF0 DUP6 PUSH2 0xAB5 JUMP JUMPDEST DUP4 ADD DUP3 PUSH2 0xB98 JUMP JUMPDEST POP POP JUMPDEST POP POP POP JUMP JUMPDEST PUSH0 DUP3 DUP3 SHR SWAP1 POP SWAP3 SWAP2 POP POP JUMP JUMPDEST PUSH0 PUSH2 0xC1B PUSH0 NOT DUP5 PUSH1 0x8 MUL PUSH2 0xC00 JUMP JUMPDEST NOT DUP1 DUP4 AND SWAP2 POP POP SWAP3 SWAP2 POP POP JUMP JUMPDEST PUSH0 PUSH2 0xC33 DUP4 DUP4 PUSH2 0xC0C JUMP JUMPDEST SWAP2 POP DUP3 PUSH1 0x2 MUL DUP3 OR SWAP1 POP SWAP3 SWAP2 POP POP JUMP JUMPDEST PUSH2 0xC4C DUP3 PUSH2 0xA3C JUMP JUMPDEST PUSH8 0xFFFFFFFFFFFFFFFF DUP2 GT ISZERO PUSH2 0xC65 JUMPI PUSH2 0xC64 PUSH2 0x7C8 JUMP JUMPDEST JUMPDEST PUSH2 0xC6F DUP3 SLOAD PUSH2 0xA73 JUMP JUMPDEST PUSH2 0xC7A DUP3 DUP3 DUP6 PUSH2 0xBBA JUMP JUMPDEST PUSH0 PUSH1 0x20 SWAP1 POP PUSH1 0x1F DUP4 GT PUSH1 0x1 DUP2 EQ PUSH2 0xCAB JUMPI PUSH0 DUP5 ISZERO PUSH2 0xC99 JUMPI DUP3 DUP8 ADD MLOAD SWAP1 POP JUMPDEST PUSH2 0xCA3 DUP6 DUP3 PUSH2 0xC28 JUMP JUMPDEST DUP7 SSTORE POP PUSH2 0xD0A JUMP JUMPDEST PUSH1 0x1F NOT DUP5 AND PUSH2 0xCB9 DUP7 PUSH2 0xAA3 JUMP JUMPDEST PUSH0 JUMPDEST DUP3 DUP2 LT ISZERO PUSH2 0xCE0 JUMPI DUP5 DUP10 ADD MLOAD DUP3 SSTORE PUSH1 0x1 DUP3 ADD SWAP2 POP PUSH1 0x20 DUP6 ADD SWAP5 POP PUSH1 0x20 DUP2 ADD SWAP1 POP PUSH2 0xCBB JUMP JUMPDEST DUP7 DUP4 LT ISZERO PUSH2 0xCFD JUMPI DUP5 DUP10 ADD MLOAD PUSH2 0xCF9 PUSH1 0x1F DUP10 AND DUP3 PUSH2 0xC0C JUMP JUMPDEST DUP4 SSTORE POP JUMPDEST PUSH1 0x1 PUSH1 0x2 DUP9 MUL ADD DUP9 SSTORE POP POP POP JUMPDEST POP POP POP POP POP POP JUMP JUMPDEST PUSH2 0xD1B DUP2 PUSH2 0x892 JUMP JUMPDEST DUP3 MSTORE POP POP JUMP JUMPDEST PUSH0 PUSH1 0x20 DUP3 ADD SWAP1 POP PUSH2 0xD34 PUSH0 DUP4 ADD DUP5 PUSH2 0xD12 JUMP JUMPDEST SWAP3 SWAP2 POP POP JUMP JUMPDEST PUSH0 DUP3 DUP3 MSTORE PUSH1 0x20 DUP3 ADD SWAP1 POP SWAP3 SWAP2 POP POP JUMP JUMPDEST PUSH32 0x4174206C65617374206F6E65207465616D206D656D6265722072657175697265 PUSH0 DUP3 ADD MSTORE PUSH32 0x6400000000000000000000000000000000000000000000000000000000000000 PUSH1 0x20 DUP3 ADD MSTORE POP JUMP JUMPDEST PUSH0 PUSH2 0xDA4 PUSH1 0x21 DUP4 PUSH2 0xD3A JUMP JUMPDEST SWAP2 POP PUSH2 0xDAF DUP3 PUSH2 0xD4A JUMP JUMPDEST PUSH1 0x40 DUP3 ADD SWAP1 POP SWAP2 SWAP1 POP JUMP JUMPDEST PUSH0 PUSH1 0x20 DUP3 ADD SWAP1 POP DUP2 DUP2 SUB PUSH0 DUP4 ADD MSTORE PUSH2 0xDD1 DUP2 PUSH2 0xD98 JUMP JUMPDEST SWAP1 POP SWAP2 SWAP1 POP JUMP JUMPDEST PUSH32 0x4E487B7100000000000000000000000000000000000000000000000000000000 PUSH0 MSTORE PUSH1 0x32 PUSH1 0x4 MSTORE PUSH1 0x24 PUSH0 REVERT JUMPDEST PUSH32 0x4E487B7100000000000000000000000000000000000000000000000000000000 PUSH0 MSTORE PUSH1 0x11 PUSH1 0x4 MSTORE PUSH1 0x24 PUSH0 REVERT JUMPDEST PUSH0 PUSH2 0xE3C DUP3 PUSH2 0x8CD JUMP JUMPDEST SWAP2 POP PUSH2 0xE47 DUP4 PUSH2 0x8CD JUMP JUMPDEST SWAP3 POP DUP3 DUP3 ADD SWAP1 POP DUP1 DUP3 GT ISZERO PUSH2 0xE5F JUMPI PUSH2 0xE5E PUSH2 0xE05 JUMP JUMPDEST JUMPDEST SWAP3 SWAP2 POP POP JUMP JUMPDEST PUSH0 PUSH2 0xE6F DUP3 PUSH2 0x8CD JUMP JUMPDEST SWAP2 POP PUSH2 0xE7A DUP4 PUSH2 0x8CD JUMP JUMPDEST SWAP3 POP DUP3 DUP3 MUL PUSH2 0xE88 DUP2 PUSH2 0x8CD JUMP JUMPDEST SWAP2 POP DUP3 DUP3 DIV DUP5 EQ DUP4 ISZERO OR PUSH2 0xE9F JUMPI PUSH2 0xE9E PUSH2 0xE05 JUMP JUMPDEST JUMPDEST POP SWAP3 SWAP2 POP POP JUMP JUMPDEST PUSH32 0x4E487B7100000000000000000000000000000000000000000000000000000000 PUSH0 MSTORE PUSH1 0x12 PUSH1 0x4 MSTORE PUSH1 0x24 PUSH0 REVERT JUMPDEST PUSH0 PUSH2 0xEDD DUP3 PUSH2 0x8CD JUMP JUMPDEST SWAP2 POP PUSH2 0xEE8 DUP4 PUSH2 0x8CD JUMP JUMPDEST SWAP3 POP DUP3 PUSH2 0xEF8 JUMPI PUSH2 0xEF7 PUSH2 0xEA6 JUMP JUMPDEST JUMPDEST DUP3 DUP3 DIV SWAP1 POP SWAP3 SWAP2 POP POP JUMP JUMPDEST PUSH32 0x546F74616C20646973747269627574696F6E2065786365656473206D61726B65 PUSH0 DUP3 ADD MSTORE PUSH32 0x7400000000000000000000000000000000000000000000000000000000000000 PUSH1 0x20 DUP3 ADD MSTORE POP JUMP JUMPDEST PUSH0 PUSH2 0xF5D PUSH1 0x21 DUP4 PUSH2 0xD3A JUMP JUMPDEST SWAP2 POP PUSH2 0xF68 DUP3 PUSH2 0xF03 JUMP JUMPDEST PUSH1 0x40 DUP3 ADD SWAP1 POP SWAP2 SWAP1 POP JUMP JUMPDEST PUSH0 PUSH1 0x20 DUP3 ADD SWAP1 POP DUP2 DUP2 SUB PUSH0 DUP4 ADD MSTORE PUSH2 0xF8A DUP2 PUSH2 0xF51 JUMP JUMPDEST SWAP1 POP SWAP2 SWAP1 POP JUMP JUMPDEST PUSH0 PUSH2 0xF9B DUP3 PUSH2 0x8CD JUMP JUMPDEST SWAP2 POP PUSH2 0xFA6 DUP4 PUSH2 0x8CD JUMP JUMPDEST SWAP3 POP DUP3 DUP3 SUB SWAP1 POP DUP2 DUP2 GT ISZERO PUSH2 0xFBE JUMPI PUSH2 0xFBD PUSH2 0xE05 JUMP JUMPDEST JUMPDEST SWAP3 SWAP2 POP POP JUMP JUMPDEST PUSH2 0xFCD DUP2 PUSH2 0x8CD JUMP JUMPDEST DUP3 MSTORE POP POP JUMP JUMPDEST PUSH0 PUSH1 0x60 DUP3 ADD SWAP1 POP PUSH2 0xFE6 PUSH0 DUP4 ADD DUP7 PUSH2 0xD12 JUMP JUMPDEST PUSH2 0xFF3 PUSH1 0x20 DUP4 ADD DUP6 PUSH2 0xFC4 JUMP JUMPDEST PUSH2 0x1000 PUSH1 0x40 DUP4 ADD DUP5 PUSH2 0xFC4 JUMP JUMPDEST SWAP5 SWAP4 POP POP POP POP JUMP JUMPDEST PUSH0 PUSH1 0x20 DUP3 ADD SWAP1 POP PUSH2 0x101B PUSH0 DUP4 ADD DUP5 PUSH2 0xFC4 JUMP JUMPDEST SWAP3 SWAP2 POP POP JUMP JUMPDEST PUSH2 0x1C6F DUP1 PUSH2 0x102E PUSH0 CODECOPY PUSH0 RETURN INVALID PUSH1 0x80 PUSH1 0x40 MSTORE CALLVALUE DUP1 ISZERO PUSH2 0xF JUMPI PUSH0 PUSH0 REVERT JUMPDEST POP PUSH1 0x4 CALLDATASIZE LT PUSH2 0x140 JUMPI PUSH0 CALLDATALOAD PUSH1 0xE0 SHR DUP1 PUSH4 0x88E56EC6 GT PUSH2 0xB6 JUMPI DUP1 PUSH4 0xBDD3D825 GT PUSH2 0x7A JUMPI DUP1 PUSH4 0xBDD3D825 EQ PUSH2 0x369 JUMPI DUP1 PUSH4 0xDD62ED3E EQ PUSH2 0x387 JUMPI DUP1 PUSH4 0xEB91D37E EQ PUSH2 0x3B7 JUMPI DUP1 PUSH4 0xECDA10F5 EQ PUSH2 0x3D5 JUMPI DUP1 PUSH4 0xEFDED147 EQ PUSH2 0x3F3 JUMPI DUP1 PUSH4 0xF2FDE38B EQ PUSH2 0x411 JUMPI PUSH2 0x140 JUMP JUMPDEST DUP1 PUSH4 0x88E56EC6 EQ PUSH2 0x2AE JUMPI DUP1 PUSH4 0x8DA5CB5B EQ PUSH2 0x2DF JUMPI DUP1 PUSH4 0x902D55A5 EQ PUSH2 0x2FD JUMPI DUP1 PUSH4 0x95D89B41 EQ PUSH2 0x31B JUMPI DUP1 PUSH4 0xA9059CBB EQ PUSH2 0x339 JUMPI PUSH2 0x140 JUMP JUMPDEST DUP1 PUSH4 0x23B872DD GT PUSH2 0x108 JUMPI DUP1 PUSH4 0x23B872DD EQ PUSH2 0x1EA JUMPI DUP1 PUSH4 0x313CE567 EQ PUSH2 0x21A JUMPI DUP1 PUSH4 0x35928998 EQ PUSH2 0x238 JUMPI DUP1 PUSH4 0x70A08231 EQ PUSH2 0x256 JUMPI DUP1 PUSH4 0x715018A6 EQ PUSH2 0x286 JUMPI DUP1 PUSH4 0x76AE9B2D EQ PUSH2 0x290 JUMPI PUSH2 0x140 JUMP JUMPDEST DUP1 PUSH4 0x53F9040 EQ PUSH2 0x144 JUMPI DUP1 PUSH4 0x6FDDE03 EQ PUSH2 0x160 JUMPI DUP1 PUSH4 0x95EA7B3 EQ PUSH2 0x17E JUMPI DUP1 PUSH4 0x18160DDD EQ PUSH2 0x1AE JUMPI DUP1 PUSH4 0x19CA43AB EQ PUSH2 0x1CC JUMPI JUMPDEST PUSH0 PUSH0 REVERT JUMPDEST PUSH2 0x15E PUSH1 0x4 DUP1 CALLDATASIZE SUB DUP2 ADD SWAP1 PUSH2 0x159 SWAP2 SWAP1 PUSH2 0x1324 JUMP JUMPDEST PUSH2 0x42D JUMP JUMPDEST STOP JUMPDEST PUSH2 0x168 PUSH2 0x525 JUMP JUMPDEST PUSH1 0x40 MLOAD PUSH2 0x175 SWAP2 SWAP1 PUSH2 0x13BF JUMP JUMPDEST PUSH1 0x40 MLOAD DUP1 SWAP2 SUB SWAP1 RETURN JUMPDEST PUSH2 0x198 PUSH1 0x4 DUP1 CALLDATASIZE SUB DUP2 ADD SWAP1 PUSH2 0x193 SWAP2 SWAP1 PUSH2 0x1439 JUMP JUMPDEST PUSH2 0x5B5 JUMP JUMPDEST PUSH1 0x40 MLOAD PUSH2 0x1A5 SWAP2 SWAP1 PUSH2 0x1491 JUMP JUMPDEST PUSH1 0x40 MLOAD DUP1 SWAP2 SUB SWAP1 RETURN JUMPDEST PUSH2 0x1B6 PUSH2 0x5D7 JUMP JUMPDEST PUSH1 0x40 MLOAD PUSH2 0x1C3 SWAP2 SWAP1 PUSH2 0x14B9 JUMP JUMPDEST PUSH1 0x40 MLOAD DUP1 SWAP2 SUB SWAP1 RETURN JUMPDEST PUSH2 0x1D4 PUSH2 0x5E0 JUMP JUMPDEST PUSH1 0x40 MLOAD PUSH2 0x1E1 SWAP2 SWAP1 PUSH2 0x14B9 JUMP JUMPDEST PUSH1 0x40 MLOAD DUP1 SWAP2 SUB SWAP1 RETURN JUMPDEST PUSH2 0x204 PUSH1 0x4 DUP1 CALLDATASIZE SUB DUP2 ADD SWAP1 PUSH2 0x1FF SWAP2 SWAP1 PUSH2 0x14D2 JUMP JUMPDEST PUSH2 0x5EC JUMP JUMPDEST PUSH1 0x40 MLOAD PUSH2 0x211 SWAP2 SWAP1 PUSH2 0x1491 JUMP JUMPDEST PUSH1 0x40 MLOAD DUP1 SWAP2 SUB SWAP1 RETURN JUMPDEST PUSH2 0x222 PUSH2 0x65B JUMP JUMPDEST PUSH1 0x40 MLOAD PUSH2 0x22F SWAP2 SWAP1 PUSH2 0x153D JUMP JUMPDEST PUSH1 0x40 MLOAD DUP1 SWAP2 SUB SWAP1 RETURN JUMPDEST PUSH2 0x240 PUSH2 0x663 JUMP JUMPDEST PUSH1 0x40 MLOAD PUSH2 0x24D SWAP2 SWAP1 PUSH2 0x14B9 JUMP JUMPDEST PUSH1 0x40 MLOAD DUP1 SWAP2 SUB SWAP1 RETURN JUMPDEST PUSH2 0x270 PUSH1 0x4 DUP1 CALLDATASIZE SUB DUP2 ADD SWAP1 PUSH2 0x26B SWAP2 SWAP1 PUSH2 0x1556 JUMP JUMPDEST PUSH2 0x66B JUMP JUMPDEST PUSH1 0x40 MLOAD PUSH2 0x27D SWAP2 SWAP1 PUSH2 0x14B9 JUMP JUMPDEST PUSH1 0x40 MLOAD DUP1 SWAP2 SUB SWAP1 RETURN JUMPDEST PUSH2 0x28E PUSH2 0x6B0 JUMP JUMPDEST STOP JUMPDEST PUSH2 0x298 PUSH2 0x6C3 JUMP JUMPDEST PUSH1 0x40 MLOAD PUSH2 0x2A5 SWAP2 SWAP1 PUSH2 0x14B9 JUMP JUMPDEST PUSH1 0x40 MLOAD DUP1 SWAP2 SUB SWAP1 RETURN JUMPDEST PUSH2 0x2C8 PUSH1 0x4 DUP1 CALLDATASIZE SUB DUP2 ADD SWAP1 PUSH2 0x2C3 SWAP2 SWAP1 PUSH2 0x1324 JUMP JUMPDEST PUSH2 0x6C9 JUMP JUMPDEST PUSH1 0x40 MLOAD PUSH2 0x2D6 SWAP3 SWAP2 SWAP1 PUSH2 0x1590 JUMP JUMPDEST PUSH1 0x40 MLOAD DUP1 SWAP2 SUB SWAP1 RETURN JUMPDEST PUSH2 0x2E7 PUSH2 0x7B1 JUMP JUMPDEST PUSH1 0x40 MLOAD PUSH2 0x2F4 SWAP2 SWAP1 PUSH2 0x15B7 JUMP JUMPDEST PUSH1 0x40 MLOAD DUP1 SWAP2 SUB SWAP1 RETURN JUMPDEST PUSH2 0x305 PUSH2 0x7D9 JUMP JUMPDEST PUSH1 0x40 MLOAD PUSH2 0x312 SWAP2 SWAP1 PUSH2 0x14B9 JUMP JUMPDEST PUSH1 0x40 MLOAD DUP1 SWAP2 SUB SWAP1 RETURN JUMPDEST PUSH2 0x323 PUSH2 0x7E8 JUMP JUMPDEST PUSH1 0x40 MLOAD PUSH2 0x330 SWAP2 SWAP1 PUSH2 0x13BF JUMP JUMPDEST PUSH1 0x40 MLOAD DUP1 SWAP2 SUB SWAP1 RETURN JUMPDEST PUSH2 0x353 PUSH1 0x4 DUP1 CALLDATASIZE SUB DUP2 ADD SWAP1 PUSH2 0x34E SWAP2 SWAP1 PUSH2 0x1439 JUMP JUMPDEST PUSH2 0x878 JUMP JUMPDEST PUSH1 0x40 MLOAD PUSH2 0x360 SWAP2 SWAP1 PUSH2 0x1491 JUMP JUMPDEST PUSH1 0x40 MLOAD DUP1 SWAP2 SUB SWAP1 RETURN JUMPDEST PUSH2 0x371 PUSH2 0x8E5 JUMP JUMPDEST PUSH1 0x40 MLOAD PUSH2 0x37E SWAP2 SWAP1 PUSH2 0x15B7 JUMP JUMPDEST PUSH1 0x40 MLOAD DUP1 SWAP2 SUB SWAP1 RETURN JUMPDEST PUSH2 0x3A1 PUSH1 0x4 DUP1 CALLDATASIZE SUB DUP2 ADD SWAP1 PUSH2 0x39C SWAP2 SWAP1 PUSH2 0x15D0 JUMP JUMPDEST PUSH2 0x90A JUMP JUMPDEST PUSH1 0x40 MLOAD PUSH2 0x3AE SWAP2 SWAP1 PUSH2 0x14B9 JUMP JUMPDEST PUSH1 0x40 MLOAD DUP1 SWAP2 SUB SWAP1 RETURN JUMPDEST PUSH2 0x3BF PUSH2 0x98C JUMP JUMPDEST PUSH1 0x40 MLOAD PUSH2 0x3CC SWAP2 SWAP1 PUSH2 0x14B9 JUMP JUMPDEST PUSH1 0x40 MLOAD DUP1 SWAP2 SUB SWAP1 RETURN JUMPDEST PUSH2 0x3DD PUSH2 0xA8B JUMP JUMPDEST PUSH1 0x40 MLOAD PUSH2 0x3EA SWAP2 SWAP1 PUSH2 0x14B9 JUMP JUMPDEST PUSH1 0x40 MLOAD DUP1 SWAP2 SUB SWAP1 RETURN JUMPDEST PUSH2 0x3FB PUSH2 0xA91 JUMP JUMPDEST PUSH1 0x40 MLOAD PUSH2 0x408 SWAP2 SWAP1 PUSH2 0x1701 JUMP JUMPDEST PUSH1 0x40 MLOAD DUP1 SWAP2 SUB SWAP1 RETURN JUMPDEST PUSH2 0x42B PUSH1 0x4 DUP1 CALLDATASIZE SUB DUP2 ADD SWAP1 PUSH2 0x426 SWAP2 SWAP1 PUSH2 0x1556 JUMP JUMPDEST PUSH2 0xB4B JUMP JUMPDEST STOP JUMPDEST PUSH2 0x435 PUSH2 0xBCF JUMP JUMPDEST PUSH0 PUSH1 0x7 SLOAD GT PUSH2 0x479 JUMPI PUSH1 0x40 MLOAD PUSH32 0x8C379A000000000000000000000000000000000000000000000000000000000 DUP2 MSTORE PUSH1 0x4 ADD PUSH2 0x470 SWAP1 PUSH2 0x176B JUMP JUMPDEST PUSH1 0x40 MLOAD DUP1 SWAP2 SUB SWAP1 REVERT JUMPDEST PUSH0 PUSH4 0x1E13380 PUSH1 0x7 SLOAD TIMESTAMP PUSH2 0x48D SWAP2 SWAP1 PUSH2 0x17B6 JUMP JUMPDEST PUSH2 0x497 SWAP2 SWAP1 PUSH2 0x1816 JUMP JUMPDEST SWAP1 POP PUSH1 0x5 DUP2 LT ISZERO PUSH2 0x4DD JUMPI PUSH1 0x40 MLOAD PUSH32 0x8C379A000000000000000000000000000000000000000000000000000000000 DUP2 MSTORE PUSH1 0x4 ADD PUSH2 0x4D4 SWAP1 PUSH2 0x1890 JUMP JUMPDEST PUSH1 0x40 MLOAD DUP1 SWAP2 SUB SWAP1 REVERT JUMPDEST PUSH0 PUSH1 0x5 DUP3 PUSH2 0x4EB SWAP2 SWAP1 PUSH2 0x17B6 JUMP JUMPDEST PUSH1 0x69 PUSH2 0x4F7 SWAP2 SWAP1 PUSH2 0x18AE JUMP JUMPDEST SWAP1 POP PUSH0 PUSH1 0x64 DUP3 DUP6 PUSH2 0x508 SWAP2 SWAP1 PUSH2 0x18E1 JUMP JUMPDEST PUSH2 0x512 SWAP2 SWAP1 PUSH2 0x1816 JUMP JUMPDEST SWAP1 POP PUSH2 0x51F ADDRESS CALLER DUP4 PUSH2 0xC56 JUMP JUMPDEST POP POP POP POP JUMP JUMPDEST PUSH1 0x60 PUSH1 0x3 DUP1 SLOAD PUSH2 0x534 SWAP1 PUSH2 0x194F JUMP JUMPDEST DUP1 PUSH1 0x1F ADD PUSH1 0x20 DUP1 SWAP2 DIV MUL PUSH1 0x20 ADD PUSH1 0x40 MLOAD SWAP1 DUP2 ADD PUSH1 0x40 MSTORE DUP1 SWAP3 SWAP2 SWAP1 DUP2 DUP2 MSTORE PUSH1 0x20 ADD DUP3 DUP1 SLOAD PUSH2 0x560 SWAP1 PUSH2 0x194F JUMP JUMPDEST DUP1 ISZERO PUSH2 0x5AB JUMPI DUP1 PUSH1 0x1F LT PUSH2 0x582 JUMPI PUSH2 0x100 DUP1 DUP4 SLOAD DIV MUL DUP4 MSTORE SWAP2 PUSH1 0x20 ADD SWAP2 PUSH2 0x5AB JUMP JUMPDEST DUP3 ADD SWAP2 SWAP1 PUSH0 MSTORE PUSH1 0x20 PUSH0 KECCAK256 SWAP1 JUMPDEST DUP2 SLOAD DUP2 MSTORE SWAP1 PUSH1 0x1 ADD SWAP1 PUSH1 0x20 ADD DUP1 DUP4 GT PUSH2 0x58E JUMPI DUP3 SWAP1 SUB PUSH1 0x1F AND DUP3 ADD SWAP2 JUMPDEST POP POP POP POP POP SWAP1 POP SWAP1 JUMP JUMPDEST PUSH0 PUSH0 PUSH2 0x5BF PUSH2 0xD46 JUMP JUMPDEST SWAP1 POP PUSH2 0x5CC DUP2 DUP6 DUP6 PUSH2 0xD4D JUMP JUMPDEST PUSH1 0x1 SWAP2 POP POP SWAP3 SWAP2 POP POP JUMP JUMPDEST PUSH0 PUSH1 0x2 SLOAD SWAP1 POP SWAP1 JUMP JUMPDEST PUSH0 PUSH1 0x6 DUP1 SLOAD SWAP1 POP SWAP1 POP SWAP1 JUMP JUMPDEST PUSH0 DUP2 PUSH1 0x8 SLOAD TIMESTAMP LT ISZERO DUP1 PUSH2 0x607 JUMPI POP DUP1 PUSH2 0x604 CALLER PUSH2 0x66B JUMP JUMPDEST LT ISZERO JUMPDEST PUSH2 0x646 JUMPI PUSH1 0x40 MLOAD PUSH32 0x8C379A000000000000000000000000000000000000000000000000000000000 DUP2 MSTORE PUSH1 0x4 ADD PUSH2 0x63D SWAP1 PUSH2 0x19C9 JUMP JUMPDEST PUSH1 0x40 MLOAD DUP1 SWAP2 SUB SWAP1 REVERT JUMPDEST PUSH2 0x651 DUP6 DUP6 DUP6 PUSH2 0xD5F JUMP JUMPDEST SWAP2 POP POP SWAP4 SWAP3 POP POP POP JUMP JUMPDEST PUSH0 PUSH1 0x12 SWAP1 POP SWAP1 JUMP JUMPDEST PUSH4 0x5A39A80 DUP2 JUMP JUMPDEST PUSH0 PUSH0 PUSH0 DUP4 PUSH20 0xFFFFFFFFFFFFFFFFFFFFFFFFFFFFFFFFFFFFFFFF AND PUSH20 0xFFFFFFFFFFFFFFFFFFFFFFFFFFFFFFFFFFFFFFFF AND DUP2 MSTORE PUSH1 0x20 ADD SWAP1 DUP2 MSTORE PUSH1 0x20 ADD PUSH0 KECCAK256 SLOAD SWAP1 POP SWAP2 SWAP1 POP JUMP JUMPDEST PUSH2 0x6B8 PUSH2 0xBCF JUMP JUMPDEST PUSH2 0x6C1 PUSH0 PUSH2 0xD8D JUMP JUMPDEST JUMP JUMPDEST PUSH1 0x8 SLOAD DUP2 JUMP JUMPDEST PUSH0 PUSH0 PUSH1 0x6 DUP1 SLOAD SWAP1 POP DUP4 LT PUSH2 0x712 JUMPI PUSH1 0x40 MLOAD PUSH32 0x8C379A000000000000000000000000000000000000000000000000000000000 DUP2 MSTORE PUSH1 0x4 ADD PUSH2 0x709 SWAP1 PUSH2 0x1A31 JUMP JUMPDEST PUSH1 0x40 MLOAD DUP1 SWAP2 SUB SWAP1 REVERT JUMPDEST PUSH0 PUSH1 0x6 DUP5 DUP2 SLOAD DUP2 LT PUSH2 0x727 JUMPI PUSH2 0x726 PUSH2 0x1A4F JUMP JUMPDEST JUMPDEST SWAP1 PUSH0 MSTORE PUSH1 0x20 PUSH0 KECCAK256 SWAP1 PUSH1 0x2 MUL ADD PUSH1 0x40 MLOAD DUP1 PUSH1 0x40 ADD PUSH1 0x40 MSTORE SWAP1 DUP2 PUSH0 DUP3 ADD PUSH0 SWAP1 SLOAD SWAP1 PUSH2 0x100 EXP SWAP1 DIV PUSH20 0xFFFFFFFFFFFFFFFFFFFFFFFFFFFFFFFFFFFFFFFF AND PUSH20 0xFFFFFFFFFFFFFFFFFFFFFFFFFFFFFFFFFFFFFFFF AND PUSH20 0xFFFFFFFFFFFFFFFFFFFFFFFFFFFFFFFFFFFFFFFF AND DUP2 MSTORE PUSH1 0x20 ADD PUSH1 0x1 DUP3 ADD SLOAD DUP2 MSTORE POP POP SWAP1 POP DUP1 PUSH0 ADD MLOAD DUP2 PUSH1 0x20 ADD MLOAD SWAP3 POP SWAP3 POP POP SWAP2 POP SWAP2 JUMP JUMPDEST PUSH0 PUSH1 0x5 PUSH0 SWAP1 SLOAD SWAP1 PUSH2 0x100 EXP SWAP1 DIV PUSH20 0xFFFFFFFFFFFFFFFFFFFFFFFFFFFFFFFFFFFFFFFF AND SWAP1 POP SWAP1 JUMP JUMPDEST PUSH11 0x9B18AB5DF7180B6B800000 DUP2 JUMP JUMPDEST PUSH1 0x60 PUSH1 0x4 DUP1 SLOAD PUSH2 0x7F7 SWAP1 PUSH2 0x194F JUMP JUMPDEST DUP1 PUSH1 0x1F ADD PUSH1 0x20 DUP1 SWAP2 DIV MUL PUSH1 0x20 ADD PUSH1 0x40 MLOAD SWAP1 DUP2 ADD PUSH1 0x40 MSTORE DUP1 SWAP3 SWAP2 SWAP1 DUP2 DUP2 MSTORE PUSH1 0x20 ADD DUP3 DUP1 SLOAD PUSH2 0x823 SWAP1 PUSH2 0x194F JUMP JUMPDEST DUP1 ISZERO PUSH2 0x86E JUMPI DUP1 PUSH1 0x1F LT PUSH2 0x845 JUMPI PUSH2 0x100 DUP1 DUP4 SLOAD DIV MUL DUP4 MSTORE SWAP2 PUSH1 0x20 ADD SWAP2 PUSH2 0x86E JUMP JUMPDEST DUP3 ADD SWAP2 SWAP1 PUSH0 MSTORE PUSH1 0x20 PUSH0 KECCAK256 SWAP1 JUMPDEST DUP2 SLOAD DUP2 MSTORE SWAP1 PUSH1 0x1 ADD SWAP1 PUSH1 0x20 ADD DUP1 DUP4 GT PUSH2 0x851 JUMPI DUP3 SWAP1 SUB PUSH1 0x1F AND DUP3 ADD SWAP2 JUMPDEST POP POP POP POP POP SWAP1 POP SWAP1 JUMP JUMPDEST PUSH0 DUP2 PUSH1 0x8 SLOAD TIMESTAMP LT ISZERO DUP1 PUSH2 0x893 JUMPI POP DUP1 PUSH2 0x890 CALLER PUSH2 0x66B JUMP JUMPDEST LT ISZERO JUMPDEST PUSH2 0x8D2 JUMPI PUSH1 0x40 MLOAD PUSH32 0x8C379A000000000000000000000000000000000000000000000000000000000 DUP2 MSTORE PUSH1 0x4 ADD PUSH2 0x8C9 SWAP1 PUSH2 0x19C9 JUMP JUMPDEST PUSH1 0x40 MLOAD DUP1 SWAP2 SUB SWAP1 REVERT JUMPDEST PUSH2 0x8DC DUP5 DUP5 PUSH2 0xE50 JUMP JUMPDEST SWAP2 POP POP SWAP3 SWAP2 POP POP JUMP JUMPDEST PUSH1 0x9 PUSH0 SWAP1 SLOAD SWAP1 PUSH2 0x100 EXP SWAP1 DIV PUSH20 0xFFFFFFFFFFFFFFFFFFFFFFFFFFFFFFFFFFFFFFFF AND DUP2 JUMP JUMPDEST PUSH0 PUSH1 0x1 PUSH0 DUP5 PUSH20 0xFFFFFFFFFFFFFFFFFFFFFFFFFFFFFFFFFFFFFFFF AND PUSH20 0xFFFFFFFFFFFFFFFFFFFFFFFFFFFFFFFFFFFFFFFF AND DUP2 MSTORE PUSH1 0x20 ADD SWAP1 DUP2 MSTORE PUSH1 0x20 ADD PUSH0 KECCAK256 PUSH0 DUP4 PUSH20 0xFFFFFFFFFFFFFFFFFFFFFFFFFFFFFFFFFFFFFFFF AND PUSH20 0xFFFFFFFFFFFFFFFFFFFFFFFFFFFFFFFFFFFFFFFF AND DUP2 MSTORE PUSH1 0x20 ADD SWAP1 DUP2 MSTORE PUSH1 0x20 ADD PUSH0 KECCAK256 SLOAD SWAP1 POP SWAP3 SWAP2 POP POP JUMP JUMPDEST PUSH0 PUSH0 PUSH1 0x9 PUSH0 SWAP1 SLOAD SWAP1 PUSH2 0x100 EXP SWAP1 DIV PUSH20 0xFFFFFFFFFFFFFFFFFFFFFFFFFFFFFFFFFFFFFFFF AND SWAP1 POP PUSH0 DUP2 PUSH20 0xFFFFFFFFFFFFFFFFFFFFFFFFFFFFFFFFFFFFFFFF AND PUSH4 0x3850C7BD PUSH1 0x40 MLOAD DUP2 PUSH4 0xFFFFFFFF AND PUSH1 0xE0 SHL DUP2 MSTORE PUSH1 0x4 ADD PUSH1 0xE0 PUSH1 0x40 MLOAD DUP1 DUP4 SUB DUP2 DUP7 GAS STATICCALL ISZERO DUP1 ISZERO PUSH2 0x9FC JUMPI RETURNDATASIZE PUSH0 PUSH0 RETURNDATACOPY RETURNDATASIZE PUSH0 REVERT JUMPDEST POP POP POP POP PUSH1 0x40 MLOAD RETURNDATASIZE PUSH1 0x1F NOT PUSH1 0x1F DUP3 ADD AND DUP3 ADD DUP1 PUSH1 0x40 MSTORE POP DUP2 ADD SWAP1 PUSH2 0xA20 SWAP2 SWAP1 PUSH2 0x1B67 JUMP JUMPDEST POP POP POP POP POP POP SWAP1 POP PUSH25 0x1000000000000000000000000000000000000000000000000 DUP2 PUSH20 0xFFFFFFFFFFFFFFFFFFFFFFFFFFFFFFFFFFFFFFFF AND DUP3 PUSH20 0xFFFFFFFFFFFFFFFFFFFFFFFFFFFFFFFFFFFFFFFF AND PUSH2 0xA7A SWAP2 SWAP1 PUSH2 0x18E1 JUMP JUMPDEST PUSH2 0xA84 SWAP2 SWAP1 PUSH2 0x1816 JUMP JUMPDEST SWAP3 POP POP POP SWAP1 JUMP JUMPDEST PUSH1 0x7 SLOAD DUP2 JUMP JUMPDEST PUSH1 0x60 PUSH1 0x6 DUP1 SLOAD DUP1 PUSH1 0x20 MUL PUSH1 0x20 ADD PUSH1 0x40 MLOAD SWAP1 DUP2 ADD PUSH1 0x40 MSTORE DUP1 SWAP3 SWAP2 SWAP1 DUP2 DUP2 MSTORE PUSH1 0x20 ADD PUSH0 SWAP1 JUMPDEST DUP3 DUP3 LT ISZERO PUSH2 0xB42 JUMPI DUP4 DUP3 SWAP1 PUSH0 MSTORE PUSH1 0x20 PUSH0 KECCAK256 SWAP1 PUSH1 0x2 MUL ADD PUSH1 0x40 MLOAD DUP1 PUSH1 0x40 ADD PUSH1 0x40 MSTORE SWAP1 DUP2 PUSH0 DUP3 ADD PUSH0 SWAP1 SLOAD SWAP1 PUSH2 0x100 EXP SWAP1 DIV PUSH20 0xFFFFFFFFFFFFFFFFFFFFFFFFFFFFFFFFFFFFFFFF AND PUSH20 0xFFFFFFFFFFFFFFFFFFFFFFFFFFFFFFFFFFFFFFFF AND PUSH20 0xFFFFFFFFFFFFFFFFFFFFFFFFFFFFFFFFFFFFFFFF AND DUP2 MSTORE PUSH1 0x20 ADD PUSH1 0x1 DUP3 ADD SLOAD DUP2 MSTORE POP POP DUP2 MSTORE PUSH1 0x20 ADD SWAP1 PUSH1 0x1 ADD SWAP1 PUSH2 0xAB4 JUMP JUMPDEST POP POP POP POP SWAP1 POP SWAP1 JUMP JUMPDEST PUSH2 0xB53 PUSH2 0xBCF JUMP JUMPDEST PUSH0 PUSH20 0xFFFFFFFFFFFFFFFFFFFFFFFFFFFFFFFFFFFFFFFF AND DUP2 PUSH20 0xFFFFFFFFFFFFFFFFFFFFFFFFFFFFFFFFFFFFFFFF AND SUB PUSH2 0xBC3 JUMPI PUSH0 PUSH1 0x40 MLOAD PUSH32 0x1E4FBDF700000000000000000000000000000000000000000000000000000000 DUP2 MSTORE PUSH1 0x4 ADD PUSH2 0xBBA SWAP2 SWAP1 PUSH2 0x15B7 JUMP JUMPDEST PUSH1 0x40 MLOAD DUP1 SWAP2 SUB SWAP1 REVERT JUMPDEST PUSH2 0xBCC DUP2 PUSH2 0xD8D JUMP JUMPDEST POP JUMP JUMPDEST PUSH2 0xBD7 PUSH2 0xD46 JUMP JUMPDEST PUSH20 0xFFFFFFFFFFFFFFFFFFFFFFFFFFFFFFFFFFFFFFFF AND PUSH2 0xBF5 PUSH2 0x7B1 JUMP JUMPDEST PUSH20 0xFFFFFFFFFFFFFFFFFFFFFFFFFFFFFFFFFFFFFFFF AND EQ PUSH2 0xC54 JUMPI PUSH2 0xC18 PUSH2 0xD46 JUMP JUMPDEST PUSH1 0x40 MLOAD PUSH32 0x118CDAA700000000000000000000000000000000000000000000000000000000 DUP2 MSTORE PUSH1 0x4 ADD PUSH2 0xC4B SWAP2 SWAP1 PUSH2 0x15B7 JUMP JUMPDEST PUSH1 0x40 MLOAD DUP1 SWAP2 SUB SWAP1 REVERT JUMPDEST JUMP JUMPDEST PUSH0 PUSH20 0xFFFFFFFFFFFFFFFFFFFFFFFFFFFFFFFFFFFFFFFF AND DUP4 PUSH20 0xFFFFFFFFFFFFFFFFFFFFFFFFFFFFFFFFFFFFFFFF AND SUB PUSH2 0xCC6 JUMPI PUSH0 PUSH1 0x40 MLOAD PUSH32 0x96C6FD1E00000000000000000000000000000000000000000000000000000000 DUP2 MSTORE PUSH1 0x4 ADD PUSH2 0xCBD SWAP2 SWAP1 PUSH2 0x15B7 JUMP JUMPDEST PUSH1 0x40 MLOAD DUP1 SWAP2 SUB SWAP1 REVERT JUMPDEST PUSH0 PUSH20 0xFFFFFFFFFFFFFFFFFFFFFFFFFFFFFFFFFFFFFFFF AND DUP3 PUSH20 0xFFFFFFFFFFFFFFFFFFFFFFFFFFFFFFFFFFFFFFFF AND SUB PUSH2 0xD36 JUMPI PUSH0 PUSH1 0x40 MLOAD PUSH32 0xEC442F0500000000000000000000000000000000000000000000000000000000 DUP2 MSTORE PUSH1 0x4 ADD PUSH2 0xD2D SWAP2 SWAP1 PUSH2 0x15B7 JUMP JUMPDEST PUSH1 0x40 MLOAD DUP1 SWAP2 SUB SWAP1 REVERT JUMPDEST PUSH2 0xD41 DUP4 DUP4 DUP4 PUSH2 0xE72 JUMP JUMPDEST POP POP POP JUMP JUMPDEST PUSH0 CALLER SWAP1 POP SWAP1 JUMP JUMPDEST PUSH2 0xD5A DUP4 DUP4 DUP4 PUSH1 0x1 PUSH2 0x108B JUMP JUMPDEST POP POP POP JUMP JUMPDEST PUSH0 PUSH0 PUSH2 0xD69 PUSH2 0xD46 JUMP JUMPDEST SWAP1 POP PUSH2 0xD76 DUP6 DUP3 DUP6 PUSH2 0x125A JUMP JUMPDEST PUSH2 0xD81 DUP6 DUP6 DUP6 PUSH2 0xC56 JUMP JUMPDEST PUSH1 0x1 SWAP2 POP POP SWAP4 SWAP3 POP POP POP JUMP JUMPDEST PUSH0 PUSH1 0x5 PUSH0 SWAP1 SLOAD SWAP1 PUSH2 0x100 EXP SWAP1 DIV PUSH20 0xFFFFFFFFFFFFFFFFFFFFFFFFFFFFFFFFFFFFFFFF AND SWAP1 POP DUP2 PUSH1 0x5 PUSH0 PUSH2 0x100 EXP DUP2 SLOAD DUP2 PUSH20 0xFFFFFFFFFFFFFFFFFFFFFFFFFFFFFFFFFFFFFFFF MUL NOT AND SWAP1 DUP4 PUSH20 0xFFFFFFFFFFFFFFFFFFFFFFFFFFFFFFFFFFFFFFFF AND MUL OR SWAP1 SSTORE POP DUP2 PUSH20 0xFFFFFFFFFFFFFFFFFFFFFFFFFFFFFFFFFFFFFFFF AND DUP2 PUSH20 0xFFFFFFFFFFFFFFFFFFFFFFFFFFFFFFFFFFFFFFFF AND PUSH32 0x8BE0079C531659141344CD1FD0A4F28419497F9722A3DAAFE3B4186F6B6457E0 PUSH1 0x40 MLOAD PUSH1 0x40 MLOAD DUP1 SWAP2 SUB SWAP1 LOG3 POP POP JUMP JUMPDEST PUSH0 PUSH0 PUSH2 0xE5A PUSH2 0xD46 JUMP JUMPDEST SWAP1 POP PUSH2 0xE67 DUP2 DUP6 DUP6 PUSH2 0xC56 JUMP JUMPDEST PUSH1 0x1 SWAP2 POP POP SWAP3 SWAP2 POP POP JUMP JUMPDEST PUSH0 PUSH20 0xFFFFFFFFFFFFFFFFFFFFFFFFFFFFFFFFFFFFFFFF AND DUP4 PUSH20 0xFFFFFFFFFFFFFFFFFFFFFFFFFFFFFFFFFFFFFFFF AND SUB PUSH2 0xEC2 JUMPI DUP1 PUSH1 0x2 PUSH0 DUP3 DUP3 SLOAD PUSH2 0xEB6 SWAP2 SWAP1 PUSH2 0x18AE JUMP JUMPDEST SWAP3 POP POP DUP2 SWAP1 SSTORE POP PUSH2 0xF90 JUMP JUMPDEST PUSH0 PUSH0 PUSH0 DUP6 PUSH20 0xFFFFFFFFFFFFFFFFFFFFFFFFFFFFFFFFFFFFFFFF AND PUSH20 0xFFFFFFFFFFFFFFFFFFFFFFFFFFFFFFFFFFFFFFFF AND DUP2 MSTORE PUSH1 0x20 ADD SWAP1 DUP2 MSTORE PUSH1 0x20 ADD PUSH0 KECCAK256 SLOAD SWAP1 POP DUP2 DUP2 LT ISZERO PUSH2 0xF4B JUMPI DUP4 DUP2 DUP4 PUSH1 0x40 MLOAD PUSH32 0xE450D38C00000000000000000000000000000000000000000000000000000000 DUP2 MSTORE PUSH1 0x4 ADD PUSH2 0xF42 SWAP4 SWAP3 SWAP2 SWAP1 PUSH2 0x1C04 JUMP JUMPDEST PUSH1 0x40 MLOAD DUP1 SWAP2 SUB SWAP1 REVERT JUMPDEST DUP2 DUP2 SUB PUSH0 PUSH0 DUP7 PUSH20 0xFFFFFFFFFFFFFFFFFFFFFFFFFFFFFFFFFFFFFFFF AND PUSH20 0xFFFFFFFFFFFFFFFFFFFFFFFFFFFFFFFFFFFFFFFF AND DUP2 MSTORE PUSH1 0x20 ADD SWAP1 DUP2 MSTORE PUSH1 0x20 ADD PUSH0 KECCAK256 DUP2 SWAP1 SSTORE POP POP JUMPDEST PUSH0 PUSH20 0xFFFFFFFFFFFFFFFFFFFFFFFFFFFFFFFFFFFFFFFF AND DUP3 PUSH20 0xFFFFFFFFFFFFFFFFFFFFFFFFFFFFFFFFFFFFFFFF AND SUB PUSH2 0xFD7 JUMPI DUP1 PUSH1 0x2 PUSH0 DUP3 DUP3 SLOAD SUB SWAP3 POP POP DUP2 SWAP1 SSTORE POP PUSH2 0x1021 JUMP JUMPDEST DUP1 PUSH0 PUSH0 DUP5 PUSH20 0xFFFFFFFFFFFFFFFFFFFFFFFFFFFFFFFFFFFFFFFF AND PUSH20 0xFFFFFFFFFFFFFFFFFFFFFFFFFFFFFFFFFFFFFFFF AND DUP2 MSTORE PUSH1 0x20 ADD SWAP1 DUP2 MSTORE PUSH1 0x20 ADD PUSH0 KECCAK256 PUSH0 DUP3 DUP3 SLOAD ADD SWAP3 POP POP DUP2 SWAP1 SSTORE POP JUMPDEST DUP2 PUSH20 0xFFFFFFFFFFFFFFFFFFFFFFFFFFFFFFFFFFFFFFFF AND DUP4 PUSH20 0xFFFFFFFFFFFFFFFFFFFFFFFFFFFFFFFFFFFFFFFF AND PUSH32 0xDDF252AD1BE2C89B69C2B068FC378DAA952BA7F163C4A11628F55A4DF523B3EF DUP4 PUSH1 0x40 MLOAD PUSH2 0x107E SWAP2 SWAP1 PUSH2 0x14B9 JUMP JUMPDEST PUSH1 0x40 MLOAD DUP1 SWAP2 SUB SWAP1 LOG3 POP POP POP JUMP JUMPDEST PUSH0 PUSH20 0xFFFFFFFFFFFFFFFFFFFFFFFFFFFFFFFFFFFFFFFF AND DUP5 PUSH20 0xFFFFFFFFFFFFFFFFFFFFFFFFFFFFFFFFFFFFFFFF AND SUB PUSH2 0x10FB JUMPI PUSH0 PUSH1 0x40 MLOAD PUSH32 0xE602DF0500000000000000000000000000000000000000000000000000000000 DUP2 MSTORE PUSH1 0x4 ADD PUSH2 0x10F2 SWAP2 SWAP1 PUSH2 0x15B7 JUMP JUMPDEST PUSH1 0x40 MLOAD DUP1 SWAP2 SUB SWAP1 REVERT JUMPDEST PUSH0 PUSH20 0xFFFFFFFFFFFFFFFFFFFFFFFFFFFFFFFFFFFFFFFF AND DUP4 PUSH20 0xFFFFFFFFFFFFFFFFFFFFFFFFFFFFFFFFFFFFFFFF AND SUB PUSH2 0x116B JUMPI PUSH0 PUSH1 0x40 MLOAD PUSH32 0x94280D6200000000000000000000000000000000000000000000000000000000 DUP2 MSTORE PUSH1 0x4 ADD PUSH2 0x1162 SWAP2 SWAP1 PUSH2 0x15B7 JUMP JUMPDEST PUSH1 0x40 MLOAD DUP1 SWAP2 SUB SWAP1 REVERT JUMPDEST DUP2 PUSH1 0x1 PUSH0 DUP7 PUSH20 0xFFFFFFFFFFFFFFFFFFFFFFFFFFFFFFFFFFFFFFFF AND PUSH20 0xFFFFFFFFFFFFFFFFFFFFFFFFFFFFFFFFFFFFFFFF AND DUP2 MSTORE PUSH1 0x20 ADD SWAP1 DUP2 MSTORE PUSH1 0x20 ADD PUSH0 KECCAK256 PUSH0 DUP6 PUSH20 0xFFFFFFFFFFFFFFFFFFFFFFFFFFFFFFFFFFFFFFFF AND PUSH20 0xFFFFFFFFFFFFFFFFFFFFFFFFFFFFFFFFFFFFFFFF AND DUP2 MSTORE PUSH1 0x20 ADD SWAP1 DUP2 MSTORE PUSH1 0x20 ADD PUSH0 KECCAK256 DUP2 SWAP1 SSTORE POP DUP1 ISZERO PUSH2 0x1254 JUMPI DUP3 PUSH20 0xFFFFFFFFFFFFFFFFFFFFFFFFFFFFFFFFFFFFFFFF AND DUP5 PUSH20 0xFFFFFFFFFFFFFFFFFFFFFFFFFFFFFFFFFFFFFFFF AND PUSH32 0x8C5BE1E5EBEC7D5BD14F71427D1E84F3DD0314C0F7B2291E5B200AC8C7C3B925 DUP5 PUSH1 0x40 MLOAD PUSH2 0x124B SWAP2 SWAP1 PUSH2 0x14B9 JUMP JUMPDEST PUSH1 0x40 MLOAD DUP1 SWAP2 SUB SWAP1 LOG3 JUMPDEST POP POP POP POP JUMP JUMPDEST PUSH0 PUSH2 0x1265 DUP5 DUP5 PUSH2 0x90A JUMP JUMPDEST SWAP1 POP PUSH32 0xFFFFFFFFFFFFFFFFFFFFFFFFFFFFFFFFFFFFFFFFFFFFFFFFFFFFFFFFFFFFFFFF DUP2 LT ISZERO PUSH2 0x12E7 JUMPI DUP2 DUP2 LT ISZERO PUSH2 0x12D8 JUMPI DUP3 DUP2 DUP4 PUSH1 0x40 MLOAD PUSH32 0xFB8F41B200000000000000000000000000000000000000000000000000000000 DUP2 MSTORE PUSH1 0x4 ADD PUSH2 0x12CF SWAP4 SWAP3 SWAP2 SWAP1 PUSH2 0x1C04 JUMP JUMPDEST PUSH1 0x40 MLOAD DUP1 SWAP2 SUB SWAP1 REVERT JUMPDEST PUSH2 0x12E6 DUP5 DUP5 DUP5 DUP5 SUB PUSH0 PUSH2 0x108B JUMP JUMPDEST JUMPDEST POP POP POP POP JUMP JUMPDEST PUSH0 PUSH0 REVERT JUMPDEST PUSH0 DUP2 SWAP1 POP SWAP2 SWAP1 POP JUMP JUMPDEST PUSH2 0x1303 DUP2 PUSH2 0x12F1 JUMP JUMPDEST DUP2 EQ PUSH2 0x130D JUMPI PUSH0 PUSH0 REVERT JUMPDEST POP JUMP JUMPDEST PUSH0 DUP2 CALLDATALOAD SWAP1 POP PUSH2 0x131E DUP2 PUSH2 0x12FA JUMP JUMPDEST SWAP3 SWAP2 POP POP JUMP JUMPDEST PUSH0 PUSH1 0x20 DUP3 DUP5 SUB SLT ISZERO PUSH2 0x1339 JUMPI PUSH2 0x1338 PUSH2 0x12ED JUMP JUMPDEST JUMPDEST PUSH0 PUSH2 0x1346 DUP5 DUP3 DUP6 ADD PUSH2 0x1310 JUMP JUMPDEST SWAP2 POP POP SWAP3 SWAP2 POP POP JUMP JUMPDEST PUSH0 DUP2 MLOAD SWAP1 POP SWAP2 SWAP1 POP JUMP JUMPDEST PUSH0 DUP3 DUP3 MSTORE PUSH1 0x20 DUP3 ADD SWAP1 POP SWAP3 SWAP2 POP POP JUMP JUMPDEST DUP3 DUP2 DUP4 MCOPY PUSH0 DUP4 DUP4 ADD MSTORE POP POP POP JUMP JUMPDEST PUSH0 PUSH1 0x1F NOT PUSH1 0x1F DUP4 ADD AND SWAP1 POP SWAP2 SWAP1 POP JUMP JUMPDEST PUSH0 PUSH2 0x1391 DUP3 PUSH2 0x134F JUMP JUMPDEST PUSH2 0x139B DUP2 DUP6 PUSH2 0x1359 JUMP JUMPDEST SWAP4 POP PUSH2 0x13AB DUP2 DUP6 PUSH1 0x20 DUP7 ADD PUSH2 0x1369 JUMP JUMPDEST PUSH2 0x13B4 DUP2 PUSH2 0x1377 JUMP JUMPDEST DUP5 ADD SWAP2 POP POP SWAP3 SWAP2 POP POP JUMP JUMPDEST PUSH0 PUSH1 0x20 DUP3 ADD SWAP1 POP DUP2 DUP2 SUB PUSH0 DUP4 ADD MSTORE PUSH2 0x13D7 DUP2 DUP5 PUSH2 0x1387 JUMP JUMPDEST SWAP1 POP SWAP3 SWAP2 POP POP JUMP JUMPDEST PUSH0 PUSH20 0xFFFFFFFFFFFFFFFFFFFFFFFFFFFFFFFFFFFFFFFF DUP3 AND SWAP1 POP SWAP2 SWAP1 POP JUMP JUMPDEST PUSH0 PUSH2 0x1408 DUP3 PUSH2 0x13DF JUMP JUMPDEST SWAP1 POP SWAP2 SWAP1 POP JUMP JUMPDEST PUSH2 0x1418 DUP2 PUSH2 0x13FE JUMP JUMPDEST DUP2 EQ PUSH2 0x1422 JUMPI PUSH0 PUSH0 REVERT JUMPDEST POP JUMP JUMPDEST PUSH0 DUP2 CALLDATALOAD SWAP1 POP PUSH2 0x1433 DUP2 PUSH2 0x140F JUMP JUMPDEST SWAP3 SWAP2 POP POP JUMP JUMPDEST PUSH0 PUSH0 PUSH1 0x40 DUP4 DUP6 SUB SLT ISZERO PUSH2 0x144F JUMPI PUSH2 0x144E PUSH2 0x12ED JUMP JUMPDEST JUMPDEST PUSH0 PUSH2 0x145C DUP6 DUP3 DUP7 ADD PUSH2 0x1425 JUMP JUMPDEST SWAP3 POP POP PUSH1 0x20 PUSH2 0x146D DUP6 DUP3 DUP7 ADD PUSH2 0x1310 JUMP JUMPDEST SWAP2 POP POP SWAP3 POP SWAP3 SWAP1 POP JUMP JUMPDEST PUSH0 DUP2 ISZERO ISZERO SWAP1 POP SWAP2 SWAP1 POP JUMP JUMPDEST PUSH2 0x148B DUP2 PUSH2 0x1477 JUMP JUMPDEST DUP3 MSTORE POP POP JUMP JUMPDEST PUSH0 PUSH1 0x20 DUP3 ADD SWAP1 POP PUSH2 0x14A4 PUSH0 DUP4 ADD DUP5 PUSH2 0x1482 JUMP JUMPDEST SWAP3 SWAP2 POP POP JUMP JUMPDEST PUSH2 0x14B3 DUP2 PUSH2 0x12F1 JUMP JUMPDEST DUP3 MSTORE POP POP JUMP JUMPDEST PUSH0 PUSH1 0x20 DUP3 ADD SWAP1 POP PUSH2 0x14CC PUSH0 DUP4 ADD DUP5 PUSH2 0x14AA JUMP JUMPDEST SWAP3 SWAP2 POP POP JUMP JUMPDEST PUSH0 PUSH0 PUSH0 PUSH1 0x60 DUP5 DUP7 SUB SLT ISZERO PUSH2 0x14E9 JUMPI PUSH2 0x14E8 PUSH2 0x12ED JUMP JUMPDEST JUMPDEST PUSH0 PUSH2 0x14F6 DUP7 DUP3 DUP8 ADD PUSH2 0x1425 JUMP JUMPDEST SWAP4 POP POP PUSH1 0x20 PUSH2 0x1507 DUP7 DUP3 DUP8 ADD PUSH2 0x1425 JUMP JUMPDEST SWAP3 POP POP PUSH1 0x40 PUSH2 0x1518 DUP7 DUP3 DUP8 ADD PUSH2 0x1310 JUMP JUMPDEST SWAP2 POP POP SWAP3 POP SWAP3 POP SWAP3 JUMP JUMPDEST PUSH0 PUSH1 0xFF DUP3 AND SWAP1 POP SWAP2 SWAP1 POP JUMP JUMPDEST PUSH2 0x1537 DUP2 PUSH2 0x1522 JUMP JUMPDEST DUP3 MSTORE POP POP JUMP JUMPDEST PUSH0 PUSH1 0x20 DUP3 ADD SWAP1 POP PUSH2 0x1550 PUSH0 DUP4 ADD DUP5 PUSH2 0x152E JUMP JUMPDEST SWAP3 SWAP2 POP POP JUMP JUMPDEST PUSH0 PUSH1 0x20 DUP3 DUP5 SUB SLT ISZERO PUSH2 0x156B JUMPI PUSH2 0x156A PUSH2 0x12ED JUMP JUMPDEST JUMPDEST PUSH0 PUSH2 0x1578 DUP5 DUP3 DUP6 ADD PUSH2 0x1425 JUMP JUMPDEST SWAP2 POP POP SWAP3 SWAP2 POP POP JUMP JUMPDEST PUSH2 0x158A DUP2 PUSH2 0x13FE JUMP JUMPDEST DUP3 MSTORE POP POP JUMP JUMPDEST PUSH0 PUSH1 0x40 DUP3 ADD SWAP1 POP PUSH2 0x15A3 PUSH0 DUP4 ADD DUP6 PUSH2 0x1581 JUMP JUMPDEST PUSH2 0x15B0 PUSH1 0x20 DUP4 ADD DUP5 PUSH2 0x14AA JUMP JUMPDEST SWAP4 SWAP3 POP POP POP JUMP JUMPDEST PUSH0 PUSH1 0x20 DUP3 ADD SWAP1 POP PUSH2 0x15CA PUSH0 DUP4 ADD DUP5 PUSH2 0x1581 JUMP JUMPDEST SWAP3 SWAP2 POP POP JUMP JUMPDEST PUSH0 PUSH0 PUSH1 0x40 DUP4 DUP6 SUB SLT ISZERO PUSH2 0x15E6 JUMPI PUSH2 0x15E5 PUSH2 0x12ED JUMP JUMPDEST JUMPDEST PUSH0 PUSH2 0x15F3 DUP6 DUP3 DUP7 ADD PUSH2 0x1425 JUMP JUMPDEST SWAP3 POP POP PUSH1 0x20 PUSH2 0x1604 DUP6 DUP3 DUP7 ADD PUSH2 0x1425 JUMP JUMPDEST SWAP2 POP POP SWAP3 POP SWAP3 SWAP1 POP JUMP JUMPDEST PUSH0 DUP2 MLOAD SWAP1 POP SWAP2 SWAP1 POP JUMP JUMPDEST PUSH0 DUP3 DUP3 MSTORE PUSH1 0x20 DUP3 ADD SWAP1 POP SWAP3 SWAP2 POP POP JUMP JUMPDEST PUSH0 DUP2 SWAP1 POP PUSH1 0x20 DUP3 ADD SWAP1 POP SWAP2 SWAP1 POP JUMP JUMPDEST PUSH2 0x1640 DUP2 PUSH2 0x13FE JUMP JUMPDEST DUP3 MSTORE POP POP JUMP JUMPDEST PUSH2 0x164F DUP2 PUSH2 0x12F1 JUMP JUMPDEST DUP3 MSTORE POP POP JUMP JUMPDEST PUSH1 0x40 DUP3 ADD PUSH0 DUP3 ADD MLOAD PUSH2 0x1669 PUSH0 DUP6 ADD DUP3 PUSH2 0x1637 JUMP JUMPDEST POP PUSH1 0x20 DUP3 ADD MLOAD PUSH2 0x167C PUSH1 0x20 DUP6 ADD DUP3 PUSH2 0x1646 JUMP JUMPDEST POP POP POP POP JUMP JUMPDEST PUSH0 PUSH2 0x168D DUP4 DUP4 PUSH2 0x1655 JUMP JUMPDEST PUSH1 0x40 DUP4 ADD SWAP1 POP SWAP3 SWAP2 POP POP JUMP JUMPDEST PUSH0 PUSH1 0x20 DUP3 ADD SWAP1 POP SWAP2 SWAP1 POP JUMP JUMPDEST PUSH0 PUSH2 0x16AF DUP3 PUSH2 0x160E JUMP JUMPDEST PUSH2 0x16B9 DUP2 DUP6 PUSH2 0x1618 JUMP JUMPDEST SWAP4 POP PUSH2 0x16C4 DUP4 PUSH2 0x1628 JUMP JUMPDEST DUP1 PUSH0 JUMPDEST DUP4 DUP2 LT ISZERO PUSH2 0x16F4 JUMPI DUP2 MLOAD PUSH2 0x16DB DUP9 DUP3 PUSH2 0x1682 JUMP JUMPDEST SWAP8 POP PUSH2 0x16E6 DUP4 PUSH2 0x1699 JUMP JUMPDEST SWAP3 POP POP PUSH1 0x1 DUP2 ADD SWAP1 POP PUSH2 0x16C7 JUMP JUMPDEST POP DUP6 SWAP4 POP POP POP POP SWAP3 SWAP2 POP POP JUMP JUMPDEST PUSH0 PUSH1 0x20 DUP3 ADD SWAP1 POP DUP2 DUP2 SUB PUSH0 DUP4 ADD MSTORE PUSH2 0x1719 DUP2 DUP5 PUSH2 0x16A5 JUMP JUMPDEST SWAP1 POP SWAP3 SWAP2 POP POP JUMP JUMPDEST PUSH32 0x4465706C6F796D656E742074696D65206E6F7420736574000000000000000000 PUSH0 DUP3 ADD MSTORE POP JUMP JUMPDEST PUSH0 PUSH2 0x1755 PUSH1 0x17 DUP4 PUSH2 0x1359 JUMP JUMPDEST SWAP2 POP PUSH2 0x1760 DUP3 PUSH2 0x1721 JUMP JUMPDEST PUSH1 0x20 DUP3 ADD SWAP1 POP SWAP2 SWAP1 POP JUMP JUMPDEST PUSH0 PUSH1 0x20 DUP3 ADD SWAP1 POP DUP2 DUP2 SUB PUSH0 DUP4 ADD MSTORE PUSH2 0x1782 DUP2 PUSH2 0x1749 JUMP JUMPDEST SWAP1 POP SWAP2 SWAP1 POP JUMP JUMPDEST PUSH32 0x4E487B7100000000000000000000000000000000000000000000000000000000 PUSH0 MSTORE PUSH1 0x11 PUSH1 0x4 MSTORE PUSH1 0x24 PUSH0 REVERT JUMPDEST PUSH0 PUSH2 0x17C0 DUP3 PUSH2 0x12F1 JUMP JUMPDEST SWAP2 POP PUSH2 0x17CB DUP4 PUSH2 0x12F1 JUMP JUMPDEST SWAP3 POP DUP3 DUP3 SUB SWAP1 POP DUP2 DUP2 GT ISZERO PUSH2 0x17E3 JUMPI PUSH2 0x17E2 PUSH2 0x1789 JUMP JUMPDEST JUMPDEST SWAP3 SWAP2 POP POP JUMP JUMPDEST PUSH32 0x4E487B7100000000000000000000000000000000000000000000000000000000 PUSH0 MSTORE PUSH1 0x12 PUSH1 0x4 MSTORE PUSH1 0x24 PUSH0 REVERT JUMPDEST PUSH0 PUSH2 0x1820 DUP3 PUSH2 0x12F1 JUMP JUMPDEST SWAP2 POP PUSH2 0x182B DUP4 PUSH2 0x12F1 JUMP JUMPDEST SWAP3 POP DUP3 PUSH2 0x183B JUMPI PUSH2 0x183A PUSH2 0x17E9 JUMP JUMPDEST JUMPDEST DUP3 DUP3 DIV SWAP1 POP SWAP3 SWAP2 POP POP JUMP JUMPDEST PUSH32 0x466976652079656172732068617665206E6F7420706173736564207965740000 PUSH0 DUP3 ADD MSTORE POP JUMP JUMPDEST PUSH0 PUSH2 0x187A PUSH1 0x1E DUP4 PUSH2 0x1359 JUMP JUMPDEST SWAP2 POP PUSH2 0x1885 DUP3 PUSH2 0x1846 JUMP JUMPDEST PUSH1 0x20 DUP3 ADD SWAP1 POP SWAP2 SWAP1 POP JUMP JUMPDEST PUSH0 PUSH1 0x20 DUP3 ADD SWAP1 POP DUP2 DUP2 SUB PUSH0 DUP4 ADD MSTORE PUSH2 0x18A7 DUP2 PUSH2 0x186E JUMP JUMPDEST SWAP1 POP SWAP2 SWAP1 POP JUMP JUMPDEST PUSH0 PUSH2 0x18B8 DUP3 PUSH2 0x12F1 JUMP JUMPDEST SWAP2 POP PUSH2 0x18C3 DUP4 PUSH2 0x12F1 JUMP JUMPDEST SWAP3 POP DUP3 DUP3 ADD SWAP1 POP DUP1 DUP3 GT ISZERO PUSH2 0x18DB JUMPI PUSH2 0x18DA PUSH2 0x1789 JUMP JUMPDEST JUMPDEST SWAP3 SWAP2 POP POP JUMP JUMPDEST PUSH0 PUSH2 0x18EB DUP3 PUSH2 0x12F1 JUMP JUMPDEST SWAP2 POP PUSH2 0x18F6 DUP4 PUSH2 0x12F1 JUMP JUMPDEST SWAP3 POP DUP3 DUP3 MUL PUSH2 0x1904 DUP2 PUSH2 0x12F1 JUMP JUMPDEST SWAP2 POP DUP3 DUP3 DIV DUP5 EQ DUP4 ISZERO OR PUSH2 0x191B JUMPI PUSH2 0x191A PUSH2 0x1789 JUMP JUMPDEST JUMPDEST POP SWAP3 SWAP2 POP POP JUMP JUMPDEST PUSH32 0x4E487B7100000000000000000000000000000000000000000000000000000000 PUSH0 MSTORE PUSH1 0x22 PUSH1 0x4 MSTORE PUSH1 0x24 PUSH0 REVERT JUMPDEST PUSH0 PUSH1 0x2 DUP3 DIV SWAP1 POP PUSH1 0x1 DUP3 AND DUP1 PUSH2 0x1966 JUMPI PUSH1 0x7F DUP3 AND SWAP2 POP JUMPDEST PUSH1 0x20 DUP3 LT DUP2 SUB PUSH2 0x1979 JUMPI PUSH2 0x1978 PUSH2 0x1922 JUMP JUMPDEST JUMPDEST POP SWAP2 SWAP1 POP JUMP JUMPDEST PUSH32 0x5465616D20746F6B656E7320617265206C6F636B656400000000000000000000 PUSH0 DUP3 ADD MSTORE POP JUMP JUMPDEST PUSH0 PUSH2 0x19B3 PUSH1 0x16 DUP4 PUSH2 0x1359 JUMP JUMPDEST SWAP2 POP PUSH2 0x19BE DUP3 PUSH2 0x197F JUMP JUMPDEST PUSH1 0x20 DUP3 ADD SWAP1 POP SWAP2 SWAP1 POP JUMP JUMPDEST PUSH0 PUSH1 0x20 DUP3 ADD SWAP1 POP DUP2 DUP2 SUB PUSH0 DUP4 ADD MSTORE PUSH2 0x19E0 DUP2 PUSH2 0x19A7 JUMP JUMPDEST SWAP1 POP SWAP2 SWAP1 POP JUMP JUMPDEST PUSH32 0x496E646578206F7574206F6620626F756E647300000000000000000000000000 PUSH0 DUP3 ADD MSTORE POP JUMP JUMPDEST PUSH0 PUSH2 0x1A1B PUSH1 0x13 DUP4 PUSH2 0x1359 JUMP JUMPDEST SWAP2 POP PUSH2 0x1A26 DUP3 PUSH2 0x19E7 JUMP JUMPDEST PUSH1 0x20 DUP3 ADD SWAP1 POP SWAP2 SWAP1 POP JUMP JUMPDEST PUSH0 PUSH1 0x20 DUP3 ADD SWAP1 POP DUP2 DUP2 SUB PUSH0 DUP4 ADD MSTORE PUSH2 0x1A48 DUP2 PUSH2 0x1A0F JUMP JUMPDEST SWAP1 POP SWAP2 SWAP1 POP JUMP JUMPDEST PUSH32 0x4E487B7100000000000000000000000000000000000000000000000000000000 PUSH0 MSTORE PUSH1 0x32 PUSH1 0x4 MSTORE PUSH1 0x24 PUSH0 REVERT JUMPDEST PUSH2 0x1A85 DUP2 PUSH2 0x13DF JUMP JUMPDEST DUP2 EQ PUSH2 0x1A8F JUMPI PUSH0 PUSH0 REVERT JUMPDEST POP JUMP JUMPDEST PUSH0 DUP2 MLOAD SWAP1 POP PUSH2 0x1AA0 DUP2 PUSH2 0x1A7C JUMP JUMPDEST SWAP3 SWAP2 POP POP JUMP JUMPDEST PUSH0 DUP2 PUSH1 0x2 SIGNEXTEND SWAP1 POP SWAP2 SWAP1 POP JUMP JUMPDEST PUSH2 0x1ABB DUP2 PUSH2 0x1AA6 JUMP JUMPDEST DUP2 EQ PUSH2 0x1AC5 JUMPI PUSH0 PUSH0 REVERT JUMPDEST POP JUMP JUMPDEST PUSH0 DUP2 MLOAD SWAP1 POP PUSH2 0x1AD6 DUP2 PUSH2 0x1AB2 JUMP JUMPDEST SWAP3 SWAP2 POP POP JUMP JUMPDEST PUSH0 PUSH2 0xFFFF DUP3 AND SWAP1 POP SWAP2 SWAP1 POP JUMP JUMPDEST PUSH2 0x1AF2 DUP2 PUSH2 0x1ADC JUMP JUMPDEST DUP2 EQ PUSH2 0x1AFC JUMPI PUSH0 PUSH0 REVERT JUMPDEST POP JUMP JUMPDEST PUSH0 DUP2 MLOAD SWAP1 POP PUSH2 0x1B0D DUP2 PUSH2 0x1AE9 JUMP JUMPDEST SWAP3 SWAP2 POP POP JUMP JUMPDEST PUSH2 0x1B1C DUP2 PUSH2 0x1522 JUMP JUMPDEST DUP2 EQ PUSH2 0x1B26 JUMPI PUSH0 PUSH0 REVERT JUMPDEST POP JUMP JUMPDEST PUSH0 DUP2 MLOAD SWAP1 POP PUSH2 0x1B37 DUP2 PUSH2 0x1B13 JUMP JUMPDEST SWAP3 SWAP2 POP POP JUMP JUMPDEST PUSH2 0x1B46 DUP2 PUSH2 0x1477 JUMP JUMPDEST DUP2 EQ PUSH2 0x1B50 JUMPI PUSH0 PUSH0 REVERT JUMPDEST POP JUMP JUMPDEST PUSH0 DUP2 MLOAD SWAP1 POP PUSH2 0x1B61 DUP2 PUSH2 0x1B3D JUMP JUMPDEST SWAP3 SWAP2 POP POP JUMP JUMPDEST PUSH0 PUSH0 PUSH0 PUSH0 PUSH0 PUSH0 PUSH0 PUSH1 0xE0 DUP9 DUP11 SUB SLT ISZERO PUSH2 0x1B82 JUMPI PUSH2 0x1B81 PUSH2 0x12ED JUMP JUMPDEST JUMPDEST PUSH0 PUSH2 0x1B8F DUP11 DUP3 DUP12 ADD PUSH2 0x1A92 JUMP JUMPDEST SWAP8 POP POP PUSH1 0x20 PUSH2 0x1BA0 DUP11 DUP3 DUP12 ADD PUSH2 0x1AC8 JUMP JUMPDEST SWAP7 POP POP PUSH1 0x40 PUSH2 0x1BB1 DUP11 DUP3 DUP12 ADD PUSH2 0x1AFF JUMP JUMPDEST SWAP6 POP POP PUSH1 0x60 PUSH2 0x1BC2 DUP11 DUP3 DUP12 ADD PUSH2 0x1AFF JUMP JUMPDEST SWAP5 POP POP PUSH1 0x80 PUSH2 0x1BD3 DUP11 DUP3 DUP12 ADD PUSH2 0x1AFF JUMP JUMPDEST SWAP4 POP POP PUSH1 0xA0 PUSH2 0x1BE4 DUP11 DUP3 DUP12 ADD PUSH2 0x1B29 JUMP JUMPDEST SWAP3 POP POP PUSH1 0xC0 PUSH2 0x1BF5 DUP11 DUP3 DUP12 ADD PUSH2 0x1B53 JUMP JUMPDEST SWAP2 POP POP SWAP3 SWAP6 SWAP9 SWAP2 SWAP5 SWAP8 POP SWAP3 SWAP6 POP JUMP JUMPDEST PUSH0 PUSH1 0x60 DUP3 ADD SWAP1 POP PUSH2 0x1C17 PUSH0 DUP4 ADD DUP7 PUSH2 0x1581 JUMP JUMPDEST PUSH2 0x1C24 PUSH1 0x20 DUP4 ADD DUP6 PUSH2 0x14AA JUMP JUMPDEST PUSH2 0x1C31 PUSH1 0x40 DUP4 ADD DUP5 PUSH2 0x14AA JUMP JUMPDEST SWAP5 SWAP4 POP POP POP POP JUMP INVALID LOG2 PUSH5 0x6970667358 0x22 SLT KECCAK256 PUSH27 0x760EAFBC58AC9B3880ED4C4591AEA8276AE27F9839E5897DFF855F REVERT TIMESTAMP 0x4D 0xBA PUSH5 0x736F6C6343 STOP ADDMOD 0x1E STOP CALLER "
				},
				"gasEstimates": {
					"creation": {
						"codeDepositCost": "1455800",
						"executionCost": "infinite",
						"totalCost": "infinite"
					},
					"external": {
						"TEAM_LOCK_PERIOD()": "392",
						"TOTAL_SUPPLY()": "392",
						"allowance(address,address)": "infinite",
						"approve(address,uint256)": "infinite",
						"balanceOf(address)": "2917",
						"buyBack(uint256)": "infinite",
						"decimals()": "383",
						"deploymentTime()": "2513",
						"getCurrentPrice()": "infinite",
						"getTeamMember(uint256)": "infinite",
						"getTeamMemberCount()": "2552",
						"getTeamMembers()": "infinite",
						"name()": "infinite",
						"owner()": "2560",
						"renounceOwnership()": "infinite",
						"symbol()": "infinite",
						"teamLockedUntil()": "2558",
						"totalSupply()": "2522",
						"transfer(address,uint256)": "infinite",
						"transferFrom(address,address,uint256)": "infinite",
						"transferOwnership(address)": "infinite",
						"uniswapPool()": "2530"
					}
				},
				"methodIdentifiers": {
					"TEAM_LOCK_PERIOD()": "35928998",
					"TOTAL_SUPPLY()": "902d55a5",
					"allowance(address,address)": "dd62ed3e",
					"approve(address,uint256)": "095ea7b3",
					"balanceOf(address)": "70a08231",
					"buyBack(uint256)": "053f9040",
					"decimals()": "313ce567",
					"deploymentTime()": "ecda10f5",
					"getCurrentPrice()": "eb91d37e",
					"getTeamMember(uint256)": "88e56ec6",
					"getTeamMemberCount()": "19ca43ab",
					"getTeamMembers()": "efded147",
					"name()": "06fdde03",
					"owner()": "8da5cb5b",
					"renounceOwnership()": "715018a6",
					"symbol()": "95d89b41",
					"teamLockedUntil()": "76ae9b2d",
					"totalSupply()": "18160ddd",
					"transfer(address,uint256)": "a9059cbb",
					"transferFrom(address,address,uint256)": "23b872dd",
					"transferOwnership(address)": "f2fde38b",
					"uniswapPool()": "bdd3d825"
				}
			},
			"storageLayout": {
				"storage": [
					{
						"astId": 892,
						"contract": "contracts/CC/CCToken.sol:CSYDToken",
						"label": "_balances",
						"offset": 0,
						"slot": "0",
						"type": "t_mapping(t_address,t_uint256)"
					},
					{
						"astId": 898,
						"contract": "contracts/CC/CCToken.sol:CSYDToken",
						"label": "_allowances",
						"offset": 0,
						"slot": "1",
						"type": "t_mapping(t_address,t_mapping(t_address,t_uint256))"
					},
					{
						"astId": 900,
						"contract": "contracts/CC/CCToken.sol:CSYDToken",
						"label": "_totalSupply",
						"offset": 0,
						"slot": "2",
						"type": "t_uint256"
					},
					{
						"astId": 902,
						"contract": "contracts/CC/CCToken.sol:CSYDToken",
						"label": "_name",
						"offset": 0,
						"slot": "3",
						"type": "t_string_storage"
					},
					{
						"astId": 904,
						"contract": "contracts/CC/CCToken.sol:CSYDToken",
						"label": "_symbol",
						"offset": 0,
						"slot": "4",
						"type": "t_string_storage"
					},
					{
						"astId": 593,
						"contract": "contracts/CC/CCToken.sol:CSYDToken",
						"label": "_owner",
						"offset": 0,
						"slot": "5",
						"type": "t_address"
					},
					{
						"astId": 217,
						"contract": "contracts/CC/CCToken.sol:CSYDToken",
						"label": "teamMembers",
						"offset": 0,
						"slot": "6",
						"type": "t_array(t_struct(TeamMember)213_storage)dyn_storage"
					},
					{
						"astId": 219,
						"contract": "contracts/CC/CCToken.sol:CSYDToken",
						"label": "deploymentTime",
						"offset": 0,
						"slot": "7",
						"type": "t_uint256"
					},
					{
						"astId": 221,
						"contract": "contracts/CC/CCToken.sol:CSYDToken",
						"label": "teamLockedUntil",
						"offset": 0,
						"slot": "8",
						"type": "t_uint256"
					},
					{
						"astId": 223,
						"contract": "contracts/CC/CCToken.sol:CSYDToken",
						"label": "uniswapPool",
						"offset": 0,
						"slot": "9",
						"type": "t_address"
					}
				],
				"types": {
					"t_address": {
						"encoding": "inplace",
						"label": "address",
						"numberOfBytes": "20"
					},
					"t_array(t_struct(TeamMember)213_storage)dyn_storage": {
						"base": "t_struct(TeamMember)213_storage",
						"encoding": "dynamic_array",
						"label": "struct CSYDToken.TeamMember[]",
						"numberOfBytes": "32"
					},
					"t_mapping(t_address,t_mapping(t_address,t_uint256))": {
						"encoding": "mapping",
						"key": "t_address",
						"label": "mapping(address => mapping(address => uint256))",
						"numberOfBytes": "32",
						"value": "t_mapping(t_address,t_uint256)"
					},
					"t_mapping(t_address,t_uint256)": {
						"encoding": "mapping",
						"key": "t_address",
						"label": "mapping(address => uint256)",
						"numberOfBytes": "32",
						"value": "t_uint256"
					},
					"t_string_storage": {
						"encoding": "bytes",
						"label": "string",
						"numberOfBytes": "32"
					},
					"t_struct(TeamMember)213_storage": {
						"encoding": "inplace",
						"label": "struct CSYDToken.TeamMember",
						"members": [
							{
								"astId": 210,
								"contract": "contracts/CC/CCToken.sol:CSYDToken",
								"label": "memberAddress",
								"offset": 0,
								"slot": "0",
								"type": "t_address"
							},
							{
								"astId": 212,
								"contract": "contracts/CC/CCToken.sol:CSYDToken",
								"label": "investmentAmount",
								"offset": 0,
								"slot": "1",
								"type": "t_uint256"
							}
						],
						"numberOfBytes": "64"
					},
					"t_uint256": {
						"encoding": "inplace",
						"label": "uint256",
						"numberOfBytes": "32"
					}
				}
			},
			"userdoc": {
				"kind": "user",
				"methods": {},
				"version": 1
			}
		}
	}
}