{
	"contracts/CC/CCToken.sol": {
		"CSYDToken": {
			"abi": [
				{
					"inputs": [
						{
							"components": [
								{
									"internalType": "address",
									"name": "memberAddress",
									"type": "address"
								},
								{
									"internalType": "uint256",
									"name": "investmentAmount",
									"type": "uint256"
								}
							],
							"internalType": "struct CSYDToken.TeamMember[]",
							"name": "_teamMembers",
							"type": "tuple[]"
						},
						{
							"internalType": "address",
							"name": "_uniswapPool",
							"type": "address"
						}
					],
					"stateMutability": "nonpayable",
					"type": "constructor"
				},
				{
					"inputs": [
						{
							"internalType": "address",
							"name": "spender",
							"type": "address"
						},
						{
							"internalType": "uint256",
							"name": "allowance",
							"type": "uint256"
						},
						{
							"internalType": "uint256",
							"name": "needed",
							"type": "uint256"
						}
					],
					"name": "ERC20InsufficientAllowance",
					"type": "error"
				},
				{
					"inputs": [
						{
							"internalType": "address",
							"name": "sender",
							"type": "address"
						},
						{
							"internalType": "uint256",
							"name": "balance",
							"type": "uint256"
						},
						{
							"internalType": "uint256",
							"name": "needed",
							"type": "uint256"
						}
					],
					"name": "ERC20InsufficientBalance",
					"type": "error"
				},
				{
					"inputs": [
						{
							"internalType": "address",
							"name": "approver",
							"type": "address"
						}
					],
					"name": "ERC20InvalidApprover",
					"type": "error"
				},
				{
					"inputs": [
						{
							"internalType": "address",
							"name": "receiver",
							"type": "address"
						}
					],
					"name": "ERC20InvalidReceiver",
					"type": "error"
				},
				{
					"inputs": [
						{
							"internalType": "address",
							"name": "sender",
							"type": "address"
						}
					],
					"name": "ERC20InvalidSender",
					"type": "error"
				},
				{
					"inputs": [
						{
							"internalType": "address",
							"name": "spender",
							"type": "address"
						}
					],
					"name": "ERC20InvalidSpender",
					"type": "error"
				},
				{
					"inputs": [
						{
							"internalType": "address",
							"name": "owner",
							"type": "address"
						}
					],
					"name": "OwnableInvalidOwner",
					"type": "error"
				},
				{
					"inputs": [
						{
							"internalType": "address",
							"name": "account",
							"type": "address"
						}
					],
					"name": "OwnableUnauthorizedAccount",
					"type": "error"
				},
				{
					"anonymous": false,
					"inputs": [
						{
							"indexed": true,
							"internalType": "address",
							"name": "owner",
							"type": "address"
						},
						{
							"indexed": true,
							"internalType": "address",
							"name": "spender",
							"type": "address"
						},
						{
							"indexed": false,
							"internalType": "uint256",
							"name": "value",
							"type": "uint256"
						}
					],
					"name": "Approval",
					"type": "event"
				},
				{
					"anonymous": false,
					"inputs": [
						{
							"indexed": true,
							"internalType": "address",
							"name": "previousOwner",
							"type": "address"
						},
						{
							"indexed": true,
							"internalType": "address",
							"name": "newOwner",
							"type": "address"
						}
					],
					"name": "OwnershipTransferred",
					"type": "event"
				},
				{
					"anonymous": false,
					"inputs": [
						{
							"indexed": true,
							"internalType": "address",
							"name": "from",
							"type": "address"
						},
						{
							"indexed": true,
							"internalType": "address",
							"name": "to",
							"type": "address"
						},
						{
							"indexed": false,
							"internalType": "uint256",
							"name": "value",
							"type": "uint256"
						}
					],
					"name": "Transfer",
					"type": "event"
				},
				{
					"inputs": [],
					"name": "TEAM_LOCK_PERIOD",
					"outputs": [
						{
							"internalType": "uint256",
							"name": "",
							"type": "uint256"
						}
					],
					"stateMutability": "view",
					"type": "function"
				},
				{
					"inputs": [],
					"name": "TOTAL_SUPPLY",
					"outputs": [
						{
							"internalType": "uint256",
							"name": "",
							"type": "uint256"
						}
					],
					"stateMutability": "view",
					"type": "function"
				},
				{
					"inputs": [
						{
							"internalType": "address",
							"name": "owner",
							"type": "address"
						},
						{
							"internalType": "address",
							"name": "spender",
							"type": "address"
						}
					],
					"name": "allowance",
					"outputs": [
						{
							"internalType": "uint256",
							"name": "",
							"type": "uint256"
						}
					],
					"stateMutability": "view",
					"type": "function"
				},
				{
					"inputs": [
						{
							"internalType": "address",
							"name": "spender",
							"type": "address"
						},
						{
							"internalType": "uint256",
							"name": "value",
							"type": "uint256"
						}
					],
					"name": "approve",
					"outputs": [
						{
							"internalType": "bool",
							"name": "",
							"type": "bool"
						}
					],
					"stateMutability": "nonpayable",
					"type": "function"
				},
				{
					"inputs": [
						{
							"internalType": "address",
							"name": "account",
							"type": "address"
						}
					],
					"name": "balanceOf",
					"outputs": [
						{
							"internalType": "uint256",
							"name": "",
							"type": "uint256"
						}
					],
					"stateMutability": "view",
					"type": "function"
				},
				{
					"inputs": [],
					"name": "decimals",
					"outputs": [
						{
							"internalType": "uint8",
							"name": "",
							"type": "uint8"
						}
					],
					"stateMutability": "view",
					"type": "function"
				},
				{
					"inputs": [],
					"name": "getCurrentPrice",
					"outputs": [
						{
							"internalType": "uint256",
							"name": "price",
							"type": "uint256"
						}
					],
					"stateMutability": "view",
					"type": "function"
				},
				{
					"inputs": [
						{
							"internalType": "uint256",
							"name": "index",
							"type": "uint256"
						}
					],
					"name": "getTeamMember",
					"outputs": [
						{
							"internalType": "address",
							"name": "",
							"type": "address"
						},
						{
							"internalType": "uint256",
							"name": "",
							"type": "uint256"
						}
					],
					"stateMutability": "view",
					"type": "function"
				},
				{
					"inputs": [],
					"name": "getTeamMemberCount",
					"outputs": [
						{
							"internalType": "uint256",
							"name": "",
							"type": "uint256"
						}
					],
					"stateMutability": "view",
					"type": "function"
				},
				{
					"inputs": [],
					"name": "getTeamMembers",
					"outputs": [
						{
							"components": [
								{
									"internalType": "address",
									"name": "memberAddress",
									"type": "address"
								},
								{
									"internalType": "uint256",
									"name": "investmentAmount",
									"type": "uint256"
								}
							],
							"internalType": "struct CSYDToken.TeamMember[]",
							"name": "",
							"type": "tuple[]"
						}
					],
					"stateMutability": "view",
					"type": "function"
				},
				{
					"inputs": [],
					"name": "name",
					"outputs": [
						{
							"internalType": "string",
							"name": "",
							"type": "string"
						}
					],
					"stateMutability": "view",
					"type": "function"
				},
				{
					"inputs": [],
					"name": "owner",
					"outputs": [
						{
							"internalType": "address",
							"name": "",
							"type": "address"
						}
					],
					"stateMutability": "view",
					"type": "function"
				},
				{
					"inputs": [],
					"name": "renounceOwnership",
					"outputs": [],
					"stateMutability": "nonpayable",
					"type": "function"
				},
				{
					"inputs": [],
					"name": "symbol",
					"outputs": [
						{
							"internalType": "string",
							"name": "",
							"type": "string"
						}
					],
					"stateMutability": "view",
					"type": "function"
				},
				{
					"inputs": [],
					"name": "teamLockedUntil",
					"outputs": [
						{
							"internalType": "uint256",
							"name": "",
							"type": "uint256"
						}
					],
					"stateMutability": "view",
					"type": "function"
				},
				{
					"inputs": [],
					"name": "totalSupply",
					"outputs": [
						{
							"internalType": "uint256",
							"name": "",
							"type": "uint256"
						}
					],
					"stateMutability": "view",
					"type": "function"
				},
				{
					"inputs": [
						{
							"internalType": "address",
							"name": "recipient",
							"type": "address"
						},
						{
							"internalType": "uint256",
							"name": "amount",
							"type": "uint256"
						}
					],
					"name": "transfer",
					"outputs": [
						{
							"internalType": "bool",
							"name": "",
							"type": "bool"
						}
					],
					"stateMutability": "nonpayable",
					"type": "function"
				},
				{
					"inputs": [
						{
							"internalType": "address",
							"name": "sender",
							"type": "address"
						},
						{
							"internalType": "address",
							"name": "recipient",
							"type": "address"
						},
						{
							"internalType": "uint256",
							"name": "amount",
							"type": "uint256"
						}
					],
					"name": "transferFrom",
					"outputs": [
						{
							"internalType": "bool",
							"name": "",
							"type": "bool"
						}
					],
					"stateMutability": "nonpayable",
					"type": "function"
				},
				{
					"inputs": [
						{
							"internalType": "address",
							"name": "newOwner",
							"type": "address"
						}
					],
					"name": "transferOwnership",
					"outputs": [],
					"stateMutability": "nonpayable",
					"type": "function"
				},
				{
					"inputs": [],
					"name": "uniswapPool",
					"outputs": [
						{
							"internalType": "address",
							"name": "",
							"type": "address"
						}
					],
					"stateMutability": "view",
					"type": "function"
				}
			],
			"devdoc": {
				"errors": {
					"ERC20InsufficientAllowance(address,uint256,uint256)": [
						{
							"details": "Indicates a failure with the `spender`’s `allowance`. Used in transfers.",
							"params": {
								"allowance": "Amount of tokens a `spender` is allowed to operate with.",
								"needed": "Minimum amount required to perform a transfer.",
								"spender": "Address that may be allowed to operate on tokens without being their owner."
							}
						}
					],
					"ERC20InsufficientBalance(address,uint256,uint256)": [
						{
							"details": "Indicates an error related to the current `balance` of a `sender`. Used in transfers.",
							"params": {
								"balance": "Current balance for the interacting account.",
								"needed": "Minimum amount required to perform a transfer.",
								"sender": "Address whose tokens are being transferred."
							}
						}
					],
					"ERC20InvalidApprover(address)": [
						{
							"details": "Indicates a failure with the `approver` of a token to be approved. Used in approvals.",
							"params": {
								"approver": "Address initiating an approval operation."
							}
						}
					],
					"ERC20InvalidReceiver(address)": [
						{
							"details": "Indicates a failure with the token `receiver`. Used in transfers.",
							"params": {
								"receiver": "Address to which tokens are being transferred."
							}
						}
					],
					"ERC20InvalidSender(address)": [
						{
							"details": "Indicates a failure with the token `sender`. Used in transfers.",
							"params": {
								"sender": "Address whose tokens are being transferred."
							}
						}
					],
					"ERC20InvalidSpender(address)": [
						{
							"details": "Indicates a failure with the `spender` to be approved. Used in approvals.",
							"params": {
								"spender": "Address that may be allowed to operate on tokens without being their owner."
							}
						}
					],
					"OwnableInvalidOwner(address)": [
						{
							"details": "The owner is not a valid owner account. (eg. `address(0)`)"
						}
					],
					"OwnableUnauthorizedAccount(address)": [
						{
							"details": "The caller account is not authorized to perform an operation."
						}
					]
				},
				"events": {
					"Approval(address,address,uint256)": {
						"details": "Emitted when the allowance of a `spender` for an `owner` is set by a call to {approve}. `value` is the new allowance."
					},
					"Transfer(address,address,uint256)": {
						"details": "Emitted when `value` tokens are moved from one account (`from`) to another (`to`). Note that `value` may be zero."
					}
				},
				"kind": "dev",
				"methods": {
					"allowance(address,address)": {
						"details": "Returns the remaining number of tokens that `spender` will be allowed to spend on behalf of `owner` through {transferFrom}. This is zero by default. This value changes when {approve} or {transferFrom} are called."
					},
					"approve(address,uint256)": {
						"details": "See {IERC20-approve}. NOTE: If `value` is the maximum `uint256`, the allowance is not updated on `transferFrom`. This is semantically equivalent to an infinite approval. Requirements: - `spender` cannot be the zero address."
					},
					"balanceOf(address)": {
						"details": "Returns the value of tokens owned by `account`."
					},
					"decimals()": {
						"details": "Returns the number of decimals used to get its user representation. For example, if `decimals` equals `2`, a balance of `505` tokens should be displayed to a user as `5.05` (`505 / 10 ** 2`). Tokens usually opt for a value of 18, imitating the relationship between Ether and Wei. This is the default value returned by this function, unless it's overridden. NOTE: This information is only used for _display_ purposes: it in no way affects any of the arithmetic of the contract, including {IERC20-balanceOf} and {IERC20-transfer}."
					},
					"name()": {
						"details": "Returns the name of the token."
					},
					"owner()": {
						"details": "Returns the address of the current owner."
					},
					"renounceOwnership()": {
						"details": "Leaves the contract without owner. It will not be possible to call `onlyOwner` functions. Can only be called by the current owner. NOTE: Renouncing ownership will leave the contract without an owner, thereby disabling any functionality that is only available to the owner."
					},
					"symbol()": {
						"details": "Returns the symbol of the token, usually a shorter version of the name."
					},
					"totalSupply()": {
						"details": "Returns the value of tokens in existence."
					},
					"transferOwnership(address)": {
						"details": "Transfers ownership of the contract to a new account (`newOwner`). Can only be called by the current owner."
					}
				},
				"version": 1
			},
			"evm": {
				"assembly": "    /* \"contracts/CC/CCToken.sol\":2608:6286  contract CSYDToken is ERC20, Ownable {... */\n  mstore(0x40, 0x80)\n    /* \"contracts/CC/CCToken.sol\":3101:4763  constructor(TeamMember[] memory _teamMembers, address _uniswapPool) ... */\n  callvalue\n  dup1\n  iszero\n  tag_1\n  jumpi\n  revert(0x00, 0x00)\ntag_1:\n  pop\n  mload(0x40)\n  sub(codesize, bytecodeSize)\n  dup1\n  bytecodeSize\n  dup4\n  codecopy\n  dup2\n  dup2\n  add\n  0x40\n  mstore\n  dup2\n  add\n  swap1\n  tag_2\n  swap2\n  swap1\n  tag_3\n  jump\t// in\ntag_2:\n    /* \"contracts/CC/CCToken.sol\":3218:3228  msg.sender */\n  caller\n    /* \"https://github.com/OpenZeppelin/openzeppelin-contracts/blob/master/contracts/token/ERC20/ERC20.sol\":1582:1695  constructor(string memory name_, string memory symbol_) {... */\n  mload(0x40)\n  dup1\n  0x40\n  add\n  0x40\n  mstore\n  dup1\n  0x04\n  dup2\n  mstore\n  0x20\n  add\n  0x6373796400000000000000000000000000000000000000000000000000000000\n  dup2\n  mstore\n  pop\n  mload(0x40)\n  dup1\n  0x40\n  add\n  0x40\n  mstore\n  dup1\n  0x04\n  dup2\n  mstore\n  0x20\n  add\n  0x4353594400000000000000000000000000000000000000000000000000000000\n  dup2\n  mstore\n  pop\n    /* \"https://github.com/OpenZeppelin/openzeppelin-contracts/blob/master/contracts/token/ERC20/ERC20.sol\":1656:1661  name_ */\n  dup2\n    /* \"https://github.com/OpenZeppelin/openzeppelin-contracts/blob/master/contracts/token/ERC20/ERC20.sol\":1648:1653  _name */\n  0x03\n    /* \"https://github.com/OpenZeppelin/openzeppelin-contracts/blob/master/contracts/token/ERC20/ERC20.sol\":1648:1661  _name = name_ */\n  swap1\n  dup2\n  tag_8\n  swap2\n  swap1\n  tag_9\n  jump\t// in\ntag_8:\n  pop\n    /* \"https://github.com/OpenZeppelin/openzeppelin-contracts/blob/master/contracts/token/ERC20/ERC20.sol\":1681:1688  symbol_ */\n  dup1\n    /* \"https://github.com/OpenZeppelin/openzeppelin-contracts/blob/master/contracts/token/ERC20/ERC20.sol\":1671:1678  _symbol */\n  0x04\n    /* \"https://github.com/OpenZeppelin/openzeppelin-contracts/blob/master/contracts/token/ERC20/ERC20.sol\":1671:1688  _symbol = symbol_ */\n  swap1\n  dup2\n  tag_10\n  swap2\n  swap1\n  tag_9\n  jump\t// in\ntag_10:\n  pop\n    /* \"https://github.com/OpenZeppelin/openzeppelin-contracts/blob/master/contracts/token/ERC20/ERC20.sol\":1582:1695  constructor(string memory name_, string memory symbol_) {... */\n  pop\n  pop\n    /* \"https://github.com/OpenZeppelin/openzeppelin-contracts/blob/master/contracts/access/Ownable.sol\":1297:1298  0 */\n  0x00\n    /* \"https://github.com/OpenZeppelin/openzeppelin-contracts/blob/master/contracts/access/Ownable.sol\":1273:1299  initialOwner == address(0) */\n  0xffffffffffffffffffffffffffffffffffffffff\n  and\n    /* \"https://github.com/OpenZeppelin/openzeppelin-contracts/blob/master/contracts/access/Ownable.sol\":1273:1285  initialOwner */\n  dup2\n    /* \"https://github.com/OpenZeppelin/openzeppelin-contracts/blob/master/contracts/access/Ownable.sol\":1273:1299  initialOwner == address(0) */\n  0xffffffffffffffffffffffffffffffffffffffff\n  and\n  sub\n    /* \"https://github.com/OpenZeppelin/openzeppelin-contracts/blob/master/contracts/access/Ownable.sol\":1269:1364  if (initialOwner == address(0)) {... */\n  tag_12\n  jumpi\n    /* \"https://github.com/OpenZeppelin/openzeppelin-contracts/blob/master/contracts/access/Ownable.sol\":1350:1351  0 */\n  0x00\n    /* \"https://github.com/OpenZeppelin/openzeppelin-contracts/blob/master/contracts/access/Ownable.sol\":1322:1353  OwnableInvalidOwner(address(0)) */\n  mload(0x40)\n  0x1e4fbdf700000000000000000000000000000000000000000000000000000000\n  dup2\n  mstore\n  0x04\n  add\n  tag_13\n  swap2\n  swap1\n  tag_14\n  jump\t// in\ntag_13:\n  mload(0x40)\n  dup1\n  swap2\n  sub\n  swap1\n  revert\n    /* \"https://github.com/OpenZeppelin/openzeppelin-contracts/blob/master/contracts/access/Ownable.sol\":1269:1364  if (initialOwner == address(0)) {... */\ntag_12:\n    /* \"https://github.com/OpenZeppelin/openzeppelin-contracts/blob/master/contracts/access/Ownable.sol\":1373:1405  _transferOwnership(initialOwner) */\n  tag_15\n    /* \"https://github.com/OpenZeppelin/openzeppelin-contracts/blob/master/contracts/access/Ownable.sol\":1392:1404  initialOwner */\n  dup2\n    /* \"https://github.com/OpenZeppelin/openzeppelin-contracts/blob/master/contracts/access/Ownable.sol\":1373:1391  _transferOwnership */\n  shl(0x20, tag_16)\n    /* \"https://github.com/OpenZeppelin/openzeppelin-contracts/blob/master/contracts/access/Ownable.sol\":1373:1405  _transferOwnership(initialOwner) */\n  0x20\n  shr\n  jump\t// in\ntag_15:\n    /* \"https://github.com/OpenZeppelin/openzeppelin-contracts/blob/master/contracts/access/Ownable.sol\":1225:1412  constructor(address initialOwner) {... */\n  pop\n    /* \"contracts/CC/CCToken.sol\":3276:3277  0 */\n  0x00\n    /* \"contracts/CC/CCToken.sol\":3254:3266  _teamMembers */\n  dup3\n    /* \"contracts/CC/CCToken.sol\":3254:3273  _teamMembers.length */\n  mload\n    /* \"contracts/CC/CCToken.sol\":3254:3277  _teamMembers.length > 0 */\n  gt\n    /* \"contracts/CC/CCToken.sol\":3246:3315  require(_teamMembers.length > 0, \"At least one team member required\") */\n  tag_18\n  jumpi\n  mload(0x40)\n  0x08c379a000000000000000000000000000000000000000000000000000000000\n  dup2\n  mstore\n  0x04\n  add\n  tag_19\n  swap1\n  tag_20\n  jump\t// in\ntag_19:\n  mload(0x40)\n  dup1\n  swap2\n  sub\n  swap1\n  revert\ntag_18:\n    /* \"contracts/CC/CCToken.sol\":3340:3352  _uniswapPool */\n  dup1\n    /* \"contracts/CC/CCToken.sol\":3326:3337  uniswapPool */\n  0x08\n  0x00\n    /* \"contracts/CC/CCToken.sol\":3326:3352  uniswapPool = _uniswapPool */\n  0x0100\n  exp\n  dup2\n  sload\n  dup2\n  0xffffffffffffffffffffffffffffffffffffffff\n  mul\n  not\n  and\n  swap1\n  dup4\n  0xffffffffffffffffffffffffffffffffffffffff\n  and\n  mul\n  or\n  swap1\n  sstore\n  pop\n    /* \"contracts/CC/CCToken.sol\":3365:3388  uint256 totalInvestment */\n  0x00\n    /* \"contracts/CC/CCToken.sol\":3391:3392  0 */\n  0x00\n    /* \"contracts/CC/CCToken.sol\":3365:3392  uint256 totalInvestment = 0 */\n  swap1\n  pop\n    /* \"contracts/CC/CCToken.sol\":3461:3470  uint256 i */\n  0x00\n    /* \"contracts/CC/CCToken.sol\":3473:3474  0 */\n  0x00\n    /* \"contracts/CC/CCToken.sol\":3461:3474  uint256 i = 0 */\n  swap1\n  pop\n    /* \"contracts/CC/CCToken.sol\":3456:3654  for (uint256 i = 0; i < _teamMembers.length; i++) {... */\ntag_21:\n    /* \"contracts/CC/CCToken.sol\":3480:3492  _teamMembers */\n  dup4\n    /* \"contracts/CC/CCToken.sol\":3480:3499  _teamMembers.length */\n  mload\n    /* \"contracts/CC/CCToken.sol\":3476:3477  i */\n  dup2\n    /* \"contracts/CC/CCToken.sol\":3476:3499  i < _teamMembers.length */\n  lt\n    /* \"contracts/CC/CCToken.sol\":3456:3654  for (uint256 i = 0; i < _teamMembers.length; i++) {... */\n  iszero\n  tag_22\n  jumpi\n    /* \"contracts/CC/CCToken.sol\":3540:3552  _teamMembers */\n  dup4\n    /* \"contracts/CC/CCToken.sol\":3553:3554  i */\n  dup2\n    /* \"contracts/CC/CCToken.sol\":3540:3555  _teamMembers[i] */\n  dup2\n  mload\n  dup2\n  lt\n  tag_24\n  jumpi\n  tag_25\n  tag_26\n  jump\t// in\ntag_25:\ntag_24:\n  0x20\n  mul\n  0x20\n  add\n  add\n  mload\n    /* \"contracts/CC/CCToken.sol\":3540:3572  _teamMembers[i].investmentAmount */\n  0x20\n  add\n  mload\n    /* \"contracts/CC/CCToken.sol\":3521:3572  totalInvestment += _teamMembers[i].investmentAmount */\n  dup3\n  tag_27\n  swap2\n  swap1\n  tag_28\n  jump\t// in\ntag_27:\n  swap2\n  pop\n    /* \"contracts/CC/CCToken.sol\":3587:3598  teamMembers */\n  0x06\n    /* \"contracts/CC/CCToken.sol\":3604:3616  _teamMembers */\n  dup5\n    /* \"contracts/CC/CCToken.sol\":3617:3618  i */\n  dup3\n    /* \"contracts/CC/CCToken.sol\":3604:3619  _teamMembers[i] */\n  dup2\n  mload\n  dup2\n  lt\n  tag_29\n  jumpi\n  tag_30\n  tag_26\n  jump\t// in\ntag_30:\ntag_29:\n  0x20\n  mul\n  0x20\n  add\n  add\n  mload\n    /* \"contracts/CC/CCToken.sol\":3587:3620  teamMembers.push(_teamMembers[i]) */\n  swap1\n  dup1\n  0x01\n  dup2\n  sload\n  add\n  dup1\n  dup3\n  sstore\n  dup1\n  swap2\n  pop\n  pop\n  0x01\n  swap1\n  sub\n  swap1\n  0x00\n  mstore\n  keccak256(0x00, 0x20)\n  swap1\n  0x02\n  mul\n  add\n  0x00\n  swap1\n  swap2\n  swap1\n  swap2\n  swap1\n  swap2\n  pop\n  0x00\n  dup3\n  add\n  mload\n  dup2\n  0x00\n  add\n  exp(0x0100, 0x00)\n  dup2\n  sload\n  dup2\n  0xffffffffffffffffffffffffffffffffffffffff\n  mul\n  not\n  and\n  swap1\n  dup4\n  0xffffffffffffffffffffffffffffffffffffffff\n  and\n  mul\n  or\n  swap1\n  sstore\n  pop\n  0x20\n  dup3\n  add\n  mload\n  dup2\n  0x01\n  add\n  sstore\n  pop\n  pop\n    /* \"contracts/CC/CCToken.sol\":3501:3504  i++ */\n  dup1\n  dup1\n  0x01\n  add\n  swap2\n  pop\n  pop\n    /* \"contracts/CC/CCToken.sol\":3456:3654  for (uint256 i = 0; i < _teamMembers.length; i++) {... */\n  jump(tag_21)\ntag_22:\n  pop\n    /* \"contracts/CC/CCToken.sol\":3666:3680  uint256 market */\n  0x00\n    /* \"contracts/CC/CCToken.sol\":3703:3706  100 */\n  0x64\n    /* \"contracts/CC/CCToken.sol\":3698:3700  80 */\n  0x50\n    /* \"contracts/CC/CCToken.sol\":2695:2715  187_500_000 * 10**18 */\n  0x9b18ab5df7180b6b800000\n    /* \"contracts/CC/CCToken.sol\":3683:3700  TOTAL_SUPPLY * 80 */\n  tag_32\n  swap2\n  swap1\n  tag_33\n  jump\t// in\ntag_32:\n    /* \"contracts/CC/CCToken.sol\":3683:3706  TOTAL_SUPPLY * 80 / 100 */\n  tag_34\n  swap2\n  swap1\n  tag_35\n  jump\t// in\ntag_34:\n    /* \"contracts/CC/CCToken.sol\":3666:3706  uint256 market = TOTAL_SUPPLY * 80 / 100 */\n  swap1\n  pop\n    /* \"contracts/CC/CCToken.sol\":3736:3761  uint256 totalDistribution */\n  0x00\n    /* \"contracts/CC/CCToken.sol\":3764:3765  0 */\n  0x00\n    /* \"contracts/CC/CCToken.sol\":3736:3765  uint256 totalDistribution = 0 */\n  swap1\n  pop\n    /* \"contracts/CC/CCToken.sol\":3814:3823  uint256 i */\n  0x00\n    /* \"contracts/CC/CCToken.sol\":3826:3827  0 */\n  0x00\n    /* \"contracts/CC/CCToken.sol\":3814:3827  uint256 i = 0 */\n  swap1\n  pop\n    /* \"contracts/CC/CCToken.sol\":3809:4090  for (uint256 i = 0; i < teamMembers.length; i++) {... */\ntag_36:\n    /* \"contracts/CC/CCToken.sol\":3833:3844  teamMembers */\n  0x06\n    /* \"contracts/CC/CCToken.sol\":3833:3851  teamMembers.length */\n  dup1\n  sload\n  swap1\n  pop\n    /* \"contracts/CC/CCToken.sol\":3829:3830  i */\n  dup2\n    /* \"contracts/CC/CCToken.sol\":3829:3851  i < teamMembers.length */\n  lt\n    /* \"contracts/CC/CCToken.sol\":3809:4090  for (uint256 i = 0; i < teamMembers.length; i++) {... */\n  iszero\n  tag_37\n  jumpi\n    /* \"contracts/CC/CCToken.sol\":3873:3886  uint256 share */\n  0x00\n    /* \"contracts/CC/CCToken.sol\":3934:3949  totalInvestment */\n  dup5\n    /* \"contracts/CC/CCToken.sol\":3924:3930  market */\n  dup5\n    /* \"contracts/CC/CCToken.sol\":3890:3901  teamMembers */\n  0x06\n    /* \"contracts/CC/CCToken.sol\":3902:3903  i */\n  dup5\n    /* \"contracts/CC/CCToken.sol\":3890:3904  teamMembers[i] */\n  dup2\n  sload\n  dup2\n  lt\n  tag_39\n  jumpi\n  tag_40\n  tag_26\n  jump\t// in\ntag_40:\ntag_39:\n  swap1\n  0x00\n  mstore\n  keccak256(0x00, 0x20)\n  swap1\n  0x02\n  mul\n  add\n    /* \"contracts/CC/CCToken.sol\":3890:3921  teamMembers[i].investmentAmount */\n  0x01\n  add\n  sload\n    /* \"contracts/CC/CCToken.sol\":3890:3930  teamMembers[i].investmentAmount * market */\n  tag_42\n  swap2\n  swap1\n  tag_33\n  jump\t// in\ntag_42:\n    /* \"contracts/CC/CCToken.sol\":3889:3949  (teamMembers[i].investmentAmount * market) / totalInvestment */\n  tag_43\n  swap2\n  swap1\n  tag_35\n  jump\t// in\ntag_43:\n    /* \"contracts/CC/CCToken.sol\":3873:3949  uint256 share = (teamMembers[i].investmentAmount * market) / totalInvestment */\n  swap1\n  pop\n    /* \"contracts/CC/CCToken.sol\":3995:4037  _mint(teamMembers[i].memberAddress, share) */\n  tag_44\n    /* \"contracts/CC/CCToken.sol\":4001:4012  teamMembers */\n  0x06\n    /* \"contracts/CC/CCToken.sol\":4013:4014  i */\n  dup4\n    /* \"contracts/CC/CCToken.sol\":4001:4015  teamMembers[i] */\n  dup2\n  sload\n  dup2\n  lt\n  tag_45\n  jumpi\n  tag_46\n  tag_26\n  jump\t// in\ntag_46:\ntag_45:\n  swap1\n  0x00\n  mstore\n  keccak256(0x00, 0x20)\n  swap1\n  0x02\n  mul\n  add\n    /* \"contracts/CC/CCToken.sol\":4001:4029  teamMembers[i].memberAddress */\n  0x00\n  add\n  0x00\n  swap1\n  sload\n  swap1\n  0x0100\n  exp\n  swap1\n  div\n  0xffffffffffffffffffffffffffffffffffffffff\n  and\n    /* \"contracts/CC/CCToken.sol\":4031:4036  share */\n  dup3\n    /* \"contracts/CC/CCToken.sol\":3995:4000  _mint */\n  shl(0x20, tag_48)\n    /* \"contracts/CC/CCToken.sol\":3995:4037  _mint(teamMembers[i].memberAddress, share) */\n  0x20\n  shr\n  jump\t// in\ntag_44:\n    /* \"contracts/CC/CCToken.sol\":4073:4078  share */\n  dup1\n    /* \"contracts/CC/CCToken.sol\":4052:4078  totalDistribution += share */\n  dup4\n  tag_49\n  swap2\n  swap1\n  tag_28\n  jump\t// in\ntag_49:\n  swap3\n  pop\n    /* \"contracts/CC/CCToken.sol\":3858:4090  {... */\n  pop\n    /* \"contracts/CC/CCToken.sol\":3853:3856  i++ */\n  dup1\n  dup1\n  0x01\n  add\n  swap2\n  pop\n  pop\n    /* \"contracts/CC/CCToken.sol\":3809:4090  for (uint256 i = 0; i < teamMembers.length; i++) {... */\n  jump(tag_36)\ntag_37:\n  pop\n    /* \"contracts/CC/CCToken.sol\":4189:4195  market */\n  dup2\n    /* \"contracts/CC/CCToken.sol\":4168:4185  totalDistribution */\n  dup2\n    /* \"contracts/CC/CCToken.sol\":4168:4195  totalDistribution <= market */\n  gt\n  iszero\n    /* \"contracts/CC/CCToken.sol\":4160:4233  require(totalDistribution <= market, \"Total distribution exceeds market\") */\n  tag_50\n  jumpi\n  mload(0x40)\n  0x08c379a000000000000000000000000000000000000000000000000000000000\n  dup2\n  mstore\n  0x04\n  add\n  tag_51\n  swap1\n  tag_52\n  jump\t// in\ntag_51:\n  mload(0x40)\n  dup1\n  swap2\n  sub\n  swap1\n  revert\ntag_50:\n    /* \"contracts/CC/CCToken.sol\":4246:4291  _mint(msg.sender, market - totalDistribution) */\n  tag_53\n    /* \"contracts/CC/CCToken.sol\":4252:4262  msg.sender */\n  caller\n    /* \"contracts/CC/CCToken.sol\":4273:4290  totalDistribution */\n  dup3\n    /* \"contracts/CC/CCToken.sol\":4264:4270  market */\n  dup5\n    /* \"contracts/CC/CCToken.sol\":4264:4290  market - totalDistribution */\n  tag_54\n  swap2\n  swap1\n  tag_55\n  jump\t// in\ntag_54:\n    /* \"contracts/CC/CCToken.sol\":4246:4251  _mint */\n  shl(0x20, tag_48)\n    /* \"contracts/CC/CCToken.sol\":4246:4291  _mint(msg.sender, market - totalDistribution) */\n  0x20\n  shr\n  jump\t// in\ntag_53:\n    /* \"contracts/CC/CCToken.sol\":4348:4393  _mint(address(this), TOTAL_SUPPLY * 10 / 100) */\n  tag_56\n    /* \"contracts/CC/CCToken.sol\":4362:4366  this */\n  address\n    /* \"contracts/CC/CCToken.sol\":4389:4392  100 */\n  0x64\n    /* \"contracts/CC/CCToken.sol\":4384:4386  10 */\n  0x0a\n    /* \"contracts/CC/CCToken.sol\":2695:2715  187_500_000 * 10**18 */\n  0x9b18ab5df7180b6b800000\n    /* \"contracts/CC/CCToken.sol\":4369:4386  TOTAL_SUPPLY * 10 */\n  tag_57\n  swap2\n  swap1\n  tag_33\n  jump\t// in\ntag_57:\n    /* \"contracts/CC/CCToken.sol\":4369:4392  TOTAL_SUPPLY * 10 / 100 */\n  tag_58\n  swap2\n  swap1\n  tag_35\n  jump\t// in\ntag_58:\n    /* \"contracts/CC/CCToken.sol\":4348:4353  _mint */\n  shl(0x20, tag_48)\n    /* \"contracts/CC/CCToken.sol\":4348:4393  _mint(address(this), TOTAL_SUPPLY * 10 / 100) */\n  0x20\n  shr\n  jump\t// in\ntag_56:\n    /* \"contracts/CC/CCToken.sol\":2780:2792  3 * 365 days */\n  0x05a39a80\n    /* \"contracts/CC/CCToken.sol\":4440:4455  block.timestamp */\n  timestamp\n    /* \"contracts/CC/CCToken.sol\":4440:4474  block.timestamp + TEAM_LOCK_PERIOD */\n  tag_59\n  swap2\n  swap1\n  tag_28\n  jump\t// in\ntag_59:\n    /* \"contracts/CC/CCToken.sol\":4422:4437  teamLockedUntil */\n  0x07\n    /* \"contracts/CC/CCToken.sol\":4422:4474  teamLockedUntil = block.timestamp + TEAM_LOCK_PERIOD */\n  dup2\n  swap1\n  sstore\n  pop\n    /* \"contracts/CC/CCToken.sol\":3235:4763  {... */\n  pop\n  pop\n  pop\n    /* \"contracts/CC/CCToken.sol\":3101:4763  constructor(TeamMember[] memory _teamMembers, address _uniswapPool) ... */\n  pop\n  pop\n    /* \"contracts/CC/CCToken.sol\":2608:6286  contract CSYDToken is ERC20, Ownable {... */\n  jump(tag_60)\n    /* \"https://github.com/OpenZeppelin/openzeppelin-contracts/blob/master/contracts/access/Ownable.sol\":2912:3099  function _transferOwnership(address newOwner) internal virtual {... */\ntag_16:\n    /* \"https://github.com/OpenZeppelin/openzeppelin-contracts/blob/master/contracts/access/Ownable.sol\":2985:3001  address oldOwner */\n  0x00\n    /* \"https://github.com/OpenZeppelin/openzeppelin-contracts/blob/master/contracts/access/Ownable.sol\":3004:3010  _owner */\n  0x05\n  0x00\n  swap1\n  sload\n  swap1\n  0x0100\n  exp\n  swap1\n  div\n  0xffffffffffffffffffffffffffffffffffffffff\n  and\n    /* \"https://github.com/OpenZeppelin/openzeppelin-contracts/blob/master/contracts/access/Ownable.sol\":2985:3010  address oldOwner = _owner */\n  swap1\n  pop\n    /* \"https://github.com/OpenZeppelin/openzeppelin-contracts/blob/master/contracts/access/Ownable.sol\":3029:3037  newOwner */\n  dup2\n    /* \"https://github.com/OpenZeppelin/openzeppelin-contracts/blob/master/contracts/access/Ownable.sol\":3020:3026  _owner */\n  0x05\n  0x00\n    /* \"https://github.com/OpenZeppelin/openzeppelin-contracts/blob/master/contracts/access/Ownable.sol\":3020:3037  _owner = newOwner */\n  0x0100\n  exp\n  dup2\n  sload\n  dup2\n  0xffffffffffffffffffffffffffffffffffffffff\n  mul\n  not\n  and\n  swap1\n  dup4\n  0xffffffffffffffffffffffffffffffffffffffff\n  and\n  mul\n  or\n  swap1\n  sstore\n  pop\n    /* \"https://github.com/OpenZeppelin/openzeppelin-contracts/blob/master/contracts/access/Ownable.sol\":3083:3091  newOwner */\n  dup2\n    /* \"https://github.com/OpenZeppelin/openzeppelin-contracts/blob/master/contracts/access/Ownable.sol\":3052:3092  OwnershipTransferred(oldOwner, newOwner) */\n  0xffffffffffffffffffffffffffffffffffffffff\n  and\n    /* \"https://github.com/OpenZeppelin/openzeppelin-contracts/blob/master/contracts/access/Ownable.sol\":3073:3081  oldOwner */\n  dup2\n    /* \"https://github.com/OpenZeppelin/openzeppelin-contracts/blob/master/contracts/access/Ownable.sol\":3052:3092  OwnershipTransferred(oldOwner, newOwner) */\n  0xffffffffffffffffffffffffffffffffffffffff\n  and\n  0x8be0079c531659141344cd1fd0a4f28419497f9722a3daafe3b4186f6b6457e0\n  mload(0x40)\n  mload(0x40)\n  dup1\n  swap2\n  sub\n  swap1\n  log3\n    /* \"https://github.com/OpenZeppelin/openzeppelin-contracts/blob/master/contracts/access/Ownable.sol\":2975:3099  {... */\n  pop\n    /* \"https://github.com/OpenZeppelin/openzeppelin-contracts/blob/master/contracts/access/Ownable.sol\":2912:3099  function _transferOwnership(address newOwner) internal virtual {... */\n  pop\n  jump\t// out\n    /* \"https://github.com/OpenZeppelin/openzeppelin-contracts/blob/master/contracts/token/ERC20/ERC20.sol\":7362:7570  function _mint(address account, uint256 value) internal {... */\ntag_48:\n    /* \"https://github.com/OpenZeppelin/openzeppelin-contracts/blob/master/contracts/token/ERC20/ERC20.sol\":7451:7452  0 */\n  0x00\n    /* \"https://github.com/OpenZeppelin/openzeppelin-contracts/blob/master/contracts/token/ERC20/ERC20.sol\":7432:7453  account == address(0) */\n  0xffffffffffffffffffffffffffffffffffffffff\n  and\n    /* \"https://github.com/OpenZeppelin/openzeppelin-contracts/blob/master/contracts/token/ERC20/ERC20.sol\":7432:7439  account */\n  dup3\n    /* \"https://github.com/OpenZeppelin/openzeppelin-contracts/blob/master/contracts/token/ERC20/ERC20.sol\":7432:7453  account == address(0) */\n  0xffffffffffffffffffffffffffffffffffffffff\n  and\n  sub\n    /* \"https://github.com/OpenZeppelin/openzeppelin-contracts/blob/master/contracts/token/ERC20/ERC20.sol\":7428:7519  if (account == address(0)) {... */\n  tag_63\n  jumpi\n    /* \"https://github.com/OpenZeppelin/openzeppelin-contracts/blob/master/contracts/token/ERC20/ERC20.sol\":7505:7506  0 */\n  0x00\n    /* \"https://github.com/OpenZeppelin/openzeppelin-contracts/blob/master/contracts/token/ERC20/ERC20.sol\":7476:7508  ERC20InvalidReceiver(address(0)) */\n  mload(0x40)\n  0xec442f0500000000000000000000000000000000000000000000000000000000\n  dup2\n  mstore\n  0x04\n  add\n  tag_64\n  swap2\n  swap1\n  tag_14\n  jump\t// in\ntag_64:\n  mload(0x40)\n  dup1\n  swap2\n  sub\n  swap1\n  revert\n    /* \"https://github.com/OpenZeppelin/openzeppelin-contracts/blob/master/contracts/token/ERC20/ERC20.sol\":7428:7519  if (account == address(0)) {... */\ntag_63:\n    /* \"https://github.com/OpenZeppelin/openzeppelin-contracts/blob/master/contracts/token/ERC20/ERC20.sol\":7528:7563  _update(address(0), account, value) */\n  tag_65\n    /* \"https://github.com/OpenZeppelin/openzeppelin-contracts/blob/master/contracts/token/ERC20/ERC20.sol\":7544:7545  0 */\n  0x00\n    /* \"https://github.com/OpenZeppelin/openzeppelin-contracts/blob/master/contracts/token/ERC20/ERC20.sol\":7548:7555  account */\n  dup4\n    /* \"https://github.com/OpenZeppelin/openzeppelin-contracts/blob/master/contracts/token/ERC20/ERC20.sol\":7557:7562  value */\n  dup4\n    /* \"https://github.com/OpenZeppelin/openzeppelin-contracts/blob/master/contracts/token/ERC20/ERC20.sol\":7528:7535  _update */\n  shl(0x20, tag_66)\n    /* \"https://github.com/OpenZeppelin/openzeppelin-contracts/blob/master/contracts/token/ERC20/ERC20.sol\":7528:7563  _update(address(0), account, value) */\n  0x20\n  shr\n  jump\t// in\ntag_65:\n    /* \"https://github.com/OpenZeppelin/openzeppelin-contracts/blob/master/contracts/token/ERC20/ERC20.sol\":7362:7570  function _mint(address account, uint256 value) internal {... */\n  pop\n  pop\n  jump\t// out\n    /* \"https://github.com/OpenZeppelin/openzeppelin-contracts/blob/master/contracts/token/ERC20/ERC20.sol\":5912:7019  function _update(address from, address to, uint256 value) internal virtual {... */\ntag_66:\n    /* \"https://github.com/OpenZeppelin/openzeppelin-contracts/blob/master/contracts/token/ERC20/ERC20.sol\":6017:6018  0 */\n  0x00\n    /* \"https://github.com/OpenZeppelin/openzeppelin-contracts/blob/master/contracts/token/ERC20/ERC20.sol\":6001:6019  from == address(0) */\n  0xffffffffffffffffffffffffffffffffffffffff\n  and\n    /* \"https://github.com/OpenZeppelin/openzeppelin-contracts/blob/master/contracts/token/ERC20/ERC20.sol\":6001:6005  from */\n  dup4\n    /* \"https://github.com/OpenZeppelin/openzeppelin-contracts/blob/master/contracts/token/ERC20/ERC20.sol\":6001:6019  from == address(0) */\n  0xffffffffffffffffffffffffffffffffffffffff\n  and\n  sub\n    /* \"https://github.com/OpenZeppelin/openzeppelin-contracts/blob/master/contracts/token/ERC20/ERC20.sol\":5997:6537  if (from == address(0)) {... */\n  tag_68\n  jumpi\n    /* \"https://github.com/OpenZeppelin/openzeppelin-contracts/blob/master/contracts/token/ERC20/ERC20.sol\":6153:6158  value */\n  dup1\n    /* \"https://github.com/OpenZeppelin/openzeppelin-contracts/blob/master/contracts/token/ERC20/ERC20.sol\":6137:6149  _totalSupply */\n  0x02\n  0x00\n    /* \"https://github.com/OpenZeppelin/openzeppelin-contracts/blob/master/contracts/token/ERC20/ERC20.sol\":6137:6158  _totalSupply += value */\n  dup3\n  dup3\n  sload\n  tag_69\n  swap2\n  swap1\n  tag_28\n  jump\t// in\ntag_69:\n  swap3\n  pop\n  pop\n  dup2\n  swap1\n  sstore\n  pop\n    /* \"https://github.com/OpenZeppelin/openzeppelin-contracts/blob/master/contracts/token/ERC20/ERC20.sol\":5997:6537  if (from == address(0)) {... */\n  jump(tag_70)\ntag_68:\n    /* \"https://github.com/OpenZeppelin/openzeppelin-contracts/blob/master/contracts/token/ERC20/ERC20.sol\":6189:6208  uint256 fromBalance */\n  0x00\n    /* \"https://github.com/OpenZeppelin/openzeppelin-contracts/blob/master/contracts/token/ERC20/ERC20.sol\":6211:6220  _balances */\n  0x00\n    /* \"https://github.com/OpenZeppelin/openzeppelin-contracts/blob/master/contracts/token/ERC20/ERC20.sol\":6211:6226  _balances[from] */\n  0x00\n    /* \"https://github.com/OpenZeppelin/openzeppelin-contracts/blob/master/contracts/token/ERC20/ERC20.sol\":6221:6225  from */\n  dup6\n    /* \"https://github.com/OpenZeppelin/openzeppelin-contracts/blob/master/contracts/token/ERC20/ERC20.sol\":6211:6226  _balances[from] */\n  0xffffffffffffffffffffffffffffffffffffffff\n  and\n  0xffffffffffffffffffffffffffffffffffffffff\n  and\n  dup2\n  mstore\n  0x20\n  add\n  swap1\n  dup2\n  mstore\n  0x20\n  add\n  0x00\n  keccak256\n  sload\n    /* \"https://github.com/OpenZeppelin/openzeppelin-contracts/blob/master/contracts/token/ERC20/ERC20.sol\":6189:6226  uint256 fromBalance = _balances[from] */\n  swap1\n  pop\n    /* \"https://github.com/OpenZeppelin/openzeppelin-contracts/blob/master/contracts/token/ERC20/ERC20.sol\":6258:6263  value */\n  dup2\n    /* \"https://github.com/OpenZeppelin/openzeppelin-contracts/blob/master/contracts/token/ERC20/ERC20.sol\":6244:6255  fromBalance */\n  dup2\n    /* \"https://github.com/OpenZeppelin/openzeppelin-contracts/blob/master/contracts/token/ERC20/ERC20.sol\":6244:6263  fromBalance < value */\n  lt\n    /* \"https://github.com/OpenZeppelin/openzeppelin-contracts/blob/master/contracts/token/ERC20/ERC20.sol\":6240:6355  if (fromBalance < value) {... */\n  iszero\n  tag_71\n  jumpi\n    /* \"https://github.com/OpenZeppelin/openzeppelin-contracts/blob/master/contracts/token/ERC20/ERC20.sol\":6315:6319  from */\n  dup4\n    /* \"https://github.com/OpenZeppelin/openzeppelin-contracts/blob/master/contracts/token/ERC20/ERC20.sol\":6321:6332  fromBalance */\n  dup2\n    /* \"https://github.com/OpenZeppelin/openzeppelin-contracts/blob/master/contracts/token/ERC20/ERC20.sol\":6334:6339  value */\n  dup4\n    /* \"https://github.com/OpenZeppelin/openzeppelin-contracts/blob/master/contracts/token/ERC20/ERC20.sol\":6290:6340  ERC20InsufficientBalance(from, fromBalance, value) */\n  mload(0x40)\n  0xe450d38c00000000000000000000000000000000000000000000000000000000\n  dup2\n  mstore\n  0x04\n  add\n  tag_72\n  swap4\n  swap3\n  swap2\n  swap1\n  tag_73\n  jump\t// in\ntag_72:\n  mload(0x40)\n  dup1\n  swap2\n  sub\n  swap1\n  revert\n    /* \"https://github.com/OpenZeppelin/openzeppelin-contracts/blob/master/contracts/token/ERC20/ERC20.sol\":6240:6355  if (fromBalance < value) {... */\ntag_71:\n    /* \"https://github.com/OpenZeppelin/openzeppelin-contracts/blob/master/contracts/token/ERC20/ERC20.sol\":6507:6512  value */\n  dup2\n    /* \"https://github.com/OpenZeppelin/openzeppelin-contracts/blob/master/contracts/token/ERC20/ERC20.sol\":6493:6504  fromBalance */\n  dup2\n    /* \"https://github.com/OpenZeppelin/openzeppelin-contracts/blob/master/contracts/token/ERC20/ERC20.sol\":6493:6512  fromBalance - value */\n  sub\n    /* \"https://github.com/OpenZeppelin/openzeppelin-contracts/blob/master/contracts/token/ERC20/ERC20.sol\":6475:6484  _balances */\n  0x00\n    /* \"https://github.com/OpenZeppelin/openzeppelin-contracts/blob/master/contracts/token/ERC20/ERC20.sol\":6475:6490  _balances[from] */\n  0x00\n    /* \"https://github.com/OpenZeppelin/openzeppelin-contracts/blob/master/contracts/token/ERC20/ERC20.sol\":6485:6489  from */\n  dup7\n    /* \"https://github.com/OpenZeppelin/openzeppelin-contracts/blob/master/contracts/token/ERC20/ERC20.sol\":6475:6490  _balances[from] */\n  0xffffffffffffffffffffffffffffffffffffffff\n  and\n  0xffffffffffffffffffffffffffffffffffffffff\n  and\n  dup2\n  mstore\n  0x20\n  add\n  swap1\n  dup2\n  mstore\n  0x20\n  add\n  0x00\n  keccak256\n    /* \"https://github.com/OpenZeppelin/openzeppelin-contracts/blob/master/contracts/token/ERC20/ERC20.sol\":6475:6512  _balances[from] = fromBalance - value */\n  dup2\n  swap1\n  sstore\n  pop\n    /* \"https://github.com/OpenZeppelin/openzeppelin-contracts/blob/master/contracts/token/ERC20/ERC20.sol\":6175:6537  {... */\n  pop\n    /* \"https://github.com/OpenZeppelin/openzeppelin-contracts/blob/master/contracts/token/ERC20/ERC20.sol\":5997:6537  if (from == address(0)) {... */\ntag_70:\n    /* \"https://github.com/OpenZeppelin/openzeppelin-contracts/blob/master/contracts/token/ERC20/ERC20.sol\":6565:6566  0 */\n  0x00\n    /* \"https://github.com/OpenZeppelin/openzeppelin-contracts/blob/master/contracts/token/ERC20/ERC20.sol\":6551:6567  to == address(0) */\n  0xffffffffffffffffffffffffffffffffffffffff\n  and\n    /* \"https://github.com/OpenZeppelin/openzeppelin-contracts/blob/master/contracts/token/ERC20/ERC20.sol\":6551:6553  to */\n  dup3\n    /* \"https://github.com/OpenZeppelin/openzeppelin-contracts/blob/master/contracts/token/ERC20/ERC20.sol\":6551:6567  to == address(0) */\n  0xffffffffffffffffffffffffffffffffffffffff\n  and\n  sub\n    /* \"https://github.com/OpenZeppelin/openzeppelin-contracts/blob/master/contracts/token/ERC20/ERC20.sol\":6547:6972  if (to == address(0)) {... */\n  tag_74\n  jumpi\n    /* \"https://github.com/OpenZeppelin/openzeppelin-contracts/blob/master/contracts/token/ERC20/ERC20.sol\":6730:6735  value */\n  dup1\n    /* \"https://github.com/OpenZeppelin/openzeppelin-contracts/blob/master/contracts/token/ERC20/ERC20.sol\":6714:6726  _totalSupply */\n  0x02\n  0x00\n    /* \"https://github.com/OpenZeppelin/openzeppelin-contracts/blob/master/contracts/token/ERC20/ERC20.sol\":6714:6735  _totalSupply -= value */\n  dup3\n  dup3\n  sload\n  sub\n  swap3\n  pop\n  pop\n  dup2\n  swap1\n  sstore\n  pop\n    /* \"https://github.com/OpenZeppelin/openzeppelin-contracts/blob/master/contracts/token/ERC20/ERC20.sol\":6547:6972  if (to == address(0)) {... */\n  jump(tag_75)\ntag_74:\n    /* \"https://github.com/OpenZeppelin/openzeppelin-contracts/blob/master/contracts/token/ERC20/ERC20.sol\":6942:6947  value */\n  dup1\n    /* \"https://github.com/OpenZeppelin/openzeppelin-contracts/blob/master/contracts/token/ERC20/ERC20.sol\":6925:6934  _balances */\n  0x00\n    /* \"https://github.com/OpenZeppelin/openzeppelin-contracts/blob/master/contracts/token/ERC20/ERC20.sol\":6925:6938  _balances[to] */\n  0x00\n    /* \"https://github.com/OpenZeppelin/openzeppelin-contracts/blob/master/contracts/token/ERC20/ERC20.sol\":6935:6937  to */\n  dup5\n    /* \"https://github.com/OpenZeppelin/openzeppelin-contracts/blob/master/contracts/token/ERC20/ERC20.sol\":6925:6938  _balances[to] */\n  0xffffffffffffffffffffffffffffffffffffffff\n  and\n  0xffffffffffffffffffffffffffffffffffffffff\n  and\n  dup2\n  mstore\n  0x20\n  add\n  swap1\n  dup2\n  mstore\n  0x20\n  add\n  0x00\n  keccak256\n  0x00\n    /* \"https://github.com/OpenZeppelin/openzeppelin-contracts/blob/master/contracts/token/ERC20/ERC20.sol\":6925:6947  _balances[to] += value */\n  dup3\n  dup3\n  sload\n  add\n  swap3\n  pop\n  pop\n  dup2\n  swap1\n  sstore\n  pop\n    /* \"https://github.com/OpenZeppelin/openzeppelin-contracts/blob/master/contracts/token/ERC20/ERC20.sol\":6547:6972  if (to == address(0)) {... */\ntag_75:\n    /* \"https://github.com/OpenZeppelin/openzeppelin-contracts/blob/master/contracts/token/ERC20/ERC20.sol\":7002:7004  to */\n  dup2\n    /* \"https://github.com/OpenZeppelin/openzeppelin-contracts/blob/master/contracts/token/ERC20/ERC20.sol\":6987:7012  Transfer(from, to, value) */\n  0xffffffffffffffffffffffffffffffffffffffff\n  and\n    /* \"https://github.com/OpenZeppelin/openzeppelin-contracts/blob/master/contracts/token/ERC20/ERC20.sol\":6996:7000  from */\n  dup4\n    /* \"https://github.com/OpenZeppelin/openzeppelin-contracts/blob/master/contracts/token/ERC20/ERC20.sol\":6987:7012  Transfer(from, to, value) */\n  0xffffffffffffffffffffffffffffffffffffffff\n  and\n  0xddf252ad1be2c89b69c2b068fc378daa952ba7f163c4a11628f55a4df523b3ef\n    /* \"https://github.com/OpenZeppelin/openzeppelin-contracts/blob/master/contracts/token/ERC20/ERC20.sol\":7006:7011  value */\n  dup4\n    /* \"https://github.com/OpenZeppelin/openzeppelin-contracts/blob/master/contracts/token/ERC20/ERC20.sol\":6987:7012  Transfer(from, to, value) */\n  mload(0x40)\n  tag_76\n  swap2\n  swap1\n  tag_77\n  jump\t// in\ntag_76:\n  mload(0x40)\n  dup1\n  swap2\n  sub\n  swap1\n  log3\n    /* \"https://github.com/OpenZeppelin/openzeppelin-contracts/blob/master/contracts/token/ERC20/ERC20.sol\":5912:7019  function _update(address from, address to, uint256 value) internal virtual {... */\n  pop\n  pop\n  pop\n  jump\t// out\n    /* \"#utility.yul\":7:82   */\ntag_78:\n    /* \"#utility.yul\":40:46   */\n  0x00\n    /* \"#utility.yul\":73:75   */\n  0x40\n    /* \"#utility.yul\":67:76   */\n  mload\n    /* \"#utility.yul\":57:76   */\n  swap1\n  pop\n    /* \"#utility.yul\":7:82   */\n  swap1\n  jump\t// out\n    /* \"#utility.yul\":88:205   */\ntag_79:\n    /* \"#utility.yul\":197:198   */\n  0x00\n    /* \"#utility.yul\":194:195   */\n  0x00\n    /* \"#utility.yul\":187:199   */\n  revert\n    /* \"#utility.yul\":211:328   */\ntag_80:\n    /* \"#utility.yul\":320:321   */\n  0x00\n    /* \"#utility.yul\":317:318   */\n  0x00\n    /* \"#utility.yul\":310:322   */\n  revert\n    /* \"#utility.yul\":334:451   */\ntag_81:\n    /* \"#utility.yul\":443:444   */\n  0x00\n    /* \"#utility.yul\":440:441   */\n  0x00\n    /* \"#utility.yul\":433:445   */\n  revert\n    /* \"#utility.yul\":457:559   */\ntag_82:\n    /* \"#utility.yul\":498:504   */\n  0x00\n    /* \"#utility.yul\":549:551   */\n  0x1f\n    /* \"#utility.yul\":545:552   */\n  not\n    /* \"#utility.yul\":540:542   */\n  0x1f\n    /* \"#utility.yul\":533:538   */\n  dup4\n    /* \"#utility.yul\":529:543   */\n  add\n    /* \"#utility.yul\":525:553   */\n  and\n    /* \"#utility.yul\":515:553   */\n  swap1\n  pop\n    /* \"#utility.yul\":457:559   */\n  swap2\n  swap1\n  pop\n  jump\t// out\n    /* \"#utility.yul\":565:745   */\ntag_83:\n    /* \"#utility.yul\":613:690   */\n  0x4e487b7100000000000000000000000000000000000000000000000000000000\n    /* \"#utility.yul\":610:611   */\n  0x00\n    /* \"#utility.yul\":603:691   */\n  mstore\n    /* \"#utility.yul\":710:714   */\n  0x41\n    /* \"#utility.yul\":707:708   */\n  0x04\n    /* \"#utility.yul\":700:715   */\n  mstore\n    /* \"#utility.yul\":734:738   */\n  0x24\n    /* \"#utility.yul\":731:732   */\n  0x00\n    /* \"#utility.yul\":724:739   */\n  revert\n    /* \"#utility.yul\":751:1032   */\ntag_84:\n    /* \"#utility.yul\":834:861   */\n  tag_135\n    /* \"#utility.yul\":856:860   */\n  dup3\n    /* \"#utility.yul\":834:861   */\n  tag_82\n  jump\t// in\ntag_135:\n    /* \"#utility.yul\":826:832   */\n  dup2\n    /* \"#utility.yul\":822:862   */\n  add\n    /* \"#utility.yul\":964:970   */\n  dup2\n    /* \"#utility.yul\":952:962   */\n  dup2\n    /* \"#utility.yul\":949:971   */\n  lt\n    /* \"#utility.yul\":928:946   */\n  0xffffffffffffffff\n    /* \"#utility.yul\":916:926   */\n  dup3\n    /* \"#utility.yul\":913:947   */\n  gt\n    /* \"#utility.yul\":910:972   */\n  or\n    /* \"#utility.yul\":907:995   */\n  iszero\n  tag_136\n  jumpi\n    /* \"#utility.yul\":975:993   */\n  tag_137\n  tag_83\n  jump\t// in\ntag_137:\n    /* \"#utility.yul\":907:995   */\ntag_136:\n    /* \"#utility.yul\":1015:1025   */\n  dup1\n    /* \"#utility.yul\":1011:1013   */\n  0x40\n    /* \"#utility.yul\":1004:1026   */\n  mstore\n    /* \"#utility.yul\":794:1032   */\n  pop\n    /* \"#utility.yul\":751:1032   */\n  pop\n  pop\n  jump\t// out\n    /* \"#utility.yul\":1038:1167   */\ntag_85:\n    /* \"#utility.yul\":1072:1078   */\n  0x00\n    /* \"#utility.yul\":1099:1119   */\n  tag_139\n  tag_78\n  jump\t// in\ntag_139:\n    /* \"#utility.yul\":1089:1119   */\n  swap1\n  pop\n    /* \"#utility.yul\":1128:1161   */\n  tag_140\n    /* \"#utility.yul\":1156:1160   */\n  dup3\n    /* \"#utility.yul\":1148:1154   */\n  dup3\n    /* \"#utility.yul\":1128:1161   */\n  tag_84\n  jump\t// in\ntag_140:\n    /* \"#utility.yul\":1038:1167   */\n  swap2\n  swap1\n  pop\n  jump\t// out\n    /* \"#utility.yul\":1173:1511   */\ntag_86:\n    /* \"#utility.yul\":1277:1281   */\n  0x00\n    /* \"#utility.yul\":1367:1385   */\n  0xffffffffffffffff\n    /* \"#utility.yul\":1359:1365   */\n  dup3\n    /* \"#utility.yul\":1356:1386   */\n  gt\n    /* \"#utility.yul\":1353:1409   */\n  iszero\n  tag_142\n  jumpi\n    /* \"#utility.yul\":1389:1407   */\n  tag_143\n  tag_83\n  jump\t// in\ntag_143:\n    /* \"#utility.yul\":1353:1409   */\ntag_142:\n    /* \"#utility.yul\":1439:1443   */\n  0x20\n    /* \"#utility.yul\":1431:1437   */\n  dup3\n    /* \"#utility.yul\":1427:1444   */\n  mul\n    /* \"#utility.yul\":1419:1444   */\n  swap1\n  pop\n    /* \"#utility.yul\":1499:1503   */\n  0x20\n    /* \"#utility.yul\":1493:1497   */\n  dup2\n    /* \"#utility.yul\":1489:1504   */\n  add\n    /* \"#utility.yul\":1481:1504   */\n  swap1\n  pop\n    /* \"#utility.yul\":1173:1511   */\n  swap2\n  swap1\n  pop\n  jump\t// out\n    /* \"#utility.yul\":1517:1634   */\ntag_87:\n    /* \"#utility.yul\":1626:1627   */\n  0x00\n    /* \"#utility.yul\":1623:1624   */\n  0x00\n    /* \"#utility.yul\":1616:1628   */\n  revert\n    /* \"#utility.yul\":1640:1757   */\ntag_88:\n    /* \"#utility.yul\":1749:1750   */\n  0x00\n    /* \"#utility.yul\":1746:1747   */\n  0x00\n    /* \"#utility.yul\":1739:1751   */\n  revert\n    /* \"#utility.yul\":1886:2012   */\ntag_90:\n    /* \"#utility.yul\":1923:1930   */\n  0x00\n    /* \"#utility.yul\":1963:2005   */\n  0xffffffffffffffffffffffffffffffffffffffff\n    /* \"#utility.yul\":1956:1961   */\n  dup3\n    /* \"#utility.yul\":1952:2006   */\n  and\n    /* \"#utility.yul\":1941:2006   */\n  swap1\n  pop\n    /* \"#utility.yul\":1886:2012   */\n  swap2\n  swap1\n  pop\n  jump\t// out\n    /* \"#utility.yul\":2018:2114   */\ntag_91:\n    /* \"#utility.yul\":2055:2062   */\n  0x00\n    /* \"#utility.yul\":2084:2108   */\n  tag_149\n    /* \"#utility.yul\":2102:2107   */\n  dup3\n    /* \"#utility.yul\":2084:2108   */\n  tag_90\n  jump\t// in\ntag_149:\n    /* \"#utility.yul\":2073:2108   */\n  swap1\n  pop\n    /* \"#utility.yul\":2018:2114   */\n  swap2\n  swap1\n  pop\n  jump\t// out\n    /* \"#utility.yul\":2120:2242   */\ntag_92:\n    /* \"#utility.yul\":2193:2217   */\n  tag_151\n    /* \"#utility.yul\":2211:2216   */\n  dup2\n    /* \"#utility.yul\":2193:2217   */\n  tag_91\n  jump\t// in\ntag_151:\n    /* \"#utility.yul\":2186:2191   */\n  dup2\n    /* \"#utility.yul\":2183:2218   */\n  eq\n    /* \"#utility.yul\":2173:2236   */\n  tag_152\n  jumpi\n    /* \"#utility.yul\":2232:2233   */\n  0x00\n    /* \"#utility.yul\":2229:2230   */\n  0x00\n    /* \"#utility.yul\":2222:2234   */\n  revert\n    /* \"#utility.yul\":2173:2236   */\ntag_152:\n    /* \"#utility.yul\":2120:2242   */\n  pop\n  jump\t// out\n    /* \"#utility.yul\":2248:2391   */\ntag_93:\n    /* \"#utility.yul\":2305:2310   */\n  0x00\n    /* \"#utility.yul\":2336:2342   */\n  dup2\n    /* \"#utility.yul\":2330:2343   */\n  mload\n    /* \"#utility.yul\":2321:2343   */\n  swap1\n  pop\n    /* \"#utility.yul\":2352:2385   */\n  tag_154\n    /* \"#utility.yul\":2379:2384   */\n  dup2\n    /* \"#utility.yul\":2352:2385   */\n  tag_92\n  jump\t// in\ntag_154:\n    /* \"#utility.yul\":2248:2391   */\n  swap3\n  swap2\n  pop\n  pop\n  jump\t// out\n    /* \"#utility.yul\":2397:2474   */\ntag_94:\n    /* \"#utility.yul\":2434:2441   */\n  0x00\n    /* \"#utility.yul\":2463:2468   */\n  dup2\n    /* \"#utility.yul\":2452:2468   */\n  swap1\n  pop\n    /* \"#utility.yul\":2397:2474   */\n  swap2\n  swap1\n  pop\n  jump\t// out\n    /* \"#utility.yul\":2480:2602   */\ntag_95:\n    /* \"#utility.yul\":2553:2577   */\n  tag_157\n    /* \"#utility.yul\":2571:2576   */\n  dup2\n    /* \"#utility.yul\":2553:2577   */\n  tag_94\n  jump\t// in\ntag_157:\n    /* \"#utility.yul\":2546:2551   */\n  dup2\n    /* \"#utility.yul\":2543:2578   */\n  eq\n    /* \"#utility.yul\":2533:2596   */\n  tag_158\n  jumpi\n    /* \"#utility.yul\":2592:2593   */\n  0x00\n    /* \"#utility.yul\":2589:2590   */\n  0x00\n    /* \"#utility.yul\":2582:2594   */\n  revert\n    /* \"#utility.yul\":2533:2596   */\ntag_158:\n    /* \"#utility.yul\":2480:2602   */\n  pop\n  jump\t// out\n    /* \"#utility.yul\":2608:2751   */\ntag_96:\n    /* \"#utility.yul\":2665:2670   */\n  0x00\n    /* \"#utility.yul\":2696:2702   */\n  dup2\n    /* \"#utility.yul\":2690:2703   */\n  mload\n    /* \"#utility.yul\":2681:2703   */\n  swap1\n  pop\n    /* \"#utility.yul\":2712:2745   */\n  tag_160\n    /* \"#utility.yul\":2739:2744   */\n  dup2\n    /* \"#utility.yul\":2712:2745   */\n  tag_95\n  jump\t// in\ntag_160:\n    /* \"#utility.yul\":2608:2751   */\n  swap3\n  swap2\n  pop\n  pop\n  jump\t// out\n    /* \"#utility.yul\":2792:3422   */\ntag_97:\n    /* \"#utility.yul\":2879:2884   */\n  0x00\n    /* \"#utility.yul\":2923:2927   */\n  0x40\n    /* \"#utility.yul\":2911:2920   */\n  dup3\n    /* \"#utility.yul\":2906:2909   */\n  dup5\n    /* \"#utility.yul\":2902:2921   */\n  sub\n    /* \"#utility.yul\":2898:2928   */\n  slt\n    /* \"#utility.yul\":2895:3012   */\n  iszero\n  tag_162\n  jumpi\n    /* \"#utility.yul\":2931:3010   */\n  tag_163\n  tag_88\n  jump\t// in\ntag_163:\n    /* \"#utility.yul\":2895:3012   */\ntag_162:\n    /* \"#utility.yul\":3030:3051   */\n  tag_164\n    /* \"#utility.yul\":3046:3050   */\n  0x40\n    /* \"#utility.yul\":3030:3051   */\n  tag_85\n  jump\t// in\ntag_164:\n    /* \"#utility.yul\":3021:3051   */\n  swap1\n  pop\n    /* \"#utility.yul\":3119:3120   */\n  0x00\n    /* \"#utility.yul\":3159:3219   */\n  tag_165\n    /* \"#utility.yul\":3215:3218   */\n  dup5\n    /* \"#utility.yul\":3206:3212   */\n  dup3\n    /* \"#utility.yul\":3195:3204   */\n  dup6\n    /* \"#utility.yul\":3191:3213   */\n  add\n    /* \"#utility.yul\":3159:3219   */\n  tag_93\n  jump\t// in\ntag_165:\n    /* \"#utility.yul\":3152:3156   */\n  0x00\n    /* \"#utility.yul\":3145:3150   */\n  dup4\n    /* \"#utility.yul\":3141:3157   */\n  add\n    /* \"#utility.yul\":3134:3220   */\n  mstore\n    /* \"#utility.yul\":3061:3231   */\n  pop\n    /* \"#utility.yul\":3302:3304   */\n  0x20\n    /* \"#utility.yul\":3343:3403   */\n  tag_166\n    /* \"#utility.yul\":3399:3402   */\n  dup5\n    /* \"#utility.yul\":3390:3396   */\n  dup3\n    /* \"#utility.yul\":3379:3388   */\n  dup6\n    /* \"#utility.yul\":3375:3397   */\n  add\n    /* \"#utility.yul\":3343:3403   */\n  tag_96\n  jump\t// in\ntag_166:\n    /* \"#utility.yul\":3336:3340   */\n  0x20\n    /* \"#utility.yul\":3329:3334   */\n  dup4\n    /* \"#utility.yul\":3325:3341   */\n  add\n    /* \"#utility.yul\":3318:3404   */\n  mstore\n    /* \"#utility.yul\":3241:3415   */\n  pop\n    /* \"#utility.yul\":2792:3422   */\n  swap3\n  swap2\n  pop\n  pop\n  jump\t// out\n    /* \"#utility.yul\":3465:4278   */\ntag_98:\n    /* \"#utility.yul\":3599:3604   */\n  0x00\n    /* \"#utility.yul\":3624:3732   */\n  tag_168\n    /* \"#utility.yul\":3640:3731   */\n  tag_169\n    /* \"#utility.yul\":3724:3730   */\n  dup5\n    /* \"#utility.yul\":3640:3731   */\n  tag_86\n  jump\t// in\ntag_169:\n    /* \"#utility.yul\":3624:3732   */\n  tag_85\n  jump\t// in\ntag_168:\n    /* \"#utility.yul\":3615:3732   */\n  swap1\n  pop\n    /* \"#utility.yul\":3752:3757   */\n  dup1\n    /* \"#utility.yul\":3781:3787   */\n  dup4\n    /* \"#utility.yul\":3774:3779   */\n  dup3\n    /* \"#utility.yul\":3767:3788   */\n  mstore\n    /* \"#utility.yul\":3815:3819   */\n  0x20\n    /* \"#utility.yul\":3808:3813   */\n  dup3\n    /* \"#utility.yul\":3804:3820   */\n  add\n    /* \"#utility.yul\":3797:3820   */\n  swap1\n  pop\n    /* \"#utility.yul\":3868:3872   */\n  0x40\n    /* \"#utility.yul\":3860:3866   */\n  dup5\n    /* \"#utility.yul\":3856:3873   */\n  mul\n    /* \"#utility.yul\":3848:3854   */\n  dup4\n    /* \"#utility.yul\":3844:3874   */\n  add\n    /* \"#utility.yul\":3897:3900   */\n  dup6\n    /* \"#utility.yul\":3889:3895   */\n  dup2\n    /* \"#utility.yul\":3886:3901   */\n  gt\n    /* \"#utility.yul\":3883:4005   */\n  iszero\n  tag_170\n  jumpi\n    /* \"#utility.yul\":3916:3995   */\n  tag_171\n  tag_87\n  jump\t// in\ntag_171:\n    /* \"#utility.yul\":3883:4005   */\ntag_170:\n    /* \"#utility.yul\":4031:4037   */\n  dup4\n    /* \"#utility.yul\":4014:4272   */\ntag_172:\n    /* \"#utility.yul\":4048:4054   */\n  dup2\n    /* \"#utility.yul\":4043:4046   */\n  dup2\n    /* \"#utility.yul\":4040:4055   */\n  lt\n    /* \"#utility.yul\":4014:4272   */\n  iszero\n  tag_174\n  jumpi\n    /* \"#utility.yul\":4123:4126   */\n  dup1\n    /* \"#utility.yul\":4152:4227   */\n  tag_175\n    /* \"#utility.yul\":4223:4226   */\n  dup9\n    /* \"#utility.yul\":4211:4221   */\n  dup3\n    /* \"#utility.yul\":4152:4227   */\n  tag_97\n  jump\t// in\ntag_175:\n    /* \"#utility.yul\":4147:4150   */\n  dup5\n    /* \"#utility.yul\":4140:4228   */\n  mstore\n    /* \"#utility.yul\":4257:4261   */\n  0x20\n    /* \"#utility.yul\":4252:4255   */\n  dup5\n    /* \"#utility.yul\":4248:4262   */\n  add\n    /* \"#utility.yul\":4241:4262   */\n  swap4\n  pop\n    /* \"#utility.yul\":4090:4272   */\n  pop\n    /* \"#utility.yul\":4074:4078   */\n  0x40\n    /* \"#utility.yul\":4069:4072   */\n  dup2\n    /* \"#utility.yul\":4065:4079   */\n  add\n    /* \"#utility.yul\":4058:4079   */\n  swap1\n  pop\n    /* \"#utility.yul\":4014:4272   */\n  jump(tag_172)\ntag_174:\n    /* \"#utility.yul\":4018:4039   */\n  pop\n    /* \"#utility.yul\":3605:4278   */\n  pop\n  pop\n    /* \"#utility.yul\":3465:4278   */\n  swap4\n  swap3\n  pop\n  pop\n  pop\n  jump\t// out\n    /* \"#utility.yul\":4321:4760   */\ntag_99:\n    /* \"#utility.yul\":4430:4435   */\n  0x00\n    /* \"#utility.yul\":4479:4482   */\n  dup3\n    /* \"#utility.yul\":4472:4476   */\n  0x1f\n    /* \"#utility.yul\":4464:4470   */\n  dup4\n    /* \"#utility.yul\":4460:4477   */\n  add\n    /* \"#utility.yul\":4456:4483   */\n  slt\n    /* \"#utility.yul\":4446:4568   */\n  tag_177\n  jumpi\n    /* \"#utility.yul\":4487:4566   */\n  tag_178\n  tag_81\n  jump\t// in\ntag_178:\n    /* \"#utility.yul\":4446:4568   */\ntag_177:\n    /* \"#utility.yul\":4597:4603   */\n  dup2\n    /* \"#utility.yul\":4591:4604   */\n  mload\n    /* \"#utility.yul\":4622:4754   */\n  tag_179\n    /* \"#utility.yul\":4750:4753   */\n  dup5\n    /* \"#utility.yul\":4742:4748   */\n  dup3\n    /* \"#utility.yul\":4735:4739   */\n  0x20\n    /* \"#utility.yul\":4727:4733   */\n  dup7\n    /* \"#utility.yul\":4723:4740   */\n  add\n    /* \"#utility.yul\":4622:4754   */\n  tag_98\n  jump\t// in\ntag_179:\n    /* \"#utility.yul\":4613:4754   */\n  swap2\n  pop\n    /* \"#utility.yul\":4436:4760   */\n  pop\n    /* \"#utility.yul\":4321:4760   */\n  swap3\n  swap2\n  pop\n  pop\n  jump\t// out\n    /* \"#utility.yul\":4766:5530   */\ntag_3:\n    /* \"#utility.yul\":4897:4903   */\n  0x00\n    /* \"#utility.yul\":4905:4911   */\n  0x00\n    /* \"#utility.yul\":4954:4956   */\n  0x40\n    /* \"#utility.yul\":4942:4951   */\n  dup4\n    /* \"#utility.yul\":4933:4940   */\n  dup6\n    /* \"#utility.yul\":4929:4952   */\n  sub\n    /* \"#utility.yul\":4925:4957   */\n  slt\n    /* \"#utility.yul\":4922:5041   */\n  iszero\n  tag_181\n  jumpi\n    /* \"#utility.yul\":4960:5039   */\n  tag_182\n  tag_79\n  jump\t// in\ntag_182:\n    /* \"#utility.yul\":4922:5041   */\ntag_181:\n    /* \"#utility.yul\":5101:5102   */\n  0x00\n    /* \"#utility.yul\":5090:5099   */\n  dup4\n    /* \"#utility.yul\":5086:5103   */\n  add\n    /* \"#utility.yul\":5080:5104   */\n  mload\n    /* \"#utility.yul\":5131:5149   */\n  0xffffffffffffffff\n    /* \"#utility.yul\":5123:5129   */\n  dup2\n    /* \"#utility.yul\":5120:5150   */\n  gt\n    /* \"#utility.yul\":5117:5234   */\n  iszero\n  tag_183\n  jumpi\n    /* \"#utility.yul\":5153:5232   */\n  tag_184\n  tag_80\n  jump\t// in\ntag_184:\n    /* \"#utility.yul\":5117:5234   */\ntag_183:\n    /* \"#utility.yul\":5258:5374   */\n  tag_185\n    /* \"#utility.yul\":5366:5373   */\n  dup6\n    /* \"#utility.yul\":5357:5363   */\n  dup3\n    /* \"#utility.yul\":5346:5355   */\n  dup7\n    /* \"#utility.yul\":5342:5364   */\n  add\n    /* \"#utility.yul\":5258:5374   */\n  tag_99\n  jump\t// in\ntag_185:\n    /* \"#utility.yul\":5248:5374   */\n  swap3\n  pop\n    /* \"#utility.yul\":5051:5384   */\n  pop\n    /* \"#utility.yul\":5423:5425   */\n  0x20\n    /* \"#utility.yul\":5449:5513   */\n  tag_186\n    /* \"#utility.yul\":5505:5512   */\n  dup6\n    /* \"#utility.yul\":5496:5502   */\n  dup3\n    /* \"#utility.yul\":5485:5494   */\n  dup7\n    /* \"#utility.yul\":5481:5503   */\n  add\n    /* \"#utility.yul\":5449:5513   */\n  tag_93\n  jump\t// in\ntag_186:\n    /* \"#utility.yul\":5439:5513   */\n  swap2\n  pop\n    /* \"#utility.yul\":5394:5523   */\n  pop\n    /* \"#utility.yul\":4766:5530   */\n  swap3\n  pop\n  swap3\n  swap1\n  pop\n  jump\t// out\n    /* \"#utility.yul\":5536:5635   */\ntag_100:\n    /* \"#utility.yul\":5588:5594   */\n  0x00\n    /* \"#utility.yul\":5622:5627   */\n  dup2\n    /* \"#utility.yul\":5616:5628   */\n  mload\n    /* \"#utility.yul\":5606:5628   */\n  swap1\n  pop\n    /* \"#utility.yul\":5536:5635   */\n  swap2\n  swap1\n  pop\n  jump\t// out\n    /* \"#utility.yul\":5641:5821   */\ntag_101:\n    /* \"#utility.yul\":5689:5766   */\n  0x4e487b7100000000000000000000000000000000000000000000000000000000\n    /* \"#utility.yul\":5686:5687   */\n  0x00\n    /* \"#utility.yul\":5679:5767   */\n  mstore\n    /* \"#utility.yul\":5786:5790   */\n  0x22\n    /* \"#utility.yul\":5783:5784   */\n  0x04\n    /* \"#utility.yul\":5776:5791   */\n  mstore\n    /* \"#utility.yul\":5810:5814   */\n  0x24\n    /* \"#utility.yul\":5807:5808   */\n  0x00\n    /* \"#utility.yul\":5800:5815   */\n  revert\n    /* \"#utility.yul\":5827:6147   */\ntag_102:\n    /* \"#utility.yul\":5871:5877   */\n  0x00\n    /* \"#utility.yul\":5908:5909   */\n  0x02\n    /* \"#utility.yul\":5902:5906   */\n  dup3\n    /* \"#utility.yul\":5898:5910   */\n  div\n    /* \"#utility.yul\":5888:5910   */\n  swap1\n  pop\n    /* \"#utility.yul\":5955:5956   */\n  0x01\n    /* \"#utility.yul\":5949:5953   */\n  dup3\n    /* \"#utility.yul\":5945:5957   */\n  and\n    /* \"#utility.yul\":5976:5994   */\n  dup1\n    /* \"#utility.yul\":5966:6047   */\n  tag_190\n  jumpi\n    /* \"#utility.yul\":6032:6036   */\n  0x7f\n    /* \"#utility.yul\":6024:6030   */\n  dup3\n    /* \"#utility.yul\":6020:6037   */\n  and\n    /* \"#utility.yul\":6010:6037   */\n  swap2\n  pop\n    /* \"#utility.yul\":5966:6047   */\ntag_190:\n    /* \"#utility.yul\":6094:6096   */\n  0x20\n    /* \"#utility.yul\":6086:6092   */\n  dup3\n    /* \"#utility.yul\":6083:6097   */\n  lt\n    /* \"#utility.yul\":6063:6081   */\n  dup2\n    /* \"#utility.yul\":6060:6098   */\n  sub\n    /* \"#utility.yul\":6057:6141   */\n  tag_191\n  jumpi\n    /* \"#utility.yul\":6113:6131   */\n  tag_192\n  tag_101\n  jump\t// in\ntag_192:\n    /* \"#utility.yul\":6057:6141   */\ntag_191:\n    /* \"#utility.yul\":5878:6147   */\n  pop\n    /* \"#utility.yul\":5827:6147   */\n  swap2\n  swap1\n  pop\n  jump\t// out\n    /* \"#utility.yul\":6153:6294   */\ntag_103:\n    /* \"#utility.yul\":6202:6206   */\n  0x00\n    /* \"#utility.yul\":6225:6228   */\n  dup2\n    /* \"#utility.yul\":6217:6228   */\n  swap1\n  pop\n    /* \"#utility.yul\":6248:6251   */\n  dup2\n    /* \"#utility.yul\":6245:6246   */\n  0x00\n    /* \"#utility.yul\":6238:6252   */\n  mstore\n    /* \"#utility.yul\":6282:6286   */\n  0x20\n    /* \"#utility.yul\":6279:6280   */\n  0x00\n    /* \"#utility.yul\":6269:6287   */\n  keccak256\n    /* \"#utility.yul\":6261:6287   */\n  swap1\n  pop\n    /* \"#utility.yul\":6153:6294   */\n  swap2\n  swap1\n  pop\n  jump\t// out\n    /* \"#utility.yul\":6300:6393   */\ntag_104:\n    /* \"#utility.yul\":6337:6343   */\n  0x00\n    /* \"#utility.yul\":6384:6386   */\n  0x20\n    /* \"#utility.yul\":6379:6381   */\n  0x1f\n    /* \"#utility.yul\":6372:6377   */\n  dup4\n    /* \"#utility.yul\":6368:6382   */\n  add\n    /* \"#utility.yul\":6364:6387   */\n  div\n    /* \"#utility.yul\":6354:6387   */\n  swap1\n  pop\n    /* \"#utility.yul\":6300:6393   */\n  swap2\n  swap1\n  pop\n  jump\t// out\n    /* \"#utility.yul\":6399:6506   */\ntag_105:\n    /* \"#utility.yul\":6443:6451   */\n  0x00\n    /* \"#utility.yul\":6493:6498   */\n  dup3\n    /* \"#utility.yul\":6487:6491   */\n  dup3\n    /* \"#utility.yul\":6483:6499   */\n  shl\n    /* \"#utility.yul\":6462:6499   */\n  swap1\n  pop\n    /* \"#utility.yul\":6399:6506   */\n  swap3\n  swap2\n  pop\n  pop\n  jump\t// out\n    /* \"#utility.yul\":6512:6905   */\ntag_106:\n    /* \"#utility.yul\":6581:6587   */\n  0x00\n    /* \"#utility.yul\":6631:6632   */\n  0x08\n    /* \"#utility.yul\":6619:6629   */\n  dup4\n    /* \"#utility.yul\":6615:6633   */\n  mul\n    /* \"#utility.yul\":6654:6751   */\n  tag_197\n    /* \"#utility.yul\":6684:6750   */\n  0xffffffffffffffffffffffffffffffffffffffffffffffffffffffffffffffff\n    /* \"#utility.yul\":6673:6682   */\n  dup3\n    /* \"#utility.yul\":6654:6751   */\n  tag_105\n  jump\t// in\ntag_197:\n    /* \"#utility.yul\":6772:6811   */\n  tag_198\n    /* \"#utility.yul\":6802:6810   */\n  dup7\n    /* \"#utility.yul\":6791:6800   */\n  dup4\n    /* \"#utility.yul\":6772:6811   */\n  tag_105\n  jump\t// in\ntag_198:\n    /* \"#utility.yul\":6760:6811   */\n  swap6\n  pop\n    /* \"#utility.yul\":6844:6848   */\n  dup1\n    /* \"#utility.yul\":6840:6849   */\n  not\n    /* \"#utility.yul\":6833:6838   */\n  dup5\n    /* \"#utility.yul\":6829:6850   */\n  and\n    /* \"#utility.yul\":6820:6850   */\n  swap4\n  pop\n    /* \"#utility.yul\":6893:6897   */\n  dup1\n    /* \"#utility.yul\":6883:6891   */\n  dup7\n    /* \"#utility.yul\":6879:6898   */\n  and\n    /* \"#utility.yul\":6872:6877   */\n  dup5\n    /* \"#utility.yul\":6869:6899   */\n  or\n    /* \"#utility.yul\":6859:6899   */\n  swap3\n  pop\n    /* \"#utility.yul\":6588:6905   */\n  pop\n  pop\n    /* \"#utility.yul\":6512:6905   */\n  swap4\n  swap3\n  pop\n  pop\n  pop\n  jump\t// out\n    /* \"#utility.yul\":6911:6971   */\ntag_107:\n    /* \"#utility.yul\":6939:6942   */\n  0x00\n    /* \"#utility.yul\":6960:6965   */\n  dup2\n    /* \"#utility.yul\":6953:6965   */\n  swap1\n  pop\n    /* \"#utility.yul\":6911:6971   */\n  swap2\n  swap1\n  pop\n  jump\t// out\n    /* \"#utility.yul\":6977:7119   */\ntag_108:\n    /* \"#utility.yul\":7027:7036   */\n  0x00\n    /* \"#utility.yul\":7060:7113   */\n  tag_201\n    /* \"#utility.yul\":7078:7112   */\n  tag_202\n    /* \"#utility.yul\":7087:7111   */\n  tag_203\n    /* \"#utility.yul\":7105:7110   */\n  dup5\n    /* \"#utility.yul\":7087:7111   */\n  tag_94\n  jump\t// in\ntag_203:\n    /* \"#utility.yul\":7078:7112   */\n  tag_107\n  jump\t// in\ntag_202:\n    /* \"#utility.yul\":7060:7113   */\n  tag_94\n  jump\t// in\ntag_201:\n    /* \"#utility.yul\":7047:7113   */\n  swap1\n  pop\n    /* \"#utility.yul\":6977:7119   */\n  swap2\n  swap1\n  pop\n  jump\t// out\n    /* \"#utility.yul\":7125:7200   */\ntag_109:\n    /* \"#utility.yul\":7168:7171   */\n  0x00\n    /* \"#utility.yul\":7189:7194   */\n  dup2\n    /* \"#utility.yul\":7182:7194   */\n  swap1\n  pop\n    /* \"#utility.yul\":7125:7200   */\n  swap2\n  swap1\n  pop\n  jump\t// out\n    /* \"#utility.yul\":7206:7475   */\ntag_110:\n    /* \"#utility.yul\":7316:7355   */\n  tag_206\n    /* \"#utility.yul\":7347:7354   */\n  dup4\n    /* \"#utility.yul\":7316:7355   */\n  tag_108\n  jump\t// in\ntag_206:\n    /* \"#utility.yul\":7377:7468   */\n  tag_207\n    /* \"#utility.yul\":7426:7467   */\n  tag_208\n    /* \"#utility.yul\":7450:7466   */\n  dup3\n    /* \"#utility.yul\":7426:7467   */\n  tag_109\n  jump\t// in\ntag_208:\n    /* \"#utility.yul\":7418:7424   */\n  dup5\n    /* \"#utility.yul\":7411:7415   */\n  dup5\n    /* \"#utility.yul\":7405:7416   */\n  sload\n    /* \"#utility.yul\":7377:7468   */\n  tag_106\n  jump\t// in\ntag_207:\n    /* \"#utility.yul\":7371:7375   */\n  dup3\n    /* \"#utility.yul\":7364:7469   */\n  sstore\n    /* \"#utility.yul\":7282:7475   */\n  pop\n    /* \"#utility.yul\":7206:7475   */\n  pop\n  pop\n  pop\n  jump\t// out\n    /* \"#utility.yul\":7481:7554   */\ntag_111:\n    /* \"#utility.yul\":7526:7529   */\n  0x00\n    /* \"#utility.yul\":7547:7548   */\n  0x00\n    /* \"#utility.yul\":7540:7548   */\n  swap1\n  pop\n    /* \"#utility.yul\":7481:7554   */\n  swap1\n  jump\t// out\n    /* \"#utility.yul\":7560:7749   */\ntag_112:\n    /* \"#utility.yul\":7637:7669   */\n  tag_211\n  tag_111\n  jump\t// in\ntag_211:\n    /* \"#utility.yul\":7678:7743   */\n  tag_212\n    /* \"#utility.yul\":7736:7742   */\n  dup2\n    /* \"#utility.yul\":7728:7734   */\n  dup5\n    /* \"#utility.yul\":7722:7726   */\n  dup5\n    /* \"#utility.yul\":7678:7743   */\n  tag_110\n  jump\t// in\ntag_212:\n    /* \"#utility.yul\":7613:7749   */\n  pop\n    /* \"#utility.yul\":7560:7749   */\n  pop\n  pop\n  jump\t// out\n    /* \"#utility.yul\":7755:7941   */\ntag_113:\n    /* \"#utility.yul\":7815:7935   */\ntag_214:\n    /* \"#utility.yul\":7832:7835   */\n  dup2\n    /* \"#utility.yul\":7825:7830   */\n  dup2\n    /* \"#utility.yul\":7822:7836   */\n  lt\n    /* \"#utility.yul\":7815:7935   */\n  iszero\n  tag_216\n  jumpi\n    /* \"#utility.yul\":7886:7925   */\n  tag_217\n    /* \"#utility.yul\":7923:7924   */\n  0x00\n    /* \"#utility.yul\":7916:7921   */\n  dup3\n    /* \"#utility.yul\":7886:7925   */\n  tag_112\n  jump\t// in\ntag_217:\n    /* \"#utility.yul\":7859:7860   */\n  0x01\n    /* \"#utility.yul\":7852:7857   */\n  dup2\n    /* \"#utility.yul\":7848:7861   */\n  add\n    /* \"#utility.yul\":7839:7861   */\n  swap1\n  pop\n    /* \"#utility.yul\":7815:7935   */\n  jump(tag_214)\ntag_216:\n    /* \"#utility.yul\":7755:7941   */\n  pop\n  pop\n  jump\t// out\n    /* \"#utility.yul\":7947:8490   */\ntag_114:\n    /* \"#utility.yul\":8048:8050   */\n  0x1f\n    /* \"#utility.yul\":8043:8046   */\n  dup3\n    /* \"#utility.yul\":8040:8051   */\n  gt\n    /* \"#utility.yul\":8037:8483   */\n  iszero\n  tag_219\n  jumpi\n    /* \"#utility.yul\":8082:8120   */\n  tag_220\n    /* \"#utility.yul\":8114:8119   */\n  dup2\n    /* \"#utility.yul\":8082:8120   */\n  tag_103\n  jump\t// in\ntag_220:\n    /* \"#utility.yul\":8166:8195   */\n  tag_221\n    /* \"#utility.yul\":8184:8194   */\n  dup5\n    /* \"#utility.yul\":8166:8195   */\n  tag_104\n  jump\t// in\ntag_221:\n    /* \"#utility.yul\":8156:8164   */\n  dup2\n    /* \"#utility.yul\":8152:8196   */\n  add\n    /* \"#utility.yul\":8349:8351   */\n  0x20\n    /* \"#utility.yul\":8337:8347   */\n  dup6\n    /* \"#utility.yul\":8334:8352   */\n  lt\n    /* \"#utility.yul\":8331:8380   */\n  iszero\n  tag_222\n  jumpi\n    /* \"#utility.yul\":8370:8378   */\n  dup2\n    /* \"#utility.yul\":8355:8378   */\n  swap1\n  pop\n    /* \"#utility.yul\":8331:8380   */\ntag_222:\n    /* \"#utility.yul\":8393:8473   */\n  tag_223\n    /* \"#utility.yul\":8449:8471   */\n  tag_224\n    /* \"#utility.yul\":8467:8470   */\n  dup6\n    /* \"#utility.yul\":8449:8471   */\n  tag_104\n  jump\t// in\ntag_224:\n    /* \"#utility.yul\":8439:8447   */\n  dup4\n    /* \"#utility.yul\":8435:8472   */\n  add\n    /* \"#utility.yul\":8422:8433   */\n  dup3\n    /* \"#utility.yul\":8393:8473   */\n  tag_113\n  jump\t// in\ntag_223:\n    /* \"#utility.yul\":8052:8483   */\n  pop\n  pop\n    /* \"#utility.yul\":8037:8483   */\ntag_219:\n    /* \"#utility.yul\":7947:8490   */\n  pop\n  pop\n  pop\n  jump\t// out\n    /* \"#utility.yul\":8496:8613   */\ntag_115:\n    /* \"#utility.yul\":8550:8558   */\n  0x00\n    /* \"#utility.yul\":8600:8605   */\n  dup3\n    /* \"#utility.yul\":8594:8598   */\n  dup3\n    /* \"#utility.yul\":8590:8606   */\n  shr\n    /* \"#utility.yul\":8569:8606   */\n  swap1\n  pop\n    /* \"#utility.yul\":8496:8613   */\n  swap3\n  swap2\n  pop\n  pop\n  jump\t// out\n    /* \"#utility.yul\":8619:8788   */\ntag_116:\n    /* \"#utility.yul\":8663:8669   */\n  0x00\n    /* \"#utility.yul\":8696:8747   */\n  tag_227\n    /* \"#utility.yul\":8744:8745   */\n  0x00\n    /* \"#utility.yul\":8740:8746   */\n  not\n    /* \"#utility.yul\":8732:8737   */\n  dup5\n    /* \"#utility.yul\":8729:8730   */\n  0x08\n    /* \"#utility.yul\":8725:8738   */\n  mul\n    /* \"#utility.yul\":8696:8747   */\n  tag_115\n  jump\t// in\ntag_227:\n    /* \"#utility.yul\":8692:8748   */\n  not\n    /* \"#utility.yul\":8777:8781   */\n  dup1\n    /* \"#utility.yul\":8771:8775   */\n  dup4\n    /* \"#utility.yul\":8767:8782   */\n  and\n    /* \"#utility.yul\":8757:8782   */\n  swap2\n  pop\n    /* \"#utility.yul\":8670:8788   */\n  pop\n    /* \"#utility.yul\":8619:8788   */\n  swap3\n  swap2\n  pop\n  pop\n  jump\t// out\n    /* \"#utility.yul\":8793:9088   */\ntag_117:\n    /* \"#utility.yul\":8869:8873   */\n  0x00\n    /* \"#utility.yul\":9015:9044   */\n  tag_229\n    /* \"#utility.yul\":9040:9043   */\n  dup4\n    /* \"#utility.yul\":9034:9038   */\n  dup4\n    /* \"#utility.yul\":9015:9044   */\n  tag_116\n  jump\t// in\ntag_229:\n    /* \"#utility.yul\":9007:9044   */\n  swap2\n  pop\n    /* \"#utility.yul\":9077:9080   */\n  dup3\n    /* \"#utility.yul\":9074:9075   */\n  0x02\n    /* \"#utility.yul\":9070:9081   */\n  mul\n    /* \"#utility.yul\":9064:9068   */\n  dup3\n    /* \"#utility.yul\":9061:9082   */\n  or\n    /* \"#utility.yul\":9053:9082   */\n  swap1\n  pop\n    /* \"#utility.yul\":8793:9088   */\n  swap3\n  swap2\n  pop\n  pop\n  jump\t// out\n    /* \"#utility.yul\":9093:10488   */\ntag_9:\n    /* \"#utility.yul\":9210:9247   */\n  tag_231\n    /* \"#utility.yul\":9243:9246   */\n  dup3\n    /* \"#utility.yul\":9210:9247   */\n  tag_100\n  jump\t// in\ntag_231:\n    /* \"#utility.yul\":9312:9330   */\n  0xffffffffffffffff\n    /* \"#utility.yul\":9304:9310   */\n  dup2\n    /* \"#utility.yul\":9301:9331   */\n  gt\n    /* \"#utility.yul\":9298:9354   */\n  iszero\n  tag_232\n  jumpi\n    /* \"#utility.yul\":9334:9352   */\n  tag_233\n  tag_83\n  jump\t// in\ntag_233:\n    /* \"#utility.yul\":9298:9354   */\ntag_232:\n    /* \"#utility.yul\":9378:9416   */\n  tag_234\n    /* \"#utility.yul\":9410:9414   */\n  dup3\n    /* \"#utility.yul\":9404:9415   */\n  sload\n    /* \"#utility.yul\":9378:9416   */\n  tag_102\n  jump\t// in\ntag_234:\n    /* \"#utility.yul\":9463:9530   */\n  tag_235\n    /* \"#utility.yul\":9523:9529   */\n  dup3\n    /* \"#utility.yul\":9515:9521   */\n  dup3\n    /* \"#utility.yul\":9509:9513   */\n  dup6\n    /* \"#utility.yul\":9463:9530   */\n  tag_114\n  jump\t// in\ntag_235:\n    /* \"#utility.yul\":9557:9558   */\n  0x00\n    /* \"#utility.yul\":9581:9585   */\n  0x20\n    /* \"#utility.yul\":9568:9585   */\n  swap1\n  pop\n    /* \"#utility.yul\":9613:9615   */\n  0x1f\n    /* \"#utility.yul\":9605:9611   */\n  dup4\n    /* \"#utility.yul\":9602:9616   */\n  gt\n    /* \"#utility.yul\":9630:9631   */\n  0x01\n    /* \"#utility.yul\":9625:10243   */\n  dup2\n  eq\n  tag_237\n  jumpi\n    /* \"#utility.yul\":10287:10288   */\n  0x00\n    /* \"#utility.yul\":10304:10310   */\n  dup5\n    /* \"#utility.yul\":10301:10378   */\n  iszero\n  tag_238\n  jumpi\n    /* \"#utility.yul\":10353:10362   */\n  dup3\n    /* \"#utility.yul\":10348:10351   */\n  dup8\n    /* \"#utility.yul\":10344:10363   */\n  add\n    /* \"#utility.yul\":10338:10364   */\n  mload\n    /* \"#utility.yul\":10329:10364   */\n  swap1\n  pop\n    /* \"#utility.yul\":10301:10378   */\ntag_238:\n    /* \"#utility.yul\":10404:10471   */\n  tag_239\n    /* \"#utility.yul\":10464:10470   */\n  dup6\n    /* \"#utility.yul\":10457:10462   */\n  dup3\n    /* \"#utility.yul\":10404:10471   */\n  tag_117\n  jump\t// in\ntag_239:\n    /* \"#utility.yul\":10398:10402   */\n  dup7\n    /* \"#utility.yul\":10391:10472   */\n  sstore\n    /* \"#utility.yul\":10260:10482   */\n  pop\n    /* \"#utility.yul\":9595:10482   */\n  jump(tag_236)\n    /* \"#utility.yul\":9625:10243   */\ntag_237:\n    /* \"#utility.yul\":9677:9681   */\n  0x1f\n    /* \"#utility.yul\":9673:9682   */\n  not\n    /* \"#utility.yul\":9665:9671   */\n  dup5\n    /* \"#utility.yul\":9661:9683   */\n  and\n    /* \"#utility.yul\":9711:9748   */\n  tag_240\n    /* \"#utility.yul\":9743:9747   */\n  dup7\n    /* \"#utility.yul\":9711:9748   */\n  tag_103\n  jump\t// in\ntag_240:\n    /* \"#utility.yul\":9770:9771   */\n  0x00\n    /* \"#utility.yul\":9784:9992   */\ntag_241:\n    /* \"#utility.yul\":9798:9805   */\n  dup3\n    /* \"#utility.yul\":9795:9796   */\n  dup2\n    /* \"#utility.yul\":9792:9806   */\n  lt\n    /* \"#utility.yul\":9784:9992   */\n  iszero\n  tag_243\n  jumpi\n    /* \"#utility.yul\":9877:9886   */\n  dup5\n    /* \"#utility.yul\":9872:9875   */\n  dup10\n    /* \"#utility.yul\":9868:9887   */\n  add\n    /* \"#utility.yul\":9862:9888   */\n  mload\n    /* \"#utility.yul\":9854:9860   */\n  dup3\n    /* \"#utility.yul\":9847:9889   */\n  sstore\n    /* \"#utility.yul\":9928:9929   */\n  0x01\n    /* \"#utility.yul\":9920:9926   */\n  dup3\n    /* \"#utility.yul\":9916:9930   */\n  add\n    /* \"#utility.yul\":9906:9930   */\n  swap2\n  pop\n    /* \"#utility.yul\":9975:9977   */\n  0x20\n    /* \"#utility.yul\":9964:9973   */\n  dup6\n    /* \"#utility.yul\":9960:9978   */\n  add\n    /* \"#utility.yul\":9947:9978   */\n  swap5\n  pop\n    /* \"#utility.yul\":9821:9825   */\n  0x20\n    /* \"#utility.yul\":9818:9819   */\n  dup2\n    /* \"#utility.yul\":9814:9826   */\n  add\n    /* \"#utility.yul\":9809:9826   */\n  swap1\n  pop\n    /* \"#utility.yul\":9784:9992   */\n  jump(tag_241)\ntag_243:\n    /* \"#utility.yul\":10020:10026   */\n  dup7\n    /* \"#utility.yul\":10011:10018   */\n  dup4\n    /* \"#utility.yul\":10008:10027   */\n  lt\n    /* \"#utility.yul\":10005:10184   */\n  iszero\n  tag_244\n  jumpi\n    /* \"#utility.yul\":10078:10087   */\n  dup5\n    /* \"#utility.yul\":10073:10076   */\n  dup10\n    /* \"#utility.yul\":10069:10088   */\n  add\n    /* \"#utility.yul\":10063:10089   */\n  mload\n    /* \"#utility.yul\":10121:10169   */\n  tag_245\n    /* \"#utility.yul\":10163:10167   */\n  0x1f\n    /* \"#utility.yul\":10155:10161   */\n  dup10\n    /* \"#utility.yul\":10151:10168   */\n  and\n    /* \"#utility.yul\":10140:10149   */\n  dup3\n    /* \"#utility.yul\":10121:10169   */\n  tag_116\n  jump\t// in\ntag_245:\n    /* \"#utility.yul\":10113:10119   */\n  dup4\n    /* \"#utility.yul\":10106:10170   */\n  sstore\n    /* \"#utility.yul\":10028:10184   */\n  pop\n    /* \"#utility.yul\":10005:10184   */\ntag_244:\n    /* \"#utility.yul\":10230:10231   */\n  0x01\n    /* \"#utility.yul\":10226:10227   */\n  0x02\n    /* \"#utility.yul\":10218:10224   */\n  dup9\n    /* \"#utility.yul\":10214:10228   */\n  mul\n    /* \"#utility.yul\":10210:10232   */\n  add\n    /* \"#utility.yul\":10204:10208   */\n  dup9\n    /* \"#utility.yul\":10197:10233   */\n  sstore\n    /* \"#utility.yul\":9632:10243   */\n  pop\n  pop\n  pop\n    /* \"#utility.yul\":9595:10482   */\ntag_236:\n  pop\n    /* \"#utility.yul\":9185:10488   */\n  pop\n  pop\n  pop\n    /* \"#utility.yul\":9093:10488   */\n  pop\n  pop\n  jump\t// out\n    /* \"#utility.yul\":10494:10612   */\ntag_118:\n    /* \"#utility.yul\":10581:10605   */\n  tag_247\n    /* \"#utility.yul\":10599:10604   */\n  dup2\n    /* \"#utility.yul\":10581:10605   */\n  tag_91\n  jump\t// in\ntag_247:\n    /* \"#utility.yul\":10576:10579   */\n  dup3\n    /* \"#utility.yul\":10569:10606   */\n  mstore\n    /* \"#utility.yul\":10494:10612   */\n  pop\n  pop\n  jump\t// out\n    /* \"#utility.yul\":10618:10840   */\ntag_14:\n    /* \"#utility.yul\":10711:10715   */\n  0x00\n    /* \"#utility.yul\":10749:10751   */\n  0x20\n    /* \"#utility.yul\":10738:10747   */\n  dup3\n    /* \"#utility.yul\":10734:10752   */\n  add\n    /* \"#utility.yul\":10726:10752   */\n  swap1\n  pop\n    /* \"#utility.yul\":10762:10833   */\n  tag_249\n    /* \"#utility.yul\":10830:10831   */\n  0x00\n    /* \"#utility.yul\":10819:10828   */\n  dup4\n    /* \"#utility.yul\":10815:10832   */\n  add\n    /* \"#utility.yul\":10806:10812   */\n  dup5\n    /* \"#utility.yul\":10762:10833   */\n  tag_118\n  jump\t// in\ntag_249:\n    /* \"#utility.yul\":10618:10840   */\n  swap3\n  swap2\n  pop\n  pop\n  jump\t// out\n    /* \"#utility.yul\":10846:11015   */\ntag_119:\n    /* \"#utility.yul\":10930:10941   */\n  0x00\n    /* \"#utility.yul\":10964:10970   */\n  dup3\n    /* \"#utility.yul\":10959:10962   */\n  dup3\n    /* \"#utility.yul\":10952:10971   */\n  mstore\n    /* \"#utility.yul\":11004:11008   */\n  0x20\n    /* \"#utility.yul\":10999:11002   */\n  dup3\n    /* \"#utility.yul\":10995:11009   */\n  add\n    /* \"#utility.yul\":10980:11009   */\n  swap1\n  pop\n    /* \"#utility.yul\":10846:11015   */\n  swap3\n  swap2\n  pop\n  pop\n  jump\t// out\n    /* \"#utility.yul\":11021:11241   */\ntag_120:\n    /* \"#utility.yul\":11161:11195   */\n  0x4174206c65617374206f6e65207465616d206d656d6265722072657175697265\n    /* \"#utility.yul\":11157:11158   */\n  0x00\n    /* \"#utility.yul\":11149:11155   */\n  dup3\n    /* \"#utility.yul\":11145:11159   */\n  add\n    /* \"#utility.yul\":11138:11196   */\n  mstore\n    /* \"#utility.yul\":11230:11233   */\n  0x6400000000000000000000000000000000000000000000000000000000000000\n    /* \"#utility.yul\":11225:11227   */\n  0x20\n    /* \"#utility.yul\":11217:11223   */\n  dup3\n    /* \"#utility.yul\":11213:11228   */\n  add\n    /* \"#utility.yul\":11206:11234   */\n  mstore\n    /* \"#utility.yul\":11021:11241   */\n  pop\n  jump\t// out\n    /* \"#utility.yul\":11247:11613   */\ntag_121:\n    /* \"#utility.yul\":11389:11392   */\n  0x00\n    /* \"#utility.yul\":11410:11477   */\n  tag_253\n    /* \"#utility.yul\":11474:11476   */\n  0x21\n    /* \"#utility.yul\":11469:11472   */\n  dup4\n    /* \"#utility.yul\":11410:11477   */\n  tag_119\n  jump\t// in\ntag_253:\n    /* \"#utility.yul\":11403:11477   */\n  swap2\n  pop\n    /* \"#utility.yul\":11486:11579   */\n  tag_254\n    /* \"#utility.yul\":11575:11578   */\n  dup3\n    /* \"#utility.yul\":11486:11579   */\n  tag_120\n  jump\t// in\ntag_254:\n    /* \"#utility.yul\":11604:11606   */\n  0x40\n    /* \"#utility.yul\":11599:11602   */\n  dup3\n    /* \"#utility.yul\":11595:11607   */\n  add\n    /* \"#utility.yul\":11588:11607   */\n  swap1\n  pop\n    /* \"#utility.yul\":11247:11613   */\n  swap2\n  swap1\n  pop\n  jump\t// out\n    /* \"#utility.yul\":11619:12038   */\ntag_20:\n    /* \"#utility.yul\":11785:11789   */\n  0x00\n    /* \"#utility.yul\":11823:11825   */\n  0x20\n    /* \"#utility.yul\":11812:11821   */\n  dup3\n    /* \"#utility.yul\":11808:11826   */\n  add\n    /* \"#utility.yul\":11800:11826   */\n  swap1\n  pop\n    /* \"#utility.yul\":11872:11881   */\n  dup2\n    /* \"#utility.yul\":11866:11870   */\n  dup2\n    /* \"#utility.yul\":11862:11882   */\n  sub\n    /* \"#utility.yul\":11858:11859   */\n  0x00\n    /* \"#utility.yul\":11847:11856   */\n  dup4\n    /* \"#utility.yul\":11843:11860   */\n  add\n    /* \"#utility.yul\":11836:11883   */\n  mstore\n    /* \"#utility.yul\":11900:12031   */\n  tag_256\n    /* \"#utility.yul\":12026:12030   */\n  dup2\n    /* \"#utility.yul\":11900:12031   */\n  tag_121\n  jump\t// in\ntag_256:\n    /* \"#utility.yul\":11892:12031   */\n  swap1\n  pop\n    /* \"#utility.yul\":11619:12038   */\n  swap2\n  swap1\n  pop\n  jump\t// out\n    /* \"#utility.yul\":12044:12224   */\ntag_26:\n    /* \"#utility.yul\":12092:12169   */\n  0x4e487b7100000000000000000000000000000000000000000000000000000000\n    /* \"#utility.yul\":12089:12090   */\n  0x00\n    /* \"#utility.yul\":12082:12170   */\n  mstore\n    /* \"#utility.yul\":12189:12193   */\n  0x32\n    /* \"#utility.yul\":12186:12187   */\n  0x04\n    /* \"#utility.yul\":12179:12194   */\n  mstore\n    /* \"#utility.yul\":12213:12217   */\n  0x24\n    /* \"#utility.yul\":12210:12211   */\n  0x00\n    /* \"#utility.yul\":12203:12218   */\n  revert\n    /* \"#utility.yul\":12230:12410   */\ntag_122:\n    /* \"#utility.yul\":12278:12355   */\n  0x4e487b7100000000000000000000000000000000000000000000000000000000\n    /* \"#utility.yul\":12275:12276   */\n  0x00\n    /* \"#utility.yul\":12268:12356   */\n  mstore\n    /* \"#utility.yul\":12375:12379   */\n  0x11\n    /* \"#utility.yul\":12372:12373   */\n  0x04\n    /* \"#utility.yul\":12365:12380   */\n  mstore\n    /* \"#utility.yul\":12399:12403   */\n  0x24\n    /* \"#utility.yul\":12396:12397   */\n  0x00\n    /* \"#utility.yul\":12389:12404   */\n  revert\n    /* \"#utility.yul\":12416:12607   */\ntag_28:\n    /* \"#utility.yul\":12456:12459   */\n  0x00\n    /* \"#utility.yul\":12475:12495   */\n  tag_260\n    /* \"#utility.yul\":12493:12494   */\n  dup3\n    /* \"#utility.yul\":12475:12495   */\n  tag_94\n  jump\t// in\ntag_260:\n    /* \"#utility.yul\":12470:12495   */\n  swap2\n  pop\n    /* \"#utility.yul\":12509:12529   */\n  tag_261\n    /* \"#utility.yul\":12527:12528   */\n  dup4\n    /* \"#utility.yul\":12509:12529   */\n  tag_94\n  jump\t// in\ntag_261:\n    /* \"#utility.yul\":12504:12529   */\n  swap3\n  pop\n    /* \"#utility.yul\":12552:12553   */\n  dup3\n    /* \"#utility.yul\":12549:12550   */\n  dup3\n    /* \"#utility.yul\":12545:12554   */\n  add\n    /* \"#utility.yul\":12538:12554   */\n  swap1\n  pop\n    /* \"#utility.yul\":12573:12576   */\n  dup1\n    /* \"#utility.yul\":12570:12571   */\n  dup3\n    /* \"#utility.yul\":12567:12577   */\n  gt\n    /* \"#utility.yul\":12564:12600   */\n  iszero\n  tag_262\n  jumpi\n    /* \"#utility.yul\":12580:12598   */\n  tag_263\n  tag_122\n  jump\t// in\ntag_263:\n    /* \"#utility.yul\":12564:12600   */\ntag_262:\n    /* \"#utility.yul\":12416:12607   */\n  swap3\n  swap2\n  pop\n  pop\n  jump\t// out\n    /* \"#utility.yul\":12613:13023   */\ntag_33:\n    /* \"#utility.yul\":12653:12660   */\n  0x00\n    /* \"#utility.yul\":12676:12696   */\n  tag_265\n    /* \"#utility.yul\":12694:12695   */\n  dup3\n    /* \"#utility.yul\":12676:12696   */\n  tag_94\n  jump\t// in\ntag_265:\n    /* \"#utility.yul\":12671:12696   */\n  swap2\n  pop\n    /* \"#utility.yul\":12710:12730   */\n  tag_266\n    /* \"#utility.yul\":12728:12729   */\n  dup4\n    /* \"#utility.yul\":12710:12730   */\n  tag_94\n  jump\t// in\ntag_266:\n    /* \"#utility.yul\":12705:12730   */\n  swap3\n  pop\n    /* \"#utility.yul\":12765:12766   */\n  dup3\n    /* \"#utility.yul\":12762:12763   */\n  dup3\n    /* \"#utility.yul\":12758:12767   */\n  mul\n    /* \"#utility.yul\":12787:12817   */\n  tag_267\n    /* \"#utility.yul\":12805:12816   */\n  dup2\n    /* \"#utility.yul\":12787:12817   */\n  tag_94\n  jump\t// in\ntag_267:\n    /* \"#utility.yul\":12776:12817   */\n  swap2\n  pop\n    /* \"#utility.yul\":12966:12967   */\n  dup3\n    /* \"#utility.yul\":12957:12964   */\n  dup3\n    /* \"#utility.yul\":12953:12968   */\n  div\n    /* \"#utility.yul\":12950:12951   */\n  dup5\n    /* \"#utility.yul\":12947:12969   */\n  eq\n    /* \"#utility.yul\":12927:12928   */\n  dup4\n    /* \"#utility.yul\":12920:12929   */\n  iszero\n    /* \"#utility.yul\":12900:12983   */\n  or\n    /* \"#utility.yul\":12877:13016   */\n  tag_268\n  jumpi\n    /* \"#utility.yul\":12996:13014   */\n  tag_269\n  tag_122\n  jump\t// in\ntag_269:\n    /* \"#utility.yul\":12877:13016   */\ntag_268:\n    /* \"#utility.yul\":12661:13023   */\n  pop\n    /* \"#utility.yul\":12613:13023   */\n  swap3\n  swap2\n  pop\n  pop\n  jump\t// out\n    /* \"#utility.yul\":13029:13209   */\ntag_123:\n    /* \"#utility.yul\":13077:13154   */\n  0x4e487b7100000000000000000000000000000000000000000000000000000000\n    /* \"#utility.yul\":13074:13075   */\n  0x00\n    /* \"#utility.yul\":13067:13155   */\n  mstore\n    /* \"#utility.yul\":13174:13178   */\n  0x12\n    /* \"#utility.yul\":13171:13172   */\n  0x04\n    /* \"#utility.yul\":13164:13179   */\n  mstore\n    /* \"#utility.yul\":13198:13202   */\n  0x24\n    /* \"#utility.yul\":13195:13196   */\n  0x00\n    /* \"#utility.yul\":13188:13203   */\n  revert\n    /* \"#utility.yul\":13215:13400   */\ntag_35:\n    /* \"#utility.yul\":13255:13256   */\n  0x00\n    /* \"#utility.yul\":13272:13292   */\n  tag_272\n    /* \"#utility.yul\":13290:13291   */\n  dup3\n    /* \"#utility.yul\":13272:13292   */\n  tag_94\n  jump\t// in\ntag_272:\n    /* \"#utility.yul\":13267:13292   */\n  swap2\n  pop\n    /* \"#utility.yul\":13306:13326   */\n  tag_273\n    /* \"#utility.yul\":13324:13325   */\n  dup4\n    /* \"#utility.yul\":13306:13326   */\n  tag_94\n  jump\t// in\ntag_273:\n    /* \"#utility.yul\":13301:13326   */\n  swap3\n  pop\n    /* \"#utility.yul\":13345:13346   */\n  dup3\n    /* \"#utility.yul\":13335:13370   */\n  tag_274\n  jumpi\n    /* \"#utility.yul\":13350:13368   */\n  tag_275\n  tag_123\n  jump\t// in\ntag_275:\n    /* \"#utility.yul\":13335:13370   */\ntag_274:\n    /* \"#utility.yul\":13392:13393   */\n  dup3\n    /* \"#utility.yul\":13389:13390   */\n  dup3\n    /* \"#utility.yul\":13385:13394   */\n  div\n    /* \"#utility.yul\":13380:13394   */\n  swap1\n  pop\n    /* \"#utility.yul\":13215:13400   */\n  swap3\n  swap2\n  pop\n  pop\n  jump\t// out\n    /* \"#utility.yul\":13406:13626   */\ntag_124:\n    /* \"#utility.yul\":13546:13580   */\n  0x546f74616c20646973747269627574696f6e2065786365656473206d61726b65\n    /* \"#utility.yul\":13542:13543   */\n  0x00\n    /* \"#utility.yul\":13534:13540   */\n  dup3\n    /* \"#utility.yul\":13530:13544   */\n  add\n    /* \"#utility.yul\":13523:13581   */\n  mstore\n    /* \"#utility.yul\":13615:13618   */\n  0x7400000000000000000000000000000000000000000000000000000000000000\n    /* \"#utility.yul\":13610:13612   */\n  0x20\n    /* \"#utility.yul\":13602:13608   */\n  dup3\n    /* \"#utility.yul\":13598:13613   */\n  add\n    /* \"#utility.yul\":13591:13619   */\n  mstore\n    /* \"#utility.yul\":13406:13626   */\n  pop\n  jump\t// out\n    /* \"#utility.yul\":13632:13998   */\ntag_125:\n    /* \"#utility.yul\":13774:13777   */\n  0x00\n    /* \"#utility.yul\":13795:13862   */\n  tag_278\n    /* \"#utility.yul\":13859:13861   */\n  0x21\n    /* \"#utility.yul\":13854:13857   */\n  dup4\n    /* \"#utility.yul\":13795:13862   */\n  tag_119\n  jump\t// in\ntag_278:\n    /* \"#utility.yul\":13788:13862   */\n  swap2\n  pop\n    /* \"#utility.yul\":13871:13964   */\n  tag_279\n    /* \"#utility.yul\":13960:13963   */\n  dup3\n    /* \"#utility.yul\":13871:13964   */\n  tag_124\n  jump\t// in\ntag_279:\n    /* \"#utility.yul\":13989:13991   */\n  0x40\n    /* \"#utility.yul\":13984:13987   */\n  dup3\n    /* \"#utility.yul\":13980:13992   */\n  add\n    /* \"#utility.yul\":13973:13992   */\n  swap1\n  pop\n    /* \"#utility.yul\":13632:13998   */\n  swap2\n  swap1\n  pop\n  jump\t// out\n    /* \"#utility.yul\":14004:14423   */\ntag_52:\n    /* \"#utility.yul\":14170:14174   */\n  0x00\n    /* \"#utility.yul\":14208:14210   */\n  0x20\n    /* \"#utility.yul\":14197:14206   */\n  dup3\n    /* \"#utility.yul\":14193:14211   */\n  add\n    /* \"#utility.yul\":14185:14211   */\n  swap1\n  pop\n    /* \"#utility.yul\":14257:14266   */\n  dup2\n    /* \"#utility.yul\":14251:14255   */\n  dup2\n    /* \"#utility.yul\":14247:14267   */\n  sub\n    /* \"#utility.yul\":14243:14244   */\n  0x00\n    /* \"#utility.yul\":14232:14241   */\n  dup4\n    /* \"#utility.yul\":14228:14245   */\n  add\n    /* \"#utility.yul\":14221:14268   */\n  mstore\n    /* \"#utility.yul\":14285:14416   */\n  tag_281\n    /* \"#utility.yul\":14411:14415   */\n  dup2\n    /* \"#utility.yul\":14285:14416   */\n  tag_125\n  jump\t// in\ntag_281:\n    /* \"#utility.yul\":14277:14416   */\n  swap1\n  pop\n    /* \"#utility.yul\":14004:14423   */\n  swap2\n  swap1\n  pop\n  jump\t// out\n    /* \"#utility.yul\":14429:14623   */\ntag_55:\n    /* \"#utility.yul\":14469:14473   */\n  0x00\n    /* \"#utility.yul\":14489:14509   */\n  tag_283\n    /* \"#utility.yul\":14507:14508   */\n  dup3\n    /* \"#utility.yul\":14489:14509   */\n  tag_94\n  jump\t// in\ntag_283:\n    /* \"#utility.yul\":14484:14509   */\n  swap2\n  pop\n    /* \"#utility.yul\":14523:14543   */\n  tag_284\n    /* \"#utility.yul\":14541:14542   */\n  dup4\n    /* \"#utility.yul\":14523:14543   */\n  tag_94\n  jump\t// in\ntag_284:\n    /* \"#utility.yul\":14518:14543   */\n  swap3\n  pop\n    /* \"#utility.yul\":14567:14568   */\n  dup3\n    /* \"#utility.yul\":14564:14565   */\n  dup3\n    /* \"#utility.yul\":14560:14569   */\n  sub\n    /* \"#utility.yul\":14552:14569   */\n  swap1\n  pop\n    /* \"#utility.yul\":14591:14592   */\n  dup2\n    /* \"#utility.yul\":14585:14589   */\n  dup2\n    /* \"#utility.yul\":14582:14593   */\n  gt\n    /* \"#utility.yul\":14579:14616   */\n  iszero\n  tag_285\n  jumpi\n    /* \"#utility.yul\":14596:14614   */\n  tag_286\n  tag_122\n  jump\t// in\ntag_286:\n    /* \"#utility.yul\":14579:14616   */\ntag_285:\n    /* \"#utility.yul\":14429:14623   */\n  swap3\n  swap2\n  pop\n  pop\n  jump\t// out\n    /* \"#utility.yul\":14629:14747   */\ntag_126:\n    /* \"#utility.yul\":14716:14740   */\n  tag_288\n    /* \"#utility.yul\":14734:14739   */\n  dup2\n    /* \"#utility.yul\":14716:14740   */\n  tag_94\n  jump\t// in\ntag_288:\n    /* \"#utility.yul\":14711:14714   */\n  dup3\n    /* \"#utility.yul\":14704:14741   */\n  mstore\n    /* \"#utility.yul\":14629:14747   */\n  pop\n  pop\n  jump\t// out\n    /* \"#utility.yul\":14753:15195   */\ntag_73:\n    /* \"#utility.yul\":14902:14906   */\n  0x00\n    /* \"#utility.yul\":14940:14942   */\n  0x60\n    /* \"#utility.yul\":14929:14938   */\n  dup3\n    /* \"#utility.yul\":14925:14943   */\n  add\n    /* \"#utility.yul\":14917:14943   */\n  swap1\n  pop\n    /* \"#utility.yul\":14953:15024   */\n  tag_290\n    /* \"#utility.yul\":15021:15022   */\n  0x00\n    /* \"#utility.yul\":15010:15019   */\n  dup4\n    /* \"#utility.yul\":15006:15023   */\n  add\n    /* \"#utility.yul\":14997:15003   */\n  dup7\n    /* \"#utility.yul\":14953:15024   */\n  tag_118\n  jump\t// in\ntag_290:\n    /* \"#utility.yul\":15034:15106   */\n  tag_291\n    /* \"#utility.yul\":15102:15104   */\n  0x20\n    /* \"#utility.yul\":15091:15100   */\n  dup4\n    /* \"#utility.yul\":15087:15105   */\n  add\n    /* \"#utility.yul\":15078:15084   */\n  dup6\n    /* \"#utility.yul\":15034:15106   */\n  tag_126\n  jump\t// in\ntag_291:\n    /* \"#utility.yul\":15116:15188   */\n  tag_292\n    /* \"#utility.yul\":15184:15186   */\n  0x40\n    /* \"#utility.yul\":15173:15182   */\n  dup4\n    /* \"#utility.yul\":15169:15187   */\n  add\n    /* \"#utility.yul\":15160:15166   */\n  dup5\n    /* \"#utility.yul\":15116:15188   */\n  tag_126\n  jump\t// in\ntag_292:\n    /* \"#utility.yul\":14753:15195   */\n  swap5\n  swap4\n  pop\n  pop\n  pop\n  pop\n  jump\t// out\n    /* \"#utility.yul\":15201:15423   */\ntag_77:\n    /* \"#utility.yul\":15294:15298   */\n  0x00\n    /* \"#utility.yul\":15332:15334   */\n  0x20\n    /* \"#utility.yul\":15321:15330   */\n  dup3\n    /* \"#utility.yul\":15317:15335   */\n  add\n    /* \"#utility.yul\":15309:15335   */\n  swap1\n  pop\n    /* \"#utility.yul\":15345:15416   */\n  tag_294\n    /* \"#utility.yul\":15413:15414   */\n  0x00\n    /* \"#utility.yul\":15402:15411   */\n  dup4\n    /* \"#utility.yul\":15398:15415   */\n  add\n    /* \"#utility.yul\":15389:15395   */\n  dup5\n    /* \"#utility.yul\":15345:15416   */\n  tag_126\n  jump\t// in\ntag_294:\n    /* \"#utility.yul\":15201:15423   */\n  swap3\n  swap2\n  pop\n  pop\n  jump\t// out\n    /* \"contracts/CC/CCToken.sol\":2608:6286  contract CSYDToken is ERC20, Ownable {... */\ntag_60:\n  dataSize(sub_0)\n  dup1\n  dataOffset(sub_0)\n  0x00\n  codecopy\n  0x00\n  return\nstop\n\nsub_0: assembly {\n        /* \"contracts/CC/CCToken.sol\":2608:6286  contract CSYDToken is ERC20, Ownable {... */\n      mstore(0x40, 0x80)\n      callvalue\n      dup1\n      iszero\n      tag_1\n      jumpi\n      revert(0x00, 0x00)\n    tag_1:\n      pop\n      jumpi(tag_2, lt(calldatasize, 0x04))\n      shr(0xe0, calldataload(0x00))\n      dup1\n      0x88e56ec6\n      gt\n      tag_23\n      jumpi\n      dup1\n      0xbdd3d825\n      gt\n      tag_24\n      jumpi\n      dup1\n      0xbdd3d825\n      eq\n      tag_18\n      jumpi\n      dup1\n      0xdd62ed3e\n      eq\n      tag_19\n      jumpi\n      dup1\n      0xeb91d37e\n      eq\n      tag_20\n      jumpi\n      dup1\n      0xefded147\n      eq\n      tag_21\n      jumpi\n      dup1\n      0xf2fde38b\n      eq\n      tag_22\n      jumpi\n      jump(tag_2)\n    tag_24:\n      dup1\n      0x88e56ec6\n      eq\n      tag_13\n      jumpi\n      dup1\n      0x8da5cb5b\n      eq\n      tag_14\n      jumpi\n      dup1\n      0x902d55a5\n      eq\n      tag_15\n      jumpi\n      dup1\n      0x95d89b41\n      eq\n      tag_16\n      jumpi\n      dup1\n      0xa9059cbb\n      eq\n      tag_17\n      jumpi\n      jump(tag_2)\n    tag_23:\n      dup1\n      0x313ce567\n      gt\n      tag_25\n      jumpi\n      dup1\n      0x313ce567\n      eq\n      tag_8\n      jumpi\n      dup1\n      0x35928998\n      eq\n      tag_9\n      jumpi\n      dup1\n      0x70a08231\n      eq\n      tag_10\n      jumpi\n      dup1\n      0x715018a6\n      eq\n      tag_11\n      jumpi\n      dup1\n      0x76ae9b2d\n      eq\n      tag_12\n      jumpi\n      jump(tag_2)\n    tag_25:\n      dup1\n      0x06fdde03\n      eq\n      tag_3\n      jumpi\n      dup1\n      0x095ea7b3\n      eq\n      tag_4\n      jumpi\n      dup1\n      0x18160ddd\n      eq\n      tag_5\n      jumpi\n      dup1\n      0x19ca43ab\n      eq\n      tag_6\n      jumpi\n      dup1\n      0x23b872dd\n      eq\n      tag_7\n      jumpi\n    tag_2:\n      revert(0x00, 0x00)\n        /* \"https://github.com/OpenZeppelin/openzeppelin-contracts/blob/master/contracts/token/ERC20/ERC20.sol\":1760:1849  function name() public view virtual returns (string memory) {... */\n    tag_3:\n      tag_26\n      tag_27\n      jump\t// in\n    tag_26:\n      mload(0x40)\n      tag_28\n      swap2\n      swap1\n      tag_29\n      jump\t// in\n    tag_28:\n      mload(0x40)\n      dup1\n      swap2\n      sub\n      swap1\n      return\n        /* \"https://github.com/OpenZeppelin/openzeppelin-contracts/blob/master/contracts/token/ERC20/ERC20.sol\":3902:4088  function approve(address spender, uint256 value) public virtual returns (bool) {... */\n    tag_4:\n      tag_30\n      0x04\n      dup1\n      calldatasize\n      sub\n      dup2\n      add\n      swap1\n      tag_31\n      swap2\n      swap1\n      tag_32\n      jump\t// in\n    tag_31:\n      tag_33\n      jump\t// in\n    tag_30:\n      mload(0x40)\n      tag_34\n      swap2\n      swap1\n      tag_35\n      jump\t// in\n    tag_34:\n      mload(0x40)\n      dup1\n      swap2\n      sub\n      swap1\n      return\n        /* \"https://github.com/OpenZeppelin/openzeppelin-contracts/blob/master/contracts/token/ERC20/ERC20.sol\":2803:2900  function totalSupply() public view virtual returns (uint256) {... */\n    tag_5:\n      tag_36\n      tag_37\n      jump\t// in\n    tag_36:\n      mload(0x40)\n      tag_38\n      swap2\n      swap1\n      tag_39\n      jump\t// in\n    tag_38:\n      mload(0x40)\n      dup1\n      swap2\n      sub\n      swap1\n      return\n        /* \"contracts/CC/CCToken.sol\":6148:6283  function getTeamMemberCount() public view returns (uint256) {... */\n    tag_6:\n      tag_40\n      tag_41\n      jump\t// in\n    tag_40:\n      mload(0x40)\n      tag_42\n      swap2\n      swap1\n      tag_39\n      jump\t// in\n    tag_42:\n      mload(0x40)\n      dup1\n      swap2\n      sub\n      swap1\n      return\n        /* \"contracts/CC/CCToken.sol\":5173:5367  function transferFrom(address sender, address recipient, uint256 amount) public override teamLocked(amount) returns (bool) {... */\n    tag_7:\n      tag_43\n      0x04\n      dup1\n      calldatasize\n      sub\n      dup2\n      add\n      swap1\n      tag_44\n      swap2\n      swap1\n      tag_45\n      jump\t// in\n    tag_44:\n      tag_46\n      jump\t// in\n    tag_43:\n      mload(0x40)\n      tag_47\n      swap2\n      swap1\n      tag_35\n      jump\t// in\n    tag_47:\n      mload(0x40)\n      dup1\n      swap2\n      sub\n      swap1\n      return\n        /* \"https://github.com/OpenZeppelin/openzeppelin-contracts/blob/master/contracts/token/ERC20/ERC20.sol\":2688:2770  function decimals() public view virtual returns (uint8) {... */\n    tag_8:\n      tag_48\n      tag_49\n      jump\t// in\n    tag_48:\n      mload(0x40)\n      tag_50\n      swap2\n      swap1\n      tag_51\n      jump\t// in\n    tag_50:\n      mload(0x40)\n      dup1\n      swap2\n      sub\n      swap1\n      return\n        /* \"contracts/CC/CCToken.sol\":2737:2792  uint256 public constant TEAM_LOCK_PERIOD = 3 * 365 days */\n    tag_9:\n      tag_52\n      tag_53\n      jump\t// in\n    tag_52:\n      mload(0x40)\n      tag_54\n      swap2\n      swap1\n      tag_39\n      jump\t// in\n    tag_54:\n      mload(0x40)\n      dup1\n      swap2\n      sub\n      swap1\n      return\n        /* \"https://github.com/OpenZeppelin/openzeppelin-contracts/blob/master/contracts/token/ERC20/ERC20.sol\":2933:3049  function balanceOf(address account) public view virtual returns (uint256) {... */\n    tag_10:\n      tag_55\n      0x04\n      dup1\n      calldatasize\n      sub\n      dup2\n      add\n      swap1\n      tag_56\n      swap2\n      swap1\n      tag_57\n      jump\t// in\n    tag_56:\n      tag_58\n      jump\t// in\n    tag_55:\n      mload(0x40)\n      tag_59\n      swap2\n      swap1\n      tag_39\n      jump\t// in\n    tag_59:\n      mload(0x40)\n      dup1\n      swap2\n      sub\n      swap1\n      return\n        /* \"https://github.com/OpenZeppelin/openzeppelin-contracts/blob/master/contracts/access/Ownable.sol\":2293:2394  function renounceOwnership() public virtual onlyOwner {... */\n    tag_11:\n      tag_60\n      tag_61\n      jump\t// in\n    tag_60:\n      stop\n        /* \"contracts/CC/CCToken.sol\":3027:3057  uint256 public teamLockedUntil */\n    tag_12:\n      tag_62\n      tag_63\n      jump\t// in\n    tag_62:\n      mload(0x40)\n      tag_64\n      swap2\n      swap1\n      tag_39\n      jump\t// in\n    tag_64:\n      mload(0x40)\n      dup1\n      swap2\n      sub\n      swap1\n      return\n        /* \"contracts/CC/CCToken.sol\":5812:6140  function getTeamMember(uint256 index) public view returns (address, uint256) {... */\n    tag_13:\n      tag_65\n      0x04\n      dup1\n      calldatasize\n      sub\n      dup2\n      add\n      swap1\n      tag_66\n      swap2\n      swap1\n      tag_67\n      jump\t// in\n    tag_66:\n      tag_68\n      jump\t// in\n    tag_65:\n      mload(0x40)\n      tag_69\n      swap3\n      swap2\n      swap1\n      tag_70\n      jump\t// in\n    tag_69:\n      mload(0x40)\n      dup1\n      swap2\n      sub\n      swap1\n      return\n        /* \"https://github.com/OpenZeppelin/openzeppelin-contracts/blob/master/contracts/access/Ownable.sol\":1638:1723  function owner() public view virtual returns (address) {... */\n    tag_14:\n      tag_71\n      tag_72\n      jump\t// in\n    tag_71:\n      mload(0x40)\n      tag_73\n      swap2\n      swap1\n      tag_74\n      jump\t// in\n    tag_73:\n      mload(0x40)\n      dup1\n      swap2\n      sub\n      swap1\n      return\n        /* \"contracts/CC/CCToken.sol\":2656:2715  uint256 public constant TOTAL_SUPPLY = 187_500_000 * 10**18 */\n    tag_15:\n      tag_75\n      tag_76\n      jump\t// in\n    tag_75:\n      mload(0x40)\n      tag_77\n      swap2\n      swap1\n      tag_39\n      jump\t// in\n    tag_77:\n      mload(0x40)\n      dup1\n      swap2\n      sub\n      swap1\n      return\n        /* \"https://github.com/OpenZeppelin/openzeppelin-contracts/blob/master/contracts/token/ERC20/ERC20.sol\":1962:2055  function symbol() public view virtual returns (string memory) {... */\n    tag_16:\n      tag_78\n      tag_79\n      jump\t// in\n    tag_78:\n      mload(0x40)\n      tag_80\n      swap2\n      swap1\n      tag_29\n      jump\t// in\n    tag_80:\n      mload(0x40)\n      dup1\n      swap2\n      sub\n      swap1\n      return\n        /* \"contracts/CC/CCToken.sol\":4973:5135  function transfer(address recipient, uint256 amount) public override teamLocked(amount) returns (bool) {... */\n    tag_17:\n      tag_81\n      0x04\n      dup1\n      calldatasize\n      sub\n      dup2\n      add\n      swap1\n      tag_82\n      swap2\n      swap1\n      tag_32\n      jump\t// in\n    tag_82:\n      tag_83\n      jump\t// in\n    tag_81:\n      mload(0x40)\n      tag_84\n      swap2\n      swap1\n      tag_35\n      jump\t// in\n    tag_84:\n      mload(0x40)\n      dup1\n      swap2\n      sub\n      swap1\n      return\n        /* \"contracts/CC/CCToken.sol\":3064:3090  address public uniswapPool */\n    tag_18:\n      tag_85\n      tag_86\n      jump\t// in\n    tag_85:\n      mload(0x40)\n      tag_87\n      swap2\n      swap1\n      tag_74\n      jump\t// in\n    tag_87:\n      mload(0x40)\n      dup1\n      swap2\n      sub\n      swap1\n      return\n        /* \"https://github.com/OpenZeppelin/openzeppelin-contracts/blob/master/contracts/token/ERC20/ERC20.sol\":3455:3595  function allowance(address owner, address spender) public view virtual returns (uint256) {... */\n    tag_19:\n      tag_88\n      0x04\n      dup1\n      calldatasize\n      sub\n      dup2\n      add\n      swap1\n      tag_89\n      swap2\n      swap1\n      tag_90\n      jump\t// in\n    tag_89:\n      tag_91\n      jump\t// in\n    tag_88:\n      mload(0x40)\n      tag_92\n      swap2\n      swap1\n      tag_39\n      jump\t// in\n    tag_92:\n      mload(0x40)\n      dup1\n      swap2\n      sub\n      swap1\n      return\n        /* \"contracts/CC/CCToken.sol\":5375:5657  function getCurrentPrice() public view returns (uint256 price) {... */\n    tag_20:\n      tag_93\n      tag_94\n      jump\t// in\n    tag_93:\n      mload(0x40)\n      tag_95\n      swap2\n      swap1\n      tag_39\n      jump\t// in\n    tag_95:\n      mload(0x40)\n      dup1\n      swap2\n      sub\n      swap1\n      return\n        /* \"contracts/CC/CCToken.sol\":5665:5804  function getTeamMembers() public view returns (TeamMember[] memory) {... */\n    tag_21:\n      tag_96\n      tag_97\n      jump\t// in\n    tag_96:\n      mload(0x40)\n      tag_98\n      swap2\n      swap1\n      tag_99\n      jump\t// in\n    tag_98:\n      mload(0x40)\n      dup1\n      swap2\n      sub\n      swap1\n      return\n        /* \"https://github.com/OpenZeppelin/openzeppelin-contracts/blob/master/contracts/access/Ownable.sol\":2543:2758  function transferOwnership(address newOwner) public virtual onlyOwner {... */\n    tag_22:\n      tag_100\n      0x04\n      dup1\n      calldatasize\n      sub\n      dup2\n      add\n      swap1\n      tag_101\n      swap2\n      swap1\n      tag_57\n      jump\t// in\n    tag_101:\n      tag_102\n      jump\t// in\n    tag_100:\n      stop\n        /* \"https://github.com/OpenZeppelin/openzeppelin-contracts/blob/master/contracts/token/ERC20/ERC20.sol\":1760:1849  function name() public view virtual returns (string memory) {... */\n    tag_27:\n        /* \"https://github.com/OpenZeppelin/openzeppelin-contracts/blob/master/contracts/token/ERC20/ERC20.sol\":1805:1818  string memory */\n      0x60\n        /* \"https://github.com/OpenZeppelin/openzeppelin-contracts/blob/master/contracts/token/ERC20/ERC20.sol\":1837:1842  _name */\n      0x03\n        /* \"https://github.com/OpenZeppelin/openzeppelin-contracts/blob/master/contracts/token/ERC20/ERC20.sol\":1830:1842  return _name */\n      dup1\n      sload\n      tag_104\n      swap1\n      tag_105\n      jump\t// in\n    tag_104:\n      dup1\n      0x1f\n      add\n      0x20\n      dup1\n      swap2\n      div\n      mul\n      0x20\n      add\n      mload(0x40)\n      swap1\n      dup2\n      add\n      0x40\n      mstore\n      dup1\n      swap3\n      swap2\n      swap1\n      dup2\n      dup2\n      mstore\n      0x20\n      add\n      dup3\n      dup1\n      sload\n      tag_106\n      swap1\n      tag_105\n      jump\t// in\n    tag_106:\n      dup1\n      iszero\n      tag_107\n      jumpi\n      dup1\n      0x1f\n      lt\n      tag_108\n      jumpi\n      0x0100\n      dup1\n      dup4\n      sload\n      div\n      mul\n      dup4\n      mstore\n      swap2\n      0x20\n      add\n      swap2\n      jump(tag_107)\n    tag_108:\n      dup3\n      add\n      swap2\n      swap1\n      0x00\n      mstore\n      keccak256(0x00, 0x20)\n      swap1\n    tag_109:\n      dup2\n      sload\n      dup2\n      mstore\n      swap1\n      0x01\n      add\n      swap1\n      0x20\n      add\n      dup1\n      dup4\n      gt\n      tag_109\n      jumpi\n      dup3\n      swap1\n      sub\n      0x1f\n      and\n      dup3\n      add\n      swap2\n    tag_107:\n      pop\n      pop\n      pop\n      pop\n      pop\n      swap1\n      pop\n        /* \"https://github.com/OpenZeppelin/openzeppelin-contracts/blob/master/contracts/token/ERC20/ERC20.sol\":1760:1849  function name() public view virtual returns (string memory) {... */\n      swap1\n      jump\t// out\n        /* \"https://github.com/OpenZeppelin/openzeppelin-contracts/blob/master/contracts/token/ERC20/ERC20.sol\":3902:4088  function approve(address spender, uint256 value) public virtual returns (bool) {... */\n    tag_33:\n        /* \"https://github.com/OpenZeppelin/openzeppelin-contracts/blob/master/contracts/token/ERC20/ERC20.sol\":3975:3979  bool */\n      0x00\n        /* \"https://github.com/OpenZeppelin/openzeppelin-contracts/blob/master/contracts/token/ERC20/ERC20.sol\":3991:4004  address owner */\n      0x00\n        /* \"https://github.com/OpenZeppelin/openzeppelin-contracts/blob/master/contracts/token/ERC20/ERC20.sol\":4007:4019  _msgSender() */\n      tag_111\n        /* \"https://github.com/OpenZeppelin/openzeppelin-contracts/blob/master/contracts/token/ERC20/ERC20.sol\":4007:4017  _msgSender */\n      tag_112\n        /* \"https://github.com/OpenZeppelin/openzeppelin-contracts/blob/master/contracts/token/ERC20/ERC20.sol\":4007:4019  _msgSender() */\n      jump\t// in\n    tag_111:\n        /* \"https://github.com/OpenZeppelin/openzeppelin-contracts/blob/master/contracts/token/ERC20/ERC20.sol\":3991:4019  address owner = _msgSender() */\n      swap1\n      pop\n        /* \"https://github.com/OpenZeppelin/openzeppelin-contracts/blob/master/contracts/token/ERC20/ERC20.sol\":4029:4060  _approve(owner, spender, value) */\n      tag_113\n        /* \"https://github.com/OpenZeppelin/openzeppelin-contracts/blob/master/contracts/token/ERC20/ERC20.sol\":4038:4043  owner */\n      dup2\n        /* \"https://github.com/OpenZeppelin/openzeppelin-contracts/blob/master/contracts/token/ERC20/ERC20.sol\":4045:4052  spender */\n      dup6\n        /* \"https://github.com/OpenZeppelin/openzeppelin-contracts/blob/master/contracts/token/ERC20/ERC20.sol\":4054:4059  value */\n      dup6\n        /* \"https://github.com/OpenZeppelin/openzeppelin-contracts/blob/master/contracts/token/ERC20/ERC20.sol\":4029:4037  _approve */\n      tag_114\n        /* \"https://github.com/OpenZeppelin/openzeppelin-contracts/blob/master/contracts/token/ERC20/ERC20.sol\":4029:4060  _approve(owner, spender, value) */\n      jump\t// in\n    tag_113:\n        /* \"https://github.com/OpenZeppelin/openzeppelin-contracts/blob/master/contracts/token/ERC20/ERC20.sol\":4077:4081  true */\n      0x01\n        /* \"https://github.com/OpenZeppelin/openzeppelin-contracts/blob/master/contracts/token/ERC20/ERC20.sol\":4070:4081  return true */\n      swap2\n      pop\n      pop\n        /* \"https://github.com/OpenZeppelin/openzeppelin-contracts/blob/master/contracts/token/ERC20/ERC20.sol\":3902:4088  function approve(address spender, uint256 value) public virtual returns (bool) {... */\n      swap3\n      swap2\n      pop\n      pop\n      jump\t// out\n        /* \"https://github.com/OpenZeppelin/openzeppelin-contracts/blob/master/contracts/token/ERC20/ERC20.sol\":2803:2900  function totalSupply() public view virtual returns (uint256) {... */\n    tag_37:\n        /* \"https://github.com/OpenZeppelin/openzeppelin-contracts/blob/master/contracts/token/ERC20/ERC20.sol\":2855:2862  uint256 */\n      0x00\n        /* \"https://github.com/OpenZeppelin/openzeppelin-contracts/blob/master/contracts/token/ERC20/ERC20.sol\":2881:2893  _totalSupply */\n      sload(0x02)\n        /* \"https://github.com/OpenZeppelin/openzeppelin-contracts/blob/master/contracts/token/ERC20/ERC20.sol\":2874:2893  return _totalSupply */\n      swap1\n      pop\n        /* \"https://github.com/OpenZeppelin/openzeppelin-contracts/blob/master/contracts/token/ERC20/ERC20.sol\":2803:2900  function totalSupply() public view virtual returns (uint256) {... */\n      swap1\n      jump\t// out\n        /* \"contracts/CC/CCToken.sol\":6148:6283  function getTeamMemberCount() public view returns (uint256) {... */\n    tag_41:\n        /* \"contracts/CC/CCToken.sol\":6199:6206  uint256 */\n      0x00\n        /* \"contracts/CC/CCToken.sol\":6226:6237  teamMembers */\n      0x06\n        /* \"contracts/CC/CCToken.sol\":6226:6244  teamMembers.length */\n      dup1\n      sload\n      swap1\n      pop\n        /* \"contracts/CC/CCToken.sol\":6219:6244  return teamMembers.length */\n      swap1\n      pop\n        /* \"contracts/CC/CCToken.sol\":6148:6283  function getTeamMemberCount() public view returns (uint256) {... */\n      swap1\n      jump\t// out\n        /* \"contracts/CC/CCToken.sol\":5173:5367  function transferFrom(address sender, address recipient, uint256 amount) public override teamLocked(amount) returns (bool) {... */\n    tag_46:\n        /* \"contracts/CC/CCToken.sol\":5290:5294  bool */\n      0x00\n        /* \"contracts/CC/CCToken.sol\":5273:5279  amount */\n      dup2\n        /* \"contracts/CC/CCToken.sol\":4847:4862  teamLockedUntil */\n      sload(0x07)\n        /* \"contracts/CC/CCToken.sol\":4828:4843  block.timestamp */\n      timestamp\n        /* \"contracts/CC/CCToken.sol\":4828:4862  block.timestamp >= teamLockedUntil */\n      lt\n      iszero\n        /* \"contracts/CC/CCToken.sol\":4828:4897  block.timestamp >= teamLockedUntil || balanceOf(msg.sender) >= amount */\n      dup1\n      tag_118\n      jumpi\n      pop\n        /* \"contracts/CC/CCToken.sol\":4891:4897  amount */\n      dup1\n        /* \"contracts/CC/CCToken.sol\":4866:4887  balanceOf(msg.sender) */\n      tag_119\n        /* \"contracts/CC/CCToken.sol\":4876:4886  msg.sender */\n      caller\n        /* \"contracts/CC/CCToken.sol\":4866:4875  balanceOf */\n      tag_58\n        /* \"contracts/CC/CCToken.sol\":4866:4887  balanceOf(msg.sender) */\n      jump\t// in\n    tag_119:\n        /* \"contracts/CC/CCToken.sol\":4866:4897  balanceOf(msg.sender) >= amount */\n      lt\n      iszero\n        /* \"contracts/CC/CCToken.sol\":4828:4897  block.timestamp >= teamLockedUntil || balanceOf(msg.sender) >= amount */\n    tag_118:\n        /* \"contracts/CC/CCToken.sol\":4820:4924  require(block.timestamp >= teamLockedUntil || balanceOf(msg.sender) >= amount, \"Team tokens are locked\") */\n      tag_120\n      jumpi\n      mload(0x40)\n      0x08c379a000000000000000000000000000000000000000000000000000000000\n      dup2\n      mstore\n      0x04\n      add\n      tag_121\n      swap1\n      tag_122\n      jump\t// in\n    tag_121:\n      mload(0x40)\n      dup1\n      swap2\n      sub\n      swap1\n      revert\n    tag_120:\n        /* \"contracts/CC/CCToken.sol\":5314:5359  super.transferFrom(sender, recipient, amount) */\n      tag_124\n        /* \"contracts/CC/CCToken.sol\":5333:5339  sender */\n      dup6\n        /* \"contracts/CC/CCToken.sol\":5341:5350  recipient */\n      dup6\n        /* \"contracts/CC/CCToken.sol\":5352:5358  amount */\n      dup6\n        /* \"contracts/CC/CCToken.sol\":5314:5332  super.transferFrom */\n      tag_125\n        /* \"contracts/CC/CCToken.sol\":5314:5359  super.transferFrom(sender, recipient, amount) */\n      jump\t// in\n    tag_124:\n        /* \"contracts/CC/CCToken.sol\":5307:5359  return super.transferFrom(sender, recipient, amount) */\n      swap2\n      pop\n        /* \"contracts/CC/CCToken.sol\":5173:5367  function transferFrom(address sender, address recipient, uint256 amount) public override teamLocked(amount) returns (bool) {... */\n      pop\n      swap4\n      swap3\n      pop\n      pop\n      pop\n      jump\t// out\n        /* \"https://github.com/OpenZeppelin/openzeppelin-contracts/blob/master/contracts/token/ERC20/ERC20.sol\":2688:2770  function decimals() public view virtual returns (uint8) {... */\n    tag_49:\n        /* \"https://github.com/OpenZeppelin/openzeppelin-contracts/blob/master/contracts/token/ERC20/ERC20.sol\":2737:2742  uint8 */\n      0x00\n        /* \"https://github.com/OpenZeppelin/openzeppelin-contracts/blob/master/contracts/token/ERC20/ERC20.sol\":2761:2763  18 */\n      0x12\n        /* \"https://github.com/OpenZeppelin/openzeppelin-contracts/blob/master/contracts/token/ERC20/ERC20.sol\":2754:2763  return 18 */\n      swap1\n      pop\n        /* \"https://github.com/OpenZeppelin/openzeppelin-contracts/blob/master/contracts/token/ERC20/ERC20.sol\":2688:2770  function decimals() public view virtual returns (uint8) {... */\n      swap1\n      jump\t// out\n        /* \"contracts/CC/CCToken.sol\":2737:2792  uint256 public constant TEAM_LOCK_PERIOD = 3 * 365 days */\n    tag_53:\n        /* \"contracts/CC/CCToken.sol\":2780:2792  3 * 365 days */\n      0x05a39a80\n        /* \"contracts/CC/CCToken.sol\":2737:2792  uint256 public constant TEAM_LOCK_PERIOD = 3 * 365 days */\n      dup2\n      jump\t// out\n        /* \"https://github.com/OpenZeppelin/openzeppelin-contracts/blob/master/contracts/token/ERC20/ERC20.sol\":2933:3049  function balanceOf(address account) public view virtual returns (uint256) {... */\n    tag_58:\n        /* \"https://github.com/OpenZeppelin/openzeppelin-contracts/blob/master/contracts/token/ERC20/ERC20.sol\":2998:3005  uint256 */\n      0x00\n        /* \"https://github.com/OpenZeppelin/openzeppelin-contracts/blob/master/contracts/token/ERC20/ERC20.sol\":3024:3033  _balances */\n      0x00\n        /* \"https://github.com/OpenZeppelin/openzeppelin-contracts/blob/master/contracts/token/ERC20/ERC20.sol\":3024:3042  _balances[account] */\n      0x00\n        /* \"https://github.com/OpenZeppelin/openzeppelin-contracts/blob/master/contracts/token/ERC20/ERC20.sol\":3034:3041  account */\n      dup4\n        /* \"https://github.com/OpenZeppelin/openzeppelin-contracts/blob/master/contracts/token/ERC20/ERC20.sol\":3024:3042  _balances[account] */\n      0xffffffffffffffffffffffffffffffffffffffff\n      and\n      0xffffffffffffffffffffffffffffffffffffffff\n      and\n      dup2\n      mstore\n      0x20\n      add\n      swap1\n      dup2\n      mstore\n      0x20\n      add\n      0x00\n      keccak256\n      sload\n        /* \"https://github.com/OpenZeppelin/openzeppelin-contracts/blob/master/contracts/token/ERC20/ERC20.sol\":3017:3042  return _balances[account] */\n      swap1\n      pop\n        /* \"https://github.com/OpenZeppelin/openzeppelin-contracts/blob/master/contracts/token/ERC20/ERC20.sol\":2933:3049  function balanceOf(address account) public view virtual returns (uint256) {... */\n      swap2\n      swap1\n      pop\n      jump\t// out\n        /* \"https://github.com/OpenZeppelin/openzeppelin-contracts/blob/master/contracts/access/Ownable.sol\":2293:2394  function renounceOwnership() public virtual onlyOwner {... */\n    tag_61:\n        /* \"https://github.com/OpenZeppelin/openzeppelin-contracts/blob/master/contracts/access/Ownable.sol\":1531:1544  _checkOwner() */\n      tag_129\n        /* \"https://github.com/OpenZeppelin/openzeppelin-contracts/blob/master/contracts/access/Ownable.sol\":1531:1542  _checkOwner */\n      tag_130\n        /* \"https://github.com/OpenZeppelin/openzeppelin-contracts/blob/master/contracts/access/Ownable.sol\":1531:1544  _checkOwner() */\n      jump\t// in\n    tag_129:\n        /* \"https://github.com/OpenZeppelin/openzeppelin-contracts/blob/master/contracts/access/Ownable.sol\":2357:2387  _transferOwnership(address(0)) */\n      tag_132\n        /* \"https://github.com/OpenZeppelin/openzeppelin-contracts/blob/master/contracts/access/Ownable.sol\":2384:2385  0 */\n      0x00\n        /* \"https://github.com/OpenZeppelin/openzeppelin-contracts/blob/master/contracts/access/Ownable.sol\":2357:2375  _transferOwnership */\n      tag_133\n        /* \"https://github.com/OpenZeppelin/openzeppelin-contracts/blob/master/contracts/access/Ownable.sol\":2357:2387  _transferOwnership(address(0)) */\n      jump\t// in\n    tag_132:\n        /* \"https://github.com/OpenZeppelin/openzeppelin-contracts/blob/master/contracts/access/Ownable.sol\":2293:2394  function renounceOwnership() public virtual onlyOwner {... */\n      jump\t// out\n        /* \"contracts/CC/CCToken.sol\":3027:3057  uint256 public teamLockedUntil */\n    tag_63:\n      sload(0x07)\n      dup2\n      jump\t// out\n        /* \"contracts/CC/CCToken.sol\":5812:6140  function getTeamMember(uint256 index) public view returns (address, uint256) {... */\n    tag_68:\n        /* \"contracts/CC/CCToken.sol\":5871:5878  address */\n      0x00\n        /* \"contracts/CC/CCToken.sol\":5880:5887  uint256 */\n      0x00\n        /* \"contracts/CC/CCToken.sol\":5916:5927  teamMembers */\n      0x06\n        /* \"contracts/CC/CCToken.sol\":5916:5934  teamMembers.length */\n      dup1\n      sload\n      swap1\n      pop\n        /* \"contracts/CC/CCToken.sol\":5908:5913  index */\n      dup4\n        /* \"contracts/CC/CCToken.sol\":5908:5934  index < teamMembers.length */\n      lt\n        /* \"contracts/CC/CCToken.sol\":5900:5958  require(index < teamMembers.length, \"Index out of bounds\") */\n      tag_135\n      jumpi\n      mload(0x40)\n      0x08c379a000000000000000000000000000000000000000000000000000000000\n      dup2\n      mstore\n      0x04\n      add\n      tag_136\n      swap1\n      tag_137\n      jump\t// in\n    tag_136:\n      mload(0x40)\n      dup1\n      swap2\n      sub\n      swap1\n      revert\n    tag_135:\n        /* \"contracts/CC/CCToken.sol\":5991:6015  TeamMember memory member */\n      0x00\n        /* \"contracts/CC/CCToken.sol\":6018:6029  teamMembers */\n      0x06\n        /* \"contracts/CC/CCToken.sol\":6030:6035  index */\n      dup5\n        /* \"contracts/CC/CCToken.sol\":6018:6036  teamMembers[index] */\n      dup2\n      sload\n      dup2\n      lt\n      tag_138\n      jumpi\n      tag_139\n      tag_140\n      jump\t// in\n    tag_139:\n    tag_138:\n      swap1\n      0x00\n      mstore\n      keccak256(0x00, 0x20)\n      swap1\n      0x02\n      mul\n      add\n        /* \"contracts/CC/CCToken.sol\":5991:6036  TeamMember memory member = teamMembers[index] */\n      mload(0x40)\n      dup1\n      0x40\n      add\n      0x40\n      mstore\n      swap1\n      dup2\n      0x00\n      dup3\n      add\n      0x00\n      swap1\n      sload\n      swap1\n      0x0100\n      exp\n      swap1\n      div\n      0xffffffffffffffffffffffffffffffffffffffff\n      and\n      0xffffffffffffffffffffffffffffffffffffffff\n      and\n      0xffffffffffffffffffffffffffffffffffffffff\n      and\n      dup2\n      mstore\n      0x20\n      add\n      0x01\n      dup3\n      add\n      sload\n      dup2\n      mstore\n      pop\n      pop\n      swap1\n      pop\n        /* \"contracts/CC/CCToken.sol\":6055:6061  member */\n      dup1\n        /* \"contracts/CC/CCToken.sol\":6055:6075  member.memberAddress */\n      0x00\n      add\n      mload\n        /* \"contracts/CC/CCToken.sol\":6077:6083  member */\n      dup2\n        /* \"contracts/CC/CCToken.sol\":6077:6100  member.investmentAmount */\n      0x20\n      add\n      mload\n        /* \"contracts/CC/CCToken.sol\":6047:6101  return (member.memberAddress, member.investmentAmount) */\n      swap3\n      pop\n      swap3\n      pop\n      pop\n        /* \"contracts/CC/CCToken.sol\":5812:6140  function getTeamMember(uint256 index) public view returns (address, uint256) {... */\n      swap2\n      pop\n      swap2\n      jump\t// out\n        /* \"https://github.com/OpenZeppelin/openzeppelin-contracts/blob/master/contracts/access/Ownable.sol\":1638:1723  function owner() public view virtual returns (address) {... */\n    tag_72:\n        /* \"https://github.com/OpenZeppelin/openzeppelin-contracts/blob/master/contracts/access/Ownable.sol\":1684:1691  address */\n      0x00\n        /* \"https://github.com/OpenZeppelin/openzeppelin-contracts/blob/master/contracts/access/Ownable.sol\":1710:1716  _owner */\n      0x05\n      0x00\n      swap1\n      sload\n      swap1\n      0x0100\n      exp\n      swap1\n      div\n      0xffffffffffffffffffffffffffffffffffffffff\n      and\n        /* \"https://github.com/OpenZeppelin/openzeppelin-contracts/blob/master/contracts/access/Ownable.sol\":1703:1716  return _owner */\n      swap1\n      pop\n        /* \"https://github.com/OpenZeppelin/openzeppelin-contracts/blob/master/contracts/access/Ownable.sol\":1638:1723  function owner() public view virtual returns (address) {... */\n      swap1\n      jump\t// out\n        /* \"contracts/CC/CCToken.sol\":2656:2715  uint256 public constant TOTAL_SUPPLY = 187_500_000 * 10**18 */\n    tag_76:\n        /* \"contracts/CC/CCToken.sol\":2695:2715  187_500_000 * 10**18 */\n      0x9b18ab5df7180b6b800000\n        /* \"contracts/CC/CCToken.sol\":2656:2715  uint256 public constant TOTAL_SUPPLY = 187_500_000 * 10**18 */\n      dup2\n      jump\t// out\n        /* \"https://github.com/OpenZeppelin/openzeppelin-contracts/blob/master/contracts/token/ERC20/ERC20.sol\":1962:2055  function symbol() public view virtual returns (string memory) {... */\n    tag_79:\n        /* \"https://github.com/OpenZeppelin/openzeppelin-contracts/blob/master/contracts/token/ERC20/ERC20.sol\":2009:2022  string memory */\n      0x60\n        /* \"https://github.com/OpenZeppelin/openzeppelin-contracts/blob/master/contracts/token/ERC20/ERC20.sol\":2041:2048  _symbol */\n      0x04\n        /* \"https://github.com/OpenZeppelin/openzeppelin-contracts/blob/master/contracts/token/ERC20/ERC20.sol\":2034:2048  return _symbol */\n      dup1\n      sload\n      tag_144\n      swap1\n      tag_105\n      jump\t// in\n    tag_144:\n      dup1\n      0x1f\n      add\n      0x20\n      dup1\n      swap2\n      div\n      mul\n      0x20\n      add\n      mload(0x40)\n      swap1\n      dup2\n      add\n      0x40\n      mstore\n      dup1\n      swap3\n      swap2\n      swap1\n      dup2\n      dup2\n      mstore\n      0x20\n      add\n      dup3\n      dup1\n      sload\n      tag_145\n      swap1\n      tag_105\n      jump\t// in\n    tag_145:\n      dup1\n      iszero\n      tag_146\n      jumpi\n      dup1\n      0x1f\n      lt\n      tag_147\n      jumpi\n      0x0100\n      dup1\n      dup4\n      sload\n      div\n      mul\n      dup4\n      mstore\n      swap2\n      0x20\n      add\n      swap2\n      jump(tag_146)\n    tag_147:\n      dup3\n      add\n      swap2\n      swap1\n      0x00\n      mstore\n      keccak256(0x00, 0x20)\n      swap1\n    tag_148:\n      dup2\n      sload\n      dup2\n      mstore\n      swap1\n      0x01\n      add\n      swap1\n      0x20\n      add\n      dup1\n      dup4\n      gt\n      tag_148\n      jumpi\n      dup3\n      swap1\n      sub\n      0x1f\n      and\n      dup3\n      add\n      swap2\n    tag_146:\n      pop\n      pop\n      pop\n      pop\n      pop\n      swap1\n      pop\n        /* \"https://github.com/OpenZeppelin/openzeppelin-contracts/blob/master/contracts/token/ERC20/ERC20.sol\":1962:2055  function symbol() public view virtual returns (string memory) {... */\n      swap1\n      jump\t// out\n        /* \"contracts/CC/CCToken.sol\":4973:5135  function transfer(address recipient, uint256 amount) public override teamLocked(amount) returns (bool) {... */\n    tag_83:\n        /* \"contracts/CC/CCToken.sol\":5070:5074  bool */\n      0x00\n        /* \"contracts/CC/CCToken.sol\":5053:5059  amount */\n      dup2\n        /* \"contracts/CC/CCToken.sol\":4847:4862  teamLockedUntil */\n      sload(0x07)\n        /* \"contracts/CC/CCToken.sol\":4828:4843  block.timestamp */\n      timestamp\n        /* \"contracts/CC/CCToken.sol\":4828:4862  block.timestamp >= teamLockedUntil */\n      lt\n      iszero\n        /* \"contracts/CC/CCToken.sol\":4828:4897  block.timestamp >= teamLockedUntil || balanceOf(msg.sender) >= amount */\n      dup1\n      tag_150\n      jumpi\n      pop\n        /* \"contracts/CC/CCToken.sol\":4891:4897  amount */\n      dup1\n        /* \"contracts/CC/CCToken.sol\":4866:4887  balanceOf(msg.sender) */\n      tag_151\n        /* \"contracts/CC/CCToken.sol\":4876:4886  msg.sender */\n      caller\n        /* \"contracts/CC/CCToken.sol\":4866:4875  balanceOf */\n      tag_58\n        /* \"contracts/CC/CCToken.sol\":4866:4887  balanceOf(msg.sender) */\n      jump\t// in\n    tag_151:\n        /* \"contracts/CC/CCToken.sol\":4866:4897  balanceOf(msg.sender) >= amount */\n      lt\n      iszero\n        /* \"contracts/CC/CCToken.sol\":4828:4897  block.timestamp >= teamLockedUntil || balanceOf(msg.sender) >= amount */\n    tag_150:\n        /* \"contracts/CC/CCToken.sol\":4820:4924  require(block.timestamp >= teamLockedUntil || balanceOf(msg.sender) >= amount, \"Team tokens are locked\") */\n      tag_152\n      jumpi\n      mload(0x40)\n      0x08c379a000000000000000000000000000000000000000000000000000000000\n      dup2\n      mstore\n      0x04\n      add\n      tag_153\n      swap1\n      tag_122\n      jump\t// in\n    tag_153:\n      mload(0x40)\n      dup1\n      swap2\n      sub\n      swap1\n      revert\n    tag_152:\n        /* \"contracts/CC/CCToken.sol\":5094:5127  super.transfer(recipient, amount) */\n      tag_155\n        /* \"contracts/CC/CCToken.sol\":5109:5118  recipient */\n      dup5\n        /* \"contracts/CC/CCToken.sol\":5120:5126  amount */\n      dup5\n        /* \"contracts/CC/CCToken.sol\":5094:5108  super.transfer */\n      tag_156\n        /* \"contracts/CC/CCToken.sol\":5094:5127  super.transfer(recipient, amount) */\n      jump\t// in\n    tag_155:\n        /* \"contracts/CC/CCToken.sol\":5087:5127  return super.transfer(recipient, amount) */\n      swap2\n      pop\n        /* \"contracts/CC/CCToken.sol\":4973:5135  function transfer(address recipient, uint256 amount) public override teamLocked(amount) returns (bool) {... */\n      pop\n      swap3\n      swap2\n      pop\n      pop\n      jump\t// out\n        /* \"contracts/CC/CCToken.sol\":3064:3090  address public uniswapPool */\n    tag_86:\n      0x08\n      0x00\n      swap1\n      sload\n      swap1\n      0x0100\n      exp\n      swap1\n      div\n      0xffffffffffffffffffffffffffffffffffffffff\n      and\n      dup2\n      jump\t// out\n        /* \"https://github.com/OpenZeppelin/openzeppelin-contracts/blob/master/contracts/token/ERC20/ERC20.sol\":3455:3595  function allowance(address owner, address spender) public view virtual returns (uint256) {... */\n    tag_91:\n        /* \"https://github.com/OpenZeppelin/openzeppelin-contracts/blob/master/contracts/token/ERC20/ERC20.sol\":3535:3542  uint256 */\n      0x00\n        /* \"https://github.com/OpenZeppelin/openzeppelin-contracts/blob/master/contracts/token/ERC20/ERC20.sol\":3561:3572  _allowances */\n      0x01\n        /* \"https://github.com/OpenZeppelin/openzeppelin-contracts/blob/master/contracts/token/ERC20/ERC20.sol\":3561:3579  _allowances[owner] */\n      0x00\n        /* \"https://github.com/OpenZeppelin/openzeppelin-contracts/blob/master/contracts/token/ERC20/ERC20.sol\":3573:3578  owner */\n      dup5\n        /* \"https://github.com/OpenZeppelin/openzeppelin-contracts/blob/master/contracts/token/ERC20/ERC20.sol\":3561:3579  _allowances[owner] */\n      0xffffffffffffffffffffffffffffffffffffffff\n      and\n      0xffffffffffffffffffffffffffffffffffffffff\n      and\n      dup2\n      mstore\n      0x20\n      add\n      swap1\n      dup2\n      mstore\n      0x20\n      add\n      0x00\n      keccak256\n        /* \"https://github.com/OpenZeppelin/openzeppelin-contracts/blob/master/contracts/token/ERC20/ERC20.sol\":3561:3588  _allowances[owner][spender] */\n      0x00\n        /* \"https://github.com/OpenZeppelin/openzeppelin-contracts/blob/master/contracts/token/ERC20/ERC20.sol\":3580:3587  spender */\n      dup4\n        /* \"https://github.com/OpenZeppelin/openzeppelin-contracts/blob/master/contracts/token/ERC20/ERC20.sol\":3561:3588  _allowances[owner][spender] */\n      0xffffffffffffffffffffffffffffffffffffffff\n      and\n      0xffffffffffffffffffffffffffffffffffffffff\n      and\n      dup2\n      mstore\n      0x20\n      add\n      swap1\n      dup2\n      mstore\n      0x20\n      add\n      0x00\n      keccak256\n      sload\n        /* \"https://github.com/OpenZeppelin/openzeppelin-contracts/blob/master/contracts/token/ERC20/ERC20.sol\":3554:3588  return _allowances[owner][spender] */\n      swap1\n      pop\n        /* \"https://github.com/OpenZeppelin/openzeppelin-contracts/blob/master/contracts/token/ERC20/ERC20.sol\":3455:3595  function allowance(address owner, address spender) public view virtual returns (uint256) {... */\n      swap3\n      swap2\n      pop\n      pop\n      jump\t// out\n        /* \"contracts/CC/CCToken.sol\":5375:5657  function getCurrentPrice() public view returns (uint256 price) {... */\n    tag_94:\n        /* \"contracts/CC/CCToken.sol\":5423:5436  uint256 price */\n      0x00\n        /* \"contracts/CC/CCToken.sol\":5449:5468  IUniswapV3Pool pool */\n      0x00\n        /* \"contracts/CC/CCToken.sol\":5486:5497  uniswapPool */\n      0x08\n      0x00\n      swap1\n      sload\n      swap1\n      0x0100\n      exp\n      swap1\n      div\n      0xffffffffffffffffffffffffffffffffffffffff\n      and\n        /* \"contracts/CC/CCToken.sol\":5449:5498  IUniswapV3Pool pool = IUniswapV3Pool(uniswapPool) */\n      swap1\n      pop\n        /* \"contracts/CC/CCToken.sol\":5510:5530  uint160 sqrtPriceX96 */\n      0x00\n        /* \"contracts/CC/CCToken.sol\":5546:5550  pool */\n      dup2\n        /* \"contracts/CC/CCToken.sol\":5546:5556  pool.slot0 */\n      0xffffffffffffffffffffffffffffffffffffffff\n      and\n      0x3850c7bd\n        /* \"contracts/CC/CCToken.sol\":5546:5558  pool.slot0() */\n      mload(0x40)\n      dup2\n      0xffffffff\n      and\n      0xe0\n      shl\n      dup2\n      mstore\n      0x04\n      add\n      0xe0\n      mload(0x40)\n      dup1\n      dup4\n      sub\n      dup2\n      dup7\n      gas\n      staticcall\n      iszero\n      dup1\n      iszero\n      tag_160\n      jumpi\n      returndatacopy(0x00, 0x00, returndatasize)\n      revert(0x00, returndatasize)\n    tag_160:\n      pop\n      pop\n      pop\n      pop\n      mload(0x40)\n      returndatasize\n      not(0x1f)\n      0x1f\n      dup3\n      add\n      and\n      dup3\n      add\n      dup1\n      0x40\n      mstore\n      pop\n      dup2\n      add\n      swap1\n      tag_161\n      swap2\n      swap1\n      tag_162\n      jump\t// in\n    tag_161:\n        /* \"contracts/CC/CCToken.sol\":5509:5558  (uint160 sqrtPriceX96, , , , , , ) = pool.slot0() */\n      pop\n      pop\n      pop\n      pop\n      pop\n      pop\n      swap1\n      pop\n        /* \"contracts/CC/CCToken.sol\":5626:5632  2**192 */\n      0x01000000000000000000000000000000000000000000000000\n        /* \"contracts/CC/CCToken.sol\":5609:5621  sqrtPriceX96 */\n      dup2\n        /* \"contracts/CC/CCToken.sol\":5601:5622  uint256(sqrtPriceX96) */\n      0xffffffffffffffffffffffffffffffffffffffff\n      and\n        /* \"contracts/CC/CCToken.sol\":5585:5597  sqrtPriceX96 */\n      dup3\n        /* \"contracts/CC/CCToken.sol\":5577:5598  uint256(sqrtPriceX96) */\n      0xffffffffffffffffffffffffffffffffffffffff\n      and\n        /* \"contracts/CC/CCToken.sol\":5577:5622  uint256(sqrtPriceX96) * uint256(sqrtPriceX96) */\n      tag_163\n      swap2\n      swap1\n      tag_164\n      jump\t// in\n    tag_163:\n        /* \"contracts/CC/CCToken.sol\":5577:5633  uint256(sqrtPriceX96) * uint256(sqrtPriceX96) / (2**192) */\n      tag_165\n      swap2\n      swap1\n      tag_166\n      jump\t// in\n    tag_165:\n        /* \"contracts/CC/CCToken.sol\":5569:5633  price = uint256(sqrtPriceX96) * uint256(sqrtPriceX96) / (2**192) */\n      swap3\n      pop\n        /* \"contracts/CC/CCToken.sol\":5438:5657  {... */\n      pop\n      pop\n        /* \"contracts/CC/CCToken.sol\":5375:5657  function getCurrentPrice() public view returns (uint256 price) {... */\n      swap1\n      jump\t// out\n        /* \"contracts/CC/CCToken.sol\":5665:5804  function getTeamMembers() public view returns (TeamMember[] memory) {... */\n    tag_97:\n        /* \"contracts/CC/CCToken.sol\":5712:5731  TeamMember[] memory */\n      0x60\n        /* \"contracts/CC/CCToken.sol\":5751:5762  teamMembers */\n      0x06\n        /* \"contracts/CC/CCToken.sol\":5744:5762  return teamMembers */\n      dup1\n      sload\n      dup1\n      0x20\n      mul\n      0x20\n      add\n      mload(0x40)\n      swap1\n      dup2\n      add\n      0x40\n      mstore\n      dup1\n      swap3\n      swap2\n      swap1\n      dup2\n      dup2\n      mstore\n      0x20\n      add\n      0x00\n      swap1\n    tag_168:\n      dup3\n      dup3\n      lt\n      iszero\n      tag_169\n      jumpi\n      dup4\n      dup3\n      swap1\n      0x00\n      mstore\n      keccak256(0x00, 0x20)\n      swap1\n      0x02\n      mul\n      add\n      mload(0x40)\n      dup1\n      0x40\n      add\n      0x40\n      mstore\n      swap1\n      dup2\n      0x00\n      dup3\n      add\n      0x00\n      swap1\n      sload\n      swap1\n      0x0100\n      exp\n      swap1\n      div\n      0xffffffffffffffffffffffffffffffffffffffff\n      and\n      0xffffffffffffffffffffffffffffffffffffffff\n      and\n      0xffffffffffffffffffffffffffffffffffffffff\n      and\n      dup2\n      mstore\n      0x20\n      add\n      0x01\n      dup3\n      add\n      sload\n      dup2\n      mstore\n      pop\n      pop\n      dup2\n      mstore\n      0x20\n      add\n      swap1\n      0x01\n      add\n      swap1\n      jump(tag_168)\n    tag_169:\n      pop\n      pop\n      pop\n      pop\n      swap1\n      pop\n        /* \"contracts/CC/CCToken.sol\":5665:5804  function getTeamMembers() public view returns (TeamMember[] memory) {... */\n      swap1\n      jump\t// out\n        /* \"https://github.com/OpenZeppelin/openzeppelin-contracts/blob/master/contracts/access/Ownable.sol\":2543:2758  function transferOwnership(address newOwner) public virtual onlyOwner {... */\n    tag_102:\n        /* \"https://github.com/OpenZeppelin/openzeppelin-contracts/blob/master/contracts/access/Ownable.sol\":1531:1544  _checkOwner() */\n      tag_172\n        /* \"https://github.com/OpenZeppelin/openzeppelin-contracts/blob/master/contracts/access/Ownable.sol\":1531:1542  _checkOwner */\n      tag_130\n        /* \"https://github.com/OpenZeppelin/openzeppelin-contracts/blob/master/contracts/access/Ownable.sol\":1531:1544  _checkOwner() */\n      jump\t// in\n    tag_172:\n        /* \"https://github.com/OpenZeppelin/openzeppelin-contracts/blob/master/contracts/access/Ownable.sol\":2647:2648  0 */\n      0x00\n        /* \"https://github.com/OpenZeppelin/openzeppelin-contracts/blob/master/contracts/access/Ownable.sol\":2627:2649  newOwner == address(0) */\n      0xffffffffffffffffffffffffffffffffffffffff\n      and\n        /* \"https://github.com/OpenZeppelin/openzeppelin-contracts/blob/master/contracts/access/Ownable.sol\":2627:2635  newOwner */\n      dup2\n        /* \"https://github.com/OpenZeppelin/openzeppelin-contracts/blob/master/contracts/access/Ownable.sol\":2627:2649  newOwner == address(0) */\n      0xffffffffffffffffffffffffffffffffffffffff\n      and\n      sub\n        /* \"https://github.com/OpenZeppelin/openzeppelin-contracts/blob/master/contracts/access/Ownable.sol\":2623:2714  if (newOwner == address(0)) {... */\n      tag_174\n      jumpi\n        /* \"https://github.com/OpenZeppelin/openzeppelin-contracts/blob/master/contracts/access/Ownable.sol\":2700:2701  0 */\n      0x00\n        /* \"https://github.com/OpenZeppelin/openzeppelin-contracts/blob/master/contracts/access/Ownable.sol\":2672:2703  OwnableInvalidOwner(address(0)) */\n      mload(0x40)\n      0x1e4fbdf700000000000000000000000000000000000000000000000000000000\n      dup2\n      mstore\n      0x04\n      add\n      tag_175\n      swap2\n      swap1\n      tag_74\n      jump\t// in\n    tag_175:\n      mload(0x40)\n      dup1\n      swap2\n      sub\n      swap1\n      revert\n        /* \"https://github.com/OpenZeppelin/openzeppelin-contracts/blob/master/contracts/access/Ownable.sol\":2623:2714  if (newOwner == address(0)) {... */\n    tag_174:\n        /* \"https://github.com/OpenZeppelin/openzeppelin-contracts/blob/master/contracts/access/Ownable.sol\":2723:2751  _transferOwnership(newOwner) */\n      tag_176\n        /* \"https://github.com/OpenZeppelin/openzeppelin-contracts/blob/master/contracts/access/Ownable.sol\":2742:2750  newOwner */\n      dup2\n        /* \"https://github.com/OpenZeppelin/openzeppelin-contracts/blob/master/contracts/access/Ownable.sol\":2723:2741  _transferOwnership */\n      tag_133\n        /* \"https://github.com/OpenZeppelin/openzeppelin-contracts/blob/master/contracts/access/Ownable.sol\":2723:2751  _transferOwnership(newOwner) */\n      jump\t// in\n    tag_176:\n        /* \"https://github.com/OpenZeppelin/openzeppelin-contracts/blob/master/contracts/access/Ownable.sol\":2543:2758  function transferOwnership(address newOwner) public virtual onlyOwner {... */\n      pop\n      jump\t// out\n        /* \"https://github.com/OpenZeppelin/openzeppelin-contracts/blob/master/contracts/utils/Context.sol\":656:752  function _msgSender() internal view virtual returns (address) {... */\n    tag_112:\n        /* \"https://github.com/OpenZeppelin/openzeppelin-contracts/blob/master/contracts/utils/Context.sol\":709:716  address */\n      0x00\n        /* \"https://github.com/OpenZeppelin/openzeppelin-contracts/blob/master/contracts/utils/Context.sol\":735:745  msg.sender */\n      caller\n        /* \"https://github.com/OpenZeppelin/openzeppelin-contracts/blob/master/contracts/utils/Context.sol\":728:745  return msg.sender */\n      swap1\n      pop\n        /* \"https://github.com/OpenZeppelin/openzeppelin-contracts/blob/master/contracts/utils/Context.sol\":656:752  function _msgSender() internal view virtual returns (address) {... */\n      swap1\n      jump\t// out\n        /* \"https://github.com/OpenZeppelin/openzeppelin-contracts/blob/master/contracts/token/ERC20/ERC20.sol\":8630:8758  function _approve(address owner, address spender, uint256 value) internal {... */\n    tag_114:\n        /* \"https://github.com/OpenZeppelin/openzeppelin-contracts/blob/master/contracts/token/ERC20/ERC20.sol\":8714:8751  _approve(owner, spender, value, true) */\n      tag_179\n        /* \"https://github.com/OpenZeppelin/openzeppelin-contracts/blob/master/contracts/token/ERC20/ERC20.sol\":8723:8728  owner */\n      dup4\n        /* \"https://github.com/OpenZeppelin/openzeppelin-contracts/blob/master/contracts/token/ERC20/ERC20.sol\":8730:8737  spender */\n      dup4\n        /* \"https://github.com/OpenZeppelin/openzeppelin-contracts/blob/master/contracts/token/ERC20/ERC20.sol\":8739:8744  value */\n      dup4\n        /* \"https://github.com/OpenZeppelin/openzeppelin-contracts/blob/master/contracts/token/ERC20/ERC20.sol\":8746:8750  true */\n      0x01\n        /* \"https://github.com/OpenZeppelin/openzeppelin-contracts/blob/master/contracts/token/ERC20/ERC20.sol\":8714:8722  _approve */\n      tag_180\n        /* \"https://github.com/OpenZeppelin/openzeppelin-contracts/blob/master/contracts/token/ERC20/ERC20.sol\":8714:8751  _approve(owner, spender, value, true) */\n      jump\t// in\n    tag_179:\n        /* \"https://github.com/OpenZeppelin/openzeppelin-contracts/blob/master/contracts/token/ERC20/ERC20.sol\":8630:8758  function _approve(address owner, address spender, uint256 value) internal {... */\n      pop\n      pop\n      pop\n      jump\t// out\n        /* \"https://github.com/OpenZeppelin/openzeppelin-contracts/blob/master/contracts/token/ERC20/ERC20.sol\":4680:4924  function transferFrom(address from, address to, uint256 value) public virtual returns (bool) {... */\n    tag_125:\n        /* \"https://github.com/OpenZeppelin/openzeppelin-contracts/blob/master/contracts/token/ERC20/ERC20.sol\":4767:4771  bool */\n      0x00\n        /* \"https://github.com/OpenZeppelin/openzeppelin-contracts/blob/master/contracts/token/ERC20/ERC20.sol\":4783:4798  address spender */\n      0x00\n        /* \"https://github.com/OpenZeppelin/openzeppelin-contracts/blob/master/contracts/token/ERC20/ERC20.sol\":4801:4813  _msgSender() */\n      tag_182\n        /* \"https://github.com/OpenZeppelin/openzeppelin-contracts/blob/master/contracts/token/ERC20/ERC20.sol\":4801:4811  _msgSender */\n      tag_112\n        /* \"https://github.com/OpenZeppelin/openzeppelin-contracts/blob/master/contracts/token/ERC20/ERC20.sol\":4801:4813  _msgSender() */\n      jump\t// in\n    tag_182:\n        /* \"https://github.com/OpenZeppelin/openzeppelin-contracts/blob/master/contracts/token/ERC20/ERC20.sol\":4783:4813  address spender = _msgSender() */\n      swap1\n      pop\n        /* \"https://github.com/OpenZeppelin/openzeppelin-contracts/blob/master/contracts/token/ERC20/ERC20.sol\":4823:4860  _spendAllowance(from, spender, value) */\n      tag_183\n        /* \"https://github.com/OpenZeppelin/openzeppelin-contracts/blob/master/contracts/token/ERC20/ERC20.sol\":4839:4843  from */\n      dup6\n        /* \"https://github.com/OpenZeppelin/openzeppelin-contracts/blob/master/contracts/token/ERC20/ERC20.sol\":4845:4852  spender */\n      dup3\n        /* \"https://github.com/OpenZeppelin/openzeppelin-contracts/blob/master/contracts/token/ERC20/ERC20.sol\":4854:4859  value */\n      dup6\n        /* \"https://github.com/OpenZeppelin/openzeppelin-contracts/blob/master/contracts/token/ERC20/ERC20.sol\":4823:4838  _spendAllowance */\n      tag_184\n        /* \"https://github.com/OpenZeppelin/openzeppelin-contracts/blob/master/contracts/token/ERC20/ERC20.sol\":4823:4860  _spendAllowance(from, spender, value) */\n      jump\t// in\n    tag_183:\n        /* \"https://github.com/OpenZeppelin/openzeppelin-contracts/blob/master/contracts/token/ERC20/ERC20.sol\":4870:4896  _transfer(from, to, value) */\n      tag_185\n        /* \"https://github.com/OpenZeppelin/openzeppelin-contracts/blob/master/contracts/token/ERC20/ERC20.sol\":4880:4884  from */\n      dup6\n        /* \"https://github.com/OpenZeppelin/openzeppelin-contracts/blob/master/contracts/token/ERC20/ERC20.sol\":4886:4888  to */\n      dup6\n        /* \"https://github.com/OpenZeppelin/openzeppelin-contracts/blob/master/contracts/token/ERC20/ERC20.sol\":4890:4895  value */\n      dup6\n        /* \"https://github.com/OpenZeppelin/openzeppelin-contracts/blob/master/contracts/token/ERC20/ERC20.sol\":4870:4879  _transfer */\n      tag_186\n        /* \"https://github.com/OpenZeppelin/openzeppelin-contracts/blob/master/contracts/token/ERC20/ERC20.sol\":4870:4896  _transfer(from, to, value) */\n      jump\t// in\n    tag_185:\n        /* \"https://github.com/OpenZeppelin/openzeppelin-contracts/blob/master/contracts/token/ERC20/ERC20.sol\":4913:4917  true */\n      0x01\n        /* \"https://github.com/OpenZeppelin/openzeppelin-contracts/blob/master/contracts/token/ERC20/ERC20.sol\":4906:4917  return true */\n      swap2\n      pop\n      pop\n        /* \"https://github.com/OpenZeppelin/openzeppelin-contracts/blob/master/contracts/token/ERC20/ERC20.sol\":4680:4924  function transferFrom(address from, address to, uint256 value) public virtual returns (bool) {... */\n      swap4\n      swap3\n      pop\n      pop\n      pop\n      jump\t// out\n        /* \"https://github.com/OpenZeppelin/openzeppelin-contracts/blob/master/contracts/access/Ownable.sol\":1796:1958  function _checkOwner() internal view virtual {... */\n    tag_130:\n        /* \"https://github.com/OpenZeppelin/openzeppelin-contracts/blob/master/contracts/access/Ownable.sol\":1866:1878  _msgSender() */\n      tag_188\n        /* \"https://github.com/OpenZeppelin/openzeppelin-contracts/blob/master/contracts/access/Ownable.sol\":1866:1876  _msgSender */\n      tag_112\n        /* \"https://github.com/OpenZeppelin/openzeppelin-contracts/blob/master/contracts/access/Ownable.sol\":1866:1878  _msgSender() */\n      jump\t// in\n    tag_188:\n        /* \"https://github.com/OpenZeppelin/openzeppelin-contracts/blob/master/contracts/access/Ownable.sol\":1855:1878  owner() != _msgSender() */\n      0xffffffffffffffffffffffffffffffffffffffff\n      and\n        /* \"https://github.com/OpenZeppelin/openzeppelin-contracts/blob/master/contracts/access/Ownable.sol\":1855:1862  owner() */\n      tag_189\n        /* \"https://github.com/OpenZeppelin/openzeppelin-contracts/blob/master/contracts/access/Ownable.sol\":1855:1860  owner */\n      tag_72\n        /* \"https://github.com/OpenZeppelin/openzeppelin-contracts/blob/master/contracts/access/Ownable.sol\":1855:1862  owner() */\n      jump\t// in\n    tag_189:\n        /* \"https://github.com/OpenZeppelin/openzeppelin-contracts/blob/master/contracts/access/Ownable.sol\":1855:1878  owner() != _msgSender() */\n      0xffffffffffffffffffffffffffffffffffffffff\n      and\n      eq\n        /* \"https://github.com/OpenZeppelin/openzeppelin-contracts/blob/master/contracts/access/Ownable.sol\":1851:1952  if (owner() != _msgSender()) {... */\n      tag_190\n      jumpi\n        /* \"https://github.com/OpenZeppelin/openzeppelin-contracts/blob/master/contracts/access/Ownable.sol\":1928:1940  _msgSender() */\n      tag_191\n        /* \"https://github.com/OpenZeppelin/openzeppelin-contracts/blob/master/contracts/access/Ownable.sol\":1928:1938  _msgSender */\n      tag_112\n        /* \"https://github.com/OpenZeppelin/openzeppelin-contracts/blob/master/contracts/access/Ownable.sol\":1928:1940  _msgSender() */\n      jump\t// in\n    tag_191:\n        /* \"https://github.com/OpenZeppelin/openzeppelin-contracts/blob/master/contracts/access/Ownable.sol\":1901:1941  OwnableUnauthorizedAccount(_msgSender()) */\n      mload(0x40)\n      0x118cdaa700000000000000000000000000000000000000000000000000000000\n      dup2\n      mstore\n      0x04\n      add\n      tag_192\n      swap2\n      swap1\n      tag_74\n      jump\t// in\n    tag_192:\n      mload(0x40)\n      dup1\n      swap2\n      sub\n      swap1\n      revert\n        /* \"https://github.com/OpenZeppelin/openzeppelin-contracts/blob/master/contracts/access/Ownable.sol\":1851:1952  if (owner() != _msgSender()) {... */\n    tag_190:\n        /* \"https://github.com/OpenZeppelin/openzeppelin-contracts/blob/master/contracts/access/Ownable.sol\":1796:1958  function _checkOwner() internal view virtual {... */\n      jump\t// out\n        /* \"https://github.com/OpenZeppelin/openzeppelin-contracts/blob/master/contracts/access/Ownable.sol\":2912:3099  function _transferOwnership(address newOwner) internal virtual {... */\n    tag_133:\n        /* \"https://github.com/OpenZeppelin/openzeppelin-contracts/blob/master/contracts/access/Ownable.sol\":2985:3001  address oldOwner */\n      0x00\n        /* \"https://github.com/OpenZeppelin/openzeppelin-contracts/blob/master/contracts/access/Ownable.sol\":3004:3010  _owner */\n      0x05\n      0x00\n      swap1\n      sload\n      swap1\n      0x0100\n      exp\n      swap1\n      div\n      0xffffffffffffffffffffffffffffffffffffffff\n      and\n        /* \"https://github.com/OpenZeppelin/openzeppelin-contracts/blob/master/contracts/access/Ownable.sol\":2985:3010  address oldOwner = _owner */\n      swap1\n      pop\n        /* \"https://github.com/OpenZeppelin/openzeppelin-contracts/blob/master/contracts/access/Ownable.sol\":3029:3037  newOwner */\n      dup2\n        /* \"https://github.com/OpenZeppelin/openzeppelin-contracts/blob/master/contracts/access/Ownable.sol\":3020:3026  _owner */\n      0x05\n      0x00\n        /* \"https://github.com/OpenZeppelin/openzeppelin-contracts/blob/master/contracts/access/Ownable.sol\":3020:3037  _owner = newOwner */\n      0x0100\n      exp\n      dup2\n      sload\n      dup2\n      0xffffffffffffffffffffffffffffffffffffffff\n      mul\n      not\n      and\n      swap1\n      dup4\n      0xffffffffffffffffffffffffffffffffffffffff\n      and\n      mul\n      or\n      swap1\n      sstore\n      pop\n        /* \"https://github.com/OpenZeppelin/openzeppelin-contracts/blob/master/contracts/access/Ownable.sol\":3083:3091  newOwner */\n      dup2\n        /* \"https://github.com/OpenZeppelin/openzeppelin-contracts/blob/master/contracts/access/Ownable.sol\":3052:3092  OwnershipTransferred(oldOwner, newOwner) */\n      0xffffffffffffffffffffffffffffffffffffffff\n      and\n        /* \"https://github.com/OpenZeppelin/openzeppelin-contracts/blob/master/contracts/access/Ownable.sol\":3073:3081  oldOwner */\n      dup2\n        /* \"https://github.com/OpenZeppelin/openzeppelin-contracts/blob/master/contracts/access/Ownable.sol\":3052:3092  OwnershipTransferred(oldOwner, newOwner) */\n      0xffffffffffffffffffffffffffffffffffffffff\n      and\n      0x8be0079c531659141344cd1fd0a4f28419497f9722a3daafe3b4186f6b6457e0\n      mload(0x40)\n      mload(0x40)\n      dup1\n      swap2\n      sub\n      swap1\n      log3\n        /* \"https://github.com/OpenZeppelin/openzeppelin-contracts/blob/master/contracts/access/Ownable.sol\":2975:3099  {... */\n      pop\n        /* \"https://github.com/OpenZeppelin/openzeppelin-contracts/blob/master/contracts/access/Ownable.sol\":2912:3099  function _transferOwnership(address newOwner) internal virtual {... */\n      pop\n      jump\t// out\n        /* \"https://github.com/OpenZeppelin/openzeppelin-contracts/blob/master/contracts/token/ERC20/ERC20.sol\":3244:3422  function transfer(address to, uint256 value) public virtual returns (bool) {... */\n    tag_156:\n        /* \"https://github.com/OpenZeppelin/openzeppelin-contracts/blob/master/contracts/token/ERC20/ERC20.sol\":3313:3317  bool */\n      0x00\n        /* \"https://github.com/OpenZeppelin/openzeppelin-contracts/blob/master/contracts/token/ERC20/ERC20.sol\":3329:3342  address owner */\n      0x00\n        /* \"https://github.com/OpenZeppelin/openzeppelin-contracts/blob/master/contracts/token/ERC20/ERC20.sol\":3345:3357  _msgSender() */\n      tag_195\n        /* \"https://github.com/OpenZeppelin/openzeppelin-contracts/blob/master/contracts/token/ERC20/ERC20.sol\":3345:3355  _msgSender */\n      tag_112\n        /* \"https://github.com/OpenZeppelin/openzeppelin-contracts/blob/master/contracts/token/ERC20/ERC20.sol\":3345:3357  _msgSender() */\n      jump\t// in\n    tag_195:\n        /* \"https://github.com/OpenZeppelin/openzeppelin-contracts/blob/master/contracts/token/ERC20/ERC20.sol\":3329:3357  address owner = _msgSender() */\n      swap1\n      pop\n        /* \"https://github.com/OpenZeppelin/openzeppelin-contracts/blob/master/contracts/token/ERC20/ERC20.sol\":3367:3394  _transfer(owner, to, value) */\n      tag_196\n        /* \"https://github.com/OpenZeppelin/openzeppelin-contracts/blob/master/contracts/token/ERC20/ERC20.sol\":3377:3382  owner */\n      dup2\n        /* \"https://github.com/OpenZeppelin/openzeppelin-contracts/blob/master/contracts/token/ERC20/ERC20.sol\":3384:3386  to */\n      dup6\n        /* \"https://github.com/OpenZeppelin/openzeppelin-contracts/blob/master/contracts/token/ERC20/ERC20.sol\":3388:3393  value */\n      dup6\n        /* \"https://github.com/OpenZeppelin/openzeppelin-contracts/blob/master/contracts/token/ERC20/ERC20.sol\":3367:3376  _transfer */\n      tag_186\n        /* \"https://github.com/OpenZeppelin/openzeppelin-contracts/blob/master/contracts/token/ERC20/ERC20.sol\":3367:3394  _transfer(owner, to, value) */\n      jump\t// in\n    tag_196:\n        /* \"https://github.com/OpenZeppelin/openzeppelin-contracts/blob/master/contracts/token/ERC20/ERC20.sol\":3411:3415  true */\n      0x01\n        /* \"https://github.com/OpenZeppelin/openzeppelin-contracts/blob/master/contracts/token/ERC20/ERC20.sol\":3404:3415  return true */\n      swap2\n      pop\n      pop\n        /* \"https://github.com/OpenZeppelin/openzeppelin-contracts/blob/master/contracts/token/ERC20/ERC20.sol\":3244:3422  function transfer(address to, uint256 value) public virtual returns (bool) {... */\n      swap3\n      swap2\n      pop\n      pop\n      jump\t// out\n        /* \"https://github.com/OpenZeppelin/openzeppelin-contracts/blob/master/contracts/token/ERC20/ERC20.sol\":9605:10037  function _approve(address owner, address spender, uint256 value, bool emitEvent) internal virtual {... */\n    tag_180:\n        /* \"https://github.com/OpenZeppelin/openzeppelin-contracts/blob/master/contracts/token/ERC20/ERC20.sol\":9734:9735  0 */\n      0x00\n        /* \"https://github.com/OpenZeppelin/openzeppelin-contracts/blob/master/contracts/token/ERC20/ERC20.sol\":9717:9736  owner == address(0) */\n      0xffffffffffffffffffffffffffffffffffffffff\n      and\n        /* \"https://github.com/OpenZeppelin/openzeppelin-contracts/blob/master/contracts/token/ERC20/ERC20.sol\":9717:9722  owner */\n      dup5\n        /* \"https://github.com/OpenZeppelin/openzeppelin-contracts/blob/master/contracts/token/ERC20/ERC20.sol\":9717:9736  owner == address(0) */\n      0xffffffffffffffffffffffffffffffffffffffff\n      and\n      sub\n        /* \"https://github.com/OpenZeppelin/openzeppelin-contracts/blob/master/contracts/token/ERC20/ERC20.sol\":9713:9802  if (owner == address(0)) {... */\n      tag_198\n      jumpi\n        /* \"https://github.com/OpenZeppelin/openzeppelin-contracts/blob/master/contracts/token/ERC20/ERC20.sol\":9788:9789  0 */\n      0x00\n        /* \"https://github.com/OpenZeppelin/openzeppelin-contracts/blob/master/contracts/token/ERC20/ERC20.sol\":9759:9791  ERC20InvalidApprover(address(0)) */\n      mload(0x40)\n      0xe602df0500000000000000000000000000000000000000000000000000000000\n      dup2\n      mstore\n      0x04\n      add\n      tag_199\n      swap2\n      swap1\n      tag_74\n      jump\t// in\n    tag_199:\n      mload(0x40)\n      dup1\n      swap2\n      sub\n      swap1\n      revert\n        /* \"https://github.com/OpenZeppelin/openzeppelin-contracts/blob/master/contracts/token/ERC20/ERC20.sol\":9713:9802  if (owner == address(0)) {... */\n    tag_198:\n        /* \"https://github.com/OpenZeppelin/openzeppelin-contracts/blob/master/contracts/token/ERC20/ERC20.sol\":9834:9835  0 */\n      0x00\n        /* \"https://github.com/OpenZeppelin/openzeppelin-contracts/blob/master/contracts/token/ERC20/ERC20.sol\":9815:9836  spender == address(0) */\n      0xffffffffffffffffffffffffffffffffffffffff\n      and\n        /* \"https://github.com/OpenZeppelin/openzeppelin-contracts/blob/master/contracts/token/ERC20/ERC20.sol\":9815:9822  spender */\n      dup4\n        /* \"https://github.com/OpenZeppelin/openzeppelin-contracts/blob/master/contracts/token/ERC20/ERC20.sol\":9815:9836  spender == address(0) */\n      0xffffffffffffffffffffffffffffffffffffffff\n      and\n      sub\n        /* \"https://github.com/OpenZeppelin/openzeppelin-contracts/blob/master/contracts/token/ERC20/ERC20.sol\":9811:9901  if (spender == address(0)) {... */\n      tag_200\n      jumpi\n        /* \"https://github.com/OpenZeppelin/openzeppelin-contracts/blob/master/contracts/token/ERC20/ERC20.sol\":9887:9888  0 */\n      0x00\n        /* \"https://github.com/OpenZeppelin/openzeppelin-contracts/blob/master/contracts/token/ERC20/ERC20.sol\":9859:9890  ERC20InvalidSpender(address(0)) */\n      mload(0x40)\n      0x94280d6200000000000000000000000000000000000000000000000000000000\n      dup2\n      mstore\n      0x04\n      add\n      tag_201\n      swap2\n      swap1\n      tag_74\n      jump\t// in\n    tag_201:\n      mload(0x40)\n      dup1\n      swap2\n      sub\n      swap1\n      revert\n        /* \"https://github.com/OpenZeppelin/openzeppelin-contracts/blob/master/contracts/token/ERC20/ERC20.sol\":9811:9901  if (spender == address(0)) {... */\n    tag_200:\n        /* \"https://github.com/OpenZeppelin/openzeppelin-contracts/blob/master/contracts/token/ERC20/ERC20.sol\":9940:9945  value */\n      dup2\n        /* \"https://github.com/OpenZeppelin/openzeppelin-contracts/blob/master/contracts/token/ERC20/ERC20.sol\":9910:9921  _allowances */\n      0x01\n        /* \"https://github.com/OpenZeppelin/openzeppelin-contracts/blob/master/contracts/token/ERC20/ERC20.sol\":9910:9928  _allowances[owner] */\n      0x00\n        /* \"https://github.com/OpenZeppelin/openzeppelin-contracts/blob/master/contracts/token/ERC20/ERC20.sol\":9922:9927  owner */\n      dup7\n        /* \"https://github.com/OpenZeppelin/openzeppelin-contracts/blob/master/contracts/token/ERC20/ERC20.sol\":9910:9928  _allowances[owner] */\n      0xffffffffffffffffffffffffffffffffffffffff\n      and\n      0xffffffffffffffffffffffffffffffffffffffff\n      and\n      dup2\n      mstore\n      0x20\n      add\n      swap1\n      dup2\n      mstore\n      0x20\n      add\n      0x00\n      keccak256\n        /* \"https://github.com/OpenZeppelin/openzeppelin-contracts/blob/master/contracts/token/ERC20/ERC20.sol\":9910:9937  _allowances[owner][spender] */\n      0x00\n        /* \"https://github.com/OpenZeppelin/openzeppelin-contracts/blob/master/contracts/token/ERC20/ERC20.sol\":9929:9936  spender */\n      dup6\n        /* \"https://github.com/OpenZeppelin/openzeppelin-contracts/blob/master/contracts/token/ERC20/ERC20.sol\":9910:9937  _allowances[owner][spender] */\n      0xffffffffffffffffffffffffffffffffffffffff\n      and\n      0xffffffffffffffffffffffffffffffffffffffff\n      and\n      dup2\n      mstore\n      0x20\n      add\n      swap1\n      dup2\n      mstore\n      0x20\n      add\n      0x00\n      keccak256\n        /* \"https://github.com/OpenZeppelin/openzeppelin-contracts/blob/master/contracts/token/ERC20/ERC20.sol\":9910:9945  _allowances[owner][spender] = value */\n      dup2\n      swap1\n      sstore\n      pop\n        /* \"https://github.com/OpenZeppelin/openzeppelin-contracts/blob/master/contracts/token/ERC20/ERC20.sol\":9959:9968  emitEvent */\n      dup1\n        /* \"https://github.com/OpenZeppelin/openzeppelin-contracts/blob/master/contracts/token/ERC20/ERC20.sol\":9955:10031  if (emitEvent) {... */\n      iszero\n      tag_202\n      jumpi\n        /* \"https://github.com/OpenZeppelin/openzeppelin-contracts/blob/master/contracts/token/ERC20/ERC20.sol\":10005:10012  spender */\n      dup3\n        /* \"https://github.com/OpenZeppelin/openzeppelin-contracts/blob/master/contracts/token/ERC20/ERC20.sol\":9989:10020  Approval(owner, spender, value) */\n      0xffffffffffffffffffffffffffffffffffffffff\n      and\n        /* \"https://github.com/OpenZeppelin/openzeppelin-contracts/blob/master/contracts/token/ERC20/ERC20.sol\":9998:10003  owner */\n      dup5\n        /* \"https://github.com/OpenZeppelin/openzeppelin-contracts/blob/master/contracts/token/ERC20/ERC20.sol\":9989:10020  Approval(owner, spender, value) */\n      0xffffffffffffffffffffffffffffffffffffffff\n      and\n      0x8c5be1e5ebec7d5bd14f71427d1e84f3dd0314c0f7b2291e5b200ac8c7c3b925\n        /* \"https://github.com/OpenZeppelin/openzeppelin-contracts/blob/master/contracts/token/ERC20/ERC20.sol\":10014:10019  value */\n      dup5\n        /* \"https://github.com/OpenZeppelin/openzeppelin-contracts/blob/master/contracts/token/ERC20/ERC20.sol\":9989:10020  Approval(owner, spender, value) */\n      mload(0x40)\n      tag_203\n      swap2\n      swap1\n      tag_39\n      jump\t// in\n    tag_203:\n      mload(0x40)\n      dup1\n      swap2\n      sub\n      swap1\n      log3\n        /* \"https://github.com/OpenZeppelin/openzeppelin-contracts/blob/master/contracts/token/ERC20/ERC20.sol\":9955:10031  if (emitEvent) {... */\n    tag_202:\n        /* \"https://github.com/OpenZeppelin/openzeppelin-contracts/blob/master/contracts/token/ERC20/ERC20.sol\":9605:10037  function _approve(address owner, address spender, uint256 value, bool emitEvent) internal virtual {... */\n      pop\n      pop\n      pop\n      pop\n      jump\t// out\n        /* \"https://github.com/OpenZeppelin/openzeppelin-contracts/blob/master/contracts/token/ERC20/ERC20.sol\":10319:10795  function _spendAllowance(address owner, address spender, uint256 value) internal virtual {... */\n    tag_184:\n        /* \"https://github.com/OpenZeppelin/openzeppelin-contracts/blob/master/contracts/token/ERC20/ERC20.sol\":10418:10442  uint256 currentAllowance */\n      0x00\n        /* \"https://github.com/OpenZeppelin/openzeppelin-contracts/blob/master/contracts/token/ERC20/ERC20.sol\":10445:10470  allowance(owner, spender) */\n      tag_205\n        /* \"https://github.com/OpenZeppelin/openzeppelin-contracts/blob/master/contracts/token/ERC20/ERC20.sol\":10455:10460  owner */\n      dup5\n        /* \"https://github.com/OpenZeppelin/openzeppelin-contracts/blob/master/contracts/token/ERC20/ERC20.sol\":10462:10469  spender */\n      dup5\n        /* \"https://github.com/OpenZeppelin/openzeppelin-contracts/blob/master/contracts/token/ERC20/ERC20.sol\":10445:10454  allowance */\n      tag_91\n        /* \"https://github.com/OpenZeppelin/openzeppelin-contracts/blob/master/contracts/token/ERC20/ERC20.sol\":10445:10470  allowance(owner, spender) */\n      jump\t// in\n    tag_205:\n        /* \"https://github.com/OpenZeppelin/openzeppelin-contracts/blob/master/contracts/token/ERC20/ERC20.sol\":10418:10470  uint256 currentAllowance = allowance(owner, spender) */\n      swap1\n      pop\n        /* \"https://github.com/OpenZeppelin/openzeppelin-contracts/blob/master/contracts/token/ERC20/ERC20.sol\":10503:10520  type(uint256).max */\n      0xffffffffffffffffffffffffffffffffffffffffffffffffffffffffffffffff\n        /* \"https://github.com/OpenZeppelin/openzeppelin-contracts/blob/master/contracts/token/ERC20/ERC20.sol\":10484:10500  currentAllowance */\n      dup2\n        /* \"https://github.com/OpenZeppelin/openzeppelin-contracts/blob/master/contracts/token/ERC20/ERC20.sol\":10484:10520  currentAllowance < type(uint256).max */\n      lt\n        /* \"https://github.com/OpenZeppelin/openzeppelin-contracts/blob/master/contracts/token/ERC20/ERC20.sol\":10480:10789  if (currentAllowance < type(uint256).max) {... */\n      iszero\n      tag_206\n      jumpi\n        /* \"https://github.com/OpenZeppelin/openzeppelin-contracts/blob/master/contracts/token/ERC20/ERC20.sol\":10559:10564  value */\n      dup2\n        /* \"https://github.com/OpenZeppelin/openzeppelin-contracts/blob/master/contracts/token/ERC20/ERC20.sol\":10540:10556  currentAllowance */\n      dup2\n        /* \"https://github.com/OpenZeppelin/openzeppelin-contracts/blob/master/contracts/token/ERC20/ERC20.sol\":10540:10564  currentAllowance < value */\n      lt\n        /* \"https://github.com/OpenZeppelin/openzeppelin-contracts/blob/master/contracts/token/ERC20/ERC20.sol\":10536:10666  if (currentAllowance < value) {... */\n      iszero\n      tag_207\n      jumpi\n        /* \"https://github.com/OpenZeppelin/openzeppelin-contracts/blob/master/contracts/token/ERC20/ERC20.sol\":10618:10625  spender */\n      dup3\n        /* \"https://github.com/OpenZeppelin/openzeppelin-contracts/blob/master/contracts/token/ERC20/ERC20.sol\":10627:10643  currentAllowance */\n      dup2\n        /* \"https://github.com/OpenZeppelin/openzeppelin-contracts/blob/master/contracts/token/ERC20/ERC20.sol\":10645:10650  value */\n      dup4\n        /* \"https://github.com/OpenZeppelin/openzeppelin-contracts/blob/master/contracts/token/ERC20/ERC20.sol\":10591:10651  ERC20InsufficientAllowance(spender, currentAllowance, value) */\n      mload(0x40)\n      0xfb8f41b200000000000000000000000000000000000000000000000000000000\n      dup2\n      mstore\n      0x04\n      add\n      tag_208\n      swap4\n      swap3\n      swap2\n      swap1\n      tag_209\n      jump\t// in\n    tag_208:\n      mload(0x40)\n      dup1\n      swap2\n      sub\n      swap1\n      revert\n        /* \"https://github.com/OpenZeppelin/openzeppelin-contracts/blob/master/contracts/token/ERC20/ERC20.sol\":10536:10666  if (currentAllowance < value) {... */\n    tag_207:\n        /* \"https://github.com/OpenZeppelin/openzeppelin-contracts/blob/master/contracts/token/ERC20/ERC20.sol\":10707:10764  _approve(owner, spender, currentAllowance - value, false) */\n      tag_210\n        /* \"https://github.com/OpenZeppelin/openzeppelin-contracts/blob/master/contracts/token/ERC20/ERC20.sol\":10716:10721  owner */\n      dup5\n        /* \"https://github.com/OpenZeppelin/openzeppelin-contracts/blob/master/contracts/token/ERC20/ERC20.sol\":10723:10730  spender */\n      dup5\n        /* \"https://github.com/OpenZeppelin/openzeppelin-contracts/blob/master/contracts/token/ERC20/ERC20.sol\":10751:10756  value */\n      dup5\n        /* \"https://github.com/OpenZeppelin/openzeppelin-contracts/blob/master/contracts/token/ERC20/ERC20.sol\":10732:10748  currentAllowance */\n      dup5\n        /* \"https://github.com/OpenZeppelin/openzeppelin-contracts/blob/master/contracts/token/ERC20/ERC20.sol\":10732:10756  currentAllowance - value */\n      sub\n        /* \"https://github.com/OpenZeppelin/openzeppelin-contracts/blob/master/contracts/token/ERC20/ERC20.sol\":10758:10763  false */\n      0x00\n        /* \"https://github.com/OpenZeppelin/openzeppelin-contracts/blob/master/contracts/token/ERC20/ERC20.sol\":10707:10715  _approve */\n      tag_180\n        /* \"https://github.com/OpenZeppelin/openzeppelin-contracts/blob/master/contracts/token/ERC20/ERC20.sol\":10707:10764  _approve(owner, spender, currentAllowance - value, false) */\n      jump\t// in\n    tag_210:\n        /* \"https://github.com/OpenZeppelin/openzeppelin-contracts/blob/master/contracts/token/ERC20/ERC20.sol\":10480:10789  if (currentAllowance < type(uint256).max) {... */\n    tag_206:\n        /* \"https://github.com/OpenZeppelin/openzeppelin-contracts/blob/master/contracts/token/ERC20/ERC20.sol\":10408:10795  {... */\n      pop\n        /* \"https://github.com/OpenZeppelin/openzeppelin-contracts/blob/master/contracts/token/ERC20/ERC20.sol\":10319:10795  function _spendAllowance(address owner, address spender, uint256 value) internal virtual {... */\n      pop\n      pop\n      pop\n      jump\t// out\n        /* \"https://github.com/OpenZeppelin/openzeppelin-contracts/blob/master/contracts/token/ERC20/ERC20.sol\":5297:5597  function _transfer(address from, address to, uint256 value) internal {... */\n    tag_186:\n        /* \"https://github.com/OpenZeppelin/openzeppelin-contracts/blob/master/contracts/token/ERC20/ERC20.sol\":5396:5397  0 */\n      0x00\n        /* \"https://github.com/OpenZeppelin/openzeppelin-contracts/blob/master/contracts/token/ERC20/ERC20.sol\":5380:5398  from == address(0) */\n      0xffffffffffffffffffffffffffffffffffffffff\n      and\n        /* \"https://github.com/OpenZeppelin/openzeppelin-contracts/blob/master/contracts/token/ERC20/ERC20.sol\":5380:5384  from */\n      dup4\n        /* \"https://github.com/OpenZeppelin/openzeppelin-contracts/blob/master/contracts/token/ERC20/ERC20.sol\":5380:5398  from == address(0) */\n      0xffffffffffffffffffffffffffffffffffffffff\n      and\n      sub\n        /* \"https://github.com/OpenZeppelin/openzeppelin-contracts/blob/master/contracts/token/ERC20/ERC20.sol\":5376:5462  if (from == address(0)) {... */\n      tag_212\n      jumpi\n        /* \"https://github.com/OpenZeppelin/openzeppelin-contracts/blob/master/contracts/token/ERC20/ERC20.sol\":5448:5449  0 */\n      0x00\n        /* \"https://github.com/OpenZeppelin/openzeppelin-contracts/blob/master/contracts/token/ERC20/ERC20.sol\":5421:5451  ERC20InvalidSender(address(0)) */\n      mload(0x40)\n      0x96c6fd1e00000000000000000000000000000000000000000000000000000000\n      dup2\n      mstore\n      0x04\n      add\n      tag_213\n      swap2\n      swap1\n      tag_74\n      jump\t// in\n    tag_213:\n      mload(0x40)\n      dup1\n      swap2\n      sub\n      swap1\n      revert\n        /* \"https://github.com/OpenZeppelin/openzeppelin-contracts/blob/master/contracts/token/ERC20/ERC20.sol\":5376:5462  if (from == address(0)) {... */\n    tag_212:\n        /* \"https://github.com/OpenZeppelin/openzeppelin-contracts/blob/master/contracts/token/ERC20/ERC20.sol\":5489:5490  0 */\n      0x00\n        /* \"https://github.com/OpenZeppelin/openzeppelin-contracts/blob/master/contracts/token/ERC20/ERC20.sol\":5475:5491  to == address(0) */\n      0xffffffffffffffffffffffffffffffffffffffff\n      and\n        /* \"https://github.com/OpenZeppelin/openzeppelin-contracts/blob/master/contracts/token/ERC20/ERC20.sol\":5475:5477  to */\n      dup3\n        /* \"https://github.com/OpenZeppelin/openzeppelin-contracts/blob/master/contracts/token/ERC20/ERC20.sol\":5475:5491  to == address(0) */\n      0xffffffffffffffffffffffffffffffffffffffff\n      and\n      sub\n        /* \"https://github.com/OpenZeppelin/openzeppelin-contracts/blob/master/contracts/token/ERC20/ERC20.sol\":5471:5557  if (to == address(0)) {... */\n      tag_214\n      jumpi\n        /* \"https://github.com/OpenZeppelin/openzeppelin-contracts/blob/master/contracts/token/ERC20/ERC20.sol\":5543:5544  0 */\n      0x00\n        /* \"https://github.com/OpenZeppelin/openzeppelin-contracts/blob/master/contracts/token/ERC20/ERC20.sol\":5514:5546  ERC20InvalidReceiver(address(0)) */\n      mload(0x40)\n      0xec442f0500000000000000000000000000000000000000000000000000000000\n      dup2\n      mstore\n      0x04\n      add\n      tag_215\n      swap2\n      swap1\n      tag_74\n      jump\t// in\n    tag_215:\n      mload(0x40)\n      dup1\n      swap2\n      sub\n      swap1\n      revert\n        /* \"https://github.com/OpenZeppelin/openzeppelin-contracts/blob/master/contracts/token/ERC20/ERC20.sol\":5471:5557  if (to == address(0)) {... */\n    tag_214:\n        /* \"https://github.com/OpenZeppelin/openzeppelin-contracts/blob/master/contracts/token/ERC20/ERC20.sol\":5566:5590  _update(from, to, value) */\n      tag_216\n        /* \"https://github.com/OpenZeppelin/openzeppelin-contracts/blob/master/contracts/token/ERC20/ERC20.sol\":5574:5578  from */\n      dup4\n        /* \"https://github.com/OpenZeppelin/openzeppelin-contracts/blob/master/contracts/token/ERC20/ERC20.sol\":5580:5582  to */\n      dup4\n        /* \"https://github.com/OpenZeppelin/openzeppelin-contracts/blob/master/contracts/token/ERC20/ERC20.sol\":5584:5589  value */\n      dup4\n        /* \"https://github.com/OpenZeppelin/openzeppelin-contracts/blob/master/contracts/token/ERC20/ERC20.sol\":5566:5573  _update */\n      tag_217\n        /* \"https://github.com/OpenZeppelin/openzeppelin-contracts/blob/master/contracts/token/ERC20/ERC20.sol\":5566:5590  _update(from, to, value) */\n      jump\t// in\n    tag_216:\n        /* \"https://github.com/OpenZeppelin/openzeppelin-contracts/blob/master/contracts/token/ERC20/ERC20.sol\":5297:5597  function _transfer(address from, address to, uint256 value) internal {... */\n      pop\n      pop\n      pop\n      jump\t// out\n        /* \"https://github.com/OpenZeppelin/openzeppelin-contracts/blob/master/contracts/token/ERC20/ERC20.sol\":5912:7019  function _update(address from, address to, uint256 value) internal virtual {... */\n    tag_217:\n        /* \"https://github.com/OpenZeppelin/openzeppelin-contracts/blob/master/contracts/token/ERC20/ERC20.sol\":6017:6018  0 */\n      0x00\n        /* \"https://github.com/OpenZeppelin/openzeppelin-contracts/blob/master/contracts/token/ERC20/ERC20.sol\":6001:6019  from == address(0) */\n      0xffffffffffffffffffffffffffffffffffffffff\n      and\n        /* \"https://github.com/OpenZeppelin/openzeppelin-contracts/blob/master/contracts/token/ERC20/ERC20.sol\":6001:6005  from */\n      dup4\n        /* \"https://github.com/OpenZeppelin/openzeppelin-contracts/blob/master/contracts/token/ERC20/ERC20.sol\":6001:6019  from == address(0) */\n      0xffffffffffffffffffffffffffffffffffffffff\n      and\n      sub\n        /* \"https://github.com/OpenZeppelin/openzeppelin-contracts/blob/master/contracts/token/ERC20/ERC20.sol\":5997:6537  if (from == address(0)) {... */\n      tag_219\n      jumpi\n        /* \"https://github.com/OpenZeppelin/openzeppelin-contracts/blob/master/contracts/token/ERC20/ERC20.sol\":6153:6158  value */\n      dup1\n        /* \"https://github.com/OpenZeppelin/openzeppelin-contracts/blob/master/contracts/token/ERC20/ERC20.sol\":6137:6149  _totalSupply */\n      0x02\n      0x00\n        /* \"https://github.com/OpenZeppelin/openzeppelin-contracts/blob/master/contracts/token/ERC20/ERC20.sol\":6137:6158  _totalSupply += value */\n      dup3\n      dup3\n      sload\n      tag_220\n      swap2\n      swap1\n      tag_221\n      jump\t// in\n    tag_220:\n      swap3\n      pop\n      pop\n      dup2\n      swap1\n      sstore\n      pop\n        /* \"https://github.com/OpenZeppelin/openzeppelin-contracts/blob/master/contracts/token/ERC20/ERC20.sol\":5997:6537  if (from == address(0)) {... */\n      jump(tag_222)\n    tag_219:\n        /* \"https://github.com/OpenZeppelin/openzeppelin-contracts/blob/master/contracts/token/ERC20/ERC20.sol\":6189:6208  uint256 fromBalance */\n      0x00\n        /* \"https://github.com/OpenZeppelin/openzeppelin-contracts/blob/master/contracts/token/ERC20/ERC20.sol\":6211:6220  _balances */\n      0x00\n        /* \"https://github.com/OpenZeppelin/openzeppelin-contracts/blob/master/contracts/token/ERC20/ERC20.sol\":6211:6226  _balances[from] */\n      0x00\n        /* \"https://github.com/OpenZeppelin/openzeppelin-contracts/blob/master/contracts/token/ERC20/ERC20.sol\":6221:6225  from */\n      dup6\n        /* \"https://github.com/OpenZeppelin/openzeppelin-contracts/blob/master/contracts/token/ERC20/ERC20.sol\":6211:6226  _balances[from] */\n      0xffffffffffffffffffffffffffffffffffffffff\n      and\n      0xffffffffffffffffffffffffffffffffffffffff\n      and\n      dup2\n      mstore\n      0x20\n      add\n      swap1\n      dup2\n      mstore\n      0x20\n      add\n      0x00\n      keccak256\n      sload\n        /* \"https://github.com/OpenZeppelin/openzeppelin-contracts/blob/master/contracts/token/ERC20/ERC20.sol\":6189:6226  uint256 fromBalance = _balances[from] */\n      swap1\n      pop\n        /* \"https://github.com/OpenZeppelin/openzeppelin-contracts/blob/master/contracts/token/ERC20/ERC20.sol\":6258:6263  value */\n      dup2\n        /* \"https://github.com/OpenZeppelin/openzeppelin-contracts/blob/master/contracts/token/ERC20/ERC20.sol\":6244:6255  fromBalance */\n      dup2\n        /* \"https://github.com/OpenZeppelin/openzeppelin-contracts/blob/master/contracts/token/ERC20/ERC20.sol\":6244:6263  fromBalance < value */\n      lt\n        /* \"https://github.com/OpenZeppelin/openzeppelin-contracts/blob/master/contracts/token/ERC20/ERC20.sol\":6240:6355  if (fromBalance < value) {... */\n      iszero\n      tag_223\n      jumpi\n        /* \"https://github.com/OpenZeppelin/openzeppelin-contracts/blob/master/contracts/token/ERC20/ERC20.sol\":6315:6319  from */\n      dup4\n        /* \"https://github.com/OpenZeppelin/openzeppelin-contracts/blob/master/contracts/token/ERC20/ERC20.sol\":6321:6332  fromBalance */\n      dup2\n        /* \"https://github.com/OpenZeppelin/openzeppelin-contracts/blob/master/contracts/token/ERC20/ERC20.sol\":6334:6339  value */\n      dup4\n        /* \"https://github.com/OpenZeppelin/openzeppelin-contracts/blob/master/contracts/token/ERC20/ERC20.sol\":6290:6340  ERC20InsufficientBalance(from, fromBalance, value) */\n      mload(0x40)\n      0xe450d38c00000000000000000000000000000000000000000000000000000000\n      dup2\n      mstore\n      0x04\n      add\n      tag_224\n      swap4\n      swap3\n      swap2\n      swap1\n      tag_209\n      jump\t// in\n    tag_224:\n      mload(0x40)\n      dup1\n      swap2\n      sub\n      swap1\n      revert\n        /* \"https://github.com/OpenZeppelin/openzeppelin-contracts/blob/master/contracts/token/ERC20/ERC20.sol\":6240:6355  if (fromBalance < value) {... */\n    tag_223:\n        /* \"https://github.com/OpenZeppelin/openzeppelin-contracts/blob/master/contracts/token/ERC20/ERC20.sol\":6507:6512  value */\n      dup2\n        /* \"https://github.com/OpenZeppelin/openzeppelin-contracts/blob/master/contracts/token/ERC20/ERC20.sol\":6493:6504  fromBalance */\n      dup2\n        /* \"https://github.com/OpenZeppelin/openzeppelin-contracts/blob/master/contracts/token/ERC20/ERC20.sol\":6493:6512  fromBalance - value */\n      sub\n        /* \"https://github.com/OpenZeppelin/openzeppelin-contracts/blob/master/contracts/token/ERC20/ERC20.sol\":6475:6484  _balances */\n      0x00\n        /* \"https://github.com/OpenZeppelin/openzeppelin-contracts/blob/master/contracts/token/ERC20/ERC20.sol\":6475:6490  _balances[from] */\n      0x00\n        /* \"https://github.com/OpenZeppelin/openzeppelin-contracts/blob/master/contracts/token/ERC20/ERC20.sol\":6485:6489  from */\n      dup7\n        /* \"https://github.com/OpenZeppelin/openzeppelin-contracts/blob/master/contracts/token/ERC20/ERC20.sol\":6475:6490  _balances[from] */\n      0xffffffffffffffffffffffffffffffffffffffff\n      and\n      0xffffffffffffffffffffffffffffffffffffffff\n      and\n      dup2\n      mstore\n      0x20\n      add\n      swap1\n      dup2\n      mstore\n      0x20\n      add\n      0x00\n      keccak256\n        /* \"https://github.com/OpenZeppelin/openzeppelin-contracts/blob/master/contracts/token/ERC20/ERC20.sol\":6475:6512  _balances[from] = fromBalance - value */\n      dup2\n      swap1\n      sstore\n      pop\n        /* \"https://github.com/OpenZeppelin/openzeppelin-contracts/blob/master/contracts/token/ERC20/ERC20.sol\":6175:6537  {... */\n      pop\n        /* \"https://github.com/OpenZeppelin/openzeppelin-contracts/blob/master/contracts/token/ERC20/ERC20.sol\":5997:6537  if (from == address(0)) {... */\n    tag_222:\n        /* \"https://github.com/OpenZeppelin/openzeppelin-contracts/blob/master/contracts/token/ERC20/ERC20.sol\":6565:6566  0 */\n      0x00\n        /* \"https://github.com/OpenZeppelin/openzeppelin-contracts/blob/master/contracts/token/ERC20/ERC20.sol\":6551:6567  to == address(0) */\n      0xffffffffffffffffffffffffffffffffffffffff\n      and\n        /* \"https://github.com/OpenZeppelin/openzeppelin-contracts/blob/master/contracts/token/ERC20/ERC20.sol\":6551:6553  to */\n      dup3\n        /* \"https://github.com/OpenZeppelin/openzeppelin-contracts/blob/master/contracts/token/ERC20/ERC20.sol\":6551:6567  to == address(0) */\n      0xffffffffffffffffffffffffffffffffffffffff\n      and\n      sub\n        /* \"https://github.com/OpenZeppelin/openzeppelin-contracts/blob/master/contracts/token/ERC20/ERC20.sol\":6547:6972  if (to == address(0)) {... */\n      tag_225\n      jumpi\n        /* \"https://github.com/OpenZeppelin/openzeppelin-contracts/blob/master/contracts/token/ERC20/ERC20.sol\":6730:6735  value */\n      dup1\n        /* \"https://github.com/OpenZeppelin/openzeppelin-contracts/blob/master/contracts/token/ERC20/ERC20.sol\":6714:6726  _totalSupply */\n      0x02\n      0x00\n        /* \"https://github.com/OpenZeppelin/openzeppelin-contracts/blob/master/contracts/token/ERC20/ERC20.sol\":6714:6735  _totalSupply -= value */\n      dup3\n      dup3\n      sload\n      sub\n      swap3\n      pop\n      pop\n      dup2\n      swap1\n      sstore\n      pop\n        /* \"https://github.com/OpenZeppelin/openzeppelin-contracts/blob/master/contracts/token/ERC20/ERC20.sol\":6547:6972  if (to == address(0)) {... */\n      jump(tag_226)\n    tag_225:\n        /* \"https://github.com/OpenZeppelin/openzeppelin-contracts/blob/master/contracts/token/ERC20/ERC20.sol\":6942:6947  value */\n      dup1\n        /* \"https://github.com/OpenZeppelin/openzeppelin-contracts/blob/master/contracts/token/ERC20/ERC20.sol\":6925:6934  _balances */\n      0x00\n        /* \"https://github.com/OpenZeppelin/openzeppelin-contracts/blob/master/contracts/token/ERC20/ERC20.sol\":6925:6938  _balances[to] */\n      0x00\n        /* \"https://github.com/OpenZeppelin/openzeppelin-contracts/blob/master/contracts/token/ERC20/ERC20.sol\":6935:6937  to */\n      dup5\n        /* \"https://github.com/OpenZeppelin/openzeppelin-contracts/blob/master/contracts/token/ERC20/ERC20.sol\":6925:6938  _balances[to] */\n      0xffffffffffffffffffffffffffffffffffffffff\n      and\n      0xffffffffffffffffffffffffffffffffffffffff\n      and\n      dup2\n      mstore\n      0x20\n      add\n      swap1\n      dup2\n      mstore\n      0x20\n      add\n      0x00\n      keccak256\n      0x00\n        /* \"https://github.com/OpenZeppelin/openzeppelin-contracts/blob/master/contracts/token/ERC20/ERC20.sol\":6925:6947  _balances[to] += value */\n      dup3\n      dup3\n      sload\n      add\n      swap3\n      pop\n      pop\n      dup2\n      swap1\n      sstore\n      pop\n        /* \"https://github.com/OpenZeppelin/openzeppelin-contracts/blob/master/contracts/token/ERC20/ERC20.sol\":6547:6972  if (to == address(0)) {... */\n    tag_226:\n        /* \"https://github.com/OpenZeppelin/openzeppelin-contracts/blob/master/contracts/token/ERC20/ERC20.sol\":7002:7004  to */\n      dup2\n        /* \"https://github.com/OpenZeppelin/openzeppelin-contracts/blob/master/contracts/token/ERC20/ERC20.sol\":6987:7012  Transfer(from, to, value) */\n      0xffffffffffffffffffffffffffffffffffffffff\n      and\n        /* \"https://github.com/OpenZeppelin/openzeppelin-contracts/blob/master/contracts/token/ERC20/ERC20.sol\":6996:7000  from */\n      dup4\n        /* \"https://github.com/OpenZeppelin/openzeppelin-contracts/blob/master/contracts/token/ERC20/ERC20.sol\":6987:7012  Transfer(from, to, value) */\n      0xffffffffffffffffffffffffffffffffffffffff\n      and\n      0xddf252ad1be2c89b69c2b068fc378daa952ba7f163c4a11628f55a4df523b3ef\n        /* \"https://github.com/OpenZeppelin/openzeppelin-contracts/blob/master/contracts/token/ERC20/ERC20.sol\":7006:7011  value */\n      dup4\n        /* \"https://github.com/OpenZeppelin/openzeppelin-contracts/blob/master/contracts/token/ERC20/ERC20.sol\":6987:7012  Transfer(from, to, value) */\n      mload(0x40)\n      tag_227\n      swap2\n      swap1\n      tag_39\n      jump\t// in\n    tag_227:\n      mload(0x40)\n      dup1\n      swap2\n      sub\n      swap1\n      log3\n        /* \"https://github.com/OpenZeppelin/openzeppelin-contracts/blob/master/contracts/token/ERC20/ERC20.sol\":5912:7019  function _update(address from, address to, uint256 value) internal virtual {... */\n      pop\n      pop\n      pop\n      jump\t// out\n        /* \"#utility.yul\":7:106   */\n    tag_228:\n        /* \"#utility.yul\":59:65   */\n      0x00\n        /* \"#utility.yul\":93:98   */\n      dup2\n        /* \"#utility.yul\":87:99   */\n      mload\n        /* \"#utility.yul\":77:99   */\n      swap1\n      pop\n        /* \"#utility.yul\":7:106   */\n      swap2\n      swap1\n      pop\n      jump\t// out\n        /* \"#utility.yul\":112:281   */\n    tag_229:\n        /* \"#utility.yul\":196:207   */\n      0x00\n        /* \"#utility.yul\":230:236   */\n      dup3\n        /* \"#utility.yul\":225:228   */\n      dup3\n        /* \"#utility.yul\":218:237   */\n      mstore\n        /* \"#utility.yul\":270:274   */\n      0x20\n        /* \"#utility.yul\":265:268   */\n      dup3\n        /* \"#utility.yul\":261:275   */\n      add\n        /* \"#utility.yul\":246:275   */\n      swap1\n      pop\n        /* \"#utility.yul\":112:281   */\n      swap3\n      swap2\n      pop\n      pop\n      jump\t// out\n        /* \"#utility.yul\":287:426   */\n    tag_230:\n        /* \"#utility.yul\":376:382   */\n      dup3\n        /* \"#utility.yul\":371:374   */\n      dup2\n        /* \"#utility.yul\":366:369   */\n      dup4\n        /* \"#utility.yul\":360:383   */\n      mcopy\n        /* \"#utility.yul\":417:418   */\n      0x00\n        /* \"#utility.yul\":408:414   */\n      dup4\n        /* \"#utility.yul\":403:406   */\n      dup4\n        /* \"#utility.yul\":399:415   */\n      add\n        /* \"#utility.yul\":392:419   */\n      mstore\n        /* \"#utility.yul\":287:426   */\n      pop\n      pop\n      pop\n      jump\t// out\n        /* \"#utility.yul\":432:534   */\n    tag_231:\n        /* \"#utility.yul\":473:479   */\n      0x00\n        /* \"#utility.yul\":524:526   */\n      0x1f\n        /* \"#utility.yul\":520:527   */\n      not\n        /* \"#utility.yul\":515:517   */\n      0x1f\n        /* \"#utility.yul\":508:513   */\n      dup4\n        /* \"#utility.yul\":504:518   */\n      add\n        /* \"#utility.yul\":500:528   */\n      and\n        /* \"#utility.yul\":490:528   */\n      swap1\n      pop\n        /* \"#utility.yul\":432:534   */\n      swap2\n      swap1\n      pop\n      jump\t// out\n        /* \"#utility.yul\":540:917   */\n    tag_232:\n        /* \"#utility.yul\":628:631   */\n      0x00\n        /* \"#utility.yul\":656:695   */\n      tag_283\n        /* \"#utility.yul\":689:694   */\n      dup3\n        /* \"#utility.yul\":656:695   */\n      tag_228\n      jump\t// in\n    tag_283:\n        /* \"#utility.yul\":711:782   */\n      tag_284\n        /* \"#utility.yul\":775:781   */\n      dup2\n        /* \"#utility.yul\":770:773   */\n      dup6\n        /* \"#utility.yul\":711:782   */\n      tag_229\n      jump\t// in\n    tag_284:\n        /* \"#utility.yul\":704:782   */\n      swap4\n      pop\n        /* \"#utility.yul\":791:856   */\n      tag_285\n        /* \"#utility.yul\":849:855   */\n      dup2\n        /* \"#utility.yul\":844:847   */\n      dup6\n        /* \"#utility.yul\":837:841   */\n      0x20\n        /* \"#utility.yul\":830:835   */\n      dup7\n        /* \"#utility.yul\":826:842   */\n      add\n        /* \"#utility.yul\":791:856   */\n      tag_230\n      jump\t// in\n    tag_285:\n        /* \"#utility.yul\":881:910   */\n      tag_286\n        /* \"#utility.yul\":903:909   */\n      dup2\n        /* \"#utility.yul\":881:910   */\n      tag_231\n      jump\t// in\n    tag_286:\n        /* \"#utility.yul\":876:879   */\n      dup5\n        /* \"#utility.yul\":872:911   */\n      add\n        /* \"#utility.yul\":865:911   */\n      swap2\n      pop\n        /* \"#utility.yul\":632:917   */\n      pop\n        /* \"#utility.yul\":540:917   */\n      swap3\n      swap2\n      pop\n      pop\n      jump\t// out\n        /* \"#utility.yul\":923:1236   */\n    tag_29:\n        /* \"#utility.yul\":1036:1040   */\n      0x00\n        /* \"#utility.yul\":1074:1076   */\n      0x20\n        /* \"#utility.yul\":1063:1072   */\n      dup3\n        /* \"#utility.yul\":1059:1077   */\n      add\n        /* \"#utility.yul\":1051:1077   */\n      swap1\n      pop\n        /* \"#utility.yul\":1123:1132   */\n      dup2\n        /* \"#utility.yul\":1117:1121   */\n      dup2\n        /* \"#utility.yul\":1113:1133   */\n      sub\n        /* \"#utility.yul\":1109:1110   */\n      0x00\n        /* \"#utility.yul\":1098:1107   */\n      dup4\n        /* \"#utility.yul\":1094:1111   */\n      add\n        /* \"#utility.yul\":1087:1134   */\n      mstore\n        /* \"#utility.yul\":1151:1229   */\n      tag_288\n        /* \"#utility.yul\":1224:1228   */\n      dup2\n        /* \"#utility.yul\":1215:1221   */\n      dup5\n        /* \"#utility.yul\":1151:1229   */\n      tag_232\n      jump\t// in\n    tag_288:\n        /* \"#utility.yul\":1143:1229   */\n      swap1\n      pop\n        /* \"#utility.yul\":923:1236   */\n      swap3\n      swap2\n      pop\n      pop\n      jump\t// out\n        /* \"#utility.yul\":1323:1440   */\n    tag_234:\n        /* \"#utility.yul\":1432:1433   */\n      0x00\n        /* \"#utility.yul\":1429:1430   */\n      0x00\n        /* \"#utility.yul\":1422:1434   */\n      revert\n        /* \"#utility.yul\":1569:1695   */\n    tag_236:\n        /* \"#utility.yul\":1606:1613   */\n      0x00\n        /* \"#utility.yul\":1646:1688   */\n      0xffffffffffffffffffffffffffffffffffffffff\n        /* \"#utility.yul\":1639:1644   */\n      dup3\n        /* \"#utility.yul\":1635:1689   */\n      and\n        /* \"#utility.yul\":1624:1689   */\n      swap1\n      pop\n        /* \"#utility.yul\":1569:1695   */\n      swap2\n      swap1\n      pop\n      jump\t// out\n        /* \"#utility.yul\":1701:1797   */\n    tag_237:\n        /* \"#utility.yul\":1738:1745   */\n      0x00\n        /* \"#utility.yul\":1767:1791   */\n      tag_294\n        /* \"#utility.yul\":1785:1790   */\n      dup3\n        /* \"#utility.yul\":1767:1791   */\n      tag_236\n      jump\t// in\n    tag_294:\n        /* \"#utility.yul\":1756:1791   */\n      swap1\n      pop\n        /* \"#utility.yul\":1701:1797   */\n      swap2\n      swap1\n      pop\n      jump\t// out\n        /* \"#utility.yul\":1803:1925   */\n    tag_238:\n        /* \"#utility.yul\":1876:1900   */\n      tag_296\n        /* \"#utility.yul\":1894:1899   */\n      dup2\n        /* \"#utility.yul\":1876:1900   */\n      tag_237\n      jump\t// in\n    tag_296:\n        /* \"#utility.yul\":1869:1874   */\n      dup2\n        /* \"#utility.yul\":1866:1901   */\n      eq\n        /* \"#utility.yul\":1856:1919   */\n      tag_297\n      jumpi\n        /* \"#utility.yul\":1915:1916   */\n      0x00\n        /* \"#utility.yul\":1912:1913   */\n      0x00\n        /* \"#utility.yul\":1905:1917   */\n      revert\n        /* \"#utility.yul\":1856:1919   */\n    tag_297:\n        /* \"#utility.yul\":1803:1925   */\n      pop\n      jump\t// out\n        /* \"#utility.yul\":1931:2070   */\n    tag_239:\n        /* \"#utility.yul\":1977:1982   */\n      0x00\n        /* \"#utility.yul\":2015:2021   */\n      dup2\n        /* \"#utility.yul\":2002:2022   */\n      calldataload\n        /* \"#utility.yul\":1993:2022   */\n      swap1\n      pop\n        /* \"#utility.yul\":2031:2064   */\n      tag_299\n        /* \"#utility.yul\":2058:2063   */\n      dup2\n        /* \"#utility.yul\":2031:2064   */\n      tag_238\n      jump\t// in\n    tag_299:\n        /* \"#utility.yul\":1931:2070   */\n      swap3\n      swap2\n      pop\n      pop\n      jump\t// out\n        /* \"#utility.yul\":2076:2153   */\n    tag_240:\n        /* \"#utility.yul\":2113:2120   */\n      0x00\n        /* \"#utility.yul\":2142:2147   */\n      dup2\n        /* \"#utility.yul\":2131:2147   */\n      swap1\n      pop\n        /* \"#utility.yul\":2076:2153   */\n      swap2\n      swap1\n      pop\n      jump\t// out\n        /* \"#utility.yul\":2159:2281   */\n    tag_241:\n        /* \"#utility.yul\":2232:2256   */\n      tag_302\n        /* \"#utility.yul\":2250:2255   */\n      dup2\n        /* \"#utility.yul\":2232:2256   */\n      tag_240\n      jump\t// in\n    tag_302:\n        /* \"#utility.yul\":2225:2230   */\n      dup2\n        /* \"#utility.yul\":2222:2257   */\n      eq\n        /* \"#utility.yul\":2212:2275   */\n      tag_303\n      jumpi\n        /* \"#utility.yul\":2271:2272   */\n      0x00\n        /* \"#utility.yul\":2268:2269   */\n      0x00\n        /* \"#utility.yul\":2261:2273   */\n      revert\n        /* \"#utility.yul\":2212:2275   */\n    tag_303:\n        /* \"#utility.yul\":2159:2281   */\n      pop\n      jump\t// out\n        /* \"#utility.yul\":2287:2426   */\n    tag_242:\n        /* \"#utility.yul\":2333:2338   */\n      0x00\n        /* \"#utility.yul\":2371:2377   */\n      dup2\n        /* \"#utility.yul\":2358:2378   */\n      calldataload\n        /* \"#utility.yul\":2349:2378   */\n      swap1\n      pop\n        /* \"#utility.yul\":2387:2420   */\n      tag_305\n        /* \"#utility.yul\":2414:2419   */\n      dup2\n        /* \"#utility.yul\":2387:2420   */\n      tag_241\n      jump\t// in\n    tag_305:\n        /* \"#utility.yul\":2287:2426   */\n      swap3\n      swap2\n      pop\n      pop\n      jump\t// out\n        /* \"#utility.yul\":2432:2906   */\n    tag_32:\n        /* \"#utility.yul\":2500:2506   */\n      0x00\n        /* \"#utility.yul\":2508:2514   */\n      0x00\n        /* \"#utility.yul\":2557:2559   */\n      0x40\n        /* \"#utility.yul\":2545:2554   */\n      dup4\n        /* \"#utility.yul\":2536:2543   */\n      dup6\n        /* \"#utility.yul\":2532:2555   */\n      sub\n        /* \"#utility.yul\":2528:2560   */\n      slt\n        /* \"#utility.yul\":2525:2644   */\n      iszero\n      tag_307\n      jumpi\n        /* \"#utility.yul\":2563:2642   */\n      tag_308\n      tag_234\n      jump\t// in\n    tag_308:\n        /* \"#utility.yul\":2525:2644   */\n    tag_307:\n        /* \"#utility.yul\":2683:2684   */\n      0x00\n        /* \"#utility.yul\":2708:2761   */\n      tag_309\n        /* \"#utility.yul\":2753:2760   */\n      dup6\n        /* \"#utility.yul\":2744:2750   */\n      dup3\n        /* \"#utility.yul\":2733:2742   */\n      dup7\n        /* \"#utility.yul\":2729:2751   */\n      add\n        /* \"#utility.yul\":2708:2761   */\n      tag_239\n      jump\t// in\n    tag_309:\n        /* \"#utility.yul\":2698:2761   */\n      swap3\n      pop\n        /* \"#utility.yul\":2654:2771   */\n      pop\n        /* \"#utility.yul\":2810:2812   */\n      0x20\n        /* \"#utility.yul\":2836:2889   */\n      tag_310\n        /* \"#utility.yul\":2881:2888   */\n      dup6\n        /* \"#utility.yul\":2872:2878   */\n      dup3\n        /* \"#utility.yul\":2861:2870   */\n      dup7\n        /* \"#utility.yul\":2857:2879   */\n      add\n        /* \"#utility.yul\":2836:2889   */\n      tag_242\n      jump\t// in\n    tag_310:\n        /* \"#utility.yul\":2826:2889   */\n      swap2\n      pop\n        /* \"#utility.yul\":2781:2899   */\n      pop\n        /* \"#utility.yul\":2432:2906   */\n      swap3\n      pop\n      swap3\n      swap1\n      pop\n      jump\t// out\n        /* \"#utility.yul\":2912:3002   */\n    tag_243:\n        /* \"#utility.yul\":2946:2953   */\n      0x00\n        /* \"#utility.yul\":2989:2994   */\n      dup2\n        /* \"#utility.yul\":2982:2995   */\n      iszero\n        /* \"#utility.yul\":2975:2996   */\n      iszero\n        /* \"#utility.yul\":2964:2996   */\n      swap1\n      pop\n        /* \"#utility.yul\":2912:3002   */\n      swap2\n      swap1\n      pop\n      jump\t// out\n        /* \"#utility.yul\":3008:3117   */\n    tag_244:\n        /* \"#utility.yul\":3089:3110   */\n      tag_313\n        /* \"#utility.yul\":3104:3109   */\n      dup2\n        /* \"#utility.yul\":3089:3110   */\n      tag_243\n      jump\t// in\n    tag_313:\n        /* \"#utility.yul\":3084:3087   */\n      dup3\n        /* \"#utility.yul\":3077:3111   */\n      mstore\n        /* \"#utility.yul\":3008:3117   */\n      pop\n      pop\n      jump\t// out\n        /* \"#utility.yul\":3123:3333   */\n    tag_35:\n        /* \"#utility.yul\":3210:3214   */\n      0x00\n        /* \"#utility.yul\":3248:3250   */\n      0x20\n        /* \"#utility.yul\":3237:3246   */\n      dup3\n        /* \"#utility.yul\":3233:3251   */\n      add\n        /* \"#utility.yul\":3225:3251   */\n      swap1\n      pop\n        /* \"#utility.yul\":3261:3326   */\n      tag_315\n        /* \"#utility.yul\":3323:3324   */\n      0x00\n        /* \"#utility.yul\":3312:3321   */\n      dup4\n        /* \"#utility.yul\":3308:3325   */\n      add\n        /* \"#utility.yul\":3299:3305   */\n      dup5\n        /* \"#utility.yul\":3261:3326   */\n      tag_244\n      jump\t// in\n    tag_315:\n        /* \"#utility.yul\":3123:3333   */\n      swap3\n      swap2\n      pop\n      pop\n      jump\t// out\n        /* \"#utility.yul\":3339:3457   */\n    tag_245:\n        /* \"#utility.yul\":3426:3450   */\n      tag_317\n        /* \"#utility.yul\":3444:3449   */\n      dup2\n        /* \"#utility.yul\":3426:3450   */\n      tag_240\n      jump\t// in\n    tag_317:\n        /* \"#utility.yul\":3421:3424   */\n      dup3\n        /* \"#utility.yul\":3414:3451   */\n      mstore\n        /* \"#utility.yul\":3339:3457   */\n      pop\n      pop\n      jump\t// out\n        /* \"#utility.yul\":3463:3685   */\n    tag_39:\n        /* \"#utility.yul\":3556:3560   */\n      0x00\n        /* \"#utility.yul\":3594:3596   */\n      0x20\n        /* \"#utility.yul\":3583:3592   */\n      dup3\n        /* \"#utility.yul\":3579:3597   */\n      add\n        /* \"#utility.yul\":3571:3597   */\n      swap1\n      pop\n        /* \"#utility.yul\":3607:3678   */\n      tag_319\n        /* \"#utility.yul\":3675:3676   */\n      0x00\n        /* \"#utility.yul\":3664:3673   */\n      dup4\n        /* \"#utility.yul\":3660:3677   */\n      add\n        /* \"#utility.yul\":3651:3657   */\n      dup5\n        /* \"#utility.yul\":3607:3678   */\n      tag_245\n      jump\t// in\n    tag_319:\n        /* \"#utility.yul\":3463:3685   */\n      swap3\n      swap2\n      pop\n      pop\n      jump\t// out\n        /* \"#utility.yul\":3691:4310   */\n    tag_45:\n        /* \"#utility.yul\":3768:3774   */\n      0x00\n        /* \"#utility.yul\":3776:3782   */\n      0x00\n        /* \"#utility.yul\":3784:3790   */\n      0x00\n        /* \"#utility.yul\":3833:3835   */\n      0x60\n        /* \"#utility.yul\":3821:3830   */\n      dup5\n        /* \"#utility.yul\":3812:3819   */\n      dup7\n        /* \"#utility.yul\":3808:3831   */\n      sub\n        /* \"#utility.yul\":3804:3836   */\n      slt\n        /* \"#utility.yul\":3801:3920   */\n      iszero\n      tag_321\n      jumpi\n        /* \"#utility.yul\":3839:3918   */\n      tag_322\n      tag_234\n      jump\t// in\n    tag_322:\n        /* \"#utility.yul\":3801:3920   */\n    tag_321:\n        /* \"#utility.yul\":3959:3960   */\n      0x00\n        /* \"#utility.yul\":3984:4037   */\n      tag_323\n        /* \"#utility.yul\":4029:4036   */\n      dup7\n        /* \"#utility.yul\":4020:4026   */\n      dup3\n        /* \"#utility.yul\":4009:4018   */\n      dup8\n        /* \"#utility.yul\":4005:4027   */\n      add\n        /* \"#utility.yul\":3984:4037   */\n      tag_239\n      jump\t// in\n    tag_323:\n        /* \"#utility.yul\":3974:4037   */\n      swap4\n      pop\n        /* \"#utility.yul\":3930:4047   */\n      pop\n        /* \"#utility.yul\":4086:4088   */\n      0x20\n        /* \"#utility.yul\":4112:4165   */\n      tag_324\n        /* \"#utility.yul\":4157:4164   */\n      dup7\n        /* \"#utility.yul\":4148:4154   */\n      dup3\n        /* \"#utility.yul\":4137:4146   */\n      dup8\n        /* \"#utility.yul\":4133:4155   */\n      add\n        /* \"#utility.yul\":4112:4165   */\n      tag_239\n      jump\t// in\n    tag_324:\n        /* \"#utility.yul\":4102:4165   */\n      swap3\n      pop\n        /* \"#utility.yul\":4057:4175   */\n      pop\n        /* \"#utility.yul\":4214:4216   */\n      0x40\n        /* \"#utility.yul\":4240:4293   */\n      tag_325\n        /* \"#utility.yul\":4285:4292   */\n      dup7\n        /* \"#utility.yul\":4276:4282   */\n      dup3\n        /* \"#utility.yul\":4265:4274   */\n      dup8\n        /* \"#utility.yul\":4261:4283   */\n      add\n        /* \"#utility.yul\":4240:4293   */\n      tag_242\n      jump\t// in\n    tag_325:\n        /* \"#utility.yul\":4230:4293   */\n      swap2\n      pop\n        /* \"#utility.yul\":4185:4303   */\n      pop\n        /* \"#utility.yul\":3691:4310   */\n      swap3\n      pop\n      swap3\n      pop\n      swap3\n      jump\t// out\n        /* \"#utility.yul\":4316:4402   */\n    tag_246:\n        /* \"#utility.yul\":4351:4358   */\n      0x00\n        /* \"#utility.yul\":4391:4395   */\n      0xff\n        /* \"#utility.yul\":4384:4389   */\n      dup3\n        /* \"#utility.yul\":4380:4396   */\n      and\n        /* \"#utility.yul\":4369:4396   */\n      swap1\n      pop\n        /* \"#utility.yul\":4316:4402   */\n      swap2\n      swap1\n      pop\n      jump\t// out\n        /* \"#utility.yul\":4408:4520   */\n    tag_247:\n        /* \"#utility.yul\":4491:4513   */\n      tag_328\n        /* \"#utility.yul\":4507:4512   */\n      dup2\n        /* \"#utility.yul\":4491:4513   */\n      tag_246\n      jump\t// in\n    tag_328:\n        /* \"#utility.yul\":4486:4489   */\n      dup3\n        /* \"#utility.yul\":4479:4514   */\n      mstore\n        /* \"#utility.yul\":4408:4520   */\n      pop\n      pop\n      jump\t// out\n        /* \"#utility.yul\":4526:4740   */\n    tag_51:\n        /* \"#utility.yul\":4615:4619   */\n      0x00\n        /* \"#utility.yul\":4653:4655   */\n      0x20\n        /* \"#utility.yul\":4642:4651   */\n      dup3\n        /* \"#utility.yul\":4638:4656   */\n      add\n        /* \"#utility.yul\":4630:4656   */\n      swap1\n      pop\n        /* \"#utility.yul\":4666:4733   */\n      tag_330\n        /* \"#utility.yul\":4730:4731   */\n      0x00\n        /* \"#utility.yul\":4719:4728   */\n      dup4\n        /* \"#utility.yul\":4715:4732   */\n      add\n        /* \"#utility.yul\":4706:4712   */\n      dup5\n        /* \"#utility.yul\":4666:4733   */\n      tag_247\n      jump\t// in\n    tag_330:\n        /* \"#utility.yul\":4526:4740   */\n      swap3\n      swap2\n      pop\n      pop\n      jump\t// out\n        /* \"#utility.yul\":4746:5075   */\n    tag_57:\n        /* \"#utility.yul\":4805:4811   */\n      0x00\n        /* \"#utility.yul\":4854:4856   */\n      0x20\n        /* \"#utility.yul\":4842:4851   */\n      dup3\n        /* \"#utility.yul\":4833:4840   */\n      dup5\n        /* \"#utility.yul\":4829:4852   */\n      sub\n        /* \"#utility.yul\":4825:4857   */\n      slt\n        /* \"#utility.yul\":4822:4941   */\n      iszero\n      tag_332\n      jumpi\n        /* \"#utility.yul\":4860:4939   */\n      tag_333\n      tag_234\n      jump\t// in\n    tag_333:\n        /* \"#utility.yul\":4822:4941   */\n    tag_332:\n        /* \"#utility.yul\":4980:4981   */\n      0x00\n        /* \"#utility.yul\":5005:5058   */\n      tag_334\n        /* \"#utility.yul\":5050:5057   */\n      dup5\n        /* \"#utility.yul\":5041:5047   */\n      dup3\n        /* \"#utility.yul\":5030:5039   */\n      dup6\n        /* \"#utility.yul\":5026:5048   */\n      add\n        /* \"#utility.yul\":5005:5058   */\n      tag_239\n      jump\t// in\n    tag_334:\n        /* \"#utility.yul\":4995:5058   */\n      swap2\n      pop\n        /* \"#utility.yul\":4951:5068   */\n      pop\n        /* \"#utility.yul\":4746:5075   */\n      swap3\n      swap2\n      pop\n      pop\n      jump\t// out\n        /* \"#utility.yul\":5081:5410   */\n    tag_67:\n        /* \"#utility.yul\":5140:5146   */\n      0x00\n        /* \"#utility.yul\":5189:5191   */\n      0x20\n        /* \"#utility.yul\":5177:5186   */\n      dup3\n        /* \"#utility.yul\":5168:5175   */\n      dup5\n        /* \"#utility.yul\":5164:5187   */\n      sub\n        /* \"#utility.yul\":5160:5192   */\n      slt\n        /* \"#utility.yul\":5157:5276   */\n      iszero\n      tag_336\n      jumpi\n        /* \"#utility.yul\":5195:5274   */\n      tag_337\n      tag_234\n      jump\t// in\n    tag_337:\n        /* \"#utility.yul\":5157:5276   */\n    tag_336:\n        /* \"#utility.yul\":5315:5316   */\n      0x00\n        /* \"#utility.yul\":5340:5393   */\n      tag_338\n        /* \"#utility.yul\":5385:5392   */\n      dup5\n        /* \"#utility.yul\":5376:5382   */\n      dup3\n        /* \"#utility.yul\":5365:5374   */\n      dup6\n        /* \"#utility.yul\":5361:5383   */\n      add\n        /* \"#utility.yul\":5340:5393   */\n      tag_242\n      jump\t// in\n    tag_338:\n        /* \"#utility.yul\":5330:5393   */\n      swap2\n      pop\n        /* \"#utility.yul\":5286:5403   */\n      pop\n        /* \"#utility.yul\":5081:5410   */\n      swap3\n      swap2\n      pop\n      pop\n      jump\t// out\n        /* \"#utility.yul\":5416:5534   */\n    tag_248:\n        /* \"#utility.yul\":5503:5527   */\n      tag_340\n        /* \"#utility.yul\":5521:5526   */\n      dup2\n        /* \"#utility.yul\":5503:5527   */\n      tag_237\n      jump\t// in\n    tag_340:\n        /* \"#utility.yul\":5498:5501   */\n      dup3\n        /* \"#utility.yul\":5491:5528   */\n      mstore\n        /* \"#utility.yul\":5416:5534   */\n      pop\n      pop\n      jump\t// out\n        /* \"#utility.yul\":5540:5872   */\n    tag_70:\n        /* \"#utility.yul\":5661:5665   */\n      0x00\n        /* \"#utility.yul\":5699:5701   */\n      0x40\n        /* \"#utility.yul\":5688:5697   */\n      dup3\n        /* \"#utility.yul\":5684:5702   */\n      add\n        /* \"#utility.yul\":5676:5702   */\n      swap1\n      pop\n        /* \"#utility.yul\":5712:5783   */\n      tag_342\n        /* \"#utility.yul\":5780:5781   */\n      0x00\n        /* \"#utility.yul\":5769:5778   */\n      dup4\n        /* \"#utility.yul\":5765:5782   */\n      add\n        /* \"#utility.yul\":5756:5762   */\n      dup6\n        /* \"#utility.yul\":5712:5783   */\n      tag_248\n      jump\t// in\n    tag_342:\n        /* \"#utility.yul\":5793:5865   */\n      tag_343\n        /* \"#utility.yul\":5861:5863   */\n      0x20\n        /* \"#utility.yul\":5850:5859   */\n      dup4\n        /* \"#utility.yul\":5846:5864   */\n      add\n        /* \"#utility.yul\":5837:5843   */\n      dup5\n        /* \"#utility.yul\":5793:5865   */\n      tag_245\n      jump\t// in\n    tag_343:\n        /* \"#utility.yul\":5540:5872   */\n      swap4\n      swap3\n      pop\n      pop\n      pop\n      jump\t// out\n        /* \"#utility.yul\":5878:6100   */\n    tag_74:\n        /* \"#utility.yul\":5971:5975   */\n      0x00\n        /* \"#utility.yul\":6009:6011   */\n      0x20\n        /* \"#utility.yul\":5998:6007   */\n      dup3\n        /* \"#utility.yul\":5994:6012   */\n      add\n        /* \"#utility.yul\":5986:6012   */\n      swap1\n      pop\n        /* \"#utility.yul\":6022:6093   */\n      tag_345\n        /* \"#utility.yul\":6090:6091   */\n      0x00\n        /* \"#utility.yul\":6079:6088   */\n      dup4\n        /* \"#utility.yul\":6075:6092   */\n      add\n        /* \"#utility.yul\":6066:6072   */\n      dup5\n        /* \"#utility.yul\":6022:6093   */\n      tag_248\n      jump\t// in\n    tag_345:\n        /* \"#utility.yul\":5878:6100   */\n      swap3\n      swap2\n      pop\n      pop\n      jump\t// out\n        /* \"#utility.yul\":6106:6580   */\n    tag_90:\n        /* \"#utility.yul\":6174:6180   */\n      0x00\n        /* \"#utility.yul\":6182:6188   */\n      0x00\n        /* \"#utility.yul\":6231:6233   */\n      0x40\n        /* \"#utility.yul\":6219:6228   */\n      dup4\n        /* \"#utility.yul\":6210:6217   */\n      dup6\n        /* \"#utility.yul\":6206:6229   */\n      sub\n        /* \"#utility.yul\":6202:6234   */\n      slt\n        /* \"#utility.yul\":6199:6318   */\n      iszero\n      tag_347\n      jumpi\n        /* \"#utility.yul\":6237:6316   */\n      tag_348\n      tag_234\n      jump\t// in\n    tag_348:\n        /* \"#utility.yul\":6199:6318   */\n    tag_347:\n        /* \"#utility.yul\":6357:6358   */\n      0x00\n        /* \"#utility.yul\":6382:6435   */\n      tag_349\n        /* \"#utility.yul\":6427:6434   */\n      dup6\n        /* \"#utility.yul\":6418:6424   */\n      dup3\n        /* \"#utility.yul\":6407:6416   */\n      dup7\n        /* \"#utility.yul\":6403:6425   */\n      add\n        /* \"#utility.yul\":6382:6435   */\n      tag_239\n      jump\t// in\n    tag_349:\n        /* \"#utility.yul\":6372:6435   */\n      swap3\n      pop\n        /* \"#utility.yul\":6328:6445   */\n      pop\n        /* \"#utility.yul\":6484:6486   */\n      0x20\n        /* \"#utility.yul\":6510:6563   */\n      tag_350\n        /* \"#utility.yul\":6555:6562   */\n      dup6\n        /* \"#utility.yul\":6546:6552   */\n      dup3\n        /* \"#utility.yul\":6535:6544   */\n      dup7\n        /* \"#utility.yul\":6531:6553   */\n      add\n        /* \"#utility.yul\":6510:6563   */\n      tag_239\n      jump\t// in\n    tag_350:\n        /* \"#utility.yul\":6500:6563   */\n      swap2\n      pop\n        /* \"#utility.yul\":6455:6573   */\n      pop\n        /* \"#utility.yul\":6106:6580   */\n      swap3\n      pop\n      swap3\n      swap1\n      pop\n      jump\t// out\n        /* \"#utility.yul\":6586:6727   */\n    tag_249:\n        /* \"#utility.yul\":6680:6686   */\n      0x00\n        /* \"#utility.yul\":6714:6719   */\n      dup2\n        /* \"#utility.yul\":6708:6720   */\n      mload\n        /* \"#utility.yul\":6698:6720   */\n      swap1\n      pop\n        /* \"#utility.yul\":6586:6727   */\n      swap2\n      swap1\n      pop\n      jump\t// out\n        /* \"#utility.yul\":6733:6944   */\n    tag_250:\n        /* \"#utility.yul\":6859:6870   */\n      0x00\n        /* \"#utility.yul\":6893:6899   */\n      dup3\n        /* \"#utility.yul\":6888:6891   */\n      dup3\n        /* \"#utility.yul\":6881:6900   */\n      mstore\n        /* \"#utility.yul\":6933:6937   */\n      0x20\n        /* \"#utility.yul\":6928:6931   */\n      dup3\n        /* \"#utility.yul\":6924:6938   */\n      add\n        /* \"#utility.yul\":6909:6938   */\n      swap1\n      pop\n        /* \"#utility.yul\":6733:6944   */\n      swap3\n      swap2\n      pop\n      pop\n      jump\t// out\n        /* \"#utility.yul\":6950:7109   */\n    tag_251:\n        /* \"#utility.yul\":7044:7048   */\n      0x00\n        /* \"#utility.yul\":7067:7070   */\n      dup2\n        /* \"#utility.yul\":7059:7070   */\n      swap1\n      pop\n        /* \"#utility.yul\":7097:7101   */\n      0x20\n        /* \"#utility.yul\":7092:7095   */\n      dup3\n        /* \"#utility.yul\":7088:7102   */\n      add\n        /* \"#utility.yul\":7080:7102   */\n      swap1\n      pop\n        /* \"#utility.yul\":6950:7109   */\n      swap2\n      swap1\n      pop\n      jump\t// out\n        /* \"#utility.yul\":7115:7223   */\n    tag_252:\n        /* \"#utility.yul\":7192:7216   */\n      tag_355\n        /* \"#utility.yul\":7210:7215   */\n      dup2\n        /* \"#utility.yul\":7192:7216   */\n      tag_237\n      jump\t// in\n    tag_355:\n        /* \"#utility.yul\":7187:7190   */\n      dup3\n        /* \"#utility.yul\":7180:7217   */\n      mstore\n        /* \"#utility.yul\":7115:7223   */\n      pop\n      pop\n      jump\t// out\n        /* \"#utility.yul\":7229:7337   */\n    tag_253:\n        /* \"#utility.yul\":7306:7330   */\n      tag_357\n        /* \"#utility.yul\":7324:7329   */\n      dup2\n        /* \"#utility.yul\":7306:7330   */\n      tag_240\n      jump\t// in\n    tag_357:\n        /* \"#utility.yul\":7301:7304   */\n      dup3\n        /* \"#utility.yul\":7294:7331   */\n      mstore\n        /* \"#utility.yul\":7229:7337   */\n      pop\n      pop\n      jump\t// out\n        /* \"#utility.yul\":7409:7931   */\n    tag_254:\n        /* \"#utility.yul\":7550:7554   */\n      0x40\n        /* \"#utility.yul\":7545:7548   */\n      dup3\n        /* \"#utility.yul\":7541:7555   */\n      add\n        /* \"#utility.yul\":7646:7650   */\n      0x00\n        /* \"#utility.yul\":7639:7644   */\n      dup3\n        /* \"#utility.yul\":7635:7651   */\n      add\n        /* \"#utility.yul\":7629:7652   */\n      mload\n        /* \"#utility.yul\":7665:7728   */\n      tag_359\n        /* \"#utility.yul\":7722:7726   */\n      0x00\n        /* \"#utility.yul\":7717:7720   */\n      dup6\n        /* \"#utility.yul\":7713:7727   */\n      add\n        /* \"#utility.yul\":7699:7711   */\n      dup3\n        /* \"#utility.yul\":7665:7728   */\n      tag_252\n      jump\t// in\n    tag_359:\n        /* \"#utility.yul\":7565:7738   */\n      pop\n        /* \"#utility.yul\":7832:7836   */\n      0x20\n        /* \"#utility.yul\":7825:7830   */\n      dup3\n        /* \"#utility.yul\":7821:7837   */\n      add\n        /* \"#utility.yul\":7815:7838   */\n      mload\n        /* \"#utility.yul\":7851:7914   */\n      tag_360\n        /* \"#utility.yul\":7908:7912   */\n      0x20\n        /* \"#utility.yul\":7903:7906   */\n      dup6\n        /* \"#utility.yul\":7899:7913   */\n      add\n        /* \"#utility.yul\":7885:7897   */\n      dup3\n        /* \"#utility.yul\":7851:7914   */\n      tag_253\n      jump\t// in\n    tag_360:\n        /* \"#utility.yul\":7748:7924   */\n      pop\n        /* \"#utility.yul\":7519:7931   */\n      pop\n        /* \"#utility.yul\":7409:7931   */\n      pop\n      pop\n      jump\t// out\n        /* \"#utility.yul\":7937:8224   */\n    tag_255:\n        /* \"#utility.yul\":8060:8070   */\n      0x00\n        /* \"#utility.yul\":8081:8181   */\n      tag_362\n        /* \"#utility.yul\":8177:8180   */\n      dup4\n        /* \"#utility.yul\":8169:8175   */\n      dup4\n        /* \"#utility.yul\":8081:8181   */\n      tag_254\n      jump\t// in\n    tag_362:\n        /* \"#utility.yul\":8213:8217   */\n      0x40\n        /* \"#utility.yul\":8208:8211   */\n      dup4\n        /* \"#utility.yul\":8204:8218   */\n      add\n        /* \"#utility.yul\":8190:8218   */\n      swap1\n      pop\n        /* \"#utility.yul\":7937:8224   */\n      swap3\n      swap2\n      pop\n      pop\n      jump\t// out\n        /* \"#utility.yul\":8230:8370   */\n    tag_256:\n        /* \"#utility.yul\":8327:8331   */\n      0x00\n        /* \"#utility.yul\":8359:8363   */\n      0x20\n        /* \"#utility.yul\":8354:8357   */\n      dup3\n        /* \"#utility.yul\":8350:8364   */\n      add\n        /* \"#utility.yul\":8342:8364   */\n      swap1\n      pop\n        /* \"#utility.yul\":8230:8370   */\n      swap2\n      swap1\n      pop\n      jump\t// out\n        /* \"#utility.yul\":8446:9394   */\n    tag_257:\n        /* \"#utility.yul\":8619:8622   */\n      0x00\n        /* \"#utility.yul\":8648:8729   */\n      tag_365\n        /* \"#utility.yul\":8723:8728   */\n      dup3\n        /* \"#utility.yul\":8648:8729   */\n      tag_249\n      jump\t// in\n    tag_365:\n        /* \"#utility.yul\":8745:8858   */\n      tag_366\n        /* \"#utility.yul\":8851:8857   */\n      dup2\n        /* \"#utility.yul\":8846:8849   */\n      dup6\n        /* \"#utility.yul\":8745:8858   */\n      tag_250\n      jump\t// in\n    tag_366:\n        /* \"#utility.yul\":8738:8858   */\n      swap4\n      pop\n        /* \"#utility.yul\":8882:8965   */\n      tag_367\n        /* \"#utility.yul\":8959:8964   */\n      dup4\n        /* \"#utility.yul\":8882:8965   */\n      tag_251\n      jump\t// in\n    tag_367:\n        /* \"#utility.yul\":8988:8995   */\n      dup1\n        /* \"#utility.yul\":9019:9020   */\n      0x00\n        /* \"#utility.yul\":9004:9369   */\n    tag_368:\n        /* \"#utility.yul\":9029:9035   */\n      dup4\n        /* \"#utility.yul\":9026:9027   */\n      dup2\n        /* \"#utility.yul\":9023:9036   */\n      lt\n        /* \"#utility.yul\":9004:9369   */\n      iszero\n      tag_370\n      jumpi\n        /* \"#utility.yul\":9105:9111   */\n      dup2\n        /* \"#utility.yul\":9099:9112   */\n      mload\n        /* \"#utility.yul\":9132:9249   */\n      tag_371\n        /* \"#utility.yul\":9245:9248   */\n      dup9\n        /* \"#utility.yul\":9230:9243   */\n      dup3\n        /* \"#utility.yul\":9132:9249   */\n      tag_255\n      jump\t// in\n    tag_371:\n        /* \"#utility.yul\":9125:9249   */\n      swap8\n      pop\n        /* \"#utility.yul\":9272:9359   */\n      tag_372\n        /* \"#utility.yul\":9352:9358   */\n      dup4\n        /* \"#utility.yul\":9272:9359   */\n      tag_256\n      jump\t// in\n    tag_372:\n        /* \"#utility.yul\":9262:9359   */\n      swap3\n      pop\n        /* \"#utility.yul\":9064:9369   */\n      pop\n        /* \"#utility.yul\":9051:9052   */\n      0x01\n        /* \"#utility.yul\":9048:9049   */\n      dup2\n        /* \"#utility.yul\":9044:9053   */\n      add\n        /* \"#utility.yul\":9039:9053   */\n      swap1\n      pop\n        /* \"#utility.yul\":9004:9369   */\n      jump(tag_368)\n    tag_370:\n        /* \"#utility.yul\":9008:9022   */\n      pop\n        /* \"#utility.yul\":9385:9388   */\n      dup6\n        /* \"#utility.yul\":9378:9388   */\n      swap4\n      pop\n        /* \"#utility.yul\":8624:9394   */\n      pop\n      pop\n      pop\n        /* \"#utility.yul\":8446:9394   */\n      swap3\n      swap2\n      pop\n      pop\n      jump\t// out\n        /* \"#utility.yul\":9400:9881   */\n    tag_99:\n        /* \"#utility.yul\":9597:9601   */\n      0x00\n        /* \"#utility.yul\":9635:9637   */\n      0x20\n        /* \"#utility.yul\":9624:9633   */\n      dup3\n        /* \"#utility.yul\":9620:9638   */\n      add\n        /* \"#utility.yul\":9612:9638   */\n      swap1\n      pop\n        /* \"#utility.yul\":9684:9693   */\n      dup2\n        /* \"#utility.yul\":9678:9682   */\n      dup2\n        /* \"#utility.yul\":9674:9694   */\n      sub\n        /* \"#utility.yul\":9670:9671   */\n      0x00\n        /* \"#utility.yul\":9659:9668   */\n      dup4\n        /* \"#utility.yul\":9655:9672   */\n      add\n        /* \"#utility.yul\":9648:9695   */\n      mstore\n        /* \"#utility.yul\":9712:9874   */\n      tag_374\n        /* \"#utility.yul\":9869:9873   */\n      dup2\n        /* \"#utility.yul\":9860:9866   */\n      dup5\n        /* \"#utility.yul\":9712:9874   */\n      tag_257\n      jump\t// in\n    tag_374:\n        /* \"#utility.yul\":9704:9874   */\n      swap1\n      pop\n        /* \"#utility.yul\":9400:9881   */\n      swap3\n      swap2\n      pop\n      pop\n      jump\t// out\n        /* \"#utility.yul\":9887:10067   */\n    tag_258:\n        /* \"#utility.yul\":9935:10012   */\n      0x4e487b7100000000000000000000000000000000000000000000000000000000\n        /* \"#utility.yul\":9932:9933   */\n      0x00\n        /* \"#utility.yul\":9925:10013   */\n      mstore\n        /* \"#utility.yul\":10032:10036   */\n      0x22\n        /* \"#utility.yul\":10029:10030   */\n      0x04\n        /* \"#utility.yul\":10022:10037   */\n      mstore\n        /* \"#utility.yul\":10056:10060   */\n      0x24\n        /* \"#utility.yul\":10053:10054   */\n      0x00\n        /* \"#utility.yul\":10046:10061   */\n      revert\n        /* \"#utility.yul\":10073:10393   */\n    tag_105:\n        /* \"#utility.yul\":10117:10123   */\n      0x00\n        /* \"#utility.yul\":10154:10155   */\n      0x02\n        /* \"#utility.yul\":10148:10152   */\n      dup3\n        /* \"#utility.yul\":10144:10156   */\n      div\n        /* \"#utility.yul\":10134:10156   */\n      swap1\n      pop\n        /* \"#utility.yul\":10201:10202   */\n      0x01\n        /* \"#utility.yul\":10195:10199   */\n      dup3\n        /* \"#utility.yul\":10191:10203   */\n      and\n        /* \"#utility.yul\":10222:10240   */\n      dup1\n        /* \"#utility.yul\":10212:10293   */\n      tag_377\n      jumpi\n        /* \"#utility.yul\":10278:10282   */\n      0x7f\n        /* \"#utility.yul\":10270:10276   */\n      dup3\n        /* \"#utility.yul\":10266:10283   */\n      and\n        /* \"#utility.yul\":10256:10283   */\n      swap2\n      pop\n        /* \"#utility.yul\":10212:10293   */\n    tag_377:\n        /* \"#utility.yul\":10340:10342   */\n      0x20\n        /* \"#utility.yul\":10332:10338   */\n      dup3\n        /* \"#utility.yul\":10329:10343   */\n      lt\n        /* \"#utility.yul\":10309:10327   */\n      dup2\n        /* \"#utility.yul\":10306:10344   */\n      sub\n        /* \"#utility.yul\":10303:10387   */\n      tag_378\n      jumpi\n        /* \"#utility.yul\":10359:10377   */\n      tag_379\n      tag_258\n      jump\t// in\n    tag_379:\n        /* \"#utility.yul\":10303:10387   */\n    tag_378:\n        /* \"#utility.yul\":10124:10393   */\n      pop\n        /* \"#utility.yul\":10073:10393   */\n      swap2\n      swap1\n      pop\n      jump\t// out\n        /* \"#utility.yul\":10399:10571   */\n    tag_259:\n        /* \"#utility.yul\":10539:10563   */\n      0x5465616d20746f6b656e7320617265206c6f636b656400000000000000000000\n        /* \"#utility.yul\":10535:10536   */\n      0x00\n        /* \"#utility.yul\":10527:10533   */\n      dup3\n        /* \"#utility.yul\":10523:10537   */\n      add\n        /* \"#utility.yul\":10516:10564   */\n      mstore\n        /* \"#utility.yul\":10399:10571   */\n      pop\n      jump\t// out\n        /* \"#utility.yul\":10577:10943   */\n    tag_260:\n        /* \"#utility.yul\":10719:10722   */\n      0x00\n        /* \"#utility.yul\":10740:10807   */\n      tag_382\n        /* \"#utility.yul\":10804:10806   */\n      0x16\n        /* \"#utility.yul\":10799:10802   */\n      dup4\n        /* \"#utility.yul\":10740:10807   */\n      tag_229\n      jump\t// in\n    tag_382:\n        /* \"#utility.yul\":10733:10807   */\n      swap2\n      pop\n        /* \"#utility.yul\":10816:10909   */\n      tag_383\n        /* \"#utility.yul\":10905:10908   */\n      dup3\n        /* \"#utility.yul\":10816:10909   */\n      tag_259\n      jump\t// in\n    tag_383:\n        /* \"#utility.yul\":10934:10936   */\n      0x20\n        /* \"#utility.yul\":10929:10932   */\n      dup3\n        /* \"#utility.yul\":10925:10937   */\n      add\n        /* \"#utility.yul\":10918:10937   */\n      swap1\n      pop\n        /* \"#utility.yul\":10577:10943   */\n      swap2\n      swap1\n      pop\n      jump\t// out\n        /* \"#utility.yul\":10949:11368   */\n    tag_122:\n        /* \"#utility.yul\":11115:11119   */\n      0x00\n        /* \"#utility.yul\":11153:11155   */\n      0x20\n        /* \"#utility.yul\":11142:11151   */\n      dup3\n        /* \"#utility.yul\":11138:11156   */\n      add\n        /* \"#utility.yul\":11130:11156   */\n      swap1\n      pop\n        /* \"#utility.yul\":11202:11211   */\n      dup2\n        /* \"#utility.yul\":11196:11200   */\n      dup2\n        /* \"#utility.yul\":11192:11212   */\n      sub\n        /* \"#utility.yul\":11188:11189   */\n      0x00\n        /* \"#utility.yul\":11177:11186   */\n      dup4\n        /* \"#utility.yul\":11173:11190   */\n      add\n        /* \"#utility.yul\":11166:11213   */\n      mstore\n        /* \"#utility.yul\":11230:11361   */\n      tag_385\n        /* \"#utility.yul\":11356:11360   */\n      dup2\n        /* \"#utility.yul\":11230:11361   */\n      tag_260\n      jump\t// in\n    tag_385:\n        /* \"#utility.yul\":11222:11361   */\n      swap1\n      pop\n        /* \"#utility.yul\":10949:11368   */\n      swap2\n      swap1\n      pop\n      jump\t// out\n        /* \"#utility.yul\":11374:11543   */\n    tag_261:\n        /* \"#utility.yul\":11514:11535   */\n      0x496e646578206f7574206f6620626f756e647300000000000000000000000000\n        /* \"#utility.yul\":11510:11511   */\n      0x00\n        /* \"#utility.yul\":11502:11508   */\n      dup3\n        /* \"#utility.yul\":11498:11512   */\n      add\n        /* \"#utility.yul\":11491:11536   */\n      mstore\n        /* \"#utility.yul\":11374:11543   */\n      pop\n      jump\t// out\n        /* \"#utility.yul\":11549:11915   */\n    tag_262:\n        /* \"#utility.yul\":11691:11694   */\n      0x00\n        /* \"#utility.yul\":11712:11779   */\n      tag_388\n        /* \"#utility.yul\":11776:11778   */\n      0x13\n        /* \"#utility.yul\":11771:11774   */\n      dup4\n        /* \"#utility.yul\":11712:11779   */\n      tag_229\n      jump\t// in\n    tag_388:\n        /* \"#utility.yul\":11705:11779   */\n      swap2\n      pop\n        /* \"#utility.yul\":11788:11881   */\n      tag_389\n        /* \"#utility.yul\":11877:11880   */\n      dup3\n        /* \"#utility.yul\":11788:11881   */\n      tag_261\n      jump\t// in\n    tag_389:\n        /* \"#utility.yul\":11906:11908   */\n      0x20\n        /* \"#utility.yul\":11901:11904   */\n      dup3\n        /* \"#utility.yul\":11897:11909   */\n      add\n        /* \"#utility.yul\":11890:11909   */\n      swap1\n      pop\n        /* \"#utility.yul\":11549:11915   */\n      swap2\n      swap1\n      pop\n      jump\t// out\n        /* \"#utility.yul\":11921:12340   */\n    tag_137:\n        /* \"#utility.yul\":12087:12091   */\n      0x00\n        /* \"#utility.yul\":12125:12127   */\n      0x20\n        /* \"#utility.yul\":12114:12123   */\n      dup3\n        /* \"#utility.yul\":12110:12128   */\n      add\n        /* \"#utility.yul\":12102:12128   */\n      swap1\n      pop\n        /* \"#utility.yul\":12174:12183   */\n      dup2\n        /* \"#utility.yul\":12168:12172   */\n      dup2\n        /* \"#utility.yul\":12164:12184   */\n      sub\n        /* \"#utility.yul\":12160:12161   */\n      0x00\n        /* \"#utility.yul\":12149:12158   */\n      dup4\n        /* \"#utility.yul\":12145:12162   */\n      add\n        /* \"#utility.yul\":12138:12185   */\n      mstore\n        /* \"#utility.yul\":12202:12333   */\n      tag_391\n        /* \"#utility.yul\":12328:12332   */\n      dup2\n        /* \"#utility.yul\":12202:12333   */\n      tag_262\n      jump\t// in\n    tag_391:\n        /* \"#utility.yul\":12194:12333   */\n      swap1\n      pop\n        /* \"#utility.yul\":11921:12340   */\n      swap2\n      swap1\n      pop\n      jump\t// out\n        /* \"#utility.yul\":12346:12526   */\n    tag_140:\n        /* \"#utility.yul\":12394:12471   */\n      0x4e487b7100000000000000000000000000000000000000000000000000000000\n        /* \"#utility.yul\":12391:12392   */\n      0x00\n        /* \"#utility.yul\":12384:12472   */\n      mstore\n        /* \"#utility.yul\":12491:12495   */\n      0x32\n        /* \"#utility.yul\":12488:12489   */\n      0x04\n        /* \"#utility.yul\":12481:12496   */\n      mstore\n        /* \"#utility.yul\":12515:12519   */\n      0x24\n        /* \"#utility.yul\":12512:12513   */\n      0x00\n        /* \"#utility.yul\":12505:12520   */\n      revert\n        /* \"#utility.yul\":12532:12654   */\n    tag_263:\n        /* \"#utility.yul\":12605:12629   */\n      tag_394\n        /* \"#utility.yul\":12623:12628   */\n      dup2\n        /* \"#utility.yul\":12605:12629   */\n      tag_236\n      jump\t// in\n    tag_394:\n        /* \"#utility.yul\":12598:12603   */\n      dup2\n        /* \"#utility.yul\":12595:12630   */\n      eq\n        /* \"#utility.yul\":12585:12648   */\n      tag_395\n      jumpi\n        /* \"#utility.yul\":12644:12645   */\n      0x00\n        /* \"#utility.yul\":12641:12642   */\n      0x00\n        /* \"#utility.yul\":12634:12646   */\n      revert\n        /* \"#utility.yul\":12585:12648   */\n    tag_395:\n        /* \"#utility.yul\":12532:12654   */\n      pop\n      jump\t// out\n        /* \"#utility.yul\":12660:12803   */\n    tag_264:\n        /* \"#utility.yul\":12717:12722   */\n      0x00\n        /* \"#utility.yul\":12748:12754   */\n      dup2\n        /* \"#utility.yul\":12742:12755   */\n      mload\n        /* \"#utility.yul\":12733:12755   */\n      swap1\n      pop\n        /* \"#utility.yul\":12764:12797   */\n      tag_397\n        /* \"#utility.yul\":12791:12796   */\n      dup2\n        /* \"#utility.yul\":12764:12797   */\n      tag_263\n      jump\t// in\n    tag_397:\n        /* \"#utility.yul\":12660:12803   */\n      swap3\n      swap2\n      pop\n      pop\n      jump\t// out\n        /* \"#utility.yul\":12809:12899   */\n    tag_265:\n        /* \"#utility.yul\":12844:12851   */\n      0x00\n        /* \"#utility.yul\":12887:12892   */\n      dup2\n        /* \"#utility.yul\":12884:12885   */\n      0x02\n        /* \"#utility.yul\":12873:12893   */\n      signextend\n        /* \"#utility.yul\":12862:12893   */\n      swap1\n      pop\n        /* \"#utility.yul\":12809:12899   */\n      swap2\n      swap1\n      pop\n      jump\t// out\n        /* \"#utility.yul\":12905:13023   */\n    tag_266:\n        /* \"#utility.yul\":12976:12998   */\n      tag_400\n        /* \"#utility.yul\":12992:12997   */\n      dup2\n        /* \"#utility.yul\":12976:12998   */\n      tag_265\n      jump\t// in\n    tag_400:\n        /* \"#utility.yul\":12969:12974   */\n      dup2\n        /* \"#utility.yul\":12966:12999   */\n      eq\n        /* \"#utility.yul\":12956:13017   */\n      tag_401\n      jumpi\n        /* \"#utility.yul\":13013:13014   */\n      0x00\n        /* \"#utility.yul\":13010:13011   */\n      0x00\n        /* \"#utility.yul\":13003:13015   */\n      revert\n        /* \"#utility.yul\":12956:13017   */\n    tag_401:\n        /* \"#utility.yul\":12905:13023   */\n      pop\n      jump\t// out\n        /* \"#utility.yul\":13029:13168   */\n    tag_267:\n        /* \"#utility.yul\":13084:13089   */\n      0x00\n        /* \"#utility.yul\":13115:13121   */\n      dup2\n        /* \"#utility.yul\":13109:13122   */\n      mload\n        /* \"#utility.yul\":13100:13122   */\n      swap1\n      pop\n        /* \"#utility.yul\":13131:13162   */\n      tag_403\n        /* \"#utility.yul\":13156:13161   */\n      dup2\n        /* \"#utility.yul\":13131:13162   */\n      tag_266\n      jump\t// in\n    tag_403:\n        /* \"#utility.yul\":13029:13168   */\n      swap3\n      swap2\n      pop\n      pop\n      jump\t// out\n        /* \"#utility.yul\":13174:13263   */\n    tag_268:\n        /* \"#utility.yul\":13210:13217   */\n      0x00\n        /* \"#utility.yul\":13250:13256   */\n      0xffff\n        /* \"#utility.yul\":13243:13248   */\n      dup3\n        /* \"#utility.yul\":13239:13257   */\n      and\n        /* \"#utility.yul\":13228:13257   */\n      swap1\n      pop\n        /* \"#utility.yul\":13174:13263   */\n      swap2\n      swap1\n      pop\n      jump\t// out\n        /* \"#utility.yul\":13269:13389   */\n    tag_269:\n        /* \"#utility.yul\":13341:13364   */\n      tag_406\n        /* \"#utility.yul\":13358:13363   */\n      dup2\n        /* \"#utility.yul\":13341:13364   */\n      tag_268\n      jump\t// in\n    tag_406:\n        /* \"#utility.yul\":13334:13339   */\n      dup2\n        /* \"#utility.yul\":13331:13365   */\n      eq\n        /* \"#utility.yul\":13321:13383   */\n      tag_407\n      jumpi\n        /* \"#utility.yul\":13379:13380   */\n      0x00\n        /* \"#utility.yul\":13376:13377   */\n      0x00\n        /* \"#utility.yul\":13369:13381   */\n      revert\n        /* \"#utility.yul\":13321:13383   */\n    tag_407:\n        /* \"#utility.yul\":13269:13389   */\n      pop\n      jump\t// out\n        /* \"#utility.yul\":13395:13536   */\n    tag_270:\n        /* \"#utility.yul\":13451:13456   */\n      0x00\n        /* \"#utility.yul\":13482:13488   */\n      dup2\n        /* \"#utility.yul\":13476:13489   */\n      mload\n        /* \"#utility.yul\":13467:13489   */\n      swap1\n      pop\n        /* \"#utility.yul\":13498:13530   */\n      tag_409\n        /* \"#utility.yul\":13524:13529   */\n      dup2\n        /* \"#utility.yul\":13498:13530   */\n      tag_269\n      jump\t// in\n    tag_409:\n        /* \"#utility.yul\":13395:13536   */\n      swap3\n      swap2\n      pop\n      pop\n      jump\t// out\n        /* \"#utility.yul\":13542:13660   */\n    tag_271:\n        /* \"#utility.yul\":13613:13635   */\n      tag_411\n        /* \"#utility.yul\":13629:13634   */\n      dup2\n        /* \"#utility.yul\":13613:13635   */\n      tag_246\n      jump\t// in\n    tag_411:\n        /* \"#utility.yul\":13606:13611   */\n      dup2\n        /* \"#utility.yul\":13603:13636   */\n      eq\n        /* \"#utility.yul\":13593:13654   */\n      tag_412\n      jumpi\n        /* \"#utility.yul\":13650:13651   */\n      0x00\n        /* \"#utility.yul\":13647:13648   */\n      0x00\n        /* \"#utility.yul\":13640:13652   */\n      revert\n        /* \"#utility.yul\":13593:13654   */\n    tag_412:\n        /* \"#utility.yul\":13542:13660   */\n      pop\n      jump\t// out\n        /* \"#utility.yul\":13666:13805   */\n    tag_272:\n        /* \"#utility.yul\":13721:13726   */\n      0x00\n        /* \"#utility.yul\":13752:13758   */\n      dup2\n        /* \"#utility.yul\":13746:13759   */\n      mload\n        /* \"#utility.yul\":13737:13759   */\n      swap1\n      pop\n        /* \"#utility.yul\":13768:13799   */\n      tag_414\n        /* \"#utility.yul\":13793:13798   */\n      dup2\n        /* \"#utility.yul\":13768:13799   */\n      tag_271\n      jump\t// in\n    tag_414:\n        /* \"#utility.yul\":13666:13805   */\n      swap3\n      swap2\n      pop\n      pop\n      jump\t// out\n        /* \"#utility.yul\":13811:13927   */\n    tag_273:\n        /* \"#utility.yul\":13881:13902   */\n      tag_416\n        /* \"#utility.yul\":13896:13901   */\n      dup2\n        /* \"#utility.yul\":13881:13902   */\n      tag_243\n      jump\t// in\n    tag_416:\n        /* \"#utility.yul\":13874:13879   */\n      dup2\n        /* \"#utility.yul\":13871:13903   */\n      eq\n        /* \"#utility.yul\":13861:13921   */\n      tag_417\n      jumpi\n        /* \"#utility.yul\":13917:13918   */\n      0x00\n        /* \"#utility.yul\":13914:13915   */\n      0x00\n        /* \"#utility.yul\":13907:13919   */\n      revert\n        /* \"#utility.yul\":13861:13921   */\n    tag_417:\n        /* \"#utility.yul\":13811:13927   */\n      pop\n      jump\t// out\n        /* \"#utility.yul\":13933:14070   */\n    tag_274:\n        /* \"#utility.yul\":13987:13992   */\n      0x00\n        /* \"#utility.yul\":14018:14024   */\n      dup2\n        /* \"#utility.yul\":14012:14025   */\n      mload\n        /* \"#utility.yul\":14003:14025   */\n      swap1\n      pop\n        /* \"#utility.yul\":14034:14064   */\n      tag_419\n        /* \"#utility.yul\":14058:14063   */\n      dup2\n        /* \"#utility.yul\":14034:14064   */\n      tag_273\n      jump\t// in\n    tag_419:\n        /* \"#utility.yul\":13933:14070   */\n      swap3\n      swap2\n      pop\n      pop\n      jump\t// out\n        /* \"#utility.yul\":14076:15347   */\n    tag_162:\n        /* \"#utility.yul\":14190:14196   */\n      0x00\n        /* \"#utility.yul\":14198:14204   */\n      0x00\n        /* \"#utility.yul\":14206:14212   */\n      0x00\n        /* \"#utility.yul\":14214:14220   */\n      0x00\n        /* \"#utility.yul\":14222:14228   */\n      0x00\n        /* \"#utility.yul\":14230:14236   */\n      0x00\n        /* \"#utility.yul\":14238:14244   */\n      0x00\n        /* \"#utility.yul\":14287:14290   */\n      0xe0\n        /* \"#utility.yul\":14275:14284   */\n      dup9\n        /* \"#utility.yul\":14266:14273   */\n      dup11\n        /* \"#utility.yul\":14262:14285   */\n      sub\n        /* \"#utility.yul\":14258:14291   */\n      slt\n        /* \"#utility.yul\":14255:14375   */\n      iszero\n      tag_421\n      jumpi\n        /* \"#utility.yul\":14294:14373   */\n      tag_422\n      tag_234\n      jump\t// in\n    tag_422:\n        /* \"#utility.yul\":14255:14375   */\n    tag_421:\n        /* \"#utility.yul\":14414:14415   */\n      0x00\n        /* \"#utility.yul\":14439:14503   */\n      tag_423\n        /* \"#utility.yul\":14495:14502   */\n      dup11\n        /* \"#utility.yul\":14486:14492   */\n      dup3\n        /* \"#utility.yul\":14475:14484   */\n      dup12\n        /* \"#utility.yul\":14471:14493   */\n      add\n        /* \"#utility.yul\":14439:14503   */\n      tag_264\n      jump\t// in\n    tag_423:\n        /* \"#utility.yul\":14429:14503   */\n      swap8\n      pop\n        /* \"#utility.yul\":14385:14513   */\n      pop\n        /* \"#utility.yul\":14552:14554   */\n      0x20\n        /* \"#utility.yul\":14578:14640   */\n      tag_424\n        /* \"#utility.yul\":14632:14639   */\n      dup11\n        /* \"#utility.yul\":14623:14629   */\n      dup3\n        /* \"#utility.yul\":14612:14621   */\n      dup12\n        /* \"#utility.yul\":14608:14630   */\n      add\n        /* \"#utility.yul\":14578:14640   */\n      tag_267\n      jump\t// in\n    tag_424:\n        /* \"#utility.yul\":14568:14640   */\n      swap7\n      pop\n        /* \"#utility.yul\":14523:14650   */\n      pop\n        /* \"#utility.yul\":14689:14691   */\n      0x40\n        /* \"#utility.yul\":14715:14778   */\n      tag_425\n        /* \"#utility.yul\":14770:14777   */\n      dup11\n        /* \"#utility.yul\":14761:14767   */\n      dup3\n        /* \"#utility.yul\":14750:14759   */\n      dup12\n        /* \"#utility.yul\":14746:14768   */\n      add\n        /* \"#utility.yul\":14715:14778   */\n      tag_270\n      jump\t// in\n    tag_425:\n        /* \"#utility.yul\":14705:14778   */\n      swap6\n      pop\n        /* \"#utility.yul\":14660:14788   */\n      pop\n        /* \"#utility.yul\":14827:14829   */\n      0x60\n        /* \"#utility.yul\":14853:14916   */\n      tag_426\n        /* \"#utility.yul\":14908:14915   */\n      dup11\n        /* \"#utility.yul\":14899:14905   */\n      dup3\n        /* \"#utility.yul\":14888:14897   */\n      dup12\n        /* \"#utility.yul\":14884:14906   */\n      add\n        /* \"#utility.yul\":14853:14916   */\n      tag_270\n      jump\t// in\n    tag_426:\n        /* \"#utility.yul\":14843:14916   */\n      swap5\n      pop\n        /* \"#utility.yul\":14798:14926   */\n      pop\n        /* \"#utility.yul\":14965:14968   */\n      0x80\n        /* \"#utility.yul\":14992:15055   */\n      tag_427\n        /* \"#utility.yul\":15047:15054   */\n      dup11\n        /* \"#utility.yul\":15038:15044   */\n      dup3\n        /* \"#utility.yul\":15027:15036   */\n      dup12\n        /* \"#utility.yul\":15023:15045   */\n      add\n        /* \"#utility.yul\":14992:15055   */\n      tag_270\n      jump\t// in\n    tag_427:\n        /* \"#utility.yul\":14982:15055   */\n      swap4\n      pop\n        /* \"#utility.yul\":14936:15065   */\n      pop\n        /* \"#utility.yul\":15104:15107   */\n      0xa0\n        /* \"#utility.yul\":15131:15193   */\n      tag_428\n        /* \"#utility.yul\":15185:15192   */\n      dup11\n        /* \"#utility.yul\":15176:15182   */\n      dup3\n        /* \"#utility.yul\":15165:15174   */\n      dup12\n        /* \"#utility.yul\":15161:15183   */\n      add\n        /* \"#utility.yul\":15131:15193   */\n      tag_272\n      jump\t// in\n    tag_428:\n        /* \"#utility.yul\":15121:15193   */\n      swap3\n      pop\n        /* \"#utility.yul\":15075:15203   */\n      pop\n        /* \"#utility.yul\":15242:15245   */\n      0xc0\n        /* \"#utility.yul\":15269:15330   */\n      tag_429\n        /* \"#utility.yul\":15322:15329   */\n      dup11\n        /* \"#utility.yul\":15313:15319   */\n      dup3\n        /* \"#utility.yul\":15302:15311   */\n      dup12\n        /* \"#utility.yul\":15298:15320   */\n      add\n        /* \"#utility.yul\":15269:15330   */\n      tag_274\n      jump\t// in\n    tag_429:\n        /* \"#utility.yul\":15259:15330   */\n      swap2\n      pop\n        /* \"#utility.yul\":15213:15340   */\n      pop\n        /* \"#utility.yul\":14076:15347   */\n      swap3\n      swap6\n      swap9\n      swap2\n      swap5\n      swap8\n      pop\n      swap3\n      swap6\n      pop\n      jump\t// out\n        /* \"#utility.yul\":15353:15533   */\n    tag_275:\n        /* \"#utility.yul\":15401:15478   */\n      0x4e487b7100000000000000000000000000000000000000000000000000000000\n        /* \"#utility.yul\":15398:15399   */\n      0x00\n        /* \"#utility.yul\":15391:15479   */\n      mstore\n        /* \"#utility.yul\":15498:15502   */\n      0x11\n        /* \"#utility.yul\":15495:15496   */\n      0x04\n        /* \"#utility.yul\":15488:15503   */\n      mstore\n        /* \"#utility.yul\":15522:15526   */\n      0x24\n        /* \"#utility.yul\":15519:15520   */\n      0x00\n        /* \"#utility.yul\":15512:15527   */\n      revert\n        /* \"#utility.yul\":15539:15949   */\n    tag_164:\n        /* \"#utility.yul\":15579:15586   */\n      0x00\n        /* \"#utility.yul\":15602:15622   */\n      tag_432\n        /* \"#utility.yul\":15620:15621   */\n      dup3\n        /* \"#utility.yul\":15602:15622   */\n      tag_240\n      jump\t// in\n    tag_432:\n        /* \"#utility.yul\":15597:15622   */\n      swap2\n      pop\n        /* \"#utility.yul\":15636:15656   */\n      tag_433\n        /* \"#utility.yul\":15654:15655   */\n      dup4\n        /* \"#utility.yul\":15636:15656   */\n      tag_240\n      jump\t// in\n    tag_433:\n        /* \"#utility.yul\":15631:15656   */\n      swap3\n      pop\n        /* \"#utility.yul\":15691:15692   */\n      dup3\n        /* \"#utility.yul\":15688:15689   */\n      dup3\n        /* \"#utility.yul\":15684:15693   */\n      mul\n        /* \"#utility.yul\":15713:15743   */\n      tag_434\n        /* \"#utility.yul\":15731:15742   */\n      dup2\n        /* \"#utility.yul\":15713:15743   */\n      tag_240\n      jump\t// in\n    tag_434:\n        /* \"#utility.yul\":15702:15743   */\n      swap2\n      pop\n        /* \"#utility.yul\":15892:15893   */\n      dup3\n        /* \"#utility.yul\":15883:15890   */\n      dup3\n        /* \"#utility.yul\":15879:15894   */\n      div\n        /* \"#utility.yul\":15876:15877   */\n      dup5\n        /* \"#utility.yul\":15873:15895   */\n      eq\n        /* \"#utility.yul\":15853:15854   */\n      dup4\n        /* \"#utility.yul\":15846:15855   */\n      iszero\n        /* \"#utility.yul\":15826:15909   */\n      or\n        /* \"#utility.yul\":15803:15942   */\n      tag_435\n      jumpi\n        /* \"#utility.yul\":15922:15940   */\n      tag_436\n      tag_275\n      jump\t// in\n    tag_436:\n        /* \"#utility.yul\":15803:15942   */\n    tag_435:\n        /* \"#utility.yul\":15587:15949   */\n      pop\n        /* \"#utility.yul\":15539:15949   */\n      swap3\n      swap2\n      pop\n      pop\n      jump\t// out\n        /* \"#utility.yul\":15955:16135   */\n    tag_276:\n        /* \"#utility.yul\":16003:16080   */\n      0x4e487b7100000000000000000000000000000000000000000000000000000000\n        /* \"#utility.yul\":16000:16001   */\n      0x00\n        /* \"#utility.yul\":15993:16081   */\n      mstore\n        /* \"#utility.yul\":16100:16104   */\n      0x12\n        /* \"#utility.yul\":16097:16098   */\n      0x04\n        /* \"#utility.yul\":16090:16105   */\n      mstore\n        /* \"#utility.yul\":16124:16128   */\n      0x24\n        /* \"#utility.yul\":16121:16122   */\n      0x00\n        /* \"#utility.yul\":16114:16129   */\n      revert\n        /* \"#utility.yul\":16141:16326   */\n    tag_166:\n        /* \"#utility.yul\":16181:16182   */\n      0x00\n        /* \"#utility.yul\":16198:16218   */\n      tag_439\n        /* \"#utility.yul\":16216:16217   */\n      dup3\n        /* \"#utility.yul\":16198:16218   */\n      tag_240\n      jump\t// in\n    tag_439:\n        /* \"#utility.yul\":16193:16218   */\n      swap2\n      pop\n        /* \"#utility.yul\":16232:16252   */\n      tag_440\n        /* \"#utility.yul\":16250:16251   */\n      dup4\n        /* \"#utility.yul\":16232:16252   */\n      tag_240\n      jump\t// in\n    tag_440:\n        /* \"#utility.yul\":16227:16252   */\n      swap3\n      pop\n        /* \"#utility.yul\":16271:16272   */\n      dup3\n        /* \"#utility.yul\":16261:16296   */\n      tag_441\n      jumpi\n        /* \"#utility.yul\":16276:16294   */\n      tag_442\n      tag_276\n      jump\t// in\n    tag_442:\n        /* \"#utility.yul\":16261:16296   */\n    tag_441:\n        /* \"#utility.yul\":16318:16319   */\n      dup3\n        /* \"#utility.yul\":16315:16316   */\n      dup3\n        /* \"#utility.yul\":16311:16320   */\n      div\n        /* \"#utility.yul\":16306:16320   */\n      swap1\n      pop\n        /* \"#utility.yul\":16141:16326   */\n      swap3\n      swap2\n      pop\n      pop\n      jump\t// out\n        /* \"#utility.yul\":16332:16774   */\n    tag_209:\n        /* \"#utility.yul\":16481:16485   */\n      0x00\n        /* \"#utility.yul\":16519:16521   */\n      0x60\n        /* \"#utility.yul\":16508:16517   */\n      dup3\n        /* \"#utility.yul\":16504:16522   */\n      add\n        /* \"#utility.yul\":16496:16522   */\n      swap1\n      pop\n        /* \"#utility.yul\":16532:16603   */\n      tag_444\n        /* \"#utility.yul\":16600:16601   */\n      0x00\n        /* \"#utility.yul\":16589:16598   */\n      dup4\n        /* \"#utility.yul\":16585:16602   */\n      add\n        /* \"#utility.yul\":16576:16582   */\n      dup7\n        /* \"#utility.yul\":16532:16603   */\n      tag_248\n      jump\t// in\n    tag_444:\n        /* \"#utility.yul\":16613:16685   */\n      tag_445\n        /* \"#utility.yul\":16681:16683   */\n      0x20\n        /* \"#utility.yul\":16670:16679   */\n      dup4\n        /* \"#utility.yul\":16666:16684   */\n      add\n        /* \"#utility.yul\":16657:16663   */\n      dup6\n        /* \"#utility.yul\":16613:16685   */\n      tag_245\n      jump\t// in\n    tag_445:\n        /* \"#utility.yul\":16695:16767   */\n      tag_446\n        /* \"#utility.yul\":16763:16765   */\n      0x40\n        /* \"#utility.yul\":16752:16761   */\n      dup4\n        /* \"#utility.yul\":16748:16766   */\n      add\n        /* \"#utility.yul\":16739:16745   */\n      dup5\n        /* \"#utility.yul\":16695:16767   */\n      tag_245\n      jump\t// in\n    tag_446:\n        /* \"#utility.yul\":16332:16774   */\n      swap5\n      swap4\n      pop\n      pop\n      pop\n      pop\n      jump\t// out\n        /* \"#utility.yul\":16780:16971   */\n    tag_221:\n        /* \"#utility.yul\":16820:16823   */\n      0x00\n        /* \"#utility.yul\":16839:16859   */\n      tag_448\n        /* \"#utility.yul\":16857:16858   */\n      dup3\n        /* \"#utility.yul\":16839:16859   */\n      tag_240\n      jump\t// in\n    tag_448:\n        /* \"#utility.yul\":16834:16859   */\n      swap2\n      pop\n        /* \"#utility.yul\":16873:16893   */\n      tag_449\n        /* \"#utility.yul\":16891:16892   */\n      dup4\n        /* \"#utility.yul\":16873:16893   */\n      tag_240\n      jump\t// in\n    tag_449:\n        /* \"#utility.yul\":16868:16893   */\n      swap3\n      pop\n        /* \"#utility.yul\":16916:16917   */\n      dup3\n        /* \"#utility.yul\":16913:16914   */\n      dup3\n        /* \"#utility.yul\":16909:16918   */\n      add\n        /* \"#utility.yul\":16902:16918   */\n      swap1\n      pop\n        /* \"#utility.yul\":16937:16940   */\n      dup1\n        /* \"#utility.yul\":16934:16935   */\n      dup3\n        /* \"#utility.yul\":16931:16941   */\n      gt\n        /* \"#utility.yul\":16928:16964   */\n      iszero\n      tag_450\n      jumpi\n        /* \"#utility.yul\":16944:16962   */\n      tag_451\n      tag_275\n      jump\t// in\n    tag_451:\n        /* \"#utility.yul\":16928:16964   */\n    tag_450:\n        /* \"#utility.yul\":16780:16971   */\n      swap3\n      swap2\n      pop\n      pop\n      jump\t// out\n\n    auxdata: 0xa264697066735822122088a0fac46f0416773b1c6079ee7fbc85dd2ff5eb19b7f105cbc3a4ab1e45027064736f6c634300081e0033\n}\n",
				"bytecode": {
					"linkReferences": {},
					"object": "608060405234801561000f575f5ffd5b50604051612a45380380612a45833981810160405281019061003191906109db565b336040518060400160405280600481526020017f63737964000000000000000000000000000000000000000000000000000000008152506040518060400160405280600481526020017f435359440000000000000000000000000000000000000000000000000000000081525081600390816100ad9190610c3c565b5080600490816100bd9190610c3c565b5050505f73ffffffffffffffffffffffffffffffffffffffff168173ffffffffffffffffffffffffffffffffffffffff1603610130575f6040517f1e4fbdf70000000000000000000000000000000000000000000000000000000081526004016101279190610d1a565b60405180910390fd5b61013f8161043b60201b60201c565b505f825111610183576040517f08c379a000000000000000000000000000000000000000000000000000000000815260040161017a90610db3565b60405180910390fd5b8060085f6101000a81548173ffffffffffffffffffffffffffffffffffffffff021916908373ffffffffffffffffffffffffffffffffffffffff1602179055505f5f90505f5f90505b83518110156102a1578381815181106101e8576101e7610dd1565b5b602002602001015160200151826101ff9190610e2b565b9150600684828151811061021657610215610dd1565b5b6020026020010151908060018154018082558091505060019003905f5260205f2090600202015f909190919091505f820151815f015f6101000a81548173ffffffffffffffffffffffffffffffffffffffff021916908373ffffffffffffffffffffffffffffffffffffffff16021790555060208201518160010155505080806001019150506101cc565b505f606460506a9b18ab5df7180b6b8000006102bd9190610e5e565b6102c79190610ecc565b90505f5f90505f5f90505b600680549050811015610389575f8484600684815481106102f6576102f5610dd1565b5b905f5260205f209060020201600101546103109190610e5e565b61031a9190610ecc565b905061036d6006838154811061033357610332610dd1565b5b905f5260205f2090600202015f015f9054906101000a900473ffffffffffffffffffffffffffffffffffffffff16826104fe60201b60201c565b80836103799190610e2b565b92505080806001019150506102d2565b50818111156103cd576040517f08c379a00000000000000000000000000000000000000000000000000000000081526004016103c490610f6c565b60405180910390fd5b6103e83382846103dd9190610f8a565b6104fe60201b60201c565b61041b306064600a6a9b18ab5df7180b6b8000006104069190610e5e565b6104109190610ecc565b6104fe60201b60201c565b6305a39a804261042b9190610e2b565b600781905550505050505061101a565b5f60055f9054906101000a900473ffffffffffffffffffffffffffffffffffffffff1690508160055f6101000a81548173ffffffffffffffffffffffffffffffffffffffff021916908373ffffffffffffffffffffffffffffffffffffffff1602179055508173ffffffffffffffffffffffffffffffffffffffff168173ffffffffffffffffffffffffffffffffffffffff167f8be0079c531659141344cd1fd0a4f28419497f9722a3daafe3b4186f6b6457e060405160405180910390a35050565b5f73ffffffffffffffffffffffffffffffffffffffff168273ffffffffffffffffffffffffffffffffffffffff160361056e575f6040517fec442f050000000000000000000000000000000000000000000000000000000081526004016105659190610d1a565b60405180910390fd5b61057f5f838361058360201b60201c565b5050565b5f73ffffffffffffffffffffffffffffffffffffffff168373ffffffffffffffffffffffffffffffffffffffff16036105d3578060025f8282546105c79190610e2b565b925050819055506106a1565b5f5f5f8573ffffffffffffffffffffffffffffffffffffffff1673ffffffffffffffffffffffffffffffffffffffff1681526020019081526020015f205490508181101561065c578381836040517fe450d38c00000000000000000000000000000000000000000000000000000000815260040161065393929190610fcc565b60405180910390fd5b8181035f5f8673ffffffffffffffffffffffffffffffffffffffff1673ffffffffffffffffffffffffffffffffffffffff1681526020019081526020015f2081905550505b5f73ffffffffffffffffffffffffffffffffffffffff168273ffffffffffffffffffffffffffffffffffffffff16036106e8578060025f8282540392505081905550610732565b805f5f8473ffffffffffffffffffffffffffffffffffffffff1673ffffffffffffffffffffffffffffffffffffffff1681526020019081526020015f205f82825401925050819055505b8173ffffffffffffffffffffffffffffffffffffffff168373ffffffffffffffffffffffffffffffffffffffff167fddf252ad1be2c89b69c2b068fc378daa952ba7f163c4a11628f55a4df523b3ef8360405161078f9190611001565b60405180910390a3505050565b5f604051905090565b5f5ffd5b5f5ffd5b5f5ffd5b5f601f19601f8301169050919050565b7f4e487b71000000000000000000000000000000000000000000000000000000005f52604160045260245ffd5b6107f7826107b1565b810181811067ffffffffffffffff82111715610816576108156107c1565b5b80604052505050565b5f61082861079c565b905061083482826107ee565b919050565b5f67ffffffffffffffff821115610853576108526107c1565b5b602082029050602081019050919050565b5f5ffd5b5f5ffd5b5f73ffffffffffffffffffffffffffffffffffffffff82169050919050565b5f6108958261086c565b9050919050565b6108a58161088b565b81146108af575f5ffd5b50565b5f815190506108c08161089c565b92915050565b5f819050919050565b6108d8816108c6565b81146108e2575f5ffd5b50565b5f815190506108f3816108cf565b92915050565b5f6040828403121561090e5761090d610868565b5b610918604061081f565b90505f610927848285016108b2565b5f83015250602061093a848285016108e5565b60208301525092915050565b5f61095861095384610839565b61081f565b9050808382526020820190506040840283018581111561097b5761097a610864565b5b835b818110156109a4578061099088826108f9565b84526020840193505060408101905061097d565b5050509392505050565b5f82601f8301126109c2576109c16107ad565b5b81516109d2848260208601610946565b91505092915050565b5f5f604083850312156109f1576109f06107a5565b5b5f83015167ffffffffffffffff811115610a0e57610a0d6107a9565b5b610a1a858286016109ae565b9250506020610a2b858286016108b2565b9150509250929050565b5f81519050919050565b7f4e487b71000000000000000000000000000000000000000000000000000000005f52602260045260245ffd5b5f6002820490506001821680610a8357607f821691505b602082108103610a9657610a95610a3f565b5b50919050565b5f819050815f5260205f209050919050565b5f6020601f8301049050919050565b5f82821b905092915050565b5f60088302610af87fffffffffffffffffffffffffffffffffffffffffffffffffffffffffffffffff82610abd565b610b028683610abd565b95508019841693508086168417925050509392505050565b5f819050919050565b5f610b3d610b38610b33846108c6565b610b1a565b6108c6565b9050919050565b5f819050919050565b610b5683610b23565b610b6a610b6282610b44565b848454610ac9565b825550505050565b5f5f905090565b610b81610b72565b610b8c818484610b4d565b505050565b5b81811015610baf57610ba45f82610b79565b600181019050610b92565b5050565b601f821115610bf457610bc581610a9c565b610bce84610aae565b81016020851015610bdd578190505b610bf1610be985610aae565b830182610b91565b50505b505050565b5f82821c905092915050565b5f610c145f1984600802610bf9565b1980831691505092915050565b5f610c2c8383610c05565b9150826002028217905092915050565b610c4582610a35565b67ffffffffffffffff811115610c5e57610c5d6107c1565b5b610c688254610a6c565b610c73828285610bb3565b5f60209050601f831160018114610ca4575f8415610c92578287015190505b610c9c8582610c21565b865550610d03565b601f198416610cb286610a9c565b5f5b82811015610cd957848901518255600182019150602085019450602081019050610cb4565b86831015610cf65784890151610cf2601f891682610c05565b8355505b6001600288020188555050505b505050505050565b610d148161088b565b82525050565b5f602082019050610d2d5f830184610d0b565b92915050565b5f82825260208201905092915050565b7f4174206c65617374206f6e65207465616d206d656d62657220726571756972655f8201527f6400000000000000000000000000000000000000000000000000000000000000602082015250565b5f610d9d602183610d33565b9150610da882610d43565b604082019050919050565b5f6020820190508181035f830152610dca81610d91565b9050919050565b7f4e487b71000000000000000000000000000000000000000000000000000000005f52603260045260245ffd5b7f4e487b71000000000000000000000000000000000000000000000000000000005f52601160045260245ffd5b5f610e35826108c6565b9150610e40836108c6565b9250828201905080821115610e5857610e57610dfe565b5b92915050565b5f610e68826108c6565b9150610e73836108c6565b9250828202610e81816108c6565b91508282048414831517610e9857610e97610dfe565b5b5092915050565b7f4e487b71000000000000000000000000000000000000000000000000000000005f52601260045260245ffd5b5f610ed6826108c6565b9150610ee1836108c6565b925082610ef157610ef0610e9f565b5b828204905092915050565b7f546f74616c20646973747269627574696f6e2065786365656473206d61726b655f8201527f7400000000000000000000000000000000000000000000000000000000000000602082015250565b5f610f56602183610d33565b9150610f6182610efc565b604082019050919050565b5f6020820190508181035f830152610f8381610f4a565b9050919050565b5f610f94826108c6565b9150610f9f836108c6565b9250828203905081811115610fb757610fb6610dfe565b5b92915050565b610fc6816108c6565b82525050565b5f606082019050610fdf5f830186610d0b565b610fec6020830185610fbd565b610ff96040830184610fbd565b949350505050565b5f6020820190506110145f830184610fbd565b92915050565b611a1e806110275f395ff3fe608060405234801561000f575f5ffd5b506004361061012a575f3560e01c806388e56ec6116100ab578063bdd3d8251161006f578063bdd3d82514610337578063dd62ed3e14610355578063eb91d37e14610385578063efded147146103a3578063f2fde38b146103c15761012a565b806388e56ec61461027c5780638da5cb5b146102ad578063902d55a5146102cb57806395d89b41146102e9578063a9059cbb146103075761012a565b8063313ce567116100f2578063313ce567146101e8578063359289981461020657806370a0823114610224578063715018a61461025457806376ae9b2d1461025e5761012a565b806306fdde031461012e578063095ea7b31461014c57806318160ddd1461017c57806319ca43ab1461019a57806323b872dd146101b8575b5f5ffd5b6101366103dd565b604051610143919061120f565b60405180910390f35b610166600480360381019061016191906112c0565b61046d565b6040516101739190611318565b60405180910390f35b61018461048f565b6040516101919190611340565b60405180910390f35b6101a2610498565b6040516101af9190611340565b60405180910390f35b6101d260048036038101906101cd9190611359565b6104a4565b6040516101df9190611318565b60405180910390f35b6101f0610513565b6040516101fd91906113c4565b60405180910390f35b61020e61051b565b60405161021b9190611340565b60405180910390f35b61023e600480360381019061023991906113dd565b610523565b60405161024b9190611340565b60405180910390f35b61025c610568565b005b61026661057b565b6040516102739190611340565b60405180910390f35b61029660048036038101906102919190611408565b610581565b6040516102a4929190611442565b60405180910390f35b6102b5610669565b6040516102c29190611469565b60405180910390f35b6102d3610691565b6040516102e09190611340565b60405180910390f35b6102f16106a0565b6040516102fe919061120f565b60405180910390f35b610321600480360381019061031c91906112c0565b610730565b60405161032e9190611318565b60405180910390f35b61033f61079d565b60405161034c9190611469565b60405180910390f35b61036f600480360381019061036a9190611482565b6107c2565b60405161037c9190611340565b60405180910390f35b61038d610844565b60405161039a9190611340565b60405180910390f35b6103ab610943565b6040516103b891906115b3565b60405180910390f35b6103db60048036038101906103d691906113dd565b6109fd565b005b6060600380546103ec90611600565b80601f016020809104026020016040519081016040528092919081815260200182805461041890611600565b80156104635780601f1061043a57610100808354040283529160200191610463565b820191905f5260205f20905b81548152906001019060200180831161044657829003601f168201915b5050505050905090565b5f5f610477610a81565b9050610484818585610a88565b600191505092915050565b5f600254905090565b5f600680549050905090565b5f81600754421015806104bf5750806104bc33610523565b10155b6104fe576040517f08c379a00000000000000000000000000000000000000000000000000000000081526004016104f59061167a565b60405180910390fd5b610509858585610a9a565b9150509392505050565b5f6012905090565b6305a39a8081565b5f5f5f8373ffffffffffffffffffffffffffffffffffffffff1673ffffffffffffffffffffffffffffffffffffffff1681526020019081526020015f20549050919050565b610570610ac8565b6105795f610b4f565b565b60075481565b5f5f60068054905083106105ca576040517f08c379a00000000000000000000000000000000000000000000000000000000081526004016105c1906116e2565b60405180910390fd5b5f600684815481106105df576105de611700565b5b905f5260205f2090600202016040518060400160405290815f82015f9054906101000a900473ffffffffffffffffffffffffffffffffffffffff1673ffffffffffffffffffffffffffffffffffffffff1673ffffffffffffffffffffffffffffffffffffffff1681526020016001820154815250509050805f015181602001519250925050915091565b5f60055f9054906101000a900473ffffffffffffffffffffffffffffffffffffffff16905090565b6a9b18ab5df7180b6b80000081565b6060600480546106af90611600565b80601f01602080910402602001604051908101604052809291908181526020018280546106db90611600565b80156107265780601f106106fd57610100808354040283529160200191610726565b820191905f5260205f20905b81548152906001019060200180831161070957829003601f168201915b5050505050905090565b5f816007544210158061074b57508061074833610523565b10155b61078a576040517f08c379a00000000000000000000000000000000000000000000000000000000081526004016107819061167a565b60405180910390fd5b6107948484610c12565b91505092915050565b60085f9054906101000a900473ffffffffffffffffffffffffffffffffffffffff1681565b5f60015f8473ffffffffffffffffffffffffffffffffffffffff1673ffffffffffffffffffffffffffffffffffffffff1681526020019081526020015f205f8373ffffffffffffffffffffffffffffffffffffffff1673ffffffffffffffffffffffffffffffffffffffff1681526020019081526020015f2054905092915050565b5f5f60085f9054906101000a900473ffffffffffffffffffffffffffffffffffffffff1690505f8173ffffffffffffffffffffffffffffffffffffffff16633850c7bd6040518163ffffffff1660e01b815260040160e060405180830381865afa1580156108b4573d5f5f3e3d5ffd5b505050506040513d601f19601f820116820180604052508101906108d89190611818565b505050505050905078010000000000000000000000000000000000000000000000008173ffffffffffffffffffffffffffffffffffffffff168273ffffffffffffffffffffffffffffffffffffffff1661093291906118e2565b61093c9190611950565b9250505090565b60606006805480602002602001604051908101604052809291908181526020015f905b828210156109f4578382905f5260205f2090600202016040518060400160405290815f82015f9054906101000a900473ffffffffffffffffffffffffffffffffffffffff1673ffffffffffffffffffffffffffffffffffffffff1673ffffffffffffffffffffffffffffffffffffffff16815260200160018201548152505081526020019060010190610966565b50505050905090565b610a05610ac8565b5f73ffffffffffffffffffffffffffffffffffffffff168173ffffffffffffffffffffffffffffffffffffffff1603610a75575f6040517f1e4fbdf7000000000000000000000000000000000000000000000000000000008152600401610a6c9190611469565b60405180910390fd5b610a7e81610b4f565b50565b5f33905090565b610a958383836001610c34565b505050565b5f5f610aa4610a81565b9050610ab1858285610e03565b610abc858585610e96565b60019150509392505050565b610ad0610a81565b73ffffffffffffffffffffffffffffffffffffffff16610aee610669565b73ffffffffffffffffffffffffffffffffffffffff1614610b4d57610b11610a81565b6040517f118cdaa7000000000000000000000000000000000000000000000000000000008152600401610b449190611469565b60405180910390fd5b565b5f60055f9054906101000a900473ffffffffffffffffffffffffffffffffffffffff1690508160055f6101000a81548173ffffffffffffffffffffffffffffffffffffffff021916908373ffffffffffffffffffffffffffffffffffffffff1602179055508173ffffffffffffffffffffffffffffffffffffffff168173ffffffffffffffffffffffffffffffffffffffff167f8be0079c531659141344cd1fd0a4f28419497f9722a3daafe3b4186f6b6457e060405160405180910390a35050565b5f5f610c1c610a81565b9050610c29818585610e96565b600191505092915050565b5f73ffffffffffffffffffffffffffffffffffffffff168473ffffffffffffffffffffffffffffffffffffffff1603610ca4575f6040517fe602df05000000000000000000000000000000000000000000000000000000008152600401610c9b9190611469565b60405180910390fd5b5f73ffffffffffffffffffffffffffffffffffffffff168373ffffffffffffffffffffffffffffffffffffffff1603610d14575f6040517f94280d62000000000000000000000000000000000000000000000000000000008152600401610d0b9190611469565b60405180910390fd5b8160015f8673ffffffffffffffffffffffffffffffffffffffff1673ffffffffffffffffffffffffffffffffffffffff1681526020019081526020015f205f8573ffffffffffffffffffffffffffffffffffffffff1673ffffffffffffffffffffffffffffffffffffffff1681526020019081526020015f20819055508015610dfd578273ffffffffffffffffffffffffffffffffffffffff168473ffffffffffffffffffffffffffffffffffffffff167f8c5be1e5ebec7d5bd14f71427d1e84f3dd0314c0f7b2291e5b200ac8c7c3b92584604051610df49190611340565b60405180910390a35b50505050565b5f610e0e84846107c2565b90507fffffffffffffffffffffffffffffffffffffffffffffffffffffffffffffffff811015610e905781811015610e81578281836040517ffb8f41b2000000000000000000000000000000000000000000000000000000008152600401610e7893929190611980565b60405180910390fd5b610e8f84848484035f610c34565b5b50505050565b5f73ffffffffffffffffffffffffffffffffffffffff168373ffffffffffffffffffffffffffffffffffffffff1603610f06575f6040517f96c6fd1e000000000000000000000000000000000000000000000000000000008152600401610efd9190611469565b60405180910390fd5b5f73ffffffffffffffffffffffffffffffffffffffff168273ffffffffffffffffffffffffffffffffffffffff1603610f76575f6040517fec442f05000000000000000000000000000000000000000000000000000000008152600401610f6d9190611469565b60405180910390fd5b610f81838383610f86565b505050565b5f73ffffffffffffffffffffffffffffffffffffffff168373ffffffffffffffffffffffffffffffffffffffff1603610fd6578060025f828254610fca91906119b5565b925050819055506110a4565b5f5f5f8573ffffffffffffffffffffffffffffffffffffffff1673ffffffffffffffffffffffffffffffffffffffff1681526020019081526020015f205490508181101561105f578381836040517fe450d38c00000000000000000000000000000000000000000000000000000000815260040161105693929190611980565b60405180910390fd5b8181035f5f8673ffffffffffffffffffffffffffffffffffffffff1673ffffffffffffffffffffffffffffffffffffffff1681526020019081526020015f2081905550505b5f73ffffffffffffffffffffffffffffffffffffffff168273ffffffffffffffffffffffffffffffffffffffff16036110eb578060025f8282540392505081905550611135565b805f5f8473ffffffffffffffffffffffffffffffffffffffff1673ffffffffffffffffffffffffffffffffffffffff1681526020019081526020015f205f82825401925050819055505b8173ffffffffffffffffffffffffffffffffffffffff168373ffffffffffffffffffffffffffffffffffffffff167fddf252ad1be2c89b69c2b068fc378daa952ba7f163c4a11628f55a4df523b3ef836040516111929190611340565b60405180910390a3505050565b5f81519050919050565b5f82825260208201905092915050565b8281835e5f83830152505050565b5f601f19601f8301169050919050565b5f6111e18261119f565b6111eb81856111a9565b93506111fb8185602086016111b9565b611204816111c7565b840191505092915050565b5f6020820190508181035f83015261122781846111d7565b905092915050565b5f5ffd5b5f73ffffffffffffffffffffffffffffffffffffffff82169050919050565b5f61125c82611233565b9050919050565b61126c81611252565b8114611276575f5ffd5b50565b5f8135905061128781611263565b92915050565b5f819050919050565b61129f8161128d565b81146112a9575f5ffd5b50565b5f813590506112ba81611296565b92915050565b5f5f604083850312156112d6576112d561122f565b5b5f6112e385828601611279565b92505060206112f4858286016112ac565b9150509250929050565b5f8115159050919050565b611312816112fe565b82525050565b5f60208201905061132b5f830184611309565b92915050565b61133a8161128d565b82525050565b5f6020820190506113535f830184611331565b92915050565b5f5f5f606084860312156113705761136f61122f565b5b5f61137d86828701611279565b935050602061138e86828701611279565b925050604061139f868287016112ac565b9150509250925092565b5f60ff82169050919050565b6113be816113a9565b82525050565b5f6020820190506113d75f8301846113b5565b92915050565b5f602082840312156113f2576113f161122f565b5b5f6113ff84828501611279565b91505092915050565b5f6020828403121561141d5761141c61122f565b5b5f61142a848285016112ac565b91505092915050565b61143c81611252565b82525050565b5f6040820190506114555f830185611433565b6114626020830184611331565b9392505050565b5f60208201905061147c5f830184611433565b92915050565b5f5f604083850312156114985761149761122f565b5b5f6114a585828601611279565b92505060206114b685828601611279565b9150509250929050565b5f81519050919050565b5f82825260208201905092915050565b5f819050602082019050919050565b6114f281611252565b82525050565b6115018161128d565b82525050565b604082015f82015161151b5f8501826114e9565b50602082015161152e60208501826114f8565b50505050565b5f61153f8383611507565b60408301905092915050565b5f602082019050919050565b5f611561826114c0565b61156b81856114ca565b9350611576836114da565b805f5b838110156115a657815161158d8882611534565b97506115988361154b565b925050600181019050611579565b5085935050505092915050565b5f6020820190508181035f8301526115cb8184611557565b905092915050565b7f4e487b71000000000000000000000000000000000000000000000000000000005f52602260045260245ffd5b5f600282049050600182168061161757607f821691505b60208210810361162a576116296115d3565b5b50919050565b7f5465616d20746f6b656e7320617265206c6f636b6564000000000000000000005f82015250565b5f6116646016836111a9565b915061166f82611630565b602082019050919050565b5f6020820190508181035f83015261169181611658565b9050919050565b7f496e646578206f7574206f6620626f756e6473000000000000000000000000005f82015250565b5f6116cc6013836111a9565b91506116d782611698565b602082019050919050565b5f6020820190508181035f8301526116f9816116c0565b9050919050565b7f4e487b71000000000000000000000000000000000000000000000000000000005f52603260045260245ffd5b61173681611233565b8114611740575f5ffd5b50565b5f815190506117518161172d565b92915050565b5f8160020b9050919050565b61176c81611757565b8114611776575f5ffd5b50565b5f8151905061178781611763565b92915050565b5f61ffff82169050919050565b6117a38161178d565b81146117ad575f5ffd5b50565b5f815190506117be8161179a565b92915050565b6117cd816113a9565b81146117d7575f5ffd5b50565b5f815190506117e8816117c4565b92915050565b6117f7816112fe565b8114611801575f5ffd5b50565b5f81519050611812816117ee565b92915050565b5f5f5f5f5f5f5f60e0888a0312156118335761183261122f565b5b5f6118408a828b01611743565b97505060206118518a828b01611779565b96505060406118628a828b016117b0565b95505060606118738a828b016117b0565b94505060806118848a828b016117b0565b93505060a06118958a828b016117da565b92505060c06118a68a828b01611804565b91505092959891949750929550565b7f4e487b71000000000000000000000000000000000000000000000000000000005f52601160045260245ffd5b5f6118ec8261128d565b91506118f78361128d565b92508282026119058161128d565b9150828204841483151761191c5761191b6118b5565b5b5092915050565b7f4e487b71000000000000000000000000000000000000000000000000000000005f52601260045260245ffd5b5f61195a8261128d565b91506119658361128d565b92508261197557611974611923565b5b828204905092915050565b5f6060820190506119935f830186611433565b6119a06020830185611331565b6119ad6040830184611331565b949350505050565b5f6119bf8261128d565b91506119ca8361128d565b92508282019050808211156119e2576119e16118b5565b5b9291505056fea264697066735822122088a0fac46f0416773b1c6079ee7fbc85dd2ff5eb19b7f105cbc3a4ab1e45027064736f6c634300081e0033",
					"opcodes": "PUSH1 0x80 PUSH1 0x40 MSTORE CALLVALUE DUP1 ISZERO PUSH2 0xF JUMPI PUSH0 PUSH0 REVERT JUMPDEST POP PUSH1 0x40 MLOAD PUSH2 0x2A45 CODESIZE SUB DUP1 PUSH2 0x2A45 DUP4 CODECOPY DUP2 DUP2 ADD PUSH1 0x40 MSTORE DUP2 ADD SWAP1 PUSH2 0x31 SWAP2 SWAP1 PUSH2 0x9DB JUMP JUMPDEST CALLER PUSH1 0x40 MLOAD DUP1 PUSH1 0x40 ADD PUSH1 0x40 MSTORE DUP1 PUSH1 0x4 DUP2 MSTORE PUSH1 0x20 ADD PUSH32 0x6373796400000000000000000000000000000000000000000000000000000000 DUP2 MSTORE POP PUSH1 0x40 MLOAD DUP1 PUSH1 0x40 ADD PUSH1 0x40 MSTORE DUP1 PUSH1 0x4 DUP2 MSTORE PUSH1 0x20 ADD PUSH32 0x4353594400000000000000000000000000000000000000000000000000000000 DUP2 MSTORE POP DUP2 PUSH1 0x3 SWAP1 DUP2 PUSH2 0xAD SWAP2 SWAP1 PUSH2 0xC3C JUMP JUMPDEST POP DUP1 PUSH1 0x4 SWAP1 DUP2 PUSH2 0xBD SWAP2 SWAP1 PUSH2 0xC3C JUMP JUMPDEST POP POP POP PUSH0 PUSH20 0xFFFFFFFFFFFFFFFFFFFFFFFFFFFFFFFFFFFFFFFF AND DUP2 PUSH20 0xFFFFFFFFFFFFFFFFFFFFFFFFFFFFFFFFFFFFFFFF AND SUB PUSH2 0x130 JUMPI PUSH0 PUSH1 0x40 MLOAD PUSH32 0x1E4FBDF700000000000000000000000000000000000000000000000000000000 DUP2 MSTORE PUSH1 0x4 ADD PUSH2 0x127 SWAP2 SWAP1 PUSH2 0xD1A JUMP JUMPDEST PUSH1 0x40 MLOAD DUP1 SWAP2 SUB SWAP1 REVERT JUMPDEST PUSH2 0x13F DUP2 PUSH2 0x43B PUSH1 0x20 SHL PUSH1 0x20 SHR JUMP JUMPDEST POP PUSH0 DUP3 MLOAD GT PUSH2 0x183 JUMPI PUSH1 0x40 MLOAD PUSH32 0x8C379A000000000000000000000000000000000000000000000000000000000 DUP2 MSTORE PUSH1 0x4 ADD PUSH2 0x17A SWAP1 PUSH2 0xDB3 JUMP JUMPDEST PUSH1 0x40 MLOAD DUP1 SWAP2 SUB SWAP1 REVERT JUMPDEST DUP1 PUSH1 0x8 PUSH0 PUSH2 0x100 EXP DUP2 SLOAD DUP2 PUSH20 0xFFFFFFFFFFFFFFFFFFFFFFFFFFFFFFFFFFFFFFFF MUL NOT AND SWAP1 DUP4 PUSH20 0xFFFFFFFFFFFFFFFFFFFFFFFFFFFFFFFFFFFFFFFF AND MUL OR SWAP1 SSTORE POP PUSH0 PUSH0 SWAP1 POP PUSH0 PUSH0 SWAP1 POP JUMPDEST DUP4 MLOAD DUP2 LT ISZERO PUSH2 0x2A1 JUMPI DUP4 DUP2 DUP2 MLOAD DUP2 LT PUSH2 0x1E8 JUMPI PUSH2 0x1E7 PUSH2 0xDD1 JUMP JUMPDEST JUMPDEST PUSH1 0x20 MUL PUSH1 0x20 ADD ADD MLOAD PUSH1 0x20 ADD MLOAD DUP3 PUSH2 0x1FF SWAP2 SWAP1 PUSH2 0xE2B JUMP JUMPDEST SWAP2 POP PUSH1 0x6 DUP5 DUP3 DUP2 MLOAD DUP2 LT PUSH2 0x216 JUMPI PUSH2 0x215 PUSH2 0xDD1 JUMP JUMPDEST JUMPDEST PUSH1 0x20 MUL PUSH1 0x20 ADD ADD MLOAD SWAP1 DUP1 PUSH1 0x1 DUP2 SLOAD ADD DUP1 DUP3 SSTORE DUP1 SWAP2 POP POP PUSH1 0x1 SWAP1 SUB SWAP1 PUSH0 MSTORE PUSH1 0x20 PUSH0 KECCAK256 SWAP1 PUSH1 0x2 MUL ADD PUSH0 SWAP1 SWAP2 SWAP1 SWAP2 SWAP1 SWAP2 POP PUSH0 DUP3 ADD MLOAD DUP2 PUSH0 ADD PUSH0 PUSH2 0x100 EXP DUP2 SLOAD DUP2 PUSH20 0xFFFFFFFFFFFFFFFFFFFFFFFFFFFFFFFFFFFFFFFF MUL NOT AND SWAP1 DUP4 PUSH20 0xFFFFFFFFFFFFFFFFFFFFFFFFFFFFFFFFFFFFFFFF AND MUL OR SWAP1 SSTORE POP PUSH1 0x20 DUP3 ADD MLOAD DUP2 PUSH1 0x1 ADD SSTORE POP POP DUP1 DUP1 PUSH1 0x1 ADD SWAP2 POP POP PUSH2 0x1CC JUMP JUMPDEST POP PUSH0 PUSH1 0x64 PUSH1 0x50 PUSH11 0x9B18AB5DF7180B6B800000 PUSH2 0x2BD SWAP2 SWAP1 PUSH2 0xE5E JUMP JUMPDEST PUSH2 0x2C7 SWAP2 SWAP1 PUSH2 0xECC JUMP JUMPDEST SWAP1 POP PUSH0 PUSH0 SWAP1 POP PUSH0 PUSH0 SWAP1 POP JUMPDEST PUSH1 0x6 DUP1 SLOAD SWAP1 POP DUP2 LT ISZERO PUSH2 0x389 JUMPI PUSH0 DUP5 DUP5 PUSH1 0x6 DUP5 DUP2 SLOAD DUP2 LT PUSH2 0x2F6 JUMPI PUSH2 0x2F5 PUSH2 0xDD1 JUMP JUMPDEST JUMPDEST SWAP1 PUSH0 MSTORE PUSH1 0x20 PUSH0 KECCAK256 SWAP1 PUSH1 0x2 MUL ADD PUSH1 0x1 ADD SLOAD PUSH2 0x310 SWAP2 SWAP1 PUSH2 0xE5E JUMP JUMPDEST PUSH2 0x31A SWAP2 SWAP1 PUSH2 0xECC JUMP JUMPDEST SWAP1 POP PUSH2 0x36D PUSH1 0x6 DUP4 DUP2 SLOAD DUP2 LT PUSH2 0x333 JUMPI PUSH2 0x332 PUSH2 0xDD1 JUMP JUMPDEST JUMPDEST SWAP1 PUSH0 MSTORE PUSH1 0x20 PUSH0 KECCAK256 SWAP1 PUSH1 0x2 MUL ADD PUSH0 ADD PUSH0 SWAP1 SLOAD SWAP1 PUSH2 0x100 EXP SWAP1 DIV PUSH20 0xFFFFFFFFFFFFFFFFFFFFFFFFFFFFFFFFFFFFFFFF AND DUP3 PUSH2 0x4FE PUSH1 0x20 SHL PUSH1 0x20 SHR JUMP JUMPDEST DUP1 DUP4 PUSH2 0x379 SWAP2 SWAP1 PUSH2 0xE2B JUMP JUMPDEST SWAP3 POP POP DUP1 DUP1 PUSH1 0x1 ADD SWAP2 POP POP PUSH2 0x2D2 JUMP JUMPDEST POP DUP2 DUP2 GT ISZERO PUSH2 0x3CD JUMPI PUSH1 0x40 MLOAD PUSH32 0x8C379A000000000000000000000000000000000000000000000000000000000 DUP2 MSTORE PUSH1 0x4 ADD PUSH2 0x3C4 SWAP1 PUSH2 0xF6C JUMP JUMPDEST PUSH1 0x40 MLOAD DUP1 SWAP2 SUB SWAP1 REVERT JUMPDEST PUSH2 0x3E8 CALLER DUP3 DUP5 PUSH2 0x3DD SWAP2 SWAP1 PUSH2 0xF8A JUMP JUMPDEST PUSH2 0x4FE PUSH1 0x20 SHL PUSH1 0x20 SHR JUMP JUMPDEST PUSH2 0x41B ADDRESS PUSH1 0x64 PUSH1 0xA PUSH11 0x9B18AB5DF7180B6B800000 PUSH2 0x406 SWAP2 SWAP1 PUSH2 0xE5E JUMP JUMPDEST PUSH2 0x410 SWAP2 SWAP1 PUSH2 0xECC JUMP JUMPDEST PUSH2 0x4FE PUSH1 0x20 SHL PUSH1 0x20 SHR JUMP JUMPDEST PUSH4 0x5A39A80 TIMESTAMP PUSH2 0x42B SWAP2 SWAP1 PUSH2 0xE2B JUMP JUMPDEST PUSH1 0x7 DUP2 SWAP1 SSTORE POP POP POP POP POP POP PUSH2 0x101A JUMP JUMPDEST PUSH0 PUSH1 0x5 PUSH0 SWAP1 SLOAD SWAP1 PUSH2 0x100 EXP SWAP1 DIV PUSH20 0xFFFFFFFFFFFFFFFFFFFFFFFFFFFFFFFFFFFFFFFF AND SWAP1 POP DUP2 PUSH1 0x5 PUSH0 PUSH2 0x100 EXP DUP2 SLOAD DUP2 PUSH20 0xFFFFFFFFFFFFFFFFFFFFFFFFFFFFFFFFFFFFFFFF MUL NOT AND SWAP1 DUP4 PUSH20 0xFFFFFFFFFFFFFFFFFFFFFFFFFFFFFFFFFFFFFFFF AND MUL OR SWAP1 SSTORE POP DUP2 PUSH20 0xFFFFFFFFFFFFFFFFFFFFFFFFFFFFFFFFFFFFFFFF AND DUP2 PUSH20 0xFFFFFFFFFFFFFFFFFFFFFFFFFFFFFFFFFFFFFFFF AND PUSH32 0x8BE0079C531659141344CD1FD0A4F28419497F9722A3DAAFE3B4186F6B6457E0 PUSH1 0x40 MLOAD PUSH1 0x40 MLOAD DUP1 SWAP2 SUB SWAP1 LOG3 POP POP JUMP JUMPDEST PUSH0 PUSH20 0xFFFFFFFFFFFFFFFFFFFFFFFFFFFFFFFFFFFFFFFF AND DUP3 PUSH20 0xFFFFFFFFFFFFFFFFFFFFFFFFFFFFFFFFFFFFFFFF AND SUB PUSH2 0x56E JUMPI PUSH0 PUSH1 0x40 MLOAD PUSH32 0xEC442F0500000000000000000000000000000000000000000000000000000000 DUP2 MSTORE PUSH1 0x4 ADD PUSH2 0x565 SWAP2 SWAP1 PUSH2 0xD1A JUMP JUMPDEST PUSH1 0x40 MLOAD DUP1 SWAP2 SUB SWAP1 REVERT JUMPDEST PUSH2 0x57F PUSH0 DUP4 DUP4 PUSH2 0x583 PUSH1 0x20 SHL PUSH1 0x20 SHR JUMP JUMPDEST POP POP JUMP JUMPDEST PUSH0 PUSH20 0xFFFFFFFFFFFFFFFFFFFFFFFFFFFFFFFFFFFFFFFF AND DUP4 PUSH20 0xFFFFFFFFFFFFFFFFFFFFFFFFFFFFFFFFFFFFFFFF AND SUB PUSH2 0x5D3 JUMPI DUP1 PUSH1 0x2 PUSH0 DUP3 DUP3 SLOAD PUSH2 0x5C7 SWAP2 SWAP1 PUSH2 0xE2B JUMP JUMPDEST SWAP3 POP POP DUP2 SWAP1 SSTORE POP PUSH2 0x6A1 JUMP JUMPDEST PUSH0 PUSH0 PUSH0 DUP6 PUSH20 0xFFFFFFFFFFFFFFFFFFFFFFFFFFFFFFFFFFFFFFFF AND PUSH20 0xFFFFFFFFFFFFFFFFFFFFFFFFFFFFFFFFFFFFFFFF AND DUP2 MSTORE PUSH1 0x20 ADD SWAP1 DUP2 MSTORE PUSH1 0x20 ADD PUSH0 KECCAK256 SLOAD SWAP1 POP DUP2 DUP2 LT ISZERO PUSH2 0x65C JUMPI DUP4 DUP2 DUP4 PUSH1 0x40 MLOAD PUSH32 0xE450D38C00000000000000000000000000000000000000000000000000000000 DUP2 MSTORE PUSH1 0x4 ADD PUSH2 0x653 SWAP4 SWAP3 SWAP2 SWAP1 PUSH2 0xFCC JUMP JUMPDEST PUSH1 0x40 MLOAD DUP1 SWAP2 SUB SWAP1 REVERT JUMPDEST DUP2 DUP2 SUB PUSH0 PUSH0 DUP7 PUSH20 0xFFFFFFFFFFFFFFFFFFFFFFFFFFFFFFFFFFFFFFFF AND PUSH20 0xFFFFFFFFFFFFFFFFFFFFFFFFFFFFFFFFFFFFFFFF AND DUP2 MSTORE PUSH1 0x20 ADD SWAP1 DUP2 MSTORE PUSH1 0x20 ADD PUSH0 KECCAK256 DUP2 SWAP1 SSTORE POP POP JUMPDEST PUSH0 PUSH20 0xFFFFFFFFFFFFFFFFFFFFFFFFFFFFFFFFFFFFFFFF AND DUP3 PUSH20 0xFFFFFFFFFFFFFFFFFFFFFFFFFFFFFFFFFFFFFFFF AND SUB PUSH2 0x6E8 JUMPI DUP1 PUSH1 0x2 PUSH0 DUP3 DUP3 SLOAD SUB SWAP3 POP POP DUP2 SWAP1 SSTORE POP PUSH2 0x732 JUMP JUMPDEST DUP1 PUSH0 PUSH0 DUP5 PUSH20 0xFFFFFFFFFFFFFFFFFFFFFFFFFFFFFFFFFFFFFFFF AND PUSH20 0xFFFFFFFFFFFFFFFFFFFFFFFFFFFFFFFFFFFFFFFF AND DUP2 MSTORE PUSH1 0x20 ADD SWAP1 DUP2 MSTORE PUSH1 0x20 ADD PUSH0 KECCAK256 PUSH0 DUP3 DUP3 SLOAD ADD SWAP3 POP POP DUP2 SWAP1 SSTORE POP JUMPDEST DUP2 PUSH20 0xFFFFFFFFFFFFFFFFFFFFFFFFFFFFFFFFFFFFFFFF AND DUP4 PUSH20 0xFFFFFFFFFFFFFFFFFFFFFFFFFFFFFFFFFFFFFFFF AND PUSH32 0xDDF252AD1BE2C89B69C2B068FC378DAA952BA7F163C4A11628F55A4DF523B3EF DUP4 PUSH1 0x40 MLOAD PUSH2 0x78F SWAP2 SWAP1 PUSH2 0x1001 JUMP JUMPDEST PUSH1 0x40 MLOAD DUP1 SWAP2 SUB SWAP1 LOG3 POP POP POP JUMP JUMPDEST PUSH0 PUSH1 0x40 MLOAD SWAP1 POP SWAP1 JUMP JUMPDEST PUSH0 PUSH0 REVERT JUMPDEST PUSH0 PUSH0 REVERT JUMPDEST PUSH0 PUSH0 REVERT JUMPDEST PUSH0 PUSH1 0x1F NOT PUSH1 0x1F DUP4 ADD AND SWAP1 POP SWAP2 SWAP1 POP JUMP JUMPDEST PUSH32 0x4E487B7100000000000000000000000000000000000000000000000000000000 PUSH0 MSTORE PUSH1 0x41 PUSH1 0x4 MSTORE PUSH1 0x24 PUSH0 REVERT JUMPDEST PUSH2 0x7F7 DUP3 PUSH2 0x7B1 JUMP JUMPDEST DUP2 ADD DUP2 DUP2 LT PUSH8 0xFFFFFFFFFFFFFFFF DUP3 GT OR ISZERO PUSH2 0x816 JUMPI PUSH2 0x815 PUSH2 0x7C1 JUMP JUMPDEST JUMPDEST DUP1 PUSH1 0x40 MSTORE POP POP POP JUMP JUMPDEST PUSH0 PUSH2 0x828 PUSH2 0x79C JUMP JUMPDEST SWAP1 POP PUSH2 0x834 DUP3 DUP3 PUSH2 0x7EE JUMP JUMPDEST SWAP2 SWAP1 POP JUMP JUMPDEST PUSH0 PUSH8 0xFFFFFFFFFFFFFFFF DUP3 GT ISZERO PUSH2 0x853 JUMPI PUSH2 0x852 PUSH2 0x7C1 JUMP JUMPDEST JUMPDEST PUSH1 0x20 DUP3 MUL SWAP1 POP PUSH1 0x20 DUP2 ADD SWAP1 POP SWAP2 SWAP1 POP JUMP JUMPDEST PUSH0 PUSH0 REVERT JUMPDEST PUSH0 PUSH0 REVERT JUMPDEST PUSH0 PUSH20 0xFFFFFFFFFFFFFFFFFFFFFFFFFFFFFFFFFFFFFFFF DUP3 AND SWAP1 POP SWAP2 SWAP1 POP JUMP JUMPDEST PUSH0 PUSH2 0x895 DUP3 PUSH2 0x86C JUMP JUMPDEST SWAP1 POP SWAP2 SWAP1 POP JUMP JUMPDEST PUSH2 0x8A5 DUP2 PUSH2 0x88B JUMP JUMPDEST DUP2 EQ PUSH2 0x8AF JUMPI PUSH0 PUSH0 REVERT JUMPDEST POP JUMP JUMPDEST PUSH0 DUP2 MLOAD SWAP1 POP PUSH2 0x8C0 DUP2 PUSH2 0x89C JUMP JUMPDEST SWAP3 SWAP2 POP POP JUMP JUMPDEST PUSH0 DUP2 SWAP1 POP SWAP2 SWAP1 POP JUMP JUMPDEST PUSH2 0x8D8 DUP2 PUSH2 0x8C6 JUMP JUMPDEST DUP2 EQ PUSH2 0x8E2 JUMPI PUSH0 PUSH0 REVERT JUMPDEST POP JUMP JUMPDEST PUSH0 DUP2 MLOAD SWAP1 POP PUSH2 0x8F3 DUP2 PUSH2 0x8CF JUMP JUMPDEST SWAP3 SWAP2 POP POP JUMP JUMPDEST PUSH0 PUSH1 0x40 DUP3 DUP5 SUB SLT ISZERO PUSH2 0x90E JUMPI PUSH2 0x90D PUSH2 0x868 JUMP JUMPDEST JUMPDEST PUSH2 0x918 PUSH1 0x40 PUSH2 0x81F JUMP JUMPDEST SWAP1 POP PUSH0 PUSH2 0x927 DUP5 DUP3 DUP6 ADD PUSH2 0x8B2 JUMP JUMPDEST PUSH0 DUP4 ADD MSTORE POP PUSH1 0x20 PUSH2 0x93A DUP5 DUP3 DUP6 ADD PUSH2 0x8E5 JUMP JUMPDEST PUSH1 0x20 DUP4 ADD MSTORE POP SWAP3 SWAP2 POP POP JUMP JUMPDEST PUSH0 PUSH2 0x958 PUSH2 0x953 DUP5 PUSH2 0x839 JUMP JUMPDEST PUSH2 0x81F JUMP JUMPDEST SWAP1 POP DUP1 DUP4 DUP3 MSTORE PUSH1 0x20 DUP3 ADD SWAP1 POP PUSH1 0x40 DUP5 MUL DUP4 ADD DUP6 DUP2 GT ISZERO PUSH2 0x97B JUMPI PUSH2 0x97A PUSH2 0x864 JUMP JUMPDEST JUMPDEST DUP4 JUMPDEST DUP2 DUP2 LT ISZERO PUSH2 0x9A4 JUMPI DUP1 PUSH2 0x990 DUP9 DUP3 PUSH2 0x8F9 JUMP JUMPDEST DUP5 MSTORE PUSH1 0x20 DUP5 ADD SWAP4 POP POP PUSH1 0x40 DUP2 ADD SWAP1 POP PUSH2 0x97D JUMP JUMPDEST POP POP POP SWAP4 SWAP3 POP POP POP JUMP JUMPDEST PUSH0 DUP3 PUSH1 0x1F DUP4 ADD SLT PUSH2 0x9C2 JUMPI PUSH2 0x9C1 PUSH2 0x7AD JUMP JUMPDEST JUMPDEST DUP2 MLOAD PUSH2 0x9D2 DUP5 DUP3 PUSH1 0x20 DUP7 ADD PUSH2 0x946 JUMP JUMPDEST SWAP2 POP POP SWAP3 SWAP2 POP POP JUMP JUMPDEST PUSH0 PUSH0 PUSH1 0x40 DUP4 DUP6 SUB SLT ISZERO PUSH2 0x9F1 JUMPI PUSH2 0x9F0 PUSH2 0x7A5 JUMP JUMPDEST JUMPDEST PUSH0 DUP4 ADD MLOAD PUSH8 0xFFFFFFFFFFFFFFFF DUP2 GT ISZERO PUSH2 0xA0E JUMPI PUSH2 0xA0D PUSH2 0x7A9 JUMP JUMPDEST JUMPDEST PUSH2 0xA1A DUP6 DUP3 DUP7 ADD PUSH2 0x9AE JUMP JUMPDEST SWAP3 POP POP PUSH1 0x20 PUSH2 0xA2B DUP6 DUP3 DUP7 ADD PUSH2 0x8B2 JUMP JUMPDEST SWAP2 POP POP SWAP3 POP SWAP3 SWAP1 POP JUMP JUMPDEST PUSH0 DUP2 MLOAD SWAP1 POP SWAP2 SWAP1 POP JUMP JUMPDEST PUSH32 0x4E487B7100000000000000000000000000000000000000000000000000000000 PUSH0 MSTORE PUSH1 0x22 PUSH1 0x4 MSTORE PUSH1 0x24 PUSH0 REVERT JUMPDEST PUSH0 PUSH1 0x2 DUP3 DIV SWAP1 POP PUSH1 0x1 DUP3 AND DUP1 PUSH2 0xA83 JUMPI PUSH1 0x7F DUP3 AND SWAP2 POP JUMPDEST PUSH1 0x20 DUP3 LT DUP2 SUB PUSH2 0xA96 JUMPI PUSH2 0xA95 PUSH2 0xA3F JUMP JUMPDEST JUMPDEST POP SWAP2 SWAP1 POP JUMP JUMPDEST PUSH0 DUP2 SWAP1 POP DUP2 PUSH0 MSTORE PUSH1 0x20 PUSH0 KECCAK256 SWAP1 POP SWAP2 SWAP1 POP JUMP JUMPDEST PUSH0 PUSH1 0x20 PUSH1 0x1F DUP4 ADD DIV SWAP1 POP SWAP2 SWAP1 POP JUMP JUMPDEST PUSH0 DUP3 DUP3 SHL SWAP1 POP SWAP3 SWAP2 POP POP JUMP JUMPDEST PUSH0 PUSH1 0x8 DUP4 MUL PUSH2 0xAF8 PUSH32 0xFFFFFFFFFFFFFFFFFFFFFFFFFFFFFFFFFFFFFFFFFFFFFFFFFFFFFFFFFFFFFFFF DUP3 PUSH2 0xABD JUMP JUMPDEST PUSH2 0xB02 DUP7 DUP4 PUSH2 0xABD JUMP JUMPDEST SWAP6 POP DUP1 NOT DUP5 AND SWAP4 POP DUP1 DUP7 AND DUP5 OR SWAP3 POP POP POP SWAP4 SWAP3 POP POP POP JUMP JUMPDEST PUSH0 DUP2 SWAP1 POP SWAP2 SWAP1 POP JUMP JUMPDEST PUSH0 PUSH2 0xB3D PUSH2 0xB38 PUSH2 0xB33 DUP5 PUSH2 0x8C6 JUMP JUMPDEST PUSH2 0xB1A JUMP JUMPDEST PUSH2 0x8C6 JUMP JUMPDEST SWAP1 POP SWAP2 SWAP1 POP JUMP JUMPDEST PUSH0 DUP2 SWAP1 POP SWAP2 SWAP1 POP JUMP JUMPDEST PUSH2 0xB56 DUP4 PUSH2 0xB23 JUMP JUMPDEST PUSH2 0xB6A PUSH2 0xB62 DUP3 PUSH2 0xB44 JUMP JUMPDEST DUP5 DUP5 SLOAD PUSH2 0xAC9 JUMP JUMPDEST DUP3 SSTORE POP POP POP POP JUMP JUMPDEST PUSH0 PUSH0 SWAP1 POP SWAP1 JUMP JUMPDEST PUSH2 0xB81 PUSH2 0xB72 JUMP JUMPDEST PUSH2 0xB8C DUP2 DUP5 DUP5 PUSH2 0xB4D JUMP JUMPDEST POP POP POP JUMP JUMPDEST JUMPDEST DUP2 DUP2 LT ISZERO PUSH2 0xBAF JUMPI PUSH2 0xBA4 PUSH0 DUP3 PUSH2 0xB79 JUMP JUMPDEST PUSH1 0x1 DUP2 ADD SWAP1 POP PUSH2 0xB92 JUMP JUMPDEST POP POP JUMP JUMPDEST PUSH1 0x1F DUP3 GT ISZERO PUSH2 0xBF4 JUMPI PUSH2 0xBC5 DUP2 PUSH2 0xA9C JUMP JUMPDEST PUSH2 0xBCE DUP5 PUSH2 0xAAE JUMP JUMPDEST DUP2 ADD PUSH1 0x20 DUP6 LT ISZERO PUSH2 0xBDD JUMPI DUP2 SWAP1 POP JUMPDEST PUSH2 0xBF1 PUSH2 0xBE9 DUP6 PUSH2 0xAAE JUMP JUMPDEST DUP4 ADD DUP3 PUSH2 0xB91 JUMP JUMPDEST POP POP JUMPDEST POP POP POP JUMP JUMPDEST PUSH0 DUP3 DUP3 SHR SWAP1 POP SWAP3 SWAP2 POP POP JUMP JUMPDEST PUSH0 PUSH2 0xC14 PUSH0 NOT DUP5 PUSH1 0x8 MUL PUSH2 0xBF9 JUMP JUMPDEST NOT DUP1 DUP4 AND SWAP2 POP POP SWAP3 SWAP2 POP POP JUMP JUMPDEST PUSH0 PUSH2 0xC2C DUP4 DUP4 PUSH2 0xC05 JUMP JUMPDEST SWAP2 POP DUP3 PUSH1 0x2 MUL DUP3 OR SWAP1 POP SWAP3 SWAP2 POP POP JUMP JUMPDEST PUSH2 0xC45 DUP3 PUSH2 0xA35 JUMP JUMPDEST PUSH8 0xFFFFFFFFFFFFFFFF DUP2 GT ISZERO PUSH2 0xC5E JUMPI PUSH2 0xC5D PUSH2 0x7C1 JUMP JUMPDEST JUMPDEST PUSH2 0xC68 DUP3 SLOAD PUSH2 0xA6C JUMP JUMPDEST PUSH2 0xC73 DUP3 DUP3 DUP6 PUSH2 0xBB3 JUMP JUMPDEST PUSH0 PUSH1 0x20 SWAP1 POP PUSH1 0x1F DUP4 GT PUSH1 0x1 DUP2 EQ PUSH2 0xCA4 JUMPI PUSH0 DUP5 ISZERO PUSH2 0xC92 JUMPI DUP3 DUP8 ADD MLOAD SWAP1 POP JUMPDEST PUSH2 0xC9C DUP6 DUP3 PUSH2 0xC21 JUMP JUMPDEST DUP7 SSTORE POP PUSH2 0xD03 JUMP JUMPDEST PUSH1 0x1F NOT DUP5 AND PUSH2 0xCB2 DUP7 PUSH2 0xA9C JUMP JUMPDEST PUSH0 JUMPDEST DUP3 DUP2 LT ISZERO PUSH2 0xCD9 JUMPI DUP5 DUP10 ADD MLOAD DUP3 SSTORE PUSH1 0x1 DUP3 ADD SWAP2 POP PUSH1 0x20 DUP6 ADD SWAP5 POP PUSH1 0x20 DUP2 ADD SWAP1 POP PUSH2 0xCB4 JUMP JUMPDEST DUP7 DUP4 LT ISZERO PUSH2 0xCF6 JUMPI DUP5 DUP10 ADD MLOAD PUSH2 0xCF2 PUSH1 0x1F DUP10 AND DUP3 PUSH2 0xC05 JUMP JUMPDEST DUP4 SSTORE POP JUMPDEST PUSH1 0x1 PUSH1 0x2 DUP9 MUL ADD DUP9 SSTORE POP POP POP JUMPDEST POP POP POP POP POP POP JUMP JUMPDEST PUSH2 0xD14 DUP2 PUSH2 0x88B JUMP JUMPDEST DUP3 MSTORE POP POP JUMP JUMPDEST PUSH0 PUSH1 0x20 DUP3 ADD SWAP1 POP PUSH2 0xD2D PUSH0 DUP4 ADD DUP5 PUSH2 0xD0B JUMP JUMPDEST SWAP3 SWAP2 POP POP JUMP JUMPDEST PUSH0 DUP3 DUP3 MSTORE PUSH1 0x20 DUP3 ADD SWAP1 POP SWAP3 SWAP2 POP POP JUMP JUMPDEST PUSH32 0x4174206C65617374206F6E65207465616D206D656D6265722072657175697265 PUSH0 DUP3 ADD MSTORE PUSH32 0x6400000000000000000000000000000000000000000000000000000000000000 PUSH1 0x20 DUP3 ADD MSTORE POP JUMP JUMPDEST PUSH0 PUSH2 0xD9D PUSH1 0x21 DUP4 PUSH2 0xD33 JUMP JUMPDEST SWAP2 POP PUSH2 0xDA8 DUP3 PUSH2 0xD43 JUMP JUMPDEST PUSH1 0x40 DUP3 ADD SWAP1 POP SWAP2 SWAP1 POP JUMP JUMPDEST PUSH0 PUSH1 0x20 DUP3 ADD SWAP1 POP DUP2 DUP2 SUB PUSH0 DUP4 ADD MSTORE PUSH2 0xDCA DUP2 PUSH2 0xD91 JUMP JUMPDEST SWAP1 POP SWAP2 SWAP1 POP JUMP JUMPDEST PUSH32 0x4E487B7100000000000000000000000000000000000000000000000000000000 PUSH0 MSTORE PUSH1 0x32 PUSH1 0x4 MSTORE PUSH1 0x24 PUSH0 REVERT JUMPDEST PUSH32 0x4E487B7100000000000000000000000000000000000000000000000000000000 PUSH0 MSTORE PUSH1 0x11 PUSH1 0x4 MSTORE PUSH1 0x24 PUSH0 REVERT JUMPDEST PUSH0 PUSH2 0xE35 DUP3 PUSH2 0x8C6 JUMP JUMPDEST SWAP2 POP PUSH2 0xE40 DUP4 PUSH2 0x8C6 JUMP JUMPDEST SWAP3 POP DUP3 DUP3 ADD SWAP1 POP DUP1 DUP3 GT ISZERO PUSH2 0xE58 JUMPI PUSH2 0xE57 PUSH2 0xDFE JUMP JUMPDEST JUMPDEST SWAP3 SWAP2 POP POP JUMP JUMPDEST PUSH0 PUSH2 0xE68 DUP3 PUSH2 0x8C6 JUMP JUMPDEST SWAP2 POP PUSH2 0xE73 DUP4 PUSH2 0x8C6 JUMP JUMPDEST SWAP3 POP DUP3 DUP3 MUL PUSH2 0xE81 DUP2 PUSH2 0x8C6 JUMP JUMPDEST SWAP2 POP DUP3 DUP3 DIV DUP5 EQ DUP4 ISZERO OR PUSH2 0xE98 JUMPI PUSH2 0xE97 PUSH2 0xDFE JUMP JUMPDEST JUMPDEST POP SWAP3 SWAP2 POP POP JUMP JUMPDEST PUSH32 0x4E487B7100000000000000000000000000000000000000000000000000000000 PUSH0 MSTORE PUSH1 0x12 PUSH1 0x4 MSTORE PUSH1 0x24 PUSH0 REVERT JUMPDEST PUSH0 PUSH2 0xED6 DUP3 PUSH2 0x8C6 JUMP JUMPDEST SWAP2 POP PUSH2 0xEE1 DUP4 PUSH2 0x8C6 JUMP JUMPDEST SWAP3 POP DUP3 PUSH2 0xEF1 JUMPI PUSH2 0xEF0 PUSH2 0xE9F JUMP JUMPDEST JUMPDEST DUP3 DUP3 DIV SWAP1 POP SWAP3 SWAP2 POP POP JUMP JUMPDEST PUSH32 0x546F74616C20646973747269627574696F6E2065786365656473206D61726B65 PUSH0 DUP3 ADD MSTORE PUSH32 0x7400000000000000000000000000000000000000000000000000000000000000 PUSH1 0x20 DUP3 ADD MSTORE POP JUMP JUMPDEST PUSH0 PUSH2 0xF56 PUSH1 0x21 DUP4 PUSH2 0xD33 JUMP JUMPDEST SWAP2 POP PUSH2 0xF61 DUP3 PUSH2 0xEFC JUMP JUMPDEST PUSH1 0x40 DUP3 ADD SWAP1 POP SWAP2 SWAP1 POP JUMP JUMPDEST PUSH0 PUSH1 0x20 DUP3 ADD SWAP1 POP DUP2 DUP2 SUB PUSH0 DUP4 ADD MSTORE PUSH2 0xF83 DUP2 PUSH2 0xF4A JUMP JUMPDEST SWAP1 POP SWAP2 SWAP1 POP JUMP JUMPDEST PUSH0 PUSH2 0xF94 DUP3 PUSH2 0x8C6 JUMP JUMPDEST SWAP2 POP PUSH2 0xF9F DUP4 PUSH2 0x8C6 JUMP JUMPDEST SWAP3 POP DUP3 DUP3 SUB SWAP1 POP DUP2 DUP2 GT ISZERO PUSH2 0xFB7 JUMPI PUSH2 0xFB6 PUSH2 0xDFE JUMP JUMPDEST JUMPDEST SWAP3 SWAP2 POP POP JUMP JUMPDEST PUSH2 0xFC6 DUP2 PUSH2 0x8C6 JUMP JUMPDEST DUP3 MSTORE POP POP JUMP JUMPDEST PUSH0 PUSH1 0x60 DUP3 ADD SWAP1 POP PUSH2 0xFDF PUSH0 DUP4 ADD DUP7 PUSH2 0xD0B JUMP JUMPDEST PUSH2 0xFEC PUSH1 0x20 DUP4 ADD DUP6 PUSH2 0xFBD JUMP JUMPDEST PUSH2 0xFF9 PUSH1 0x40 DUP4 ADD DUP5 PUSH2 0xFBD JUMP JUMPDEST SWAP5 SWAP4 POP POP POP POP JUMP JUMPDEST PUSH0 PUSH1 0x20 DUP3 ADD SWAP1 POP PUSH2 0x1014 PUSH0 DUP4 ADD DUP5 PUSH2 0xFBD JUMP JUMPDEST SWAP3 SWAP2 POP POP JUMP JUMPDEST PUSH2 0x1A1E DUP1 PUSH2 0x1027 PUSH0 CODECOPY PUSH0 RETURN INVALID PUSH1 0x80 PUSH1 0x40 MSTORE CALLVALUE DUP1 ISZERO PUSH2 0xF JUMPI PUSH0 PUSH0 REVERT JUMPDEST POP PUSH1 0x4 CALLDATASIZE LT PUSH2 0x12A JUMPI PUSH0 CALLDATALOAD PUSH1 0xE0 SHR DUP1 PUSH4 0x88E56EC6 GT PUSH2 0xAB JUMPI DUP1 PUSH4 0xBDD3D825 GT PUSH2 0x6F JUMPI DUP1 PUSH4 0xBDD3D825 EQ PUSH2 0x337 JUMPI DUP1 PUSH4 0xDD62ED3E EQ PUSH2 0x355 JUMPI DUP1 PUSH4 0xEB91D37E EQ PUSH2 0x385 JUMPI DUP1 PUSH4 0xEFDED147 EQ PUSH2 0x3A3 JUMPI DUP1 PUSH4 0xF2FDE38B EQ PUSH2 0x3C1 JUMPI PUSH2 0x12A JUMP JUMPDEST DUP1 PUSH4 0x88E56EC6 EQ PUSH2 0x27C JUMPI DUP1 PUSH4 0x8DA5CB5B EQ PUSH2 0x2AD JUMPI DUP1 PUSH4 0x902D55A5 EQ PUSH2 0x2CB JUMPI DUP1 PUSH4 0x95D89B41 EQ PUSH2 0x2E9 JUMPI DUP1 PUSH4 0xA9059CBB EQ PUSH2 0x307 JUMPI PUSH2 0x12A JUMP JUMPDEST DUP1 PUSH4 0x313CE567 GT PUSH2 0xF2 JUMPI DUP1 PUSH4 0x313CE567 EQ PUSH2 0x1E8 JUMPI DUP1 PUSH4 0x35928998 EQ PUSH2 0x206 JUMPI DUP1 PUSH4 0x70A08231 EQ PUSH2 0x224 JUMPI DUP1 PUSH4 0x715018A6 EQ PUSH2 0x254 JUMPI DUP1 PUSH4 0x76AE9B2D EQ PUSH2 0x25E JUMPI PUSH2 0x12A JUMP JUMPDEST DUP1 PUSH4 0x6FDDE03 EQ PUSH2 0x12E JUMPI DUP1 PUSH4 0x95EA7B3 EQ PUSH2 0x14C JUMPI DUP1 PUSH4 0x18160DDD EQ PUSH2 0x17C JUMPI DUP1 PUSH4 0x19CA43AB EQ PUSH2 0x19A JUMPI DUP1 PUSH4 0x23B872DD EQ PUSH2 0x1B8 JUMPI JUMPDEST PUSH0 PUSH0 REVERT JUMPDEST PUSH2 0x136 PUSH2 0x3DD JUMP JUMPDEST PUSH1 0x40 MLOAD PUSH2 0x143 SWAP2 SWAP1 PUSH2 0x120F JUMP JUMPDEST PUSH1 0x40 MLOAD DUP1 SWAP2 SUB SWAP1 RETURN JUMPDEST PUSH2 0x166 PUSH1 0x4 DUP1 CALLDATASIZE SUB DUP2 ADD SWAP1 PUSH2 0x161 SWAP2 SWAP1 PUSH2 0x12C0 JUMP JUMPDEST PUSH2 0x46D JUMP JUMPDEST PUSH1 0x40 MLOAD PUSH2 0x173 SWAP2 SWAP1 PUSH2 0x1318 JUMP JUMPDEST PUSH1 0x40 MLOAD DUP1 SWAP2 SUB SWAP1 RETURN JUMPDEST PUSH2 0x184 PUSH2 0x48F JUMP JUMPDEST PUSH1 0x40 MLOAD PUSH2 0x191 SWAP2 SWAP1 PUSH2 0x1340 JUMP JUMPDEST PUSH1 0x40 MLOAD DUP1 SWAP2 SUB SWAP1 RETURN JUMPDEST PUSH2 0x1A2 PUSH2 0x498 JUMP JUMPDEST PUSH1 0x40 MLOAD PUSH2 0x1AF SWAP2 SWAP1 PUSH2 0x1340 JUMP JUMPDEST PUSH1 0x40 MLOAD DUP1 SWAP2 SUB SWAP1 RETURN JUMPDEST PUSH2 0x1D2 PUSH1 0x4 DUP1 CALLDATASIZE SUB DUP2 ADD SWAP1 PUSH2 0x1CD SWAP2 SWAP1 PUSH2 0x1359 JUMP JUMPDEST PUSH2 0x4A4 JUMP JUMPDEST PUSH1 0x40 MLOAD PUSH2 0x1DF SWAP2 SWAP1 PUSH2 0x1318 JUMP JUMPDEST PUSH1 0x40 MLOAD DUP1 SWAP2 SUB SWAP1 RETURN JUMPDEST PUSH2 0x1F0 PUSH2 0x513 JUMP JUMPDEST PUSH1 0x40 MLOAD PUSH2 0x1FD SWAP2 SWAP1 PUSH2 0x13C4 JUMP JUMPDEST PUSH1 0x40 MLOAD DUP1 SWAP2 SUB SWAP1 RETURN JUMPDEST PUSH2 0x20E PUSH2 0x51B JUMP JUMPDEST PUSH1 0x40 MLOAD PUSH2 0x21B SWAP2 SWAP1 PUSH2 0x1340 JUMP JUMPDEST PUSH1 0x40 MLOAD DUP1 SWAP2 SUB SWAP1 RETURN JUMPDEST PUSH2 0x23E PUSH1 0x4 DUP1 CALLDATASIZE SUB DUP2 ADD SWAP1 PUSH2 0x239 SWAP2 SWAP1 PUSH2 0x13DD JUMP JUMPDEST PUSH2 0x523 JUMP JUMPDEST PUSH1 0x40 MLOAD PUSH2 0x24B SWAP2 SWAP1 PUSH2 0x1340 JUMP JUMPDEST PUSH1 0x40 MLOAD DUP1 SWAP2 SUB SWAP1 RETURN JUMPDEST PUSH2 0x25C PUSH2 0x568 JUMP JUMPDEST STOP JUMPDEST PUSH2 0x266 PUSH2 0x57B JUMP JUMPDEST PUSH1 0x40 MLOAD PUSH2 0x273 SWAP2 SWAP1 PUSH2 0x1340 JUMP JUMPDEST PUSH1 0x40 MLOAD DUP1 SWAP2 SUB SWAP1 RETURN JUMPDEST PUSH2 0x296 PUSH1 0x4 DUP1 CALLDATASIZE SUB DUP2 ADD SWAP1 PUSH2 0x291 SWAP2 SWAP1 PUSH2 0x1408 JUMP JUMPDEST PUSH2 0x581 JUMP JUMPDEST PUSH1 0x40 MLOAD PUSH2 0x2A4 SWAP3 SWAP2 SWAP1 PUSH2 0x1442 JUMP JUMPDEST PUSH1 0x40 MLOAD DUP1 SWAP2 SUB SWAP1 RETURN JUMPDEST PUSH2 0x2B5 PUSH2 0x669 JUMP JUMPDEST PUSH1 0x40 MLOAD PUSH2 0x2C2 SWAP2 SWAP1 PUSH2 0x1469 JUMP JUMPDEST PUSH1 0x40 MLOAD DUP1 SWAP2 SUB SWAP1 RETURN JUMPDEST PUSH2 0x2D3 PUSH2 0x691 JUMP JUMPDEST PUSH1 0x40 MLOAD PUSH2 0x2E0 SWAP2 SWAP1 PUSH2 0x1340 JUMP JUMPDEST PUSH1 0x40 MLOAD DUP1 SWAP2 SUB SWAP1 RETURN JUMPDEST PUSH2 0x2F1 PUSH2 0x6A0 JUMP JUMPDEST PUSH1 0x40 MLOAD PUSH2 0x2FE SWAP2 SWAP1 PUSH2 0x120F JUMP JUMPDEST PUSH1 0x40 MLOAD DUP1 SWAP2 SUB SWAP1 RETURN JUMPDEST PUSH2 0x321 PUSH1 0x4 DUP1 CALLDATASIZE SUB DUP2 ADD SWAP1 PUSH2 0x31C SWAP2 SWAP1 PUSH2 0x12C0 JUMP JUMPDEST PUSH2 0x730 JUMP JUMPDEST PUSH1 0x40 MLOAD PUSH2 0x32E SWAP2 SWAP1 PUSH2 0x1318 JUMP JUMPDEST PUSH1 0x40 MLOAD DUP1 SWAP2 SUB SWAP1 RETURN JUMPDEST PUSH2 0x33F PUSH2 0x79D JUMP JUMPDEST PUSH1 0x40 MLOAD PUSH2 0x34C SWAP2 SWAP1 PUSH2 0x1469 JUMP JUMPDEST PUSH1 0x40 MLOAD DUP1 SWAP2 SUB SWAP1 RETURN JUMPDEST PUSH2 0x36F PUSH1 0x4 DUP1 CALLDATASIZE SUB DUP2 ADD SWAP1 PUSH2 0x36A SWAP2 SWAP1 PUSH2 0x1482 JUMP JUMPDEST PUSH2 0x7C2 JUMP JUMPDEST PUSH1 0x40 MLOAD PUSH2 0x37C SWAP2 SWAP1 PUSH2 0x1340 JUMP JUMPDEST PUSH1 0x40 MLOAD DUP1 SWAP2 SUB SWAP1 RETURN JUMPDEST PUSH2 0x38D PUSH2 0x844 JUMP JUMPDEST PUSH1 0x40 MLOAD PUSH2 0x39A SWAP2 SWAP1 PUSH2 0x1340 JUMP JUMPDEST PUSH1 0x40 MLOAD DUP1 SWAP2 SUB SWAP1 RETURN JUMPDEST PUSH2 0x3AB PUSH2 0x943 JUMP JUMPDEST PUSH1 0x40 MLOAD PUSH2 0x3B8 SWAP2 SWAP1 PUSH2 0x15B3 JUMP JUMPDEST PUSH1 0x40 MLOAD DUP1 SWAP2 SUB SWAP1 RETURN JUMPDEST PUSH2 0x3DB PUSH1 0x4 DUP1 CALLDATASIZE SUB DUP2 ADD SWAP1 PUSH2 0x3D6 SWAP2 SWAP1 PUSH2 0x13DD JUMP JUMPDEST PUSH2 0x9FD JUMP JUMPDEST STOP JUMPDEST PUSH1 0x60 PUSH1 0x3 DUP1 SLOAD PUSH2 0x3EC SWAP1 PUSH2 0x1600 JUMP JUMPDEST DUP1 PUSH1 0x1F ADD PUSH1 0x20 DUP1 SWAP2 DIV MUL PUSH1 0x20 ADD PUSH1 0x40 MLOAD SWAP1 DUP2 ADD PUSH1 0x40 MSTORE DUP1 SWAP3 SWAP2 SWAP1 DUP2 DUP2 MSTORE PUSH1 0x20 ADD DUP3 DUP1 SLOAD PUSH2 0x418 SWAP1 PUSH2 0x1600 JUMP JUMPDEST DUP1 ISZERO PUSH2 0x463 JUMPI DUP1 PUSH1 0x1F LT PUSH2 0x43A JUMPI PUSH2 0x100 DUP1 DUP4 SLOAD DIV MUL DUP4 MSTORE SWAP2 PUSH1 0x20 ADD SWAP2 PUSH2 0x463 JUMP JUMPDEST DUP3 ADD SWAP2 SWAP1 PUSH0 MSTORE PUSH1 0x20 PUSH0 KECCAK256 SWAP1 JUMPDEST DUP2 SLOAD DUP2 MSTORE SWAP1 PUSH1 0x1 ADD SWAP1 PUSH1 0x20 ADD DUP1 DUP4 GT PUSH2 0x446 JUMPI DUP3 SWAP1 SUB PUSH1 0x1F AND DUP3 ADD SWAP2 JUMPDEST POP POP POP POP POP SWAP1 POP SWAP1 JUMP JUMPDEST PUSH0 PUSH0 PUSH2 0x477 PUSH2 0xA81 JUMP JUMPDEST SWAP1 POP PUSH2 0x484 DUP2 DUP6 DUP6 PUSH2 0xA88 JUMP JUMPDEST PUSH1 0x1 SWAP2 POP POP SWAP3 SWAP2 POP POP JUMP JUMPDEST PUSH0 PUSH1 0x2 SLOAD SWAP1 POP SWAP1 JUMP JUMPDEST PUSH0 PUSH1 0x6 DUP1 SLOAD SWAP1 POP SWAP1 POP SWAP1 JUMP JUMPDEST PUSH0 DUP2 PUSH1 0x7 SLOAD TIMESTAMP LT ISZERO DUP1 PUSH2 0x4BF JUMPI POP DUP1 PUSH2 0x4BC CALLER PUSH2 0x523 JUMP JUMPDEST LT ISZERO JUMPDEST PUSH2 0x4FE JUMPI PUSH1 0x40 MLOAD PUSH32 0x8C379A000000000000000000000000000000000000000000000000000000000 DUP2 MSTORE PUSH1 0x4 ADD PUSH2 0x4F5 SWAP1 PUSH2 0x167A JUMP JUMPDEST PUSH1 0x40 MLOAD DUP1 SWAP2 SUB SWAP1 REVERT JUMPDEST PUSH2 0x509 DUP6 DUP6 DUP6 PUSH2 0xA9A JUMP JUMPDEST SWAP2 POP POP SWAP4 SWAP3 POP POP POP JUMP JUMPDEST PUSH0 PUSH1 0x12 SWAP1 POP SWAP1 JUMP JUMPDEST PUSH4 0x5A39A80 DUP2 JUMP JUMPDEST PUSH0 PUSH0 PUSH0 DUP4 PUSH20 0xFFFFFFFFFFFFFFFFFFFFFFFFFFFFFFFFFFFFFFFF AND PUSH20 0xFFFFFFFFFFFFFFFFFFFFFFFFFFFFFFFFFFFFFFFF AND DUP2 MSTORE PUSH1 0x20 ADD SWAP1 DUP2 MSTORE PUSH1 0x20 ADD PUSH0 KECCAK256 SLOAD SWAP1 POP SWAP2 SWAP1 POP JUMP JUMPDEST PUSH2 0x570 PUSH2 0xAC8 JUMP JUMPDEST PUSH2 0x579 PUSH0 PUSH2 0xB4F JUMP JUMPDEST JUMP JUMPDEST PUSH1 0x7 SLOAD DUP2 JUMP JUMPDEST PUSH0 PUSH0 PUSH1 0x6 DUP1 SLOAD SWAP1 POP DUP4 LT PUSH2 0x5CA JUMPI PUSH1 0x40 MLOAD PUSH32 0x8C379A000000000000000000000000000000000000000000000000000000000 DUP2 MSTORE PUSH1 0x4 ADD PUSH2 0x5C1 SWAP1 PUSH2 0x16E2 JUMP JUMPDEST PUSH1 0x40 MLOAD DUP1 SWAP2 SUB SWAP1 REVERT JUMPDEST PUSH0 PUSH1 0x6 DUP5 DUP2 SLOAD DUP2 LT PUSH2 0x5DF JUMPI PUSH2 0x5DE PUSH2 0x1700 JUMP JUMPDEST JUMPDEST SWAP1 PUSH0 MSTORE PUSH1 0x20 PUSH0 KECCAK256 SWAP1 PUSH1 0x2 MUL ADD PUSH1 0x40 MLOAD DUP1 PUSH1 0x40 ADD PUSH1 0x40 MSTORE SWAP1 DUP2 PUSH0 DUP3 ADD PUSH0 SWAP1 SLOAD SWAP1 PUSH2 0x100 EXP SWAP1 DIV PUSH20 0xFFFFFFFFFFFFFFFFFFFFFFFFFFFFFFFFFFFFFFFF AND PUSH20 0xFFFFFFFFFFFFFFFFFFFFFFFFFFFFFFFFFFFFFFFF AND PUSH20 0xFFFFFFFFFFFFFFFFFFFFFFFFFFFFFFFFFFFFFFFF AND DUP2 MSTORE PUSH1 0x20 ADD PUSH1 0x1 DUP3 ADD SLOAD DUP2 MSTORE POP POP SWAP1 POP DUP1 PUSH0 ADD MLOAD DUP2 PUSH1 0x20 ADD MLOAD SWAP3 POP SWAP3 POP POP SWAP2 POP SWAP2 JUMP JUMPDEST PUSH0 PUSH1 0x5 PUSH0 SWAP1 SLOAD SWAP1 PUSH2 0x100 EXP SWAP1 DIV PUSH20 0xFFFFFFFFFFFFFFFFFFFFFFFFFFFFFFFFFFFFFFFF AND SWAP1 POP SWAP1 JUMP JUMPDEST PUSH11 0x9B18AB5DF7180B6B800000 DUP2 JUMP JUMPDEST PUSH1 0x60 PUSH1 0x4 DUP1 SLOAD PUSH2 0x6AF SWAP1 PUSH2 0x1600 JUMP JUMPDEST DUP1 PUSH1 0x1F ADD PUSH1 0x20 DUP1 SWAP2 DIV MUL PUSH1 0x20 ADD PUSH1 0x40 MLOAD SWAP1 DUP2 ADD PUSH1 0x40 MSTORE DUP1 SWAP3 SWAP2 SWAP1 DUP2 DUP2 MSTORE PUSH1 0x20 ADD DUP3 DUP1 SLOAD PUSH2 0x6DB SWAP1 PUSH2 0x1600 JUMP JUMPDEST DUP1 ISZERO PUSH2 0x726 JUMPI DUP1 PUSH1 0x1F LT PUSH2 0x6FD JUMPI PUSH2 0x100 DUP1 DUP4 SLOAD DIV MUL DUP4 MSTORE SWAP2 PUSH1 0x20 ADD SWAP2 PUSH2 0x726 JUMP JUMPDEST DUP3 ADD SWAP2 SWAP1 PUSH0 MSTORE PUSH1 0x20 PUSH0 KECCAK256 SWAP1 JUMPDEST DUP2 SLOAD DUP2 MSTORE SWAP1 PUSH1 0x1 ADD SWAP1 PUSH1 0x20 ADD DUP1 DUP4 GT PUSH2 0x709 JUMPI DUP3 SWAP1 SUB PUSH1 0x1F AND DUP3 ADD SWAP2 JUMPDEST POP POP POP POP POP SWAP1 POP SWAP1 JUMP JUMPDEST PUSH0 DUP2 PUSH1 0x7 SLOAD TIMESTAMP LT ISZERO DUP1 PUSH2 0x74B JUMPI POP DUP1 PUSH2 0x748 CALLER PUSH2 0x523 JUMP JUMPDEST LT ISZERO JUMPDEST PUSH2 0x78A JUMPI PUSH1 0x40 MLOAD PUSH32 0x8C379A000000000000000000000000000000000000000000000000000000000 DUP2 MSTORE PUSH1 0x4 ADD PUSH2 0x781 SWAP1 PUSH2 0x167A JUMP JUMPDEST PUSH1 0x40 MLOAD DUP1 SWAP2 SUB SWAP1 REVERT JUMPDEST PUSH2 0x794 DUP5 DUP5 PUSH2 0xC12 JUMP JUMPDEST SWAP2 POP POP SWAP3 SWAP2 POP POP JUMP JUMPDEST PUSH1 0x8 PUSH0 SWAP1 SLOAD SWAP1 PUSH2 0x100 EXP SWAP1 DIV PUSH20 0xFFFFFFFFFFFFFFFFFFFFFFFFFFFFFFFFFFFFFFFF AND DUP2 JUMP JUMPDEST PUSH0 PUSH1 0x1 PUSH0 DUP5 PUSH20 0xFFFFFFFFFFFFFFFFFFFFFFFFFFFFFFFFFFFFFFFF AND PUSH20 0xFFFFFFFFFFFFFFFFFFFFFFFFFFFFFFFFFFFFFFFF AND DUP2 MSTORE PUSH1 0x20 ADD SWAP1 DUP2 MSTORE PUSH1 0x20 ADD PUSH0 KECCAK256 PUSH0 DUP4 PUSH20 0xFFFFFFFFFFFFFFFFFFFFFFFFFFFFFFFFFFFFFFFF AND PUSH20 0xFFFFFFFFFFFFFFFFFFFFFFFFFFFFFFFFFFFFFFFF AND DUP2 MSTORE PUSH1 0x20 ADD SWAP1 DUP2 MSTORE PUSH1 0x20 ADD PUSH0 KECCAK256 SLOAD SWAP1 POP SWAP3 SWAP2 POP POP JUMP JUMPDEST PUSH0 PUSH0 PUSH1 0x8 PUSH0 SWAP1 SLOAD SWAP1 PUSH2 0x100 EXP SWAP1 DIV PUSH20 0xFFFFFFFFFFFFFFFFFFFFFFFFFFFFFFFFFFFFFFFF AND SWAP1 POP PUSH0 DUP2 PUSH20 0xFFFFFFFFFFFFFFFFFFFFFFFFFFFFFFFFFFFFFFFF AND PUSH4 0x3850C7BD PUSH1 0x40 MLOAD DUP2 PUSH4 0xFFFFFFFF AND PUSH1 0xE0 SHL DUP2 MSTORE PUSH1 0x4 ADD PUSH1 0xE0 PUSH1 0x40 MLOAD DUP1 DUP4 SUB DUP2 DUP7 GAS STATICCALL ISZERO DUP1 ISZERO PUSH2 0x8B4 JUMPI RETURNDATASIZE PUSH0 PUSH0 RETURNDATACOPY RETURNDATASIZE PUSH0 REVERT JUMPDEST POP POP POP POP PUSH1 0x40 MLOAD RETURNDATASIZE PUSH1 0x1F NOT PUSH1 0x1F DUP3 ADD AND DUP3 ADD DUP1 PUSH1 0x40 MSTORE POP DUP2 ADD SWAP1 PUSH2 0x8D8 SWAP2 SWAP1 PUSH2 0x1818 JUMP JUMPDEST POP POP POP POP POP POP SWAP1 POP PUSH25 0x1000000000000000000000000000000000000000000000000 DUP2 PUSH20 0xFFFFFFFFFFFFFFFFFFFFFFFFFFFFFFFFFFFFFFFF AND DUP3 PUSH20 0xFFFFFFFFFFFFFFFFFFFFFFFFFFFFFFFFFFFFFFFF AND PUSH2 0x932 SWAP2 SWAP1 PUSH2 0x18E2 JUMP JUMPDEST PUSH2 0x93C SWAP2 SWAP1 PUSH2 0x1950 JUMP JUMPDEST SWAP3 POP POP POP SWAP1 JUMP JUMPDEST PUSH1 0x60 PUSH1 0x6 DUP1 SLOAD DUP1 PUSH1 0x20 MUL PUSH1 0x20 ADD PUSH1 0x40 MLOAD SWAP1 DUP2 ADD PUSH1 0x40 MSTORE DUP1 SWAP3 SWAP2 SWAP1 DUP2 DUP2 MSTORE PUSH1 0x20 ADD PUSH0 SWAP1 JUMPDEST DUP3 DUP3 LT ISZERO PUSH2 0x9F4 JUMPI DUP4 DUP3 SWAP1 PUSH0 MSTORE PUSH1 0x20 PUSH0 KECCAK256 SWAP1 PUSH1 0x2 MUL ADD PUSH1 0x40 MLOAD DUP1 PUSH1 0x40 ADD PUSH1 0x40 MSTORE SWAP1 DUP2 PUSH0 DUP3 ADD PUSH0 SWAP1 SLOAD SWAP1 PUSH2 0x100 EXP SWAP1 DIV PUSH20 0xFFFFFFFFFFFFFFFFFFFFFFFFFFFFFFFFFFFFFFFF AND PUSH20 0xFFFFFFFFFFFFFFFFFFFFFFFFFFFFFFFFFFFFFFFF AND PUSH20 0xFFFFFFFFFFFFFFFFFFFFFFFFFFFFFFFFFFFFFFFF AND DUP2 MSTORE PUSH1 0x20 ADD PUSH1 0x1 DUP3 ADD SLOAD DUP2 MSTORE POP POP DUP2 MSTORE PUSH1 0x20 ADD SWAP1 PUSH1 0x1 ADD SWAP1 PUSH2 0x966 JUMP JUMPDEST POP POP POP POP SWAP1 POP SWAP1 JUMP JUMPDEST PUSH2 0xA05 PUSH2 0xAC8 JUMP JUMPDEST PUSH0 PUSH20 0xFFFFFFFFFFFFFFFFFFFFFFFFFFFFFFFFFFFFFFFF AND DUP2 PUSH20 0xFFFFFFFFFFFFFFFFFFFFFFFFFFFFFFFFFFFFFFFF AND SUB PUSH2 0xA75 JUMPI PUSH0 PUSH1 0x40 MLOAD PUSH32 0x1E4FBDF700000000000000000000000000000000000000000000000000000000 DUP2 MSTORE PUSH1 0x4 ADD PUSH2 0xA6C SWAP2 SWAP1 PUSH2 0x1469 JUMP JUMPDEST PUSH1 0x40 MLOAD DUP1 SWAP2 SUB SWAP1 REVERT JUMPDEST PUSH2 0xA7E DUP2 PUSH2 0xB4F JUMP JUMPDEST POP JUMP JUMPDEST PUSH0 CALLER SWAP1 POP SWAP1 JUMP JUMPDEST PUSH2 0xA95 DUP4 DUP4 DUP4 PUSH1 0x1 PUSH2 0xC34 JUMP JUMPDEST POP POP POP JUMP JUMPDEST PUSH0 PUSH0 PUSH2 0xAA4 PUSH2 0xA81 JUMP JUMPDEST SWAP1 POP PUSH2 0xAB1 DUP6 DUP3 DUP6 PUSH2 0xE03 JUMP JUMPDEST PUSH2 0xABC DUP6 DUP6 DUP6 PUSH2 0xE96 JUMP JUMPDEST PUSH1 0x1 SWAP2 POP POP SWAP4 SWAP3 POP POP POP JUMP JUMPDEST PUSH2 0xAD0 PUSH2 0xA81 JUMP JUMPDEST PUSH20 0xFFFFFFFFFFFFFFFFFFFFFFFFFFFFFFFFFFFFFFFF AND PUSH2 0xAEE PUSH2 0x669 JUMP JUMPDEST PUSH20 0xFFFFFFFFFFFFFFFFFFFFFFFFFFFFFFFFFFFFFFFF AND EQ PUSH2 0xB4D JUMPI PUSH2 0xB11 PUSH2 0xA81 JUMP JUMPDEST PUSH1 0x40 MLOAD PUSH32 0x118CDAA700000000000000000000000000000000000000000000000000000000 DUP2 MSTORE PUSH1 0x4 ADD PUSH2 0xB44 SWAP2 SWAP1 PUSH2 0x1469 JUMP JUMPDEST PUSH1 0x40 MLOAD DUP1 SWAP2 SUB SWAP1 REVERT JUMPDEST JUMP JUMPDEST PUSH0 PUSH1 0x5 PUSH0 SWAP1 SLOAD SWAP1 PUSH2 0x100 EXP SWAP1 DIV PUSH20 0xFFFFFFFFFFFFFFFFFFFFFFFFFFFFFFFFFFFFFFFF AND SWAP1 POP DUP2 PUSH1 0x5 PUSH0 PUSH2 0x100 EXP DUP2 SLOAD DUP2 PUSH20 0xFFFFFFFFFFFFFFFFFFFFFFFFFFFFFFFFFFFFFFFF MUL NOT AND SWAP1 DUP4 PUSH20 0xFFFFFFFFFFFFFFFFFFFFFFFFFFFFFFFFFFFFFFFF AND MUL OR SWAP1 SSTORE POP DUP2 PUSH20 0xFFFFFFFFFFFFFFFFFFFFFFFFFFFFFFFFFFFFFFFF AND DUP2 PUSH20 0xFFFFFFFFFFFFFFFFFFFFFFFFFFFFFFFFFFFFFFFF AND PUSH32 0x8BE0079C531659141344CD1FD0A4F28419497F9722A3DAAFE3B4186F6B6457E0 PUSH1 0x40 MLOAD PUSH1 0x40 MLOAD DUP1 SWAP2 SUB SWAP1 LOG3 POP POP JUMP JUMPDEST PUSH0 PUSH0 PUSH2 0xC1C PUSH2 0xA81 JUMP JUMPDEST SWAP1 POP PUSH2 0xC29 DUP2 DUP6 DUP6 PUSH2 0xE96 JUMP JUMPDEST PUSH1 0x1 SWAP2 POP POP SWAP3 SWAP2 POP POP JUMP JUMPDEST PUSH0 PUSH20 0xFFFFFFFFFFFFFFFFFFFFFFFFFFFFFFFFFFFFFFFF AND DUP5 PUSH20 0xFFFFFFFFFFFFFFFFFFFFFFFFFFFFFFFFFFFFFFFF AND SUB PUSH2 0xCA4 JUMPI PUSH0 PUSH1 0x40 MLOAD PUSH32 0xE602DF0500000000000000000000000000000000000000000000000000000000 DUP2 MSTORE PUSH1 0x4 ADD PUSH2 0xC9B SWAP2 SWAP1 PUSH2 0x1469 JUMP JUMPDEST PUSH1 0x40 MLOAD DUP1 SWAP2 SUB SWAP1 REVERT JUMPDEST PUSH0 PUSH20 0xFFFFFFFFFFFFFFFFFFFFFFFFFFFFFFFFFFFFFFFF AND DUP4 PUSH20 0xFFFFFFFFFFFFFFFFFFFFFFFFFFFFFFFFFFFFFFFF AND SUB PUSH2 0xD14 JUMPI PUSH0 PUSH1 0x40 MLOAD PUSH32 0x94280D6200000000000000000000000000000000000000000000000000000000 DUP2 MSTORE PUSH1 0x4 ADD PUSH2 0xD0B SWAP2 SWAP1 PUSH2 0x1469 JUMP JUMPDEST PUSH1 0x40 MLOAD DUP1 SWAP2 SUB SWAP1 REVERT JUMPDEST DUP2 PUSH1 0x1 PUSH0 DUP7 PUSH20 0xFFFFFFFFFFFFFFFFFFFFFFFFFFFFFFFFFFFFFFFF AND PUSH20 0xFFFFFFFFFFFFFFFFFFFFFFFFFFFFFFFFFFFFFFFF AND DUP2 MSTORE PUSH1 0x20 ADD SWAP1 DUP2 MSTORE PUSH1 0x20 ADD PUSH0 KECCAK256 PUSH0 DUP6 PUSH20 0xFFFFFFFFFFFFFFFFFFFFFFFFFFFFFFFFFFFFFFFF AND PUSH20 0xFFFFFFFFFFFFFFFFFFFFFFFFFFFFFFFFFFFFFFFF AND DUP2 MSTORE PUSH1 0x20 ADD SWAP1 DUP2 MSTORE PUSH1 0x20 ADD PUSH0 KECCAK256 DUP2 SWAP1 SSTORE POP DUP1 ISZERO PUSH2 0xDFD JUMPI DUP3 PUSH20 0xFFFFFFFFFFFFFFFFFFFFFFFFFFFFFFFFFFFFFFFF AND DUP5 PUSH20 0xFFFFFFFFFFFFFFFFFFFFFFFFFFFFFFFFFFFFFFFF AND PUSH32 0x8C5BE1E5EBEC7D5BD14F71427D1E84F3DD0314C0F7B2291E5B200AC8C7C3B925 DUP5 PUSH1 0x40 MLOAD PUSH2 0xDF4 SWAP2 SWAP1 PUSH2 0x1340 JUMP JUMPDEST PUSH1 0x40 MLOAD DUP1 SWAP2 SUB SWAP1 LOG3 JUMPDEST POP POP POP POP JUMP JUMPDEST PUSH0 PUSH2 0xE0E DUP5 DUP5 PUSH2 0x7C2 JUMP JUMPDEST SWAP1 POP PUSH32 0xFFFFFFFFFFFFFFFFFFFFFFFFFFFFFFFFFFFFFFFFFFFFFFFFFFFFFFFFFFFFFFFF DUP2 LT ISZERO PUSH2 0xE90 JUMPI DUP2 DUP2 LT ISZERO PUSH2 0xE81 JUMPI DUP3 DUP2 DUP4 PUSH1 0x40 MLOAD PUSH32 0xFB8F41B200000000000000000000000000000000000000000000000000000000 DUP2 MSTORE PUSH1 0x4 ADD PUSH2 0xE78 SWAP4 SWAP3 SWAP2 SWAP1 PUSH2 0x1980 JUMP JUMPDEST PUSH1 0x40 MLOAD DUP1 SWAP2 SUB SWAP1 REVERT JUMPDEST PUSH2 0xE8F DUP5 DUP5 DUP5 DUP5 SUB PUSH0 PUSH2 0xC34 JUMP JUMPDEST JUMPDEST POP POP POP POP JUMP JUMPDEST PUSH0 PUSH20 0xFFFFFFFFFFFFFFFFFFFFFFFFFFFFFFFFFFFFFFFF AND DUP4 PUSH20 0xFFFFFFFFFFFFFFFFFFFFFFFFFFFFFFFFFFFFFFFF AND SUB PUSH2 0xF06 JUMPI PUSH0 PUSH1 0x40 MLOAD PUSH32 0x96C6FD1E00000000000000000000000000000000000000000000000000000000 DUP2 MSTORE PUSH1 0x4 ADD PUSH2 0xEFD SWAP2 SWAP1 PUSH2 0x1469 JUMP JUMPDEST PUSH1 0x40 MLOAD DUP1 SWAP2 SUB SWAP1 REVERT JUMPDEST PUSH0 PUSH20 0xFFFFFFFFFFFFFFFFFFFFFFFFFFFFFFFFFFFFFFFF AND DUP3 PUSH20 0xFFFFFFFFFFFFFFFFFFFFFFFFFFFFFFFFFFFFFFFF AND SUB PUSH2 0xF76 JUMPI PUSH0 PUSH1 0x40 MLOAD PUSH32 0xEC442F0500000000000000000000000000000000000000000000000000000000 DUP2 MSTORE PUSH1 0x4 ADD PUSH2 0xF6D SWAP2 SWAP1 PUSH2 0x1469 JUMP JUMPDEST PUSH1 0x40 MLOAD DUP1 SWAP2 SUB SWAP1 REVERT JUMPDEST PUSH2 0xF81 DUP4 DUP4 DUP4 PUSH2 0xF86 JUMP JUMPDEST POP POP POP JUMP JUMPDEST PUSH0 PUSH20 0xFFFFFFFFFFFFFFFFFFFFFFFFFFFFFFFFFFFFFFFF AND DUP4 PUSH20 0xFFFFFFFFFFFFFFFFFFFFFFFFFFFFFFFFFFFFFFFF AND SUB PUSH2 0xFD6 JUMPI DUP1 PUSH1 0x2 PUSH0 DUP3 DUP3 SLOAD PUSH2 0xFCA SWAP2 SWAP1 PUSH2 0x19B5 JUMP JUMPDEST SWAP3 POP POP DUP2 SWAP1 SSTORE POP PUSH2 0x10A4 JUMP JUMPDEST PUSH0 PUSH0 PUSH0 DUP6 PUSH20 0xFFFFFFFFFFFFFFFFFFFFFFFFFFFFFFFFFFFFFFFF AND PUSH20 0xFFFFFFFFFFFFFFFFFFFFFFFFFFFFFFFFFFFFFFFF AND DUP2 MSTORE PUSH1 0x20 ADD SWAP1 DUP2 MSTORE PUSH1 0x20 ADD PUSH0 KECCAK256 SLOAD SWAP1 POP DUP2 DUP2 LT ISZERO PUSH2 0x105F JUMPI DUP4 DUP2 DUP4 PUSH1 0x40 MLOAD PUSH32 0xE450D38C00000000000000000000000000000000000000000000000000000000 DUP2 MSTORE PUSH1 0x4 ADD PUSH2 0x1056 SWAP4 SWAP3 SWAP2 SWAP1 PUSH2 0x1980 JUMP JUMPDEST PUSH1 0x40 MLOAD DUP1 SWAP2 SUB SWAP1 REVERT JUMPDEST DUP2 DUP2 SUB PUSH0 PUSH0 DUP7 PUSH20 0xFFFFFFFFFFFFFFFFFFFFFFFFFFFFFFFFFFFFFFFF AND PUSH20 0xFFFFFFFFFFFFFFFFFFFFFFFFFFFFFFFFFFFFFFFF AND DUP2 MSTORE PUSH1 0x20 ADD SWAP1 DUP2 MSTORE PUSH1 0x20 ADD PUSH0 KECCAK256 DUP2 SWAP1 SSTORE POP POP JUMPDEST PUSH0 PUSH20 0xFFFFFFFFFFFFFFFFFFFFFFFFFFFFFFFFFFFFFFFF AND DUP3 PUSH20 0xFFFFFFFFFFFFFFFFFFFFFFFFFFFFFFFFFFFFFFFF AND SUB PUSH2 0x10EB JUMPI DUP1 PUSH1 0x2 PUSH0 DUP3 DUP3 SLOAD SUB SWAP3 POP POP DUP2 SWAP1 SSTORE POP PUSH2 0x1135 JUMP JUMPDEST DUP1 PUSH0 PUSH0 DUP5 PUSH20 0xFFFFFFFFFFFFFFFFFFFFFFFFFFFFFFFFFFFFFFFF AND PUSH20 0xFFFFFFFFFFFFFFFFFFFFFFFFFFFFFFFFFFFFFFFF AND DUP2 MSTORE PUSH1 0x20 ADD SWAP1 DUP2 MSTORE PUSH1 0x20 ADD PUSH0 KECCAK256 PUSH0 DUP3 DUP3 SLOAD ADD SWAP3 POP POP DUP2 SWAP1 SSTORE POP JUMPDEST DUP2 PUSH20 0xFFFFFFFFFFFFFFFFFFFFFFFFFFFFFFFFFFFFFFFF AND DUP4 PUSH20 0xFFFFFFFFFFFFFFFFFFFFFFFFFFFFFFFFFFFFFFFF AND PUSH32 0xDDF252AD1BE2C89B69C2B068FC378DAA952BA7F163C4A11628F55A4DF523B3EF DUP4 PUSH1 0x40 MLOAD PUSH2 0x1192 SWAP2 SWAP1 PUSH2 0x1340 JUMP JUMPDEST PUSH1 0x40 MLOAD DUP1 SWAP2 SUB SWAP1 LOG3 POP POP POP JUMP JUMPDEST PUSH0 DUP2 MLOAD SWAP1 POP SWAP2 SWAP1 POP JUMP JUMPDEST PUSH0 DUP3 DUP3 MSTORE PUSH1 0x20 DUP3 ADD SWAP1 POP SWAP3 SWAP2 POP POP JUMP JUMPDEST DUP3 DUP2 DUP4 MCOPY PUSH0 DUP4 DUP4 ADD MSTORE POP POP POP JUMP JUMPDEST PUSH0 PUSH1 0x1F NOT PUSH1 0x1F DUP4 ADD AND SWAP1 POP SWAP2 SWAP1 POP JUMP JUMPDEST PUSH0 PUSH2 0x11E1 DUP3 PUSH2 0x119F JUMP JUMPDEST PUSH2 0x11EB DUP2 DUP6 PUSH2 0x11A9 JUMP JUMPDEST SWAP4 POP PUSH2 0x11FB DUP2 DUP6 PUSH1 0x20 DUP7 ADD PUSH2 0x11B9 JUMP JUMPDEST PUSH2 0x1204 DUP2 PUSH2 0x11C7 JUMP JUMPDEST DUP5 ADD SWAP2 POP POP SWAP3 SWAP2 POP POP JUMP JUMPDEST PUSH0 PUSH1 0x20 DUP3 ADD SWAP1 POP DUP2 DUP2 SUB PUSH0 DUP4 ADD MSTORE PUSH2 0x1227 DUP2 DUP5 PUSH2 0x11D7 JUMP JUMPDEST SWAP1 POP SWAP3 SWAP2 POP POP JUMP JUMPDEST PUSH0 PUSH0 REVERT JUMPDEST PUSH0 PUSH20 0xFFFFFFFFFFFFFFFFFFFFFFFFFFFFFFFFFFFFFFFF DUP3 AND SWAP1 POP SWAP2 SWAP1 POP JUMP JUMPDEST PUSH0 PUSH2 0x125C DUP3 PUSH2 0x1233 JUMP JUMPDEST SWAP1 POP SWAP2 SWAP1 POP JUMP JUMPDEST PUSH2 0x126C DUP2 PUSH2 0x1252 JUMP JUMPDEST DUP2 EQ PUSH2 0x1276 JUMPI PUSH0 PUSH0 REVERT JUMPDEST POP JUMP JUMPDEST PUSH0 DUP2 CALLDATALOAD SWAP1 POP PUSH2 0x1287 DUP2 PUSH2 0x1263 JUMP JUMPDEST SWAP3 SWAP2 POP POP JUMP JUMPDEST PUSH0 DUP2 SWAP1 POP SWAP2 SWAP1 POP JUMP JUMPDEST PUSH2 0x129F DUP2 PUSH2 0x128D JUMP JUMPDEST DUP2 EQ PUSH2 0x12A9 JUMPI PUSH0 PUSH0 REVERT JUMPDEST POP JUMP JUMPDEST PUSH0 DUP2 CALLDATALOAD SWAP1 POP PUSH2 0x12BA DUP2 PUSH2 0x1296 JUMP JUMPDEST SWAP3 SWAP2 POP POP JUMP JUMPDEST PUSH0 PUSH0 PUSH1 0x40 DUP4 DUP6 SUB SLT ISZERO PUSH2 0x12D6 JUMPI PUSH2 0x12D5 PUSH2 0x122F JUMP JUMPDEST JUMPDEST PUSH0 PUSH2 0x12E3 DUP6 DUP3 DUP7 ADD PUSH2 0x1279 JUMP JUMPDEST SWAP3 POP POP PUSH1 0x20 PUSH2 0x12F4 DUP6 DUP3 DUP7 ADD PUSH2 0x12AC JUMP JUMPDEST SWAP2 POP POP SWAP3 POP SWAP3 SWAP1 POP JUMP JUMPDEST PUSH0 DUP2 ISZERO ISZERO SWAP1 POP SWAP2 SWAP1 POP JUMP JUMPDEST PUSH2 0x1312 DUP2 PUSH2 0x12FE JUMP JUMPDEST DUP3 MSTORE POP POP JUMP JUMPDEST PUSH0 PUSH1 0x20 DUP3 ADD SWAP1 POP PUSH2 0x132B PUSH0 DUP4 ADD DUP5 PUSH2 0x1309 JUMP JUMPDEST SWAP3 SWAP2 POP POP JUMP JUMPDEST PUSH2 0x133A DUP2 PUSH2 0x128D JUMP JUMPDEST DUP3 MSTORE POP POP JUMP JUMPDEST PUSH0 PUSH1 0x20 DUP3 ADD SWAP1 POP PUSH2 0x1353 PUSH0 DUP4 ADD DUP5 PUSH2 0x1331 JUMP JUMPDEST SWAP3 SWAP2 POP POP JUMP JUMPDEST PUSH0 PUSH0 PUSH0 PUSH1 0x60 DUP5 DUP7 SUB SLT ISZERO PUSH2 0x1370 JUMPI PUSH2 0x136F PUSH2 0x122F JUMP JUMPDEST JUMPDEST PUSH0 PUSH2 0x137D DUP7 DUP3 DUP8 ADD PUSH2 0x1279 JUMP JUMPDEST SWAP4 POP POP PUSH1 0x20 PUSH2 0x138E DUP7 DUP3 DUP8 ADD PUSH2 0x1279 JUMP JUMPDEST SWAP3 POP POP PUSH1 0x40 PUSH2 0x139F DUP7 DUP3 DUP8 ADD PUSH2 0x12AC JUMP JUMPDEST SWAP2 POP POP SWAP3 POP SWAP3 POP SWAP3 JUMP JUMPDEST PUSH0 PUSH1 0xFF DUP3 AND SWAP1 POP SWAP2 SWAP1 POP JUMP JUMPDEST PUSH2 0x13BE DUP2 PUSH2 0x13A9 JUMP JUMPDEST DUP3 MSTORE POP POP JUMP JUMPDEST PUSH0 PUSH1 0x20 DUP3 ADD SWAP1 POP PUSH2 0x13D7 PUSH0 DUP4 ADD DUP5 PUSH2 0x13B5 JUMP JUMPDEST SWAP3 SWAP2 POP POP JUMP JUMPDEST PUSH0 PUSH1 0x20 DUP3 DUP5 SUB SLT ISZERO PUSH2 0x13F2 JUMPI PUSH2 0x13F1 PUSH2 0x122F JUMP JUMPDEST JUMPDEST PUSH0 PUSH2 0x13FF DUP5 DUP3 DUP6 ADD PUSH2 0x1279 JUMP JUMPDEST SWAP2 POP POP SWAP3 SWAP2 POP POP JUMP JUMPDEST PUSH0 PUSH1 0x20 DUP3 DUP5 SUB SLT ISZERO PUSH2 0x141D JUMPI PUSH2 0x141C PUSH2 0x122F JUMP JUMPDEST JUMPDEST PUSH0 PUSH2 0x142A DUP5 DUP3 DUP6 ADD PUSH2 0x12AC JUMP JUMPDEST SWAP2 POP POP SWAP3 SWAP2 POP POP JUMP JUMPDEST PUSH2 0x143C DUP2 PUSH2 0x1252 JUMP JUMPDEST DUP3 MSTORE POP POP JUMP JUMPDEST PUSH0 PUSH1 0x40 DUP3 ADD SWAP1 POP PUSH2 0x1455 PUSH0 DUP4 ADD DUP6 PUSH2 0x1433 JUMP JUMPDEST PUSH2 0x1462 PUSH1 0x20 DUP4 ADD DUP5 PUSH2 0x1331 JUMP JUMPDEST SWAP4 SWAP3 POP POP POP JUMP JUMPDEST PUSH0 PUSH1 0x20 DUP3 ADD SWAP1 POP PUSH2 0x147C PUSH0 DUP4 ADD DUP5 PUSH2 0x1433 JUMP JUMPDEST SWAP3 SWAP2 POP POP JUMP JUMPDEST PUSH0 PUSH0 PUSH1 0x40 DUP4 DUP6 SUB SLT ISZERO PUSH2 0x1498 JUMPI PUSH2 0x1497 PUSH2 0x122F JUMP JUMPDEST JUMPDEST PUSH0 PUSH2 0x14A5 DUP6 DUP3 DUP7 ADD PUSH2 0x1279 JUMP JUMPDEST SWAP3 POP POP PUSH1 0x20 PUSH2 0x14B6 DUP6 DUP3 DUP7 ADD PUSH2 0x1279 JUMP JUMPDEST SWAP2 POP POP SWAP3 POP SWAP3 SWAP1 POP JUMP JUMPDEST PUSH0 DUP2 MLOAD SWAP1 POP SWAP2 SWAP1 POP JUMP JUMPDEST PUSH0 DUP3 DUP3 MSTORE PUSH1 0x20 DUP3 ADD SWAP1 POP SWAP3 SWAP2 POP POP JUMP JUMPDEST PUSH0 DUP2 SWAP1 POP PUSH1 0x20 DUP3 ADD SWAP1 POP SWAP2 SWAP1 POP JUMP JUMPDEST PUSH2 0x14F2 DUP2 PUSH2 0x1252 JUMP JUMPDEST DUP3 MSTORE POP POP JUMP JUMPDEST PUSH2 0x1501 DUP2 PUSH2 0x128D JUMP JUMPDEST DUP3 MSTORE POP POP JUMP JUMPDEST PUSH1 0x40 DUP3 ADD PUSH0 DUP3 ADD MLOAD PUSH2 0x151B PUSH0 DUP6 ADD DUP3 PUSH2 0x14E9 JUMP JUMPDEST POP PUSH1 0x20 DUP3 ADD MLOAD PUSH2 0x152E PUSH1 0x20 DUP6 ADD DUP3 PUSH2 0x14F8 JUMP JUMPDEST POP POP POP POP JUMP JUMPDEST PUSH0 PUSH2 0x153F DUP4 DUP4 PUSH2 0x1507 JUMP JUMPDEST PUSH1 0x40 DUP4 ADD SWAP1 POP SWAP3 SWAP2 POP POP JUMP JUMPDEST PUSH0 PUSH1 0x20 DUP3 ADD SWAP1 POP SWAP2 SWAP1 POP JUMP JUMPDEST PUSH0 PUSH2 0x1561 DUP3 PUSH2 0x14C0 JUMP JUMPDEST PUSH2 0x156B DUP2 DUP6 PUSH2 0x14CA JUMP JUMPDEST SWAP4 POP PUSH2 0x1576 DUP4 PUSH2 0x14DA JUMP JUMPDEST DUP1 PUSH0 JUMPDEST DUP4 DUP2 LT ISZERO PUSH2 0x15A6 JUMPI DUP2 MLOAD PUSH2 0x158D DUP9 DUP3 PUSH2 0x1534 JUMP JUMPDEST SWAP8 POP PUSH2 0x1598 DUP4 PUSH2 0x154B JUMP JUMPDEST SWAP3 POP POP PUSH1 0x1 DUP2 ADD SWAP1 POP PUSH2 0x1579 JUMP JUMPDEST POP DUP6 SWAP4 POP POP POP POP SWAP3 SWAP2 POP POP JUMP JUMPDEST PUSH0 PUSH1 0x20 DUP3 ADD SWAP1 POP DUP2 DUP2 SUB PUSH0 DUP4 ADD MSTORE PUSH2 0x15CB DUP2 DUP5 PUSH2 0x1557 JUMP JUMPDEST SWAP1 POP SWAP3 SWAP2 POP POP JUMP JUMPDEST PUSH32 0x4E487B7100000000000000000000000000000000000000000000000000000000 PUSH0 MSTORE PUSH1 0x22 PUSH1 0x4 MSTORE PUSH1 0x24 PUSH0 REVERT JUMPDEST PUSH0 PUSH1 0x2 DUP3 DIV SWAP1 POP PUSH1 0x1 DUP3 AND DUP1 PUSH2 0x1617 JUMPI PUSH1 0x7F DUP3 AND SWAP2 POP JUMPDEST PUSH1 0x20 DUP3 LT DUP2 SUB PUSH2 0x162A JUMPI PUSH2 0x1629 PUSH2 0x15D3 JUMP JUMPDEST JUMPDEST POP SWAP2 SWAP1 POP JUMP JUMPDEST PUSH32 0x5465616D20746F6B656E7320617265206C6F636B656400000000000000000000 PUSH0 DUP3 ADD MSTORE POP JUMP JUMPDEST PUSH0 PUSH2 0x1664 PUSH1 0x16 DUP4 PUSH2 0x11A9 JUMP JUMPDEST SWAP2 POP PUSH2 0x166F DUP3 PUSH2 0x1630 JUMP JUMPDEST PUSH1 0x20 DUP3 ADD SWAP1 POP SWAP2 SWAP1 POP JUMP JUMPDEST PUSH0 PUSH1 0x20 DUP3 ADD SWAP1 POP DUP2 DUP2 SUB PUSH0 DUP4 ADD MSTORE PUSH2 0x1691 DUP2 PUSH2 0x1658 JUMP JUMPDEST SWAP1 POP SWAP2 SWAP1 POP JUMP JUMPDEST PUSH32 0x496E646578206F7574206F6620626F756E647300000000000000000000000000 PUSH0 DUP3 ADD MSTORE POP JUMP JUMPDEST PUSH0 PUSH2 0x16CC PUSH1 0x13 DUP4 PUSH2 0x11A9 JUMP JUMPDEST SWAP2 POP PUSH2 0x16D7 DUP3 PUSH2 0x1698 JUMP JUMPDEST PUSH1 0x20 DUP3 ADD SWAP1 POP SWAP2 SWAP1 POP JUMP JUMPDEST PUSH0 PUSH1 0x20 DUP3 ADD SWAP1 POP DUP2 DUP2 SUB PUSH0 DUP4 ADD MSTORE PUSH2 0x16F9 DUP2 PUSH2 0x16C0 JUMP JUMPDEST SWAP1 POP SWAP2 SWAP1 POP JUMP JUMPDEST PUSH32 0x4E487B7100000000000000000000000000000000000000000000000000000000 PUSH0 MSTORE PUSH1 0x32 PUSH1 0x4 MSTORE PUSH1 0x24 PUSH0 REVERT JUMPDEST PUSH2 0x1736 DUP2 PUSH2 0x1233 JUMP JUMPDEST DUP2 EQ PUSH2 0x1740 JUMPI PUSH0 PUSH0 REVERT JUMPDEST POP JUMP JUMPDEST PUSH0 DUP2 MLOAD SWAP1 POP PUSH2 0x1751 DUP2 PUSH2 0x172D JUMP JUMPDEST SWAP3 SWAP2 POP POP JUMP JUMPDEST PUSH0 DUP2 PUSH1 0x2 SIGNEXTEND SWAP1 POP SWAP2 SWAP1 POP JUMP JUMPDEST PUSH2 0x176C DUP2 PUSH2 0x1757 JUMP JUMPDEST DUP2 EQ PUSH2 0x1776 JUMPI PUSH0 PUSH0 REVERT JUMPDEST POP JUMP JUMPDEST PUSH0 DUP2 MLOAD SWAP1 POP PUSH2 0x1787 DUP2 PUSH2 0x1763 JUMP JUMPDEST SWAP3 SWAP2 POP POP JUMP JUMPDEST PUSH0 PUSH2 0xFFFF DUP3 AND SWAP1 POP SWAP2 SWAP1 POP JUMP JUMPDEST PUSH2 0x17A3 DUP2 PUSH2 0x178D JUMP JUMPDEST DUP2 EQ PUSH2 0x17AD JUMPI PUSH0 PUSH0 REVERT JUMPDEST POP JUMP JUMPDEST PUSH0 DUP2 MLOAD SWAP1 POP PUSH2 0x17BE DUP2 PUSH2 0x179A JUMP JUMPDEST SWAP3 SWAP2 POP POP JUMP JUMPDEST PUSH2 0x17CD DUP2 PUSH2 0x13A9 JUMP JUMPDEST DUP2 EQ PUSH2 0x17D7 JUMPI PUSH0 PUSH0 REVERT JUMPDEST POP JUMP JUMPDEST PUSH0 DUP2 MLOAD SWAP1 POP PUSH2 0x17E8 DUP2 PUSH2 0x17C4 JUMP JUMPDEST SWAP3 SWAP2 POP POP JUMP JUMPDEST PUSH2 0x17F7 DUP2 PUSH2 0x12FE JUMP JUMPDEST DUP2 EQ PUSH2 0x1801 JUMPI PUSH0 PUSH0 REVERT JUMPDEST POP JUMP JUMPDEST PUSH0 DUP2 MLOAD SWAP1 POP PUSH2 0x1812 DUP2 PUSH2 0x17EE JUMP JUMPDEST SWAP3 SWAP2 POP POP JUMP JUMPDEST PUSH0 PUSH0 PUSH0 PUSH0 PUSH0 PUSH0 PUSH0 PUSH1 0xE0 DUP9 DUP11 SUB SLT ISZERO PUSH2 0x1833 JUMPI PUSH2 0x1832 PUSH2 0x122F JUMP JUMPDEST JUMPDEST PUSH0 PUSH2 0x1840 DUP11 DUP3 DUP12 ADD PUSH2 0x1743 JUMP JUMPDEST SWAP8 POP POP PUSH1 0x20 PUSH2 0x1851 DUP11 DUP3 DUP12 ADD PUSH2 0x1779 JUMP JUMPDEST SWAP7 POP POP PUSH1 0x40 PUSH2 0x1862 DUP11 DUP3 DUP12 ADD PUSH2 0x17B0 JUMP JUMPDEST SWAP6 POP POP PUSH1 0x60 PUSH2 0x1873 DUP11 DUP3 DUP12 ADD PUSH2 0x17B0 JUMP JUMPDEST SWAP5 POP POP PUSH1 0x80 PUSH2 0x1884 DUP11 DUP3 DUP12 ADD PUSH2 0x17B0 JUMP JUMPDEST SWAP4 POP POP PUSH1 0xA0 PUSH2 0x1895 DUP11 DUP3 DUP12 ADD PUSH2 0x17DA JUMP JUMPDEST SWAP3 POP POP PUSH1 0xC0 PUSH2 0x18A6 DUP11 DUP3 DUP12 ADD PUSH2 0x1804 JUMP JUMPDEST SWAP2 POP POP SWAP3 SWAP6 SWAP9 SWAP2 SWAP5 SWAP8 POP SWAP3 SWAP6 POP JUMP JUMPDEST PUSH32 0x4E487B7100000000000000000000000000000000000000000000000000000000 PUSH0 MSTORE PUSH1 0x11 PUSH1 0x4 MSTORE PUSH1 0x24 PUSH0 REVERT JUMPDEST PUSH0 PUSH2 0x18EC DUP3 PUSH2 0x128D JUMP JUMPDEST SWAP2 POP PUSH2 0x18F7 DUP4 PUSH2 0x128D JUMP JUMPDEST SWAP3 POP DUP3 DUP3 MUL PUSH2 0x1905 DUP2 PUSH2 0x128D JUMP JUMPDEST SWAP2 POP DUP3 DUP3 DIV DUP5 EQ DUP4 ISZERO OR PUSH2 0x191C JUMPI PUSH2 0x191B PUSH2 0x18B5 JUMP JUMPDEST JUMPDEST POP SWAP3 SWAP2 POP POP JUMP JUMPDEST PUSH32 0x4E487B7100000000000000000000000000000000000000000000000000000000 PUSH0 MSTORE PUSH1 0x12 PUSH1 0x4 MSTORE PUSH1 0x24 PUSH0 REVERT JUMPDEST PUSH0 PUSH2 0x195A DUP3 PUSH2 0x128D JUMP JUMPDEST SWAP2 POP PUSH2 0x1965 DUP4 PUSH2 0x128D JUMP JUMPDEST SWAP3 POP DUP3 PUSH2 0x1975 JUMPI PUSH2 0x1974 PUSH2 0x1923 JUMP JUMPDEST JUMPDEST DUP3 DUP3 DIV SWAP1 POP SWAP3 SWAP2 POP POP JUMP JUMPDEST PUSH0 PUSH1 0x60 DUP3 ADD SWAP1 POP PUSH2 0x1993 PUSH0 DUP4 ADD DUP7 PUSH2 0x1433 JUMP JUMPDEST PUSH2 0x19A0 PUSH1 0x20 DUP4 ADD DUP6 PUSH2 0x1331 JUMP JUMPDEST PUSH2 0x19AD PUSH1 0x40 DUP4 ADD DUP5 PUSH2 0x1331 JUMP JUMPDEST SWAP5 SWAP4 POP POP POP POP JUMP JUMPDEST PUSH0 PUSH2 0x19BF DUP3 PUSH2 0x128D JUMP JUMPDEST SWAP2 POP PUSH2 0x19CA DUP4 PUSH2 0x128D JUMP JUMPDEST SWAP3 POP DUP3 DUP3 ADD SWAP1 POP DUP1 DUP3 GT ISZERO PUSH2 0x19E2 JUMPI PUSH2 0x19E1 PUSH2 0x18B5 JUMP JUMPDEST JUMPDEST SWAP3 SWAP2 POP POP JUMP INVALID LOG2 PUSH5 0x6970667358 0x22 SLT KECCAK256 DUP9 LOG0 STATICCALL 0xC4 PUSH16 0x416773B1C6079EE7FBC85DD2FF5EB19 0xB7 CALL SDIV 0xCB 0xC3 LOG4 0xAB 0x1E GASLIMIT MUL PUSH17 0x64736F6C634300081E0033000000000000 "
				},
				"gasEstimates": {
					"creation": {
						"codeDepositCost": "1337200",
						"executionCost": "infinite",
						"totalCost": "infinite"
					},
					"external": {
						"TEAM_LOCK_PERIOD()": "370",
						"TOTAL_SUPPLY()": "392",
						"allowance(address,address)": "infinite",
						"approve(address,uint256)": "infinite",
						"balanceOf(address)": "2895",
						"decimals()": "361",
						"getCurrentPrice()": "infinite",
						"getTeamMember(uint256)": "infinite",
						"getTeamMemberCount()": "2530",
						"getTeamMembers()": "infinite",
						"name()": "infinite",
						"owner()": "2560",
						"renounceOwnership()": "infinite",
						"symbol()": "infinite",
						"teamLockedUntil()": "2536",
						"totalSupply()": "2500",
						"transfer(address,uint256)": "infinite",
						"transferFrom(address,address,uint256)": "infinite",
						"transferOwnership(address)": "infinite",
						"uniswapPool()": "2530"
					}
				},
				"methodIdentifiers": {
					"TEAM_LOCK_PERIOD()": "35928998",
					"TOTAL_SUPPLY()": "902d55a5",
					"allowance(address,address)": "dd62ed3e",
					"approve(address,uint256)": "095ea7b3",
					"balanceOf(address)": "70a08231",
					"decimals()": "313ce567",
					"getCurrentPrice()": "eb91d37e",
					"getTeamMember(uint256)": "88e56ec6",
					"getTeamMemberCount()": "19ca43ab",
					"getTeamMembers()": "efded147",
					"name()": "06fdde03",
					"owner()": "8da5cb5b",
					"renounceOwnership()": "715018a6",
					"symbol()": "95d89b41",
					"teamLockedUntil()": "76ae9b2d",
					"totalSupply()": "18160ddd",
					"transfer(address,uint256)": "a9059cbb",
					"transferFrom(address,address,uint256)": "23b872dd",
					"transferOwnership(address)": "f2fde38b",
					"uniswapPool()": "bdd3d825"
				}
			},
			"storageLayout": {
				"storage": [
					{
						"astId": 825,
						"contract": "contracts/CC/CCToken.sol:CSYDToken",
						"label": "_balances",
						"offset": 0,
						"slot": "0",
						"type": "t_mapping(t_address,t_uint256)"
					},
					{
						"astId": 831,
						"contract": "contracts/CC/CCToken.sol:CSYDToken",
						"label": "_allowances",
						"offset": 0,
						"slot": "1",
						"type": "t_mapping(t_address,t_mapping(t_address,t_uint256))"
					},
					{
						"astId": 833,
						"contract": "contracts/CC/CCToken.sol:CSYDToken",
						"label": "_totalSupply",
						"offset": 0,
						"slot": "2",
						"type": "t_uint256"
					},
					{
						"astId": 835,
						"contract": "contracts/CC/CCToken.sol:CSYDToken",
						"label": "_name",
						"offset": 0,
						"slot": "3",
						"type": "t_string_storage"
					},
					{
						"astId": 837,
						"contract": "contracts/CC/CCToken.sol:CSYDToken",
						"label": "_symbol",
						"offset": 0,
						"slot": "4",
						"type": "t_string_storage"
					},
					{
						"astId": 526,
						"contract": "contracts/CC/CCToken.sol:CSYDToken",
						"label": "_owner",
						"offset": 0,
						"slot": "5",
						"type": "t_address"
					},
					{
						"astId": 217,
						"contract": "contracts/CC/CCToken.sol:CSYDToken",
						"label": "teamMembers",
						"offset": 0,
						"slot": "6",
						"type": "t_array(t_struct(TeamMember)213_storage)dyn_storage"
					},
					{
						"astId": 219,
						"contract": "contracts/CC/CCToken.sol:CSYDToken",
						"label": "teamLockedUntil",
						"offset": 0,
						"slot": "7",
						"type": "t_uint256"
					},
					{
						"astId": 221,
						"contract": "contracts/CC/CCToken.sol:CSYDToken",
						"label": "uniswapPool",
						"offset": 0,
						"slot": "8",
						"type": "t_address"
					}
				],
				"types": {
					"t_address": {
						"encoding": "inplace",
						"label": "address",
						"numberOfBytes": "20"
					},
					"t_array(t_struct(TeamMember)213_storage)dyn_storage": {
						"base": "t_struct(TeamMember)213_storage",
						"encoding": "dynamic_array",
						"label": "struct CSYDToken.TeamMember[]",
						"numberOfBytes": "32"
					},
					"t_mapping(t_address,t_mapping(t_address,t_uint256))": {
						"encoding": "mapping",
						"key": "t_address",
						"label": "mapping(address => mapping(address => uint256))",
						"numberOfBytes": "32",
						"value": "t_mapping(t_address,t_uint256)"
					},
					"t_mapping(t_address,t_uint256)": {
						"encoding": "mapping",
						"key": "t_address",
						"label": "mapping(address => uint256)",
						"numberOfBytes": "32",
						"value": "t_uint256"
					},
					"t_string_storage": {
						"encoding": "bytes",
						"label": "string",
						"numberOfBytes": "32"
					},
					"t_struct(TeamMember)213_storage": {
						"encoding": "inplace",
						"label": "struct CSYDToken.TeamMember",
						"members": [
							{
								"astId": 210,
								"contract": "contracts/CC/CCToken.sol:CSYDToken",
								"label": "memberAddress",
								"offset": 0,
								"slot": "0",
								"type": "t_address"
							},
							{
								"astId": 212,
								"contract": "contracts/CC/CCToken.sol:CSYDToken",
								"label": "investmentAmount",
								"offset": 0,
								"slot": "1",
								"type": "t_uint256"
							}
						],
						"numberOfBytes": "64"
					},
					"t_uint256": {
						"encoding": "inplace",
						"label": "uint256",
						"numberOfBytes": "32"
					}
				}
			},
			"userdoc": {
				"kind": "user",
				"methods": {},
				"version": 1
			}
		}
	}
}